:100000000C94E3020C940B030C940B030C940B0361
:100010000C940B030C940B030C94B30D0C940B0376
:100020000C940B030C940B030C940B030C940B0318
:100030000C940B030C940B030C940B030C940B0308
:100040000C94690D0C940B030C947F0C0C94590CBC
:100050000C940B030C940B030C940B030C940B03E8
:100060000C940B030C940B03640369036C036F0380
:10007000720375038F0331043A043D0440044304C2
:1000800048044B044E414E494E495459494E46CDC1
:10009000CCCC3D0AD7233C17B7D13877CC2B32953F
:1000A00095E6241FB14F0A000020410000C842001D
:1000B000401C4620BCBE4CCA1B0E5AAEC59D7400E7
:1000C000407A10F35A00A0724E18090010A5D4E827
:1000D0000000E87648170000E40B54020000CA9ABA
:1000E0003B000000E1F5050000809698000000400C
:1000F000420F000000A08601000000102700000051
:1001000000E803000000006400000000000A000096
:100110000000000100000000002C76D888DC674F4A
:100120000823DFC1DFAE59E1B1B796E5E3E453C67A
:100130003AE651997696E8E6C28426EB898C9B6272
:10014000ED407C6FFCEFBC9C9F40F2BAA56FA5F41C
:1001500090055A2AF75C936B6CF9676DC11BFCE044
:10016000E40D47FEF520E6B500D0ED902E03009497
:100170003577050080841E080000204E0A0000002C
:10018000C80C333333330F986E12831141EF8D2136
:1001900014893BE65516CFFEE6DB18D1844B381B9D
:1001A000F77C1D901DA4BBE424203284725E228162
:1001B00000C9F124ECA1E53D2753583132373620F0
:1001C0004C462F48462063616C6962726174696FA6
:1001D0006E00556E7265636F676E697A6564207430
:1001E00072616E7363656976657200535831323798
:1001F000362064657465637465642C207374617261
:1002000074696E6700535831323732206465746503
:10021000637465642C207374617274696E67005333
:100220006574696E67204849474820646967697446
:10023000616C2047505320706F7765722070696E33
:100240003A20005358313237322073756363657337
:100250007366756C6C7920636F6E6669677572651D
:10026000640A0053657474696E67206E6F6465205C
:10027000616464723A20737461746520005365741C
:1002800074696E6720506F7765723A207374617479
:1002900065200053657474696E67204368616E6EF3
:1002A000656C3A20737461746520005365747469D9
:1002B0006E67204D6F64653A207374617465200029
:1002C0005573696E67207061636B65742073657127
:1002D00075656E6365206E756D626572206F662050
:1002E00000476574206261636B2070726576696F88
:1002F00075732073783132373220636F6E666967A9
:100300000A0041546D65676133323850206465746A
:1003100065637465640A0053696D706C65204C6F89
:100320005261204750532073656E736F720A002D1F
:100330002D3E2052535349206572726F720A002D70
:100340002D3E205253534920002D2D3E20726574BE
:1003500072790A0020444946533D33534946533D80
:1003600020002D2D3E207761697420666F72200079
:1003700023310A002332004F4B32002D2D3E204303
:100380004144200020434144203D20002D2D3E20AB
:100390007761697420666F7220004F4B310A002D1F
:1003A0002D3E2043414420002D2D3E204353310A51
:1003B000002323206E6F7420656E6F75676820546C
:1003C0006F412061742000436F756C64206E6F7400
:1003D00020737769746368204C6F5261206D6F647D
:1003E000756C6520696E20736C656570206D6F6437
:1003F000650A005375636365737366756C6C792069
:10040000737769746368204C6F5261206D6F6475F7
:100410006C6520696E20736C656570206D6F646516
:100420000A0053776974636820746F20706F776572
:100430007220736176696E67206D6F64650A005281
:10044000656D61696E696E6720546F412069732024
:10045000005061636B65742073656E742C20737437
:1004600061746520004C6F52612053656E74207773
:100470002F43414420696E20004C6F526120536528
:100480006E7420696E20004C6F526120706B742076
:1004900073657120004C6F526120706B742073691A
:1004A0007A6520005265616C207061796C6F6164BF
:1004B0002073697A65206973200053656E64696EE4
:1004C0006720004C6F6E67697475646520697320DE
:1004D000004C617469747564652069732000466915
:1004E0007820697320004E6F206669782C2074692B
:1004F0006D656F757420657870697265642100534D
:100500006574696E67204849474820646967697463
:10051000616C2047505320706F7765722070696E50
:100520003A20002072656D61696E696E6720546FB4
:10053000412069732000206379636C6520656E64D7
:100540007320617420006379636C6520626567695C
:100550006E7320617420002323206E6577206379F9
:10056000636C6520666F7220546F41202323000066
:10057000000000250028002B0000000000240027B8
:10058000002A000404040404040404020202020217
:100590000203030303030301020408102040800147
:1005A00002040810200102040810202E2E2E000044
:1005B0000000080002010000030407000000000022
:1005C00000000000371811241FBECFEFD8E0DEBFB7
:1005D000CDBF11E0A0E0B1E0ECE2FBE402C0059089
:1005E0000D92AA37B107D9F724E0AAE7B1E001C01C
:1005F0001D92A231B207E1F712E0C3EED2E004C0CF
:100600002197FE010E94CB20C23ED107C9F70E946C
:100610001D0E0C9494250C94000080912C028823CC
:1006200029F18DE10E94E2089091F101682F91116A
:1006300002C0646001C061608DE10E94C7088DE165
:100640000E94E2089091F101992311F020E001C08D
:1006500022E090E002C0959587952A95E2F780FF09
:1006600007C081E08093230280E008958FEF089512
:1006700081E00895BF92CF92DF92EF92FF920F93A5
:100680001F93CF93DF93D82F81E00E94E208182FA9
:1006900080912C02811104C00E94D309C82F0DC182
:1006A00061E881E00E94C7088EE10E94E208C82F3D
:1006B000CD2ED12CF6013697E730F10508F04CC06D
:1006C000EC5CFF4F0C94CB20CF76C0660E940D03EC
:1006D00045C0CF77C0674EC0CF78C0684BC0CF79D8
:1006E000C06948C0CF7AC06A45C0CF7BC06B8091DB
:1006F0002C028823B1F08091F101811108C08DE1B5
:100700000E94E208829586958695837005C08DE1EA
:100710000E94E20882958F708093120202C0CF7C03
:10072000C06C80911202873029F58091F10181110E
:100730000AC08DE10E94E208082F0160602F8DE160
:100740000E94C70818C086E20E94E208682F68600D
:1007500086E20E94C7080EC0D63061F40E940D03E5
:1007600065E081E30E94C7086CE087E30E94C70848
:1007700000E037C000E080912C02882351F18DE128
:100780000E94E20890911402963059F09091F10184
:10079000682F911102C06B7F01C06E7F8DE10E94B6
:1007A000C7088091F101882311F0B12C02C042E00A
:1007B000B42E80911402863061F08DE10E94E2082F
:1007C00090E002C095958795BA94E2F780FF109269
:1007D000230263E081E30E94C7086AE087E30E9486
:1007E000C7088091F101811104C0C460602F8DE1C0
:1007F00006C086E20E94E208682F646086E20E94DA
:10080000C7086C2F8EE10E94C70864E670E080E0A4
:1008100090E00E94230D8091F10181110AC08DE1C9
:100820000E94E208082F8EE10E94E208C82F20E013
:1008300009C086E20E94E208C82F8EE10E94E20809
:100840000C2F23E0F6013697E730F10598F5E55CCB
:10085000FF4F90E034E0959587953A95E1F70C9439
:10086000CB20069749F5C2FF27C080912302813033
:1008700019F51EC0079701F508C00897E9F405C0EF
:100880000997D1F402C00A97B9F4C2FF15C010C08D
:100890000B9791F402C00C9779F4C2FF0DC0802F22
:1008A00090E002C0959587952A95E2F780FF04C0F5
:1008B000C0E003C0C1E001C0C2E0612F81E00E943E
:1008C000C70864E670E080E090E00E94230D8AEFA4
:1008D0008D0F873018F4D0931402C0E08C2FDF9175
:1008E000CF911F910F91FF90EF90DF90CF90BF902D
:1008F0000895CF93DF9381E00E94E208D82F809182
:100900002C02811104C00E94D309C82F01C0C2E08B
:1009100061E881E00E94C7088DE10E94E2089091A1
:10092000F101682F911103C06F7C686002C0617F84
:1009300062608DE10E94C70864E670E080E090E0AC
:100940000E94230D8DE10E94E2089091F101913007
:1009500011F421E001C023E090E002C09595879555
:100960002A95E2F787709927019709F4C0E081E0A2
:10097000809313026D2F0E94C70864E670E080E048
:1009800090E00E94230D8C2FDF91CF91089590E08D
:10099000FC01E956FA4F2491FC01ED57FA4F84917E
:1009A000882399F090E0880F991FFC01E758FA4FCF
:1009B000A591B491FC01E159FA4F859194918FB7BB
:1009C000F894EC91E22BEC938FBF08950F931F9353
:1009D00080914603882309F46DC00E945D0D00914B
:1009E0004F03109150032091510330915203061789
:1009F00017072807390708F054C000934B031093DA
:100A00004C0320934D0330934E0340EA5CE860E0D2
:100A100070E04093470350934803609349037093F9
:100A20004A03D901C80180589141A94CBF4F809316
:100A30004F0390935003A0935103B093520387E563
:100A400095E00E94C70986E495E00E94AC08609199
:100A50004B0370914C0380914D0390914E034AE0FB
:100A60000E94390886E395E00E94AC0860914F032C
:100A70007091500380915103909152034AE00E947B
:100A8000390883E295E00E94AC08609147037091B9
:100A900048038091490390914A030E947A080E947A
:100AA0002908609147037091480380914903909110
:100AB0004A0304C060EA7CE880E090E01F910F9157
:100AC0000895CF9381E00E94E208C82F80912C0204
:100AD000813031F461E80E94C7086FEF82E10AC0FB
:100AE00061E081E00E94C7086FEF8EE30E94C708B3
:100AF0006FEF8FE30E94C7086C2F81E0CF910C94B9
:100B0000C708CF93DF93C82F81E00E94E208D82F57
:100B1000C093310280912C02813051F461E80E942F
:100B2000C7086091310282E20E94C70882E20AC0CF
:100B300061E081E00E94C7086091310282E30E9477
:100B4000C70882E30E94E208C1E090913102981345
:100B500001C0C0E06D2F81E00E94C7086AEF70E01D
:100B600080E090E00E94230D8C2FDF91CF910895BB
:100B70002F923F924F925F926F927F928F929F92AD
:100B8000AF92BF92CF92DF92EF92FF920F931F939B
:100B9000CF93DF93CDB7DEB760970FB6F894DEBF83
:100BA0000FBECDBF8F8780911202873051F0883001
:100BB00081F0812C24E2922E24EFA22E28E4B22E82
:100BC0000FC0812C94E2992E94EFA92E97E4B92EB0
:100BD00007C0812C84E2982E84E7A82E88E4B82EE2
:100BE00020911402298381E00E94E208182F0E94BC
:100BF0005D0D80912C02813009F048C061E80E94AF
:100C0000C70881E090E0098002C0880F991F0A940C
:100C1000E2F71A821982212C312C33E0388B9C01A7
:100C2000990F440B550B2B873C874D875E870E949D
:100C300061050E945D0D0E945D0D9B01AC012C5968
:100C40003F4F4F4F5F4F2B833C834D835E8367E85D
:100C500081E00E94C7080E94FE0C6F837887898715
:100C60009A8782E10E94E20800E0382F3470F32E68
:100C700082FD7AC00E945D0D2B813C814D815E8199
:100C8000621773078407950798F06EC01F8292E081
:100C90009B83612F81E00E94C7080E945D0D0E9426
:100CA00061052F81211102C08B818FC082E08DC030
:100CB0000E94FE0C6B017C016B857C858D859E8579
:100CC0000E945E1D9B01AC01C501B4010E94B21FD0
:100CD0009B01AC0160E070E080E89FE30E94B21FDE
:100CE0002B013C01C701B6012F81388549855A8502
:100CF000621B730B840B950B0E945C1D6B017C01C6
:100D000020E034E244E759E4C301B2010E94BD1D72
:100D100020E030E040E753E40E942F1F9B01AC012C
:100D2000C701B6010E94B2201816D4F4011118C0F0
:100D30008091F101813009F446C005E78BE10E9402
:100D4000E208800F80931B0249815A81480F511D90
:100D500087FD5A955A8349835FEF251A350A01E0CA
:100D600082E10E94E20881CF0E945D0DFF2061F0C8
:100D700082E10E94E20881709F8591509F879111C6
:100D80000DC08F831B8217C028892150288B211109
:100D90000CC041E04B8351E05F830DC0882309F410
:100DA00046CF1B8231E03F8306C03F8531113FCFE4
:100DB00081E08B831F8289819A81B1010E94B720D3
:100DC00060931B0266CF03E6B9CF60960FB6F89426
:100DD000DEBF0FBECDBFDF91CF911F910F91FF906E
:100DE000EF90DF90CF90BF90AF909F908F907F90CB
:100DF0006F905F904F903F902F900895EF92FF92E9
:100E00000F931F93CF93DF9380912C028130E1F4F5
:100E100035E0E32EF12C00E010E08091F10181300B
:100E200011F0C5E701C0C3E68BE10E94E2088C0F18
:100E300080931B02080F111D87FD1A9581E0E81AA7
:100E4000F10859F7C80112C005E010E0C0E0D0E099
:100E500081E10E94E20890E09595879580931B02BE
:100E6000C80FD91F0150110999F7CE0165E070E054
:100E70000E94B72060931B0280E0DF91CF911F9109
:100E80000F91FF90EF900895CF92DF92EF92FF9233
:100E90000F931F93CF93DF93CDB7DEB7A1970FB614
:100EA000F894DEBF0FBECDBF7C01CB01BA01F701C4
:100EB0001182108213821282158214828E010F5FBA
:100EC0001F4F25E047E00E94F0186C01F701808178
:100ED0009181C114D10429F1F60101900020E9F7B4
:100EE00031978F010C191D09009731F0F70122810C
:100EF00033812017310708F5B8016F5F7F4F0E94DB
:100F00000622F701009759F09183808313830283AF
:100F100024813581232B89F4FC0110820EC080814D
:100F20009181009711F00E947D21F70111821082BA
:100F3000158214821382128208C0F701158304837C
:100F4000B601808191810E94DA22A1960FB6F894B1
:100F5000DEBF0FBECDBFDF91CF911F910F91FF90EC
:100F6000EF90DF90CF900895CF92DF92EF92FF92B3
:100F7000CF93DF93EC016A017B01E889F98982E074
:100F800080834115514E61057105B1F060E079E053
:100F90008DE390E0A70196010E94FD1EDA01C901D0
:100FA0000197A109B109B695A795979587959C01D9
:100FB000211580E13807A8F0E889F989108260E8F6
:100FC00074E88EE190E0A70196010E94FD1EDA010F
:100FD000C9010197A109B109B695A795979587957C
:100FE0009C01EC85FD853083EE85FF852083188E7E
:100FF000EC89FD8986E08083EA89FB8980818061B4
:101000008083EA89FB89808188608083EA89FB8903
:10101000808180688083EA89FB8980818F7D8083DD
:10102000DF91CF91FF90EF90DF90CF9008950097E0
:1010300069F0FC0101900020E9F73197AF01481BEE
:10104000590BBC0187E593E00C94470B80E090E0DE
:10105000089586E791E00C941708CF93DF930E94E0
:101060001708EC010E9429088C0F9D1FDF91CF917A
:1010700008958F929F92AF92BF920F931F93CF9339
:10108000DF93CDB7DEB7A1970FB6F894DEBF0FBEE2
:10109000CDBF19A2423008F44AE08E010F5D1F4F08
:1010A000842E912CA12CB12CA50194010E94FD1E2F
:1010B000E62FB901CA0101501109EA3014F4E05DCC
:1010C00001C0E95CD801EC93232B242B252B61F77D
:1010D000C8010E941708A1960FB6F894DEBF0FBE94
:1010E000CDBFDF91CF911F910F91BF90AF909F9097
:1010F0008F900895CF92DF92EF92FF92CF93DF937C
:1011000097FF1BC06B017C016DE287E593E00E94B5
:10111000DA0BEC0166277727CB016C197D098E0964
:101120009F094AE00E9439088C0F9D1FDF91CF91E3
:10113000FF90EF90DF90CF9008954AE0DF91CF913C
:10114000FF90EF90DF90CF900C943908BC01990F7D
:10115000880B990B0C947A080F931F93CF93DF930E
:101160008C01C0E0D0E0F801EC0FFD1F6491662314
:1011700041F087E593E00E94DA0B892B11F021966C
:10118000F2CFCE01DF91CF911F910F9108950F9370
:101190001F93CF93DF93082F162FC1EFD1E060E0AC
:1011A0008B810E94B10C802F80680E94160E812FC7
:1011B0000E94160E61E08B81DF91CF911F910F91FC
:1011C0000C94B10C1F93CF93DF93182FC1EFD1E094
:1011D00060E08B810E94B10C812F8F770E94160EE8
:1011E00080E00E94160E182F61E08B810E94B10CE6
:1011F000812FDF91CF911F91089580912C02882338
:10120000A1F08EE10E94E20890E024E09595879598
:101210002A95E1F7809314028650873010F090E011
:1012200001C091E081E0892708958FEF0895CF9361
:10123000DF938C31D0F4C82FC06281E00E94E208B5
:10124000D82F80912C02813011F461E802C061E056
:1012500081E00E94C7086C2F8BE00E94C7086D2FA9
:1012600081E00E94C70880E001C08FEFDF91CF913D
:1012700008958F929F92AF92BF92CF92DF92EF929A
:10128000FF92CF93DF934B015C010E945D0D609351
:10129000F5017093F6018093F7019093F80181E0D6
:1012A0000E94E208D82F80912C02813011F461E86D
:1012B00002C061E081E00E94C708B5018827992734
:1012C00086E00E94C70899278B2D7A2D692D87E02B
:1012D0000E94C708682D88E00E94C7080E945D0D23
:1012E0006093F9017093FA018093FB019093FC01E4
:1012F00064E670E080E090E00E94230D86E00E94AA
:10130000E208C82E87E00E94E208C82FD12CDC2C0E
:10131000CC24E12CF12CFE2CED2CDC2CCC2488E010
:101320000E94E2082C2F30E0322F222790E0A0E02C
:10133000B0E0820F931FA11DB11DC80ED91EEA1E79
:10134000FB1E8C149D04AE04BF0451F48092150260
:1013500090921602A0921702B0921802C0E001C04B
:10136000C1E06D2F81E00E94C70864E670E080E074
:1013700090E00E94230D8C2FDF91CF91FF90EF9092
:10138000DF90CF90BF90AF909F908F900895CF93B4
:10139000DF930E94AC08EC010E9429088C0F9D1F6E
:1013A000DF91CF910895CF93DF93C0E068EC70E0B8
:1013B00080E090E00E94230D60E081E00E94C70879
:1013C00060E881E00E94C70861E881E00E94C708E8
:1013D0008AE0C89FB00111246E5C7F4F072E000C7D
:1013E000880B990B0E94230D81E00E94E208D82F00
:1013F0008BEA95E00E94C709C0FD05C0C43111F019
:10140000CF5F01C0C0E0D13889F681E080932C0223
:1014100080E0DF91CF910895CF93DF93C82F81E0D3
:101420000E94E208D82F80912C02811102C00E94F4
:10143000D30961E881E00E94C7086C2F89E30E940C
:10144000C70864E670E080E090E00E94230D89E325
:101450000E94E208C81304C0C093F201C0E001C0BA
:10146000C1E06D2F81E00E94C70864E670E080E073
:1014700090E00E94230D8C2FDF91CF910895FF9271
:101480000F931F93CF93DF932091F101211107C098
:101490009C01275031092330310520F405C08A30E2
:1014A000910510F081E0EDC0EC0181E00E94E208BE
:1014B000F82E80912C028111D3C00E94D309182FDD
:1014C00061E881E00E94C7088DE10E94E208082FD0
:1014D0008091F10181111DC0C830D10589F0C9305A
:1014E000D10599F0C730D10591F50F730E94FD0821
:1014F000809114028B3011F08C3049F5016027C0C7
:10150000802F8F77082F006422C0802F8F7B082FB9
:101510001BC00F70C830D105B9F0C930D105B1F08A
:10152000C730D105A1F400670E94FD088091140224
:101530008B50823060F486E20E94E208682F686077
:1015400086E20E94C70803C0006801C00069602FDE
:101550008DE10E94C70864E670E080E090E00E94A0
:10156000230D8DE10E94E2089091F101911135C0A7
:10157000C830D105D9F0C930D10521F1C730D10526
:1015800009F060C0282F30E076E0359527957A95F0
:10159000E1F7232B09F056C0909114029B3009F01B
:1015A00061C0282F2095122F11704CC0282F30E0D9
:1015B00066E0359527956A95E1F72130310509F008
:1015C00041C059C0282F30E056E0359527955A95EF
:1015D000E1F722303105B1F54EC0C830D105E9F050
:1015E000C930D10529F1C730D10561F5282F30E088
:1015F00044E0359527954A95E1F72730310511F5F7
:1016000086E20E94E208909114029B3081F583FBF0
:10161000882780F911E0182715C0282F30E094E0C2
:10162000359527959A95E1F72830310559F423C06F
:10163000282F30E084E0359527958A95E1F7293009
:101640003105C9F01123B9F06F2D81E00E94C70860
:1016500064E670E080E090E00E94230D812F11C0CD
:1016600012E02ECF9C3039F480FD05C008C09C30BC
:1016700011F483FF04C0C093120210E0E5CF11E023
:10168000E3CFDF91CF911F910F91FF900895CF92FB
:10169000DF92EF92FF920F931F93CF93DF936C0132
:1016A0007A018B01C0E0D0E0CE15DF0581F0D801D2
:1016B0006D918D01D601ED91FC910190F081E02DAD
:1016C000C6010995892B11F02196EECF7E01C70145
:1016D000DF91CF911F910F91FF90EF90DF90CF900E
:1016E0000895FC01538D448D252F30E0842F90E028
:1016F000821B930B541710F0CF960895019708950D
:10170000FC01918D828D981761F0828DDF01A80F09
:10171000B11D5D968C91928D9F5F9F73928F90E02B
:1017200008958FEF9FEF0895FC01918D828D98179A
:1017300031F0828DE80FF11D858D90E008958FEFD7
:101740009FEF0895FC01918D228D892F90E0805CA0
:101750009F4F821B91098F739927089587E593E026
:101760000E94A20B21E0892B09F420E0822F08952A
:10177000FC01848DDF01A80FB11DA35ABF4F2C912E
:10178000848D90E001968F739927848FA689B789FD
:101790002C93A089B1898C91837080648C93938DF4
:1017A000848D981306C00288F389E02D80818F7D97
:1017B00080830895EF92FF920F931F93CF93DF934F
:1017C000EC0181E0888F9B8D8C8D981305C0E88992
:1017D000F989808185FD26C0F62E0B8D10E00F5F04
:1017E0001F4F0F731127E02E8C8DE8120CC00FB61F
:1017F00007FCFACFE889F989808185FFF5CFCE0112
:101800000E94B80BF1CF8B8DFE01E80FF11DE35A5A
:10181000FF4FF0829FB7F8940B8FEA89FB89808194
:1018200080620AC09FB7F894EE89FF896083E889D7
:10183000F98980818370806480839FBF81E090E01C
:10184000DF91CF911F910F91FF90EF900895CF936B
:10185000DF93EC01888D8823C9F0EA89FB898081B8
:1018600085FD05C0A889B9898C9186FD0FC00FB68A
:1018700007FCF5CF808185FFF2CFA889B9898C91CB
:1018800085FFEDCFCE010E94B80BE7CFDF91CF915E
:10189000089580E090E0892B29F00E94AE0B811121
:1018A0000C9400000895089580E090E008950E944F
:1018B000CC221F920F920FB60F9211242F933F93B9
:1018C0004F935F936F937F938F939F93AF93BF9348
:1018D000EF93FF9387E593E00E94B80BFF91EF91A0
:1018E000BF91AF919F918F917F916F915F914F9138
:1018F0003F912F910F900FBE0F901F9018951F9240
:101900000F920FB60F9211242F938F939F93EF9303
:10191000FF93E0916703F09168038081E0916D038C
:10192000F0916E0382FD12C09081809170038F5FF1
:101930008F7320917103821751F0E0917003F0E0F2
:10194000E95AFC4F958F8093700301C08081FF910D
:10195000EF919F918F912F910F900FBE0F901F903D
:10196000189590E0FC01E155FA4F2491FC01E956ED
:10197000FA4F3491FC01ED57FA4FE491EE2309F44C
:101980003CC0222339F1233091F038F42130A9F002
:10199000223001F584B58F7D12C0273091F02830B8
:1019A000A1F02430B9F4809180008F7D03C0809134
:1019B00080008F77809380000DC084B58F7784BDC1
:1019C00009C08091B0008F7703C08091B0008F7DF7
:1019D0008093B000F0E0EE0FFF1FE159FA4FA591A0
:1019E000B4919FB7F894611104C08C91309538235D
:1019F00002C0EC913E2B3C939FBF08953FB7F894F3
:101A00008091080490910904A0910A04B0910B04FC
:101A100026B5A89B05C02F3F19F00196A11DB11D49
:101A20003FBFBA2FA92F982F8827820F911DA11D84
:101A3000B11DBC01CD0142E0660F771F881F991FC1
:101A40004A95D1F708958F929F92AF92BF92CF920D
:101A5000DF92EF92FF926B017C010E94FE0C4B0122
:101A60005C01C114D104E104F104F1F00E94FE0C08
:101A7000DC01CB0188199909AA09BB09883E93406A
:101A8000A105B10570F321E0C21AD108E108F108FF
:101A900088EE880E83E0981EA11CB11CC114D104ED
:101AA000E104F10419F7DDCFFF90EF90DF90CF90C4
:101AB000BF90AF909F908F9008952FB7F89460914A
:101AC00004047091050480910604909107042FBFCF
:101AD00008951F920F920FB60F9211242F933F93E8
:101AE0008F939F93AF93BF938091040490910504CB
:101AF000A0910604B09107043091030423E0230F62
:101B00002D3720F40196A11DB11D05C026E8230F35
:101B10000296A11DB11D20930304809304049093A9
:101B20000504A0930604B0930704809108049091E3
:101B30000904A0910A04B0910B040196A11DB11DE6
:101B40008093080490930904A0930A04B0930B04B3
:101B5000BF91AF919F918F913F912F910F900FBEA9
:101B60000F901F9018951F920F920FB60F9211248D
:101B70008F930FB6F894A895809160008861809348
:101B80006000109260000FBE8F910F900FBE0F90FB
:101B90001F9018954115510529F4EAE7F0E080817E
:101BA0008F7780836A307105A9F063FD02C088E0F9
:101BB00001C088E26770682B88E10FB6F894A89599
:101BC000809360000FBE60936000E0E6F0E08081EB
:101BD00080648083232BA1F483B7817F846083BFDB
:101BE000F89483B7816083BF85B7806685BF8F7D9A
:101BF00085BF7894889583B78E7F83BF78940EC015
:101C000083B7817F846083BFF89483B7816083BF8B
:101C10007894889583B78E7F83BF7894452B29F479
:101C2000EAE7F0E080818068808308958EBD00003F
:101C30000DB407FEFDCF8EB50895CF93DF93CDB7DA
:101C4000DEB7CE54D1090FB6F894DEBF0FBECDBFBC
:101C5000789484B5826084BD84B5816084BD85B587
:101C6000826085BD85B5816085BD80916E00816093
:101C700080936E0010928100809181008260809339
:101C8000810080918100816080938100809180003B
:101C90008160809380008091B10084608093B10066
:101CA0008091B00081608093B00080917A00846060
:101CB00080937A0080917A00826080937A0080918C
:101CC0007A00816080937A0080917A0080688093A6
:101CD0007A001092C10068EB7BE080E090E00E9407
:101CE000230D40E056E960E070E087E593E00E9454
:101CF000B40780E00E94C70440E855E260E070E06D
:101D000080910104909102040E94B40787E193E05E
:101D10000E94AC0882E093E00E94AC088091F4013C
:101D20000E94C70461E08091F4010E94B10C64E656
:101D300070E080E090E00E94230D1FB7F89480913E
:101D40007A01811124C0EDE8F5E08491E1EAF5E043
:101D50009491E82FF0E0EE0FFF1FE758FA4FA5919E
:101D6000B491EC91E92321F461E08AE00E94B10C86
:101D70008AE00E94C7048CB580618CBD8CB58064FC
:101D80008CBD8DE00E94C7048BE00E94C704809147
:101D90007A018F5F80937A011FBF8CB58F7D8CBDD8
:101DA0008CB58C7F81608CBD8DB581608DBD8CB50F
:101DB000837F8CBD64E670E080E090E00E94230D9C
:101DC00082E40E94E208823239F485E092E00E94C7
:101DD000C7091092F10111C082E40E94E208823129
:101DE00041F48BEE91E00E94C70981E08093F101FC
:101DF00004C082ED91E00E94C7098091F101813019
:101E000059F08BE10E9417090E94D30980912C029E
:101E1000813009F050C029C089EB91E00E94C709C8
:101E200060E089E00E94C7088BE30E94E208682F07
:101E300060648BE30E94C7088BE30E94E20885FD83
:101E4000FBCF60E070E089ED90E00E9439098BE300
:101E50000E94E208682F60648BE30E94C7088BE34E
:101E60000E94E20885FDFBCFCCCF8091F101882351
:101E700019F002E01EE102C001E01DE1812F0E9485
:101E8000E2089091F101682F911102C0626001C0D7
:101E90006460812F0E94C708812F0E94E20890E0B1
:101EA00002C0959587950A95E2F780FF11C081E001
:101EB000809325020DC080E30E94E208682F6061D4
:101EC00080E30E94C70880E30E94E20884FDEFCF10
:101ED00080912C02813049F480E20E94E208109245
:101EE0001E0280931F0281E208C085E20E94E20880
:101EF00010921E0280931F0286E20E94E208209147
:101F00001E0230911F02280F311D30931F022093B3
:101F10001E028091F3010E940C0A80912C028823FA
:101F200029F089E30E94E2088093F2018091F20196
:101F30008093F3010E945D0D611571058105910586
:101F400011F00E94A91980E090E00E947E1E082FE7
:101F500080937C0181E090E00E947E1E182F809388
:101F60007D0182E090E00E947E1E80937E0102311E
:101F7000D9F41433C9F481EE92E00E94AC08809148
:101F80007E018093270280EC92E00E94AC08609171
:101F9000270270E080E090E04AE00E94390888E77C
:101FA00091E00E942D080AC082E180937C0184E3C5
:101FB00080937D018091270280937E0181E00E94C1
:101FC000E208082F80912C02811102C00E94D309DF
:101FD00061E881E00E94C7080E9479048CE00E94B9
:101FE0003A0387E090E00E943F0A8DE10E94E208F8
:101FF0002091F10190E0211108C033E0959587957B
:102000003A95E1F7019731F493C495958795C9976F
:1020100009F48EC411E08091F3010E940C0A1111A1
:1020200003C081E080930502602F81E00E94C70811
:1020300064E670E080E090E00E94230D8BEA92E07D
:102040000E94AC08812F90E00E94A60888E791E0EA
:102050000E942D0811E010930902109208026CEC06
:102060007CE488ED90E00E943909082F83E992E032
:102070000E94AC08802F000F990B0E94A60888E7E9
:1020800091E00E942D0810930E028091F1018823A7
:1020900011F01DE401C01AE581E00E94E208082F5A
:1020A00080912C02813011F461E802C061E081E08E
:1020B0000E94C70864E8812F0E94C70880E10E943F
:1020C00017099091F10180910E02911106C08111C2
:1020D00002C01FE008C01CE806C0882311F01CE8FD
:1020E00001C01EE01067612F89E00E94C7081093AD
:1020F000190289E00E94E20811E0909119029813F8
:1021000001C010E0602F81E00E94C70864E670E023
:1021100080E090E00E94230D8DE792E00E94AC08E1
:10212000812F90E00E94A60888E791E00E942D0888
:102130008FE08093220281E00E94E208182F8091B4
:102140002C02813011F461EC02C061E081E00E9458
:10215000C7086FE083E30E94C70860E084E30E9441
:10216000C70883E30E94E208F82E612F81E00E94F5
:10217000C70801E010E0809122028F1102C000E048
:1021800010E083E692E00E94AC08C8010E94A60815
:1021900088E791E00E942D0883E492E00E94AC0859
:1021A00061E080E00E94B10C8FE192E00E94AC08F7
:1021B00080E090E00E94A60888E791E00E942D0848
:1021C00068EC70E080E090E00E94230D64EF71E025
:1021D00080E090E00E94230D20912501309126019E
:1021E00040912701509128012F962CAF3DAF4EAF63
:1021F0005FAF2F9787E0482E512C612C712C809176
:102200000401811115C061E00E94B10C8FEF94E0D0
:102210000E94AC0880E090E00E94A60888E791E068
:102220000E942D0868EC70E080E090E00E94230D91
:102230000E945D0D6093ED017093EE018093EF01BC
:102240009093F00113E00E945D0DC090ED01D090DD
:10225000EE01E090EF01F090F001DC01CB018C1970
:102260009D09AE09BF09893B9848A105B10528F130
:1022700080910401882309F442C00E945D0D60939F
:10228000ED017093EE018093EF019093F0011092B5
:102290000401D9CF8091010490910204DC01ED91F9
:1022A000FC910284F385E02D09958432A1F0909190
:1022B000FE03903580F48D3089F480910104909173
:1022C0000204DC01ED91FC910084F185E02D09957B
:1022D000892B99F3DFCF1092FE03EDCF9091FE038F
:1022E0002091FF03309100048A3059F041E0490FFA
:1022F0004093FE03F901E90FF11D8083DECF11E069
:102300000BC181E0890F8093FE03F901E90FF11DF4
:102310001082E091FF03F09100048181873409F07D
:1023200092CF8281803509F064C68381873409F0B9
:102330008ACF8481873409F086CF8581813409F082
:1023400082CF2091FE0330E07F01B7E0EB0EF11C5D
:1023500070E060E080E090E0A7014E1B5F0B421749
:1023600053070CF44AC60091F803CE014F960E9421
:10237000B21920E030E048EC52E40E94B21F4B0159
:102380005C010E942420072E000C880B990B0E94F0
:102390005E1D6B017C019B01AC01C501B4010E9473
:1023A0002E1F20E030E048EC52E40E94BD1D20E0EA
:1023B00030E040E752E40E94B21FA70196010E945C
:1023C0002F1F0B7F033509F490586093F40370932B
:1023D000F5038093F6039093F7030091FD03CE017C
:1023E00001960E94B21920E030E048EC52E40E94CD
:1023F000B21F4B015C010E942420072E000C880BA9
:10240000990B0E945E1D6B017C019B01AC01C50113
:10241000B4010E942E1F20E030E048EC52E40E94FC
:10242000BD1D20E030E040E752E40E94B21FA7014A
:1024300096010E942F1F6B017C010B7F033521F455
:10244000F7FAF094F7F8F094C092F903D092FA03F7
:10245000E092FB03F092FC0320E030E0A9016091E0
:10246000F4037091F5038091F6039091F7030E94B5
:10247000571D882309F4E7CE20E030E0A901C70109
:10248000B6010E94571D882309F4DDCE8091F80320
:102490008E3409F0E4C58091FD03853409F0E3C56D
:1024A0000E945D0DC090ED01D090EE01E090EF0133
:1024B000F090F001DC01CB018C199D09AE09BF0938
:1024C0008093000190930101A0930201B093030156
:1024D0008091F4039091F503A091F603B091F70376
:1024E0008093E9019093EA01A093EB01B093EC0192
:1024F0008091F9039091FA03A091FB03B091FC0342
:102500008093E5019093E601A093E701B093E80181
:10251000115009F098CE10E060E080E00E94B10C0C
:10252000109204012F962CAD3DAD4EAD5FAD2F97AF
:102530002093810130938201409383015093840161
:10254000112301F186EE94E00E94AC0888E791E047
:102550000E942D08809180018F9380917F018F933D
:102560008DE391E09F938F9385E891E09F938F9304
:102570000E94E122182F0F900F900F900F900F9054
:102580000F907CC08EED94E00E94AC086091000139
:102590007091010180910201909103010E947A08DB
:1025A00088E791E00E942D084091E9015091EA01ED
:1025B0006091EB017091EC01CE014F960E944407AF
:1025C00081ED94E00E94AC084BA15CA16F8D78A1D5
:1025D00087E593E00E94470B88E791E00E942D0871
:1025E0004091E5015091E6016091E7017091E801A9
:1025F000CE0101960E94440783EC94E00E94AC084F
:102600004D815E8169817A8187E593E00E94470B65
:1026100088E791E00E942D08809103018F938091BB
:1026200002018F93809101018F93809100018F931C
:102630008A818F9389818F9388A18F938F8D8F93B8
:10264000809180018F9380917F018F9388E591E045
:102650009F938F9385E891E09F938F930E94E1224F
:10266000182F89819A810E947D218F8D98A10E94C7
:102670007D210FB6F894DEBF0FBECDBF80917F01E4
:102680009091800101969093800180937F018AEB65
:1026900094E00E94AC0885E891E00E94170888E762
:1026A00091E00E942D0884EA94E00E94AC08612F1A
:1026B00070E080E090E04AE00E94390888E791E00D
:1026C0000E942D08812F90E01C0154E0250E311C42
:1026D00088EA93E00E94AC0880910602882309F4FE
:1026E0006BC180910902882309F466C103E0F02ED2
:1026F000D12C18E0E12E0E945D0D6093FD017093D6
:10270000FE018093FF0190930002809106020E94D7
:10271000B805182F0E945D0D6093010270930202AC
:1027200080930302909304028FE993E00E94AC0827
:102730008091010290910202A0910302B0910402E3
:102740008090FD019090FE01A090FF01B0900002EA
:10275000BC01CD01681979098A099B094AE00E94E8
:1027600039080E94290811118BC08AE993E00E9460
:10277000AC0880910702882309F4E9C00E945B1924
:10278000A30192010E94941E4B015C01AFEF8A1AD3
:102790009A0AAA0ABA0A8CE893E00E94AC08C5011A
:1027A000B4017727882799274AE00E94390884E8EE
:1027B00093E00E94AC08E0910502F0E0E65EFE4F77
:1027C0008081889DC00111240E94A6080E942908CA
:1027D000E0910502F0E0E65EFE4F6081869EB0016A
:1027E0001124072E000C880B990B0E94230D0E94C8
:1027F0005D0D6093FD017093FE018093FF01909346
:102800000002809106020E94B805082F10E00E9485
:102810005D0D609301027093020280930302909316
:1028200004028BE793E00E94AC0880910102909132
:102830000202A0910302B09104028090FD019090E9
:10284000FE01A090FF01B0900002BC01CD0168190B
:1028500079098A099B094AE00E9439080E942908DF
:102860000115110519F487E793E002C084E793E0AE
:102870000E94AC080E942908012B09F468C054C0CA
:1028800080E793E00E94AC080E945B19A3019201CB
:102890000E94941E4B015C01BFEF8B1A9B0AAB0A8E
:1028A000BB0A82E693E00E94AC08C501B401772719
:1028B000882799274AE00E94390884E593E00E941E
:1028C000AC08E0910502F0E0E15FFE4F8081082D49
:1028D00010E0E3E08E9FC00111249C01209FC00105
:1028E000219F900D309F900D11240E94A6080E94F8
:1028F0002908E0910502F0E0E15FFE4F808133E0BE
:10290000839FC0011124809FB001819F700D909F13
:10291000700D1124072E000C880B990B0E94230DBB
:1029200089E493E00E94AC08EA94E110E4CE0FC081
:102930008EE10E94E20890E024E0959587952A9523
:10294000E1F711E00C9709F066CB10E064CB8091C1
:102950000802882379F10E94FE06811123C018E045
:102960000E94FE068FE393E00E94AC0880911B0258
:10297000082E000C990B0E94A6080E9429081150ED
:1029800061E070E080E090E00E94230D80911B02E6
:10299000873A6CF01111E4CFFA94DD24D394F1104E
:1029A000A8CE0AC08FE293E00E94AC0805C01111C6
:1029B00003C0F2CFD110F0CF0E945D0D23966CAF13
:1029C0007DAF8EAF9FAF239782E180932E023CEFC5
:1029D000231631043CF08BEF90E09093210280931A
:1029E000200204C0309221022092200280914603EE
:1029F000882309F41CC1A0902002B090210280918C
:102A00000C02811103C044E0A40EB11C0E94E60434
:102A100027966CAF7DAF8EAF9FAF279710911202B4
:102A2000173051F0183081F0C12CB4E2DB2EB4EF36
:102A3000EB2EB8E4FB2E0FC0C12CA4E2DA2EA4EFDB
:102A4000EA2EA7E4FA2E07C0C12CF4E2DF2EF4E749
:102A5000EF2EF8E4FF2E00911402802F90E09EAF3D
:102A60008DAF61E070E0002E02C0660F771F0A9400
:102A7000E2F7072E000C880B990B0E945E1D9B014C
:102A8000AC01C701B6010E94B21F9B01AC0160E01E
:102A900070E080E89FE30E94B21F6B017C016091AF
:102AA0001E0270911F026C5F7F4F80E090E00E94D9
:102AB0005C1D20E030E048E850E40E942F1FA70191
:102AC00096010E94BD1D2B966CAF7DAF8EAF9FAF60
:102AD0002B97173019F411E00C3009F010E0B50114
:102AE0007727660F771FADADBEAD6A1B7B0B655FA9
:102AF0007F4F80912302B5E08B9F601971091124EB
:102B0000660F771F660F771F072E000C880B990B37
:102B10000E945E1D4B015C01812F90E0880F991F80
:102B20006DAD7EAD681B790B660F771F660F771F43
:102B3000072E000C880B990B0E945E1D9B01AC01B7
:102B4000C501B4010E94B21F0E949B1F4B015C0192
:102B50006091130270E06C5F7F4F072E000C880BB2
:102B6000990B0E945E1DA50194010E94BD1D4B01A1
:102B70005C0120E030E0A9010E94B22020E030E0BA
:102B800040E051E4181634F4C501B4010E942F1F2F
:102B90009B01AC01C701B6010E94BD1D2B962CAD57
:102BA0003DAD4EAD5FAD2B970E942F1F20E034E26C
:102BB00044E759E40E94BD1D27E73EEB4FE75FE382
:102BC0000E942F1F0E945A200E942B2028EE33E0E3
:102BD00040E050E00E94FD1ECA01B9010E945C1D48
:102BE0000E949B1F20E030E040E85FE30E942F1F1F
:102BF0000E942B20709354036093530327968CAD4F
:102C00009DADAEADBFAD2797861B970BA109B1094E
:102C1000B7FF0DC081EB93E00E94AC080E945D0DF0
:102C20004AE00E9439080E94290804E00EC181E0B0
:102C30000E94E208182F0E94610580912C028130C9
:102C400011F461E802C061E081E00E94C7081092BF
:102C500028022091290280912002909121022111C5
:102C60003DC021E02093260220932D0220912202D4
:102C700020932F0220912702209330022F5F209370
:102C800027021092340220912C02211108C0CD9706
:102C900030F08CE390E09093210280932002E1E8F1
:102CA000F1E09F0121583140809120029091210252
:102CB0002817390750F48191409132025091330224
:102CC000DA01A20FB31F8C93ECCF20910C022111DB
:102CD00001C004960E948105082F13C0213029F4F9
:102CE000209131022F5F2093310220910C0221119B
:102CF00001C004960E948105082F809129028093CB
:102D0000340280912E02982F906190932E02909120
:102D10001002992319F0886180932E0260E88DE0FB
:102D20000E94C70801112EC080910C02811113C0AE
:102D300060912D020E94C70860912E0280E00E94DF
:102D4000C70860912F0280E00E94C708609130029E
:102D500080E00E94C708E12CF12C80912002909124
:102D60002102E816F90670F4E0913202F091330284
:102D7000EE0DFF1D608180E00E94C708EFEFEE1AA4
:102D8000FE0AEBCF612F81E00E94C70801115DC0F0
:102D900080E197E290934503809344030E945D0D88
:102DA0006B017C01F0E1CF0EF7E2DF1EE11CF11CAC
:102DB00080912C028130A1F40E94610563E881E0DA
:102DC0000E94C70882E10E94E20883FD1AC00E94A7
:102DD0005D0D6C157D058E059F05A0F301E033C0E8
:102DE00063E081E00E94C7088FE30E94E20883FD50
:102DF00008C00E945D0D6C157D058E059F05A0F332
:102E0000EDCF809146038823F1F0E0905303F090DA
:102E100054030E94E604809146038823A1F0809128
:102E2000470390914803A0914903B0914A038E193A
:102E30009F09A109B1098093470390934803A09388
:102E40004903B0934A030E94610510E00E945D0DA2
:102E50004B015C018091270280937E013CE7E32EC9
:102E600031E0F32EC12CD12CD701ED917D01EDAFD6
:102E7000C6010E947E1EFDADF81721F06F2FC6011E
:102E80000E94861E2FEFC21AD20A33E0C316D10465
:102E900059F785E994E00E94AC08C1010E94A60898
:102EA00088E791E00E942D0887E894E00E94AC0832
:102EB0006091300270E080E090E04AE00E943908C2
:102EC00088E791E00E942D0889E794E00E94AC0811
:102ED000C501B40123962CAD3DAD4EAD5FAD23973A
:102EE000621B730B840B950B0E947A0888E791E0B4
:102EF0000E942D0885E694E00E94AC088091FD01B7
:102F00009091FE01A091FF01B0910002A5019401F2
:102F1000281B390B4A0B5B0BCA01B9014AE00E941E
:102F2000390888E791E00E942D0881E594E00E942D
:102F3000AC08C8010E94A60888E791E00E942D080D
:102F40008FE394E00E94AC080E94E6040E947A0895
:102F500088E791E00E942D0882E294E00E94AC088C
:102F600061E881E00E94C70864E670E080E090E0DC
:102F70000E94230D60E881E00E94C70881E00E9462
:102F8000E208803819F087EC93E002C083EF93E009
:102F90000E94AC0887E593E00E94270C62E370E092
:102FA00080E090E00E94230D86E990E09093560324
:102FB0008093550300E010E08091550390915603F3
:102FC0000817190768F420E030E040E050E069E0BD
:102FD00070E08BE791E00E94CA0D0F5F1F4FECCFAE
:102FE00062E370E080E090E00E94230D0E94490CB3
:102FF00006C98E3409F027C998C9893091050CF0AB
:10300000B2C9D7010D917D010C3211F40196A4C90A
:103010008130910551F44FE150E04C0F5D1F460F98
:10302000511DDA010C936F5F97C98230910519F435
:103030000093F80391C98330910551F441E050E0C9
:103040004C0F5D1F470F511DDA010C937F5F84C940
:103050008430910509F080C90093FD037DC9833553
:1030600009F0F1C818CA873509F0EDC819CACF921E
:10307000DF92EF92FF920F931F93CF93DF9307E5B9
:1030800013E0F8011382128288EE93E0A0E0B0E032
:1030900084839583A683B7838DE291E091838083B7
:1030A00085EC90E09587848784EC90E0978786870D
:1030B00080EC90E0918B808B81EC90E0938B828B05
:1030C00082EC90E0958B848B86EC90E0978B868BDE
:1030D000118E128E138E148EC1EFD1E08AE08B8395
:1030E00097E099A381E08AA39BA340E050EC64EEB3
:1030F00070E04CA35DA36EA37FA31AAA1CAA1BAE0B
:103100009FE098A71EAA1FAA18AE92E19A831B8E71
:103110001E8A8F8B188E89E08D8B1D8E1092460330
:103120000E945D0D60934B0370934C0380934D039D
:1031300090934E0320EAC22E2CE8D22EE12CF12CE3
:10314000C0924703D0924803E0924903F0924A03A9
:10315000DC01CB0180589141A94CBF4F80934F03B4
:1031600090935003A0935103B09352031F8E85E4B4
:1031700092E0909333028093320290933B028093CB
:103180003A0280E493E0909343028093420219AEA6
:1031900088AD80933402C4EFD3E01E870D87188278
:1031A00019821A821B8288E58C831D821E821F82EF
:1031B000188689871A8682E590E00E94E5209C8720
:1031C0008B8786E990E09093560380935503DF91B7
:1031D000CF911F910F91FF90EF90DF90CF900895C6
:1031E000EF920F931F93CF93DF93E80147FD02C047
:1031F00034E001C034E1042E000C550B57FF03C02E
:10320000519541955109E32E022F242FAE010E94C2
:10321000B619CE01DF91CF911F910F91EF900895D4
:103220008F929F92AF92BF92CF92DF92EF92FF92D6
:10323000CF93DF93EC01688179818A819B8161154D
:1032400071058105910521F464E279ED8BE597E044
:103250002DE133EF41E050E00E94941E49015A01F4
:103260009B01AC01A7EAB1E40E94B31E6B017C0193
:10327000ACEEB4EFA50194010E94C11EDC01CB01AC
:103280008C0D9D1DAE1DBF1DB7FF03C00197A10989
:10329000B04888839983AA83BB83BC01CD019F7703
:1032A000DF91CF91FF90EF90DF90CF90BF90AF90E4
:1032B0009F908F9008958F929F92AF92BF92CF92DE
:1032C000DF92EF92FF92609105017091060180916B
:1032D000070190910801611571058105910521F49F
:1032E00064E279ED8BE597E02DE133EF41E050E0CA
:1032F0000E94941E49015A019B01AC01A7EAB1E466
:103300000E94B31E6B017C01ACEEB4EFA5019401E9
:103310000E94C11EDC01CB018C0D9D1DAE1DBF1D89
:10332000B7FF03C00197A109B048809305019093AE
:103330000601A0930701B0930801BC01CD019F775E
:10334000FF90EF90DF90CF90BF90AF909F908F90C5
:10335000089560930501709306018093070190938F
:1033600008010895662777270C94101BA9E0B0E0A8
:10337000ECEBF9E10C94CC1E6A01122FB02E2BE37A
:10338000201720F0FF24F394F00E02C02CE3F22E5D
:103390000F2D27E0AE014F5F5F4F0E945E1CBC0106
:1033A0004981842F8970813031F0E1FC06C0E0FE54
:1033B00006C090E205C09DE203C09BE201C090E020
:1033C0005E2D507143FF3CC0911102C083E001C0EB
:1033D00084E0811718F4212F281B01C020E051112F
:1033E0000BC0F601822F30E2882319F0319381500F
:1033F000FBCFC20ED11C20E0992329F0D6019C936B
:10340000F60131966F01C6010396E2FE0AC03EE462
:10341000D6013C9341E411964C93119712963C933C
:1034200006C03EE6F601308341E641833283FC016B
:10343000322F40E2332309F442C041933150FACF96
:1034400042FF44C0911102C083E001C084E08117B3
:1034500018F4212F281B01C020E051110BC0F601E8
:10346000822F30E2882319F031938150FBCFC20EB6
:10347000D11C20E0992329F0D6019C93F6013196C6
:103480006F01C6010396E2FE0BC039E4D6013C93FE
:103490003EE411963C93119736E412963C9307C094
:1034A00039E6F60130833EE6318336E63283FC01AD
:1034B000322F40E2332319F041933150FBCFFC010E
:1034C000E20FF11D10828EEF9FEFA6C021E030E0E9
:1034D000911102C020E030E0161617061CF4FB0123
:1034E000319602C0E1E0F0E02E0F3F1FBB2021F03B
:1034F000EB2DF0E0319602C0E0E0F0E02E0F3F1F30
:10350000E12FF0E02E173F071CF4121B212F01C002
:1035100020E08E2D887159F4F601822F30E2882345
:1035200019F031938150FBCFC20ED11C20E09923BA
:1035300029F0D6019C93F60131966F0151110BC011
:10354000F601822F90E3882319F091938150FBCFED
:10355000C20ED11C20E00F2D060F9A81342F30713E
:1035600044FF03C0913309F40150101624F40930CC
:1035700018F008E001C001E0AB0177FF02C040E0B5
:1035800050E0FB01E41BF50BA1E0B0E0AC0FBD1F68
:10359000EA0FFB1F8EE2A82E4B01801A91080B2D1B
:1035A00010E01195019511094F3FBFEF5B0721F422
:1035B000D601AC9211966D01641775072CF0841634
:1035C000950614F4818101C080E341505109319680
:1035D000D60111967D014017510724F0D6018C9336
:1035E0006701E2CF6417750739F4963320F49533F9
:1035F00019F4311101C081E3F6018083F701822FB4
:1036000090E2882319F091938150FBCFF701E20FEC
:10361000F11D108280E090E02996ECE00C94E81E09
:10362000A0E0B0E0E6E1FBE10C94CC1EEC016B0104
:103630006115710519F0FB01918380837E01FFEF15
:10364000EF1AFF0A0881802F90E00E94361D892B17
:1036500011F0E701F3CF0D3239F47E0182E0E80E7C
:10366000F11C098111E008C00B3229F47E0192E0BF
:10367000E90EF11C098110E0E701219743E050E0D9
:103680006CE870E0CE010E943F1D892BC1F42396A7
:1036900045E050E067E870E0CE010E943F1D892BB5
:1036A00009F42596C114D10419F0F601D183C08321
:1036B0001111F6C060E070E080E89FE7FAC043E0D7
:1036C00050E064E870E0CE010E943F1D892B59F460
:1036D000C114D10409F4E9C0F2E0EF0EF11CF601C7
:1036E000F182E082E2C020E030E0A901C0E0D0E059
:1036F000F70180EDA82EA00E89E08A1530F1912FF8
:103700009260B92E812F887012FF04C0811124C0ED
:10371000219622C081112197A5E0B0E00E94B31E3E
:10372000DC01CB01880F991FAA1FBB1F9C01AD01B3
:103730002A0D311D411D511D283989E938074807D7
:1037400089E1580748F0166006C09EEFA9120AC02A
:1037500013FD40C01860B12E8FEFE81AF80A0081FF
:103760001B2DC6CF802F8F7D8534A1F580818D32B2
:1037700011F4106106C08B3221F0319661E070E0E7
:1037800004C08181329662E070E080538A3018F084
:10379000E61BF70B1FC060E070E060389CE0790723
:1037A0005CF4DB01AA0FBB1FAA0FBB1F6A0F7B1FB4
:1037B000660F771F680F711D3196DF0111978C918D
:1037C00080538A3050F314FF03C0719561957109DD
:1037D000C60FD71F11FF08C0C114D10429F0CF01B3
:1037E0000197F60191838083CA01B9010E945C1D93
:1037F000212F2370233019F04B015C0106C04B01CF
:103800005C01B7FAB094B7F8B09420E030E0A901B9
:10381000C501B4010E94571D882309F43EC0D7FF9B
:1038200006C0D195C195D10903EA10E002C00BEBA7
:1038300010E06801F8E1CF1AD10890E2E92EF12CEE
:10384000CE15DF0574F0F80125913591459154911D
:10385000C501B4010E94BD1D4B015C01CE19DF09F9
:10386000EFCF04501109F594E7940C151D0541F7AD
:103870008A2D880F8B2D881F8F3F49F020E030E084
:10388000A901C501B4010E94571D811106C082E241
:1038900090E090930D0480930C04C501B40109C01D
:1038A00060E070E080E89FEF04C060E070E080ECD2
:1038B0009FE7CDB7DEB7ECE00C94E81E283008F0A7
:1038C00027E03327DA01990F311D87FD91600096BB
:1038D0006105710539F432602E5F3D9330E32A951E
:1038E000E1F708959F3F30F080387105610509F0D8
:1038F0003C5F3C5F3D93913008F08068911DDF9301
:10390000CF931F930F93FF92EF92192F987F969565
:10391000E92F96959695E90FFF27E75EFE4F9927C9
:103920003327EE24FF24A701E701059008940794AC
:1039300028F4360FE71EF81E491F511D660F771F2A
:10394000881F991F0694A1F70590079428F4E70EA5
:10395000F81E491F561FC11D770F881F991F661F2C
:103960000694A1F70590079428F4F80E491F561FF6
:10397000C71FD11D880F991F661F771F0694A1F7D7
:103980000590079420F4490F561FC71FD81F990FA1
:10399000661F771F881F0694A9F7849110951770EA
:1039A00041F0D695C79557954795F794E7941A95A2
:1039B000C1F7EFEBF0E068941590159135916591A2
:1039C000959105907FE27395E118F10A430B560B30
:1039D000C90BD009C0F7E10CF11E431F561FC91FC8
:1039E000D01D7EF4703311F48A95E6CFE89401502F
:1039F00030F0080F0AF40027021708F4202F23954F
:103A0000022F7A3328F079E37D932A95E9F710C0E5
:103A10007D932A9589F6069497956795379517951E
:103A20001794E118F10A430B560BC90BD00998F013
:103A300023957E9173957A3308F070E37C9320137D
:103A4000B8F77E9170617D9330F0839571E37D933B
:103A500070E32A95E1F71124EF90FF900F911F91E9
:103A6000CF91DF91992787FD9095089591110C943E
:103A70002A1E803219F089508550C8F70895FB013D
:103A8000DC014150504088F08D9181341CF08B3521
:103A90000CF4805E659161341CF06B350CF4605E53
:103AA000861B611171F3990B0895881BFCCF0E944E
:103AB000991D08F481E00895E89409C097FB3EF44D
:103AC00090958095709561957F4F8F4F9F4F99236B
:103AD000A9F0F92F96E9BB279395F69587957795E9
:103AE0006795B795F111F8CFFAF4BB0F11F460FFA9
:103AF0001BC06F5F7F4F8F4F9F4F16C0882311F001
:103B000096E911C0772321F09EE8872F762F05C014
:103B1000662371F096E8862F70E060E02AF09A95AF
:103B2000660F771F881FDAF7880F9695879597F9A4
:103B30000895990F0008550FAA0BE0E8FEEF16163E
:103B40001706E807F907C0F012161306E407F50791
:103B500098F0621B730B840B950B39F40A2661F005
:103B6000232B242B252B21F408950A2609F4A140A8
:103B7000A6958FEF811D811D08950E94D01D0C9484
:103B8000441E0E94361E38F00E943D1E20F09523F0
:103B900011F00C942D1E0C94331E11240C94781EDD
:103BA0000E94551E70F3959FC1F3950F50E0551F6D
:103BB000629FF001729FBB27F00DB11D639FAA2782
:103BC000F00DB11DAA1F649F6627B00DA11D661FD1
:103BD000829F2227B00DA11D621F739FB00DA11DF2
:103BE000621F839FA00D611D221F749F3327A00DAC
:103BF000611D231F849F600D211D822F762F6A2F48
:103C000011249F5750409AF0F1F088234AF0EE0FAC
:103C1000FF1FBB1F661F771F881F91505040A9F7D9
:103C20009E3F510580F00C942D1E0C94781E5F3F32
:103C3000E4F3983ED4F3869577956795B795F79515
:103C4000E7959F5FC1F7FE2B880F911D969587958D
:103C500097F9089599278827089597F99F6780E82D
:103C600070E060E008959FEF80EC089500240A94CE
:103C70001616170618060906089500240A94121647
:103C80001306140605060895092E0394000C11F47A
:103C9000882352F0BB0F40F4BF2B11F460FF04C027
:103CA0006F5F7F4F8F4F9F4F089557FD9058440F80
:103CB000551F59F05F3F71F04795880F97FB991F8B
:103CC00061F09F3F79F08795089512161306140648
:103CD000551FF2CF4695F1DF08C0161617061806D5
:103CE000991FF1CF86957105610508940895E894B0
:103CF000BB2766277727CB0197F90895F999FECF5F
:103D000092BD81BDF89A992780B50895262FF9991B
:103D1000FECF1FBA92BD81BD20BD0FB6F894FA9AAE
:103D2000F99A0FBE01960895052E97FB1EF4009494
:103D30000E94AB1E57FD07D00E94FD1E07FC03D05A
:103D40004EF40C94AB1E50954095309521953F4F05
:103D50004F4F5F4F089590958095709561957F4F77
:103D60008F4F9F4F08950E941F1FA59F900DB49FD6
:103D7000900DA49F800D911D11240895B7FF0C9400
:103D8000B31E0E94B31E821B930B08952F923F9285
:103D90004F925F926F927F928F929F92AF92BF925B
:103DA000CF92DF92EF92FF920F931F93CF93DF9307
:103DB000CDB7DEB7CA1BDB0B0FB6F894DEBF0FBE64
:103DC000CDBF09942A88398848885F846E847D84B1
:103DD0008C849B84AA84B984C884DF80EE80FD80B3
:103DE0000C811B81AA81B981CE0FD11D0FB6F89429
:103DF000DEBF0FBECDBFED010895A1E21A2EAA1BB2
:103E0000BB1BFD010DC0AA1FBB1FEE1FFF1FA2178A
:103E1000B307E407F50720F0A21BB30BE40BF50B87
:103E2000661F771F881F991F1A9469F76095709510
:103E3000809590959B01AC01BD01CF010895A29F93
:103E4000B001B39FC001A39F700D811D1124911D6E
:103E5000B29F700D811D1124911D08955058BB27EC
:103E6000AA270E94461F0C94441E0E94361E38F05A
:103E70000E943D1E20F039F49F3F19F426F40C9463
:103E8000331E0EF4E095E7FB0C942D1EE92F0E94E3
:103E9000551E58F3BA17620773078407950720F079
:103EA00079F4A6F50C94771E0EF4E0950B2EBA2F3C
:103EB000A02D0B01B90190010C01CA01A001112430
:103EC000FF27591B99F0593F50F4503E68F11A16DC
:103ED000F040A22F232F342F4427585FF3CF46956D
:103EE00037952795A795F0405395C9F77EF41F168F
:103EF000BA0B620B730B840BBAF09150A1F0FF0F59
:103F0000BB1F661F771F881FC2F70EC0BA0F621F44
:103F1000731F841F48F4879577956795B795F79534
:103F20009E3F08F0B0CF9395880F08F09927EE0FC9
:103F30009795879508950E949A2090F09F3748F4AE
:103F4000911116F40C94781E60E070E080E89FE315
:103F5000089526F01B16611D711D811D0C947120A2
:103F60000C948C200E94C61F0C94441E0E943D1E7F
:103F700058F00E94361E40F029F45F3F29F00C945F
:103F80002D1E51110C94781E0C94331E0E94551E48
:103F900068F39923B1F3552391F3951B550BBB2778
:103FA000AA2762177307840738F09F5F5F4F220FBD
:103FB000331F441FAA1FA9F335D00E2E3AF0E0E8B4
:103FC00032D091505040E695001CCAF72BD0FE2FFE
:103FD00029D0660F771F881FBB1F26173707480792
:103FE000AB07B0E809F0BB0B802DBF01FF2793584A
:103FF0005F4F3AF09E3F510578F00C942D1E0C94C3
:10400000781E5F3FE4F3983ED4F3869577956795E5
:10401000B795F7959F5FC9F7880F911D969587957E
:1040200097F90895E1E0660F771F881FBB1F62179D
:1040300073078407BA0720F0621B730B840BBA0B5B
:10404000EE1F88F7E09508950E942B206894B11127
:104050000C94781E08950E945D1E88F09F5798F07A
:10406000B92F9927B751B0F0E1F0660F771F881F7D
:10407000991F1AF0BA95C9F714C0B13091F00E9497
:10408000771EB1E008950C94771E672F782F88274C
:10409000B85F39F0B93FCCF3869577956795B395BE
:1040A000D9F73EF490958095709561957F4F8F4F2D
:1040B0009F4F08950E949A2090F09F3748F49111E5
:1040C00016F00C94781E60E070E080E89FEB089595
:1040D00026F41B16611D711D811D0C9471200C941A
:1040E0008C20882371F4772321F09850872B762F2A
:1040F00007C0662311F499270DC09051862B70E0FC
:1041000060E02AF09A95660F771F881FDAF7880F0C
:104110009695879597F908959F3F31F0915020F437
:10412000879577956795B795880F911D9695879593
:1041300097F908950E945D1EA0F0BEE7B91788F4B4
:10414000BB279F3860F41616B11D672F782F88277C
:10415000985FF7CF869577956795B11D93959639BA
:10416000C8F308950E94991D08F48FEF089597FBF6
:10417000072E16F4009407D077FD09D00E94D120B5
:1041800007FC05D03EF4909581959F4F089570955A
:1041900061957F4F0895EE0FFF1F0590F491E02D7C
:1041A0000994AA1BBB1B51E107C0AA1FBB1FA6177E
:1041B000B70710F0A61BB70B881F991F5A95A9F7D0
:1041C00080959095BC01CD0108950F931F93CF93D7
:1041D000DF938230910510F482E090E0E0911004CA
:1041E000F091110420E030E0A0E0B0E0309719F148
:1041F000408151810281138148175907C8F0841703
:10420000950769F4109731F012960C931297139654
:104210001C9327C0009310041093110422C0211591
:10422000310519F04217530718F49A01BD01EF0147
:10423000DF01F801DBCF21153105F9F0281B390B1F
:104240002430310580F48A819B816115710521F04C
:10425000FB019383828304C0909311048093100424
:10426000FE01329644C0FE01E20FF31F8193919349
:1042700022503109398328833AC020910E043091AD
:104280000F04232B41F420910B0130910C0130934A
:104290000F0420930E042091090130910A01211589
:1042A000310541F42DB73EB740910D0150910E01FB
:1042B000241B350BE0910E04F0910F04E217F30775
:1042C000A0F42E1B3F0B2817390778F0AC014E5F86
:1042D0005F4F2417350748F04E0F5F1F50930F04B0
:1042E00040930E048193919302C0E0E0F0E0CF018F
:1042F000DF91CF911F910F910895CF93DF93009796
:1043000009F481C0FC01329713821282A09110043B
:10431000B0911104109781F420813181820F931F95
:1043200020910E0430910F042817390751F5F093AE
:104330000F04E0930E0467C0ED0120E030E0CE17DB
:10434000DF0740F44A815B819E0141155105F1F080
:10435000EA01F5CFD383C28340815181840F951F39
:10436000C817D90759F488819981840F951F02963F
:10437000918380838A819B81938382832115310578
:1043800029F4F0931104E09310043DC0E901FB838C
:10439000EA8349915991C40FD51FEC17FD0761F4C9
:1043A00080819181840F951F0296E901998388830A
:1043B000828193819B838A83E0E0F0E012968D9165
:1043C0009C911397009719F0FD01DC01F7CF8D91B7
:1043D0009C9111979D012E5F3F4F820F931F20915B
:1043E0000E0430910F042817390769F4309729F427
:1043F000109211041092100402C013821282B09322
:104400000F04A0930E04DF91CF910895A0E0B0E0D7
:10441000ECE0F2E20C94CA1EEC01009721F4CB010F
:104420000E94E520B4C0FC01E60FF71F9C0122505A
:104430003109E217F30708F4A8C0D9010D911C91C6
:10444000119706171707B0F00530110508F49BC047
:10445000C80104978617970708F495C00250110900
:10446000061B170B019311936D937C93CF010E9450
:104470007D2189C05B01A01AB10A4C01800E911EFA
:10448000A0911004B0911104612C712CE12CF12C3D
:10449000109709F446C08D919C911197A815B90504
:1044A000B1F56C0142E0C40ED11CCA14DB0478F1F2
:1044B0004C018A189B08640142E0C40ED11C12967C
:1044C000BC9012971396AC91B5E0CB16D10440F096
:1044D000B282A38391828082D9016D937C9309C0BB
:1044E0000E5F1F4F800F911FF90191838083EB2D89
:1044F000FA2FE114F10431F0D7011396FC93EE93F7
:10450000129741C0F0931104E09310043CC0681668
:10451000790608F43C017D0112960D90BC91A02D06
:10452000B7CF80910E0490910F0488169906E1F49C
:1045300066167706C8F48091090190910A010097E8
:1045400041F48DB79EB740910D0150910E01841B2F
:10455000950BE817F907C8F4F0930F04E0930E04E5
:10456000F901718360830FC0CB010E94E5207C01BB
:10457000009759F0A801BE010E94D122CE010E94ED
:104580007D21C70104C0CE0102C080E090E0CDB71C
:10459000DEB7EEE00C94E61E81E090E0F8940C9417
:1045A0009425FB01DC0102C001900D924150504066
:1045B000D8F70895FB01DC0101900D920020E1F78E
:1045C0000895AEE0B0E0E7EEF2E20C94D41E0D895F
:1045D0001E8986E08C831A8309838FEF9FE79E8371
:1045E0008D83AE01475E5F4F6F89788DCE01019656
:1045F0000E940323EF81F885E00FF11F10822E96B1
:10460000E4E00C94F01EABE0B0E0E9E0F3E20C94DF
:10461000C61E6C017B018A01FC0117821682838110
:1046200081FFCCC1CE0101963C01F6019381F701D7
:1046300093FD859193FF81917F01882309F4BAC18D
:10464000853239F493FD859193FF81917F01853205
:1046500029F4B60190E00E94FA24E7CF912C212C96
:10466000312CFFE1F315D8F08B3279F038F4803239
:1046700079F08332A1F4232D20611DC08D3261F0C9
:10468000803369F4232D216016C0832D8260382E7B
:10469000E32DE4603E2E2AC0F32DF8601DC037FCE8
:1046A0002DC020ED280F2A3040F08E32B9F436FCB0
:1046B00081C1232D2064322E19C036FE06C08AE047
:1046C000989E200D1124922E11C0EAE02E9E200DFE
:1046D0001124222EF32DF0623F2E08C08C3621F4D7
:1046E000832D8068382E02C0883641F4F70193FD8F
:1046F000859193FF81917F018111B3CF982F9F7D89
:104700009554933028F40C5F1F4F9FE399830DC09D
:10471000833631F0833771F0833509F059C021C0F9
:10472000F801808189830E5F1F4F88248394912C28
:10473000530113C02801F2E04F0E511CF801A08074
:10474000B18036FE03C0692D70E002C06FEF7FEFCD
:10475000C5010E94EF244C018201F32DFF773F2E0B
:1047600016C0280122E0420E511CF801A080B18041
:1047700036FE03C0692D70E002C06FEF7FEFC50108
:104780000E94E4244C01F32DF0683F2E820133FC9B
:104790001BC0822D90E088169906B0F4B60180E225
:1047A00090E00E94FA242A94F4CFF50137FC859119
:1047B00037FE81915F01B60190E00E94FA2421103A
:1047C0002A9421E0821A91088114910471F7E8C0BB
:1047D000843611F0893641F5F80137FE07C0608153
:1047E0007181828193810C5F1F4F08C0608171814C
:1047F000072E000C880B990B0E5F1F4FF32DFF76D1
:104800003F2E97FF09C090958095709561957F4FD9
:104810008F4F9F4FF0683F2E2AE030E0A3010E94A7
:104820003625882E861845C0853731F4232D2F7EF6
:10483000B22E2AE030E025C0932D997FB92E8F3615
:10484000C1F018F4883579F0B5C0803719F0883791
:1048500021F0B0C0E92FE061BE2EB4FE0DC0FB2DEB
:10486000F460BF2E09C034FE0AC0292F2660B22E84
:1048700006C028E030E005C020E130E002C020E1C1
:1048800032E0F801B7FE07C06081718182819381B7
:104890000C5F1F4F06C06081718180E090E00E5F69
:1048A0001F4FA3010E943625882E8618FB2DFF7707
:1048B0003F2E36FE0DC0232D2E7FA22E891458F4D4
:1048C00034FE0BC032FC09C0832D8E7EA82E05C09D
:1048D000B82CA32C03C0B82C01C0B92CA4FE0FC067
:1048E000FE01E80DF11D8081803321F49A2D997E1F
:1048F000A92E09C0A2FE06C0B394B39404C08A2DA9
:10490000867809F0B394A3FC11C0A0FE06C0B214CF
:1049100088F4280C922C9B180EC0B21460F4B601D7
:1049200080E290E00E94FA24B394F7CFB21418F416
:104930002B1802C0982C212CA4FE10C0B60180E3D5
:1049400090E00E94FA24A2FE17C0A1FC03C088E7F1
:1049500090E002C088E590E0B6010CC08A2D867810
:1049600059F0A1FE02C08BE201C080E2A7FC8DE2FB
:10497000B60190E00E94FA24891438F4B60180E36D
:1049800090E00E94FA249A94F7CF8A94F301E80DFC
:10499000F11D8081B60190E00E94FA248110F5CFCC
:1049A000222009F442CEB60180E290E00E94FA246F
:1049B0002A94F6CFF6018681978102C08FEF9FEF90
:1049C0002B96E2E10C94E21EFC01059061507040D0
:1049D0000110D8F7809590958E0F9F1F0895FC01C8
:1049E0006150704001900110D8F7809590958E0F1E
:1049F0009F1F08950F931F93CF93DF93FB01238194
:104A000021FD03C08FEF9FEF2CC022FF16C046810F
:104A10005781248135814217530744F4A081B18125
:104A20009D012F5F3F4F318320838C9326813781F7
:104A30002F5F3F4F3783268314C08B01EC01FB01AE
:104A40000084F185E02D0995892BE1F6D8011696B1
:104A50008D919C911797019617969C938E9316971C
:104A6000CE01DF91CF911F910F910895FA01AA27EE
:104A7000283051F1203181F1E8946F936E7F6E5FA1
:104A80007F4F8F4F9F4FAF4FB1E03ED0B4E03CD04F
:104A9000670F781F891F9A1FA11D680F791F8A1F32
:104AA000911DA11D6A0F711D811D911DA11D20D099
:104AB00009F468943F912AE0269F11243019305D53
:104AC0003193DEF6CF010895462F4770405D419344
:104AD000B3E00FD0C9F7F6CF462F4F70405D4A3391
:104AE00018F0495D31FD4052419302D0A9F7EACF59
:104AF000B4E0A6959795879577956795BA95C9F788
:104B000000976105710508959B01AC010A2E06947A
:104B10005795479537952795BA95C9F7620F731F33
:0C4B2000841F951FA01D0895F894FFCF7E
:104B2C00FFFFFFFF010100000000001204800000E5
:104B3C00B75E2C2F17180C0C0704003E1F10100822
:104B4C0009050301010506070800000000DA0B4700
:104B5C000B710B270CA20B800B940B14005C2142E5
:104B6C00432F25642F4C41542F302F4C47542F305A
:104B7C002F4658542F2D31005C2142432F25642F92
:104B8C004C41542F25732F4C47542F25732F4658C7
:0A4B9C00542F256C64000D0A000080
:00000001FF
