:100000000C9496010C94BE010C94BE010C94BE019C
:100010000C94BE010C94BE010C94BE010C94BE0164
:100020000C94BE010C94BE010C94BE010C94BE0154
:100030000C94BE010C94BE010C94BE010C94BE0144
:100040000C945F0B0C94BE010C94750A0C944F0A2F
:100050000C94BE010C94BE010C94BE010C94BE0124
:100060000C94BE010C94BE01EA01EF01F201F5010E
:10007000F801FB011502B702C002C302C602C902A1
:10008000CE02D102535831323736204C462F4846E3
:100090002063616C6962726174696F6E00556E7283
:1000A00065636F676E697A6564207472616E7363ED
:1000B000656976657200535831323736206465744D
:1000C00065637465642C207374617274696E670073
:1000D0005358313237322064657465637465642C1B
:1000E000207374617274696E67005358313237320D
:1000F000207375636365737366756C6C7920636FC9
:100100006E666967757265640A0053657474696E1A
:1001100067206E6F646520616464723A2073746155
:100120007465200053657474696E6720506F77653D
:10013000723A207374617465200053657474696E3B
:1001400067204368616E6E656C3A207374617465F4
:10015000200053657474696E67204D6F64653A20A2
:100160007374617465200041546D65676133323882
:10017000502064657465637465640A0053696D702A
:100180006C65204C6F52612070696E672D706F6EC8
:100190006720776974682074686520676174657783
:1001A00061790A002D2D3E20525353492065727209
:1001B0006F720A002D2D3E205253534920002D2DE1
:1001C0003E2072657472790A0020444946533D33DB
:1001D000534946533D20002D2D3E20776169742000
:1001E000666F72200023310A002332004F4B320029
:1001F0002D2D3E20434144200020434144203D20FA
:10020000002D2D3E207761697420666F7220004FAB
:100210004B310A002D2D3E2043414420002D2D3E20
:10022000204353310A002323206E6F7420656E6FC4
:1002300075676820546F412061742000506F6E67AD
:100240002072656365697665642066726F6D2067EC
:1002500061746577617921004E6F20506F6E672061
:1002600066726F6D20677721005061636B65742043
:1002700073656E742C207374617465200053656E11
:1002800064696E672050696E67002072656D6169F0
:100290006E696E6720546F41206973200020637976
:1002A000636C6520656E64732061742000637963FC
:1002B0006C6520626567696E73206174200023237A
:1002C000206E6577206379636C6520666F722054B9
:1002D0006F412023230000000000250028002B0090
:1002E00000000000240027002A0004040404040481
:1002F00004040202020202020303030303030102D5
:1003000004081020408001020408102001020408A3
:1003100010202E2E2E000000000800020100000315
:1003200004070000000000000000311311241FBE6C
:10033000CFEFD8E0DEBFCDBF11E0A0E0B1E0ECE24E
:10034000F5E302C005900D92A235B107D9F723E07D
:10035000A2E5B1E001C01D92A13CB207E1F711E0B6
:10036000C6E9D1E004C02197FE010E948417C53977
:10037000D107C9F70E94B00B0C94941A0C9400009A
:10038000BF92CF92DF92EF92FF920F931F93CF9382
:10039000DF93D82F81E00E94AB06182F80918F0247
:1003A000811104C00E949C07C82F0DC161E881E043
:1003B0000E9490068EE10E94AB06C82FCD2ED12C54
:1003C000F6013697E730F10508F04CC0EC5CFF4FC2
:1003D0000C948417CF76C0660E94100945C0CF7771
:1003E000C0674EC0CF78C0684BC0CF79C06948C0E5
:1003F000CF7AC06A45C0CF7BC06B80918F028823C3
:10040000B1F080915402811108C08DE10E94AB06C9
:10041000829586958695837005C08DE10E94AB0616
:1004200082958F708093750202C0CF7CC06C8091E2
:100430007502873029F58091540281110AC08DE13F
:100440000E94AB06082F0160602F8DE10E9490068C
:1004500018C086E20E94AB06682F686086E20E94A0
:1004600090060EC0D63061F40E94100965E081E369
:100470000E9490066CE087E30E94900600E037C07F
:1004800000E080918F02882351F18DE10E94AB063C
:1004900090917702963059F090915402682F911103
:1004A00002C06B7F01C06E7F8DE10E94900680913B
:1004B0005402882311F0B12C02C042E0B42E809186
:1004C0007702863061F08DE10E94AB0690E002C0B9
:1004D00095958795BA94E2F780FF1092860263E0C3
:1004E00081E30E9490066AE087E30E949006809173
:1004F0005402811104C0C460602F8DE106C086E201
:100500000E94AB06682F646086E20E9490066C2F02
:100510008EE10E94900664E670E080E090E00E9428
:10052000190B8091540281110AC08DE10E94AB0623
:10053000082F8EE10E94AB06C82F20E009C086E29A
:100540000E94AB06C82F8EE10E94AB060C2F23E061
:10055000F6013697E730F10598F5E55CFF4F90E03E
:1005600034E0959587953A95E1F70C9484170697B2
:1005700049F5C2FF27C080918602813019F51EC05F
:10058000079701F508C00897E9F405C00997D1F469
:1005900002C00A97B9F4C2FF15C010C00B9791F4BE
:1005A00002C00C9779F4C2FF0DC0802F90E002C00A
:1005B000959587952A95E2F780FF04C0C0E003C0B7
:1005C000C1E001C0C2E0612F81E00E94900664E6B4
:1005D00070E080E090E00E94190B8AEF8D0F873069
:1005E00018F4D0937702C0E08C2FDF91CF911F9148
:1005F0000F91FF90EF90DF90CF90BF900895CF9331
:10060000DF9381E00E94AB06D82F80918F02811189
:1006100004C00E949C07C82F01C0C2E061E881E0CD
:100620000E9490068DE10E94AB0690915402682FC3
:10063000911103C06F7C686002C0617F62608DE1D0
:100640000E94900664E670E080E090E00E94190B42
:100650008DE10E94AB0690915402913011F421E09B
:1006600001C023E090E002C0959587952A95E2F7B6
:1006700087709927019709F4C0E081E080937602A2
:100680006D2F0E94900664E670E080E090E00E948A
:10069000190B8C2FDF91CF91089590E0FC01E2506F
:1006A000FD4F2491FC01E651FD4F8491882399F080
:1006B00090E0880F991FFC01E052FD4FA591B49185
:1006C000FC01EA52FD4F859194918FB7F894EC911B
:1006D000E22BEC938FBF089580918F028130D9F483
:1006E00089E10E94AB0680937202282F30E087FFD9
:1006F0000AC03195219531093327359527953595D0
:100700002795219504C035952795359527952093F4
:100710007D0280E008958FEF0895CF9381E00E94DD
:10072000AB06C82F80918F02813031F461E80E94BE
:1007300090066FEF82E10AC061E081E00E949006BE
:100740006FEF8EE30E9490066FEF8FE30E9490069A
:100750006C2F81E0CF910C9490060F931F930E9411
:10076000530B0091B2031091B3032091B403309165
:10077000B503061717072807390708F05AC0009372
:10078000AE031093AF032093B0033093B10340EA5C
:100790005CE860E070E04093AA035093AB03609381
:1007A000AC037093AD03D901C80180589141A94CA5
:1007B000BF4F8093B2039093B303A093B403B0935D
:1007C000B5038EEB92E00E9490078DEA92E00E94C2
:1007D000E7056091AE037091AF038091B0039091F3
:1007E000B1034AE00E9424068DE992E00E94E705E9
:1007F0006091B2037091B3038091B4039091B503FB
:100800004AE00E9424068AE892E00E94E70560918F
:10081000AA037091AB038091AC039091AD0397FF55
:1008200003C00E94650603C04AE00E9424060E949D
:1008300014066091AA037091AB038091AC03909170
:10084000AD031F910F910895CF93DF93C82F81E0DF
:100850000E94AB06D82FC093940280918F02813002
:1008600051F461E80E9490066091940282E20E9435
:10087000900682E20AC061E081E00E9490066091E9
:10088000940282E30E94900682E30E94AB06C1E0DC
:1008900090919402981301C0C0E06D2F81E00E94F6
:1008A00090066AEF70E080E090E00E94190B8C2FB8
:1008B000DF91CF9108952F923F924F925F926F9266
:1008C0007F928F929F92AF92BF92CF92DF92EF92E0
:1008D000FF920F931F93CF93DF93CDB7DEB760974F
:1008E0000FB6F894DEBF0FBECDBF8F878091750223
:1008F000873051F0883081F0812C24E2922E24EF51
:10090000A22E28E4B22E0FC0812C94E2992E94EFEF
:10091000A92E97E4B92E07C0812C84E2982E84E793
:10092000A82E88E4B82E20917702298381E00E94C6
:10093000AB06182F0E94530B80918F02813009F073
:1009400048C061E80E94900681E090E0098002C002
:10095000880F991F0A94E2F71A821982212C312CF0
:1009600033E0388B9C01990F440B550B2B873C8748
:100970004D875E870E948D030E94530B0E94530B8C
:100980009B01AC012C593F4F4F4F5F4F2B833C8352
:100990004D835E8367E881E00E9490060E94F40A1E
:1009A0006F83788789879A8782E10E94AB0600E08F
:1009B000382F3470F32E82FD7AC00E94530B2B81A6
:1009C0003C814D815E81621773078407950798F01B
:1009D0006EC01F8292E09B83612F81E00E9490068F
:1009E0000E94530B0E948D032F81211102C08B8125
:1009F0008FC082E08DC00E94F40A6B017C016B8580
:100A00007C858D859E850E94F6159B01AC01C501F4
:100A1000B4010E944C159B01AC0160E070E080E8DD
:100A20009FE30E944C152B013C01C701B6012F81A9
:100A3000388549855A85621B730B840B950B0E9480
:100A4000F4156B017C0120E034E244E759E4C30172
:100A5000B2010E94DF1620E030E040E753E40E943C
:100A6000C9149B01AC01C701B6010E94DA16181621
:100A7000D4F4011118C080915402813009F446C0A9
:100A800005E78BE10E94AB06800F80937E024981CF
:100A90005A81480F511D87FD5A955A8349835FEF4C
:100AA000251A350A01E082E10E94AB0681CF0E943F
:100AB000530BFF2061F082E10E94AB0681709F859D
:100AC00091509F8791110DC08F831B8217C0288979
:100AD0002150288B21110CC041E04B8351E05F83F2
:100AE0000DC0882309F446CF1B8231E03F8306C046
:100AF0003F8531113FCF81E08B831F8289819A81AD
:100B0000B1010E94701760937E0266CF03E6B9CFF1
:100B100060960FB6F894DEBF0FBECDBFDF91CF91C8
:100B20001F910F91FF90EF90DF90CF90BF90AF900B
:100B30009F908F907F906F905F904F903F902F90FD
:100B40000895EF92FF920F931F93CF93DF938091BD
:100B50008F028130E1F435E0E32EF12C00E010E06B
:100B600080915402813011F0C5E701C0C3E68BE1EA
:100B70000E94AB068C0F80937E02080F111D87FD2B
:100B80001A9581E0E81AF10859F7C80112C005E08A
:100B900010E0C0E0D0E081E10E94AB0690E09595C6
:100BA000879580937E02C80FD91F0150110999F7CC
:100BB000CE0165E070E00E94701760937E0280E0D5
:100BC000DF91CF911F910F91FF90EF9008950F93B8
:100BD0001F93CF93DF938C01C0E0D0E0F801EC0FBE
:100BE000FD1F6491662341F087EB91E00E94D409D8
:100BF000892B11F02196F2CFCE01DF91CF911F9179
:100C00000F910895009769F0FC0101900020E9F729
:100C10003197AF01481B590BBC0187EB91E00C9455
:100C20003D0980E090E008958EE491E00C94020686
:100C3000CF93DF930E940206EC010E9414068C0FF2
:100C40009D1FDF91CF9108958F929F92AF92BF9297
:100C50000F931F93CF93DF93CDB7DEB7A1970FB656
:100C6000F894DEBF0FBECDBF19A2423008F44AE0AF
:100C70008E010F5D1F4F842E912CA12CB12CA5014C
:100C800094010E949714E62FB901CA01015011097D
:100C9000EA3014F4E05D01C0E95CD801EC93232B49
:100CA000242B252B61F7C8010E940206A1960FB6DE
:100CB000F894DEBF0FBECDBFDF91CF911F910F9192
:100CC000BF90AF909F908F900895CF92DF92EF9258
:100CD000FF92CF93DF936B017C016DE287EB91E094
:100CE0000E94D409EC0166277727CB016C197D0996
:100CF0008E099F094AE00E9424068C0F9D1FDF91F8
:100D0000CF91FF90EF90DF90CF900895BC01990FA5
:100D1000880B990B97FD0C9465064AE00C94240609
:100D20000F931F93CF93DF93082F162FC4E5D2E0C4
:100D300060E08B810E94A70A802F80680E94A90B27
:100D4000812F0E94A90B61E08B81DF91CF911F91D0
:100D50000F910C94A70A1F93CF93DF93182FC4E52C
:100D6000D2E060E08B810E94A70A812F8F770E94DA
:100D7000A90B80E00E94A90B182F61E08B810E94D3
:100D8000A70A812FDF91CF911F91089580918F0243
:100D90008823A1F08EE10E94AB0690E024E09595B7
:100DA00087952A95E1F7809377028650873010F077
:100DB00090E001C091E081E0892708958FEF0895C8
:100DC000CF93DF938C31D0F4C82FC06281E00E94B2
:100DD000AB06D82F80918F02813011F461E802C0F8
:100DE00061E081E00E9490066C2F8BE00E949006EB
:100DF0006D2F81E00E94900680E001C08FEFDF91AF
:100E0000CF9108958F929F92AF92BF92CF92DF922F
:100E1000EF92FF92CF93DF934B015C010E94530B43
:100E2000609358027093590280935A0290935B0228
:100E300081E00E94AB06D82F80918F02813011F49F
:100E400061E802C061E081E00E949006B501882758
:100E5000992786E00E94900699278B2D7A2D692D7F
:100E600087E00E949006682D88E00E9490060E940C
:100E7000530B60935C0270935D0280935E029093CB
:100E80005F0264E670E080E090E00E94190B86E06B
:100E90000E94AB06C82E87E00E94AB06C82FD12C5B
:100EA000DC2CCC24E12CF12CFE2CED2CDC2CCC24E5
:100EB00088E00E94AB062C2F30E0322F222790E0F2
:100EC000A0E0B0E0820F931FA11DB11DC80ED91E76
:100ED000EA1EFB1E8C149D04AE04BF0451F48092E4
:100EE000780290927902A0927A02B0927B02C0E0DE
:100EF00001C0C1E06D2F81E00E94900664E670E0C1
:100F000080E090E00E94190B8C2FDF91CF91FF9031
:100F1000EF90DF90CF90BF90AF909F908F9008950B
:100F2000CF93DF930E94E705EC010E9414068C0F1B
:100F30009D1FDF91CF910895CF93DF93C0E068ECC0
:100F400070E080E090E00E94190B60E081E00E9478
:100F5000900660E881E00E94900661E881E00E94CE
:100F600090068AE0C89FB00111246E5C7F4F072E67
:100F7000000C880B990B0E94190B81E00E94AB06B4
:100F8000D82F82E193E00E949007C0FD05C0C431D4
:100F900011F0CF5F01C0C0E0D13889F681E08093C5
:100FA0008F0280E0DF91CF910895CF93DF93C82F18
:100FB00081E00E94AB06D82F80918F02811102C080
:100FC0000E949C0761E881E00E9490066C2F89E3F3
:100FD0000E94900664E670E080E090E00E94190BA9
:100FE00089E30E94AB06C81304C0C0935502C0E059
:100FF00001C0C1E06D2F81E00E94900664E670E0C0
:1010000080E090E00E94190B8C2FDF91CF91089522
:10101000FF920F931F93CF93DF93209154022111DE
:1010200007C09C01275031092330310520F405C049
:101030008A30910510F081E0EDC0EC0181E00E9462
:10104000AB06F82E80918F028111D3C00E949C07BD
:10105000182F61E881E00E9490068DE10E94AB06A6
:10106000082F8091540281111DC0C830D10589F02C
:10107000C930D10599F0C730D10591F50F730E94A1
:10108000C606809177028B3011F08C3049F50160F3
:1010900027C0802F8F77082F006422C0802F8F7B7E
:1010A000082F1BC00F70C830D105B9F0C930D10569
:1010B000B1F0C730D105A1F400670E94C606809147
:1010C00077028B50823060F486E20E94AB06682F74
:1010D000686086E20E94900603C0006801C0006953
:1010E000602F8DE10E94900664E670E080E090E061
:1010F0000E94190B8DE10E94AB0690915402911150
:1011000035C0C830D105D9F0C930D10521F1C7307B
:10111000D10509F060C0282F30E076E0359527959D
:101120007A95E1F7232B09F056C0909177029B3016
:1011300009F061C0282F2095122F11704CC0282F64
:1011400030E066E0359527956A95E1F72130310565
:1011500009F041C059C0282F30E056E03595279559
:101160005A95E1F722303105B1F54EC0C830D105AE
:10117000E9F0C930D10529F1C730D10561F5282F33
:1011800030E044E0359527954A95E1F72730310561
:1011900011F586E20E94AB06909177029B3081F5B3
:1011A00083FB882780F911E0182715C0282F30E02D
:1011B00094E0359527959A95E1F72830310559F453
:1011C00023C0282F30E084E0359527958A95E1F7F4
:1011D00029303105C9F01123B9F06F2D81E00E944B
:1011E000900664E670E080E090E00E94190B812F89
:1011F00011C012E02ECF9C3039F480FD05C008C02C
:101200009C3011F483FF04C0C093750210E0E5CF59
:1012100011E0E3CFDF91CF911F910F91FF900895DF
:1012200080918F02882329F18DE10E94AB06909175
:101230005402682F911102C0646001C061608DE1A9
:101240000E9490068DE10E94AB0690915402992372
:1012500011F020E001C022E090E002C09595879552
:101260002A95E2F780FF07C081E08093860280E044
:1012700008958FEF089581E00895CF92DF92EF9265
:10128000FF920F931F93CF93DF936C017A018B0131
:10129000C0E0D0E0CE15DF0581F0D8016D918D0161
:1012A000D601ED91FC910190F081E02DC6010995E8
:1012B000892B11F02196EECF7E01C701DF91CF91EE
:1012C0001F910F91FF90EF90DF90CF9008950895B8
:1012D00080E090E00895FC01538D448D252F30E08F
:1012E000842F90E0821B930B541710F0CF96089533
:1012F00001970895FC01918D828D981761F0828D80
:10130000DF01A80FB11D5D968C91928D9F5F9F7339
:10131000928F90E008958FEF9FEF0895FC01918DDB
:10132000828D981731F0828DE80FF11D858D90E048
:1013300008958FEF9FEF0895FC01918D228D892FE5
:1013400090E0805C9F4F821B91098F7399270895CD
:1013500087EB91E00E949C0921E0892B09F420E0B1
:10136000822F0895FC01848DDF01A80FB11DA35ABF
:10137000BF4F2C91848D90E001968F739927848FB5
:10138000A689B7892C93A089B1898C9183708064D8
:101390008C93938D848D981306C00288F389E02D79
:1013A00080818F7D80830895EF92FF920F931F932A
:1013B000CF93DF93EC0181E0888F9B8D8C8D981308
:1013C00005C0E889F989808185FD26C0F62E0B8D40
:1013D00010E00F5F1F4F0F731127E02E8C8DE81266
:1013E0000CC00FB607FCFACFE889F989808185FF28
:1013F000F5CFCE010E94B209F1CF8B8DFE01E80F2F
:10140000F11DE35AFF4FF0829FB7F8940B8FEA89E2
:10141000FB89808180620AC09FB7F894EE89FF89BA
:101420006083E889F98980818370806480839FBFAD
:1014300081E090E0DF91CF911F910F91FF90EF90AD
:101440000895CF93DF93EC01888D8823C9F0EA8952
:10145000FB89808185FD05C0A889B9898C9186FDAD
:101460000FC00FB607FCF5CF808185FFF2CFA889AA
:10147000B9898C9185FFEDCFCE010E94B209E7CFEB
:10148000DF91CF91089580E090E0892B29F00E94B0
:10149000A80981110C94000008950E949E171F92C4
:1014A0000F920FB60F9211242F933F934F935F9398
:1014B0006F937F938F939F93AF93BF93EF93FF931C
:1014C00087EB91E00E94B209FF91EF91BF91AF913C
:1014D0009F918F917F916F915F914F913F912F914C
:1014E0000F900FBE0F901F9018951F920F920FB67E
:1014F0000F9211242F938F939F93EF93FF93E0917B
:10150000C701F091C8018081E091CD01F091CE0139
:1015100082FD12C090818091D0018F5F8F732091E6
:10152000D101821751F0E091D001F0E0E954FE4F73
:10153000958F8093D00101C08081FF91EF919F91A1
:101540008F912F910F900FBE0F901F90189590E0E4
:10155000FC01EA5EFC4F2491FC01E250FD4F349106
:10156000FC01E651FD4FE491EE2309F43CC0222337
:1015700039F1233091F038F42130A9F0223001F50F
:1015800084B58F7D12C0273091F02830A1F024302F
:10159000B9F4809180008F7D03C0809180008F77A7
:1015A000809380000DC084B58F7784BD09C0809181
:1015B000B0008F7703C08091B0008F7D8093B00022
:1015C000F0E0EE0FFF1FEA52FD4FA591B4919FB7D7
:1015D000F894611104C08C913095382302C0EC91CD
:1015E0003E2B3C939FBF08953FB7F8948091BD0375
:1015F0009091BE03A091BF03B091C00326B5A89BF4
:1016000005C02F3F19F00196A11DB11D3FBFBA2F94
:10161000A92F982F8827820F911DA11DB11DBC01F4
:10162000CD0142E0660F771F881F991F4A95D1F7B9
:1016300008958F929F92AF92BF92CF92DF92EF92D6
:10164000FF926B017C010E94F40A4B015C01C11402
:10165000D104E104F104F1F00E94F40ADC01CB01B1
:1016600088199909AA09BB09883E9340A105B105CB
:1016700070F321E0C21AD108E108F10888EE880E63
:1016800083E0981EA11CB11CC114D104E104F10433
:1016900019F7DDCFFF90EF90DF90CF90BF90AF9024
:1016A0009F908F9008952FB7F8946091B90370912F
:1016B000BA038091BB039091BC032FBF08951F9282
:1016C0000F920FB60F9211242F933F938F939F93F6
:1016D000AF93BF938091B9039091BA03A091BB03DC
:1016E000B091BC033091B80323E0230F2D3720F4D1
:1016F0000196A11DB11D05C026E8230F0296A11D6C
:10170000B11D2093B8038093B9039093BA03A093BB
:10171000BB03B093BC038091BD039091BE03A09125
:10172000BF03B091C0030196A11DB11D8093BD03FD
:101730009093BE03A093BF03B093C003BF91AF913A
:101740009F918F913F912F910F900FBE0F901F90FF
:1017500018958EBD00000DB407FEFDCF8EB508951F
:10176000CF93DF9300D000D000D0CDB7DEB7789410
:1017700084B5826084BD84B5816084BD85B5826096
:1017800085BD85B5816085BD80916E008160809347
:101790006E001092810080918100826080938100B0
:1017A00080918100816080938100809180008160C0
:1017B000809380008091B10084608093B10080911B
:1017C000B00081608093B00080917A008460809343
:1017D0007A0080917A00826080937A0080917A000A
:1017E000816080937A0080917A00806880937A008B
:1017F0001092C100E091C701F091C80182E080839E
:10180000E091C301F091C4011082E091C501F09113
:10181000C60183E380831092CF01E091CB01F09168
:10182000CC0186E08083E091C901F091CA018081FA
:1018300080618083E091C901F091CA018081886054
:101840008083E091C901F091CA0180818068808322
:10185000E091C901F091CA0180818F7D80838CE77E
:1018600091E00E94E70587E691E00E94E7058091FC
:1018700057020E944D0361E0809157020E94A70A1F
:1018800064E670E080E090E00E94190B2FB7298396
:10189000F89480915201811124C0E4EFF2E0849128
:1018A000E8E0F3E09491E82FF0E0EE0FFF1FE05244
:1018B000FD4FA591B491EC91E92321F461E08AE018
:1018C0000E94A70A8AE00E944D038CB580618CBDFE
:1018D0008CB580648CBD8DE00E944D038BE00E942E
:1018E0004D03809152018F5F8093520139813FBF38
:1018F0008CB58F7D8CBD8CB58C7F81608CBD8DB59A
:1019000081608DBD8CB5837F8CBD64E670E080E026
:1019100090E00E94190B82E40E94AB06823239F4F7
:1019200080ED90E00E9490071092540211C082E472
:101930000E94AB06823141F486EB90E00E94900752
:1019400081E08093540204C08DE990E00E949007EA
:1019500080915402813059F08BE10E94E0060E9490
:101960009C0780918F02813009F055C029C084E81E
:1019700090E00E94900760E089E00E9490068BE36F
:101980000E94AB06682F60648BE30E9490068BE395
:101990000E94AB0685FDFBCF60E070E089ED90E032
:1019A0000E9402078BE30E94AB06682F60648BE302
:1019B0000E9490068BE30E94AB0685FDFBCFCCCF47
:1019C00080915402882329F082E08D839EE19983DF
:1019D00004C021E02D833DE1398389810E94AB065B
:1019E00090915402682F911102C0626001C064603E
:1019F00089810E94900689810E94AB0690E00D804B
:101A000002C0959587950A94E2F780FF11C081E0A6
:101A1000809388020DC080E30E94AB06682F60614E
:101A200080E30E94900680E30E94AB0684FDEFCF26
:101A300080918F02813049F480E20E94AB061092BF
:101A400081028093820281E208C085E20E94AB0697
:101A5000109281028093820286E20E94AB0620915E
:101A6000810230918202280F311D3093820220932F
:101A70008102809156020E94D50780918F028823AF
:101A800029F089E30E94AB068093550280915502AC
:101A9000809356020E94530B6115710581059105D3
:101AA00011F00E945C1481E00E94AB068D8380914E
:101AB0008F02811102C00E949C0761E881E00E94B0
:101AC00090060E94FF028CE00E94C00187E090E037
:101AD0000E9408088DE10E94AB062091540290E01C
:101AE00021110BC033E0959587953A95E1F7019761
:101AF00009F41DC281E0898307C095958795C99730
:101B000009F415C291E09983809156020E94D5078D
:101B10002981211103C081E0809368026D8181E0F9
:101B20000E94900664E670E080E090E00E94190B4D
:101B300082E591E00E94E7053981832F90E00E94C1
:101B4000860680E591E00E94180681E080936C0291
:101B50006CEC7CE488ED90E00E94020789838AE3C4
:101B600091E00E94E7052981822F220F990B0E94A4
:101B7000860680E591E00E94180631E030937102FC
:101B800080915402882319F08DE4898302C09AE57C
:101B9000998381E00E94AB068D8380918F02813012
:101BA00011F461E802C061E081E00E94900664E8FF
:101BB00089810E94900680E10E94E0069091540283
:101BC00080917102911109C0811103C02FE0298316
:101BD00002C03CE8398369810BC0882319F08CE886
:101BE000898302C09EE09983298120672983622F1F
:101BF00089E00E949006398130937C0289E00E943E
:101C0000AB0691E0998390917C02981301C01982F0
:101C10006D8181E00E94900664E670E080E090E0D3
:101C20000E94190B84E291E00E94E7052981822F2E
:101C300090E00E94860680E591E00E94180688E008
:101C40008093850281E00E94AB06898380918F0298
:101C5000813011F461EC02C061E081E00E949006E5
:101C600068E083E30E94900660E084E30E949006AF
:101C700083E30E94AB06182F698181E00E949006E1
:101C800081E090E09A83898380918502811302C06C
:101C90001A8219828AE091E00E94E70589819A817F
:101CA0000E94860680E591E00E9418068AEE90E088
:101CB0000E94E70564EF71E080E090E00E94190B5C
:101CC0008DE192E00E94E70580916902882309F482
:101CD00079C180916C02882309F474C193E09983DF
:101CE00010E007E0802E912CA12CB12C28E02D8350
:101CF0000E94530B609360027093610280936202B2
:101D000090936302809169020E945B04082F0E94F5
:101D1000530B609364027093650280936602909304
:101D2000670284E192E00E94E7058091640290914D
:101D30006502A0916602B0916702C0906002D090E7
:101D40006102E0906202F0906302BC01CD016C1967
:101D50007D098E099F094AE00E9424060E9414060C
:101D600001118BC08FE092E00E94E70580916A022A
:101D7000882309F4ECC00E940E14A50194010E946E
:101D800065146B017C013FEFC31AD30AE30AF30A1F
:101D900081E092E00E94E705C701B6017727882716
:101DA00099274AE00E94240689EF91E00E94E70506
:101DB000E0916802F0E0E15FFE4F80818C9DC00100
:101DC00011240E9486060E941406E0916802F0E049
:101DD000E15FFE4F6081C69EB0011124072E000C0A
:101DE000880B990B0E94190B0E94530B60936002A1
:101DF0007093610280936202909363028091690202
:101E00000E945B04E82EF12C0E94530B6093640245
:101E100070936502809366029093670280EF91E071
:101E20000E94E7058091640290916502A09166028C
:101E3000B09167024090600250906102609062022F
:101E400070906302BC01CD01641975098609970978
:101E50004AE00E9424060E941406E114F10419F4D9
:101E60008CEE91E002C089EE91E00E94E7050E94AD
:101E70001406EF2809F46BC054C085EE91E00E946F
:101E8000E7050E940E14A50194010E9465146B01E0
:101E90007C012FEFC21AD20AE20AF20A87ED91E022
:101EA0000E94E705C701B6017727882799274AE0EE
:101EB0000E94240689EC91E00E94E705E091680207
:101EC000F0E0EC5FFE4F8081EC2CF12C33E0839F3F
:101ED000C00111249C012E9DC0012F9D900D3E9D9F
:101EE000900D11240E9486060E941406E09168025B
:101EF000F0E0EC5FFE4F808133E0839FC00111244E
:101F00008E9DB0018F9D700D9E9D700D1124072E2A
:101F1000000C880B990B0E94190B8EEB91E00E942C
:101F2000E7058D8181508D838111E2CE10C08EE155
:101F30000E94AB0690E024E0959587952A95E1F7FD
:101F400031E039830C9709F0DFCD1982DDCD809126
:101F50006B028823A9F10E94A105811128C098E095
:101F60009D830E94A10584EB91E00E94E70580918A
:101F70007E02082E000C990B0E9486060E94140611
:101F80002D8121502D8361E070E080E090E00E947F
:101F9000190B80917E02873A7CF03D813111E1CFAF
:101FA00089818150898311E08111A0CE0BC084EA20
:101FB00091E00E94E70506C09D81992389F302C044
:101FC0001111EECF80E1809391026CE271E083E524
:101FD00091E00E94A3178DE792E00E94E70580E55B
:101FE00091E00E94180624E030E0309384022093B0
:101FF00083028091A903882309F411C180916F02A3
:10200000811105C088E090E09E838D8304C024E0A8
:1020100030E03E832D830E94AD0369837A838B83F6
:102020009C8310917502173051F0183081F0C12C4B
:10203000B4E2DB2EB4EFEB2EB8E4FB2E0FC0C12CC4
:10204000A4E2DA2EA4EFEA2EA7E4FA2E07C0C12CF0
:10205000F4E2DF2EF4E7EF2EF8E4FF2E0091770292
:10206000202E312C61E070E0002E02C0660F771F39
:102070000A94E2F7072E000C880B990B0E94F615C4
:102080009B01AC01C701B6010E944C159B01AC013C
:1020900060E070E080E89FE30E944C156B017C01DA
:1020A00060918102709182026C5F7F4F80E090E0CE
:1020B0000E94F41520E030E048E850E40E94C91482
:1020C000A70196010E94DF162B013C01173019F47D
:1020D00011E00C3009F010E06D817E81660F771FF2
:1020E00062197309655F7F4F8091860235E0839F97
:1020F000601971091124CB01880F991F880F991F4E
:102100009E838D83BC01990F880B990B0E94F61555
:102110004B015C01812F90E0880F991FB101681B72
:10212000790B660F771F660F771F072E000C880B41
:10213000990B0E94F6159B01AC01C501B4010E94E8
:102140004C150E9435154B015C016091760270E0E0
:102150006C5F7F4F072E000C880B990B0E94F615C1
:10216000A50194010E94DF164B015C0120E030E0E4
:10217000A9010E94DA1620E030E040E051E4181690
:1021800034F4C501B4010E94C9149B01AC01C7011C
:10219000B6010E94DF16A30192010E94C91420E03B
:1021A00034E244E759E40E94DF1627E73EEB4FE7AD
:1021B0005FE30E94C9140E9431160E94C51528EEE3
:1021C00033E040E050E00E949714CA01B9010E9438
:1021D000F4150E94351520E030E040E85FE30E94EE
:1021E000C9140E94C5157093B7036093B603898123
:1021F0009A81AB81BC81861B970BA109B109B7FFFE
:102200000EC086E292E00E94E7050E94530B4AE06E
:102210000E9424060E94140694E0998310C181E074
:102220000E94AB068D830E948D0380918F028130C6
:1022300011F461E802C061E081E00E949006109212
:102240008B0220918C028091830290918402211153
:102250003DC021E0209389022093900220918502C5
:102260002093920220918A02209393022F5F209361
:102270008A021092970220918F02211108C0CD97F7
:1022800030F02CE330E03093840220938302E3E5C6
:10229000F1E09F01235531408091830290918402A7
:1022A0002817390750F44191809195029091960238
:1022B000DC01A20FB31F4C93ECCF20916F022111D0
:1022C00001C004960E942404898313C0213029F49C
:1022D000209194022F5F2093940220916F0221118C
:1022E00001C004960E942404898380918C0280930B
:1022F000970280919102982F906190939102909112
:102300007302992319F088618093910260E88DE04F
:102310000E949006398131112DC080916F02811188
:1023200013C0609190020E9490066091910280E03B
:102330000E9490066091920280E00E949006609157
:10234000930280E00E94900600E010E080918302FA
:10235000909184020817190768F4E0919502F091B2
:102360009602E00FF11F608180E00E9490060F5FEF
:102370001F4FECCF6D8181E00E9490068981811111
:102380005EC020E137E23093A8032093A7030E94A8
:10239000530B6B017C0130E1C30E37E2D31EE11C0D
:1023A000F11C80918F028130A9F40E948D0363E8B3
:1023B00081E00E94900682E10E94AB0683FD1BC073
:1023C0000E94530B6C157D058E059F05A0F381E0DF
:1023D000898333C063E081E00E9490068FE30E940E
:1023E000AB0683FD08C00E94530B6C157D058E055E
:1023F0009F05A0F3ECCF8091A9038823F1F0009111
:10240000B6031091B7030E94AD038091A9038823FE
:10241000A1F08091AA039091AB03A091AC03B0917D
:10242000AD03801B910BA109B1098093AA0390937E
:10243000AB03A093AC03B093AD030E948D0339812D
:10244000232F30E03A83298389E692E00E94E70552
:1024500089819A810E94860680E591E00E94180693
:1024600089819A81039729F488E592E00E94E70523
:10247000EDC029813A81232B09F0E8C08CE392E07A
:102480000E94E70580E591E00E94180680917002A5
:10249000282F082E000C330B3F938F9381E391E09C
:1024A0009F938F9383E591E09F938F930E94AA1748
:1024B00083E591E00E94020680E591E00E94180603
:1024C0000E946C030F900F900F900F900F900F9041
:1024D00080918F02813009F094C00E946C038111B9
:1024E00090C08AE10E94AB0630917D0239839091C1
:1024F0005402009178021091790220917A02309171
:102500007B02C82ED12CE12CF12C898187FF3EC0A3
:10251000913019F06BE870E002C06DE970E00C3C9E
:102520001C4C274D310518F080E090E002C087E098
:1025300090E0860F971F66277727681B790B072E79
:10254000000C880B990B0E94F6154B015C01C7012A
:10255000B6010E94F6159B01AC01C501B4010E94B1
:10256000C9146B017C012981622F220F770B880B24
:10257000990B0E94F61520E030E040E85EE30E94EF
:10258000DF169B01AC01C701B60133C0913019F0D1
:102590006BE870E002C06DE970E00C3C1C4C274D0C
:1025A000310518F080E090E002C087E090E0860FEF
:1025B000971F66277727681B790B072E000C880B5F
:1025C000990B0E94F6154B015C01C701B6010E94F0
:1025D000F61520E030E040E851E40E94DF1620E0EC
:1025E00030E040E751E40E944C159B01AC01C5016D
:1025F000B4010E94C9140E94BE15709380026093BA
:102600007F02809180028F9380917F028F938091CF
:102610007D02282F082E000C330B3F938F9320E46C
:1026200031E03F932F9383E591E09F938F930E9436
:10263000AA1783E591E00E94020680E591E00E94DE
:1026400018060FB6F894DEBF0FBECDBF80E591E04F
:102650000E94180660E177E280E090E00E94190B8A
:10266000B4CC0F931F93CF93DF93E7EBF1E013828A
:10267000128288EE93E0A0E0B0E084839583A68385
:10268000B7838EE191E09183808385EC90E095871C
:10269000848784EC90E09787868780EC90E0918B2C
:1026A000808B81EC90E0938B828B82EC90E0958B19
:1026B000848B86EC90E0978B868B118E128E138E16
:1026C000148EC4E5D2E08AE08B8397E099A381E081
:1026D0008AA39BA340E050EC64EE70E04CA35DA3A2
:1026E0006EA37FA31AAA1CAA1BAE9FE098A71EAADE
:1026F0001FAA18AE92E19A831B8E1E8A8F8B188EAA
:1027000089E08D8B1D8E1092A9030E94530B60935C
:10271000AE037093AF038093B0039093B10300EACC
:102720001CE820E030E00093AA031093AB03209351
:10273000AC033093AD03DC01CB0180589141A94C2F
:10274000BF4F8093B2039093B303A093B403B093AD
:10275000B5031F8E88EA92E09093960280939502CB
:1027600090939E0280939D0283EA93E09093A60249
:102770008093A50219AE88AD80939702DF91CF9127
:102780001F910F9108958F929F92AF92BF92CF9217
:10279000DF92EF92FF92CF93DF93EC016881798112
:1027A0008A819B81611571058105910521F464E29F
:1027B00079ED8BE597E02DE133EF41E050E00E94A9
:1027C000651449015A019B01AC01A7EAB1E40E94DA
:1027D00084146B017C01ACEEB4EFA50194010E945E
:1027E0009214DC01CB018C0D9D1DAE1DBF1DB7FFEA
:1027F00003C00197A109B04888839983AA83BB834A
:10280000BC01CD019F77DF91CF91FF90EF90DF90DA
:10281000CF90BF90AF909F908F9008958F929F928E
:10282000AF92BF92CF92DF92EF92FF926091000140
:102830007091010180910201909103016115710570
:102840008105910521F464E279ED8BE597E02DE1B6
:1028500033EF41E050E00E94651449015A019B01A9
:10286000AC01A7EAB1E40E9484146B017C01ACEED8
:10287000B4EFA50194010E949214DC01CB018C0DF0
:102880009D1DAE1DBF1DB7FF03C00197A109B04834
:102890008093000190930101A0930201B093030182
:1028A000BC01CD019F77FF90EF90DF90CF90BF905C
:1028B000AF909F908F9008956093000170930101F5
:1028C00080930201909303010895052E97FB1EF457
:1028D00000940E947C1457FD07D00E94971407FCB7
:1028E00003D04EF40C947C1450954095309521956E
:1028F0003F4F4F4F5F4F089590958095709561952C
:102900007F4F8F4F9F4F08950E94B914A59F900D40
:10291000B49F900DA49F800D911D11240895B7FFC1
:102920000C9484140E948414821B930B0895A1E2DA
:102930001A2EAA1BBB1BFD010DC0AA1FBB1FEE1F39
:10294000FF1FA217B307E407F50720F0A21BB30B84
:10295000E40BF50B661F771F881F991F1A9469F700
:1029600060957095809590959B01AC01BD01CF015C
:102970000895A29FB001B39FC001A39F700D811D58
:102980001124911DB29F700D811D1124911D089578
:102990005058BB27AA270E94E0140C9488160E9466
:1029A0007A1638F00E94811620F039F49F3F19F40E
:1029B00026F40C9477160EF4E095E7FB0C94481679
:1029C000E92F0E94991658F3BA1762077307840714
:1029D000950720F079F4A6F50C94D3160EF4E09543
:1029E0000B2EBA2FA02D0B01B90190010C01CA01C9
:1029F000A0011124FF27591B99F0593F50F4503E74
:102A000068F11A16F040A22F232F342F4427585F65
:102A1000F3CF469537952795A795F0405395C9F77D
:102A20007EF41F16BA0B620B730B840BBAF0915035
:102A3000A1F0FF0FBB1F661F771F881FC2F70EC0D4
:102A4000BA0F621F731F841F48F4879577956795A7
:102A5000B795F7959E3F08F0B0CF9395880F08F093
:102A60009927EE0F9795879508950E94BB1690F0D1
:102A70009F3748F4911116F40C94D41660E070E07E
:102A800080E89FE3089526F01B16611D711D811DCE
:102A90000C944E160C9469160E9460150C948816BE
:102AA0000E94811658F00E947A1640F029F45F3F88
:102AB00029F00C94481651110C94D4160C947716E6
:102AC0000E94991668F39923B1F3552391F3951B4E
:102AD000550BBB27AA2762177307840738F09F5F3F
:102AE0005F4F220F331F441FAA1FA9F335D00E2EAC
:102AF0003AF0E0E832D091505040E695001CCAF719
:102B00002BD0FE2F29D0660F771F881FBB1F2617DB
:102B100037074807AB07B0E809F0BB0B802DBF01B2
:102B2000FF2793585F4F3AF09E3F510578F00C9481
:102B300048160C94D4165F3FE4F3983ED4F3869580
:102B400077956795B795F7959F5FC9F7880F911DA2
:102B50009695879597F90895E1E0660F771F881F8E
:102B6000BB1F621773078407BA0720F0621B730B41
:102B7000840BBA0BEE1F88F7E09508950E94C515E7
:102B80006894B1110C94D41608950E94A11688F08F
:102B90009F5798F0B92F9927B751B0F0E1F0660F21
:102BA000771F881F991F1AF0BA95C9F714C0B13062
:102BB00091F00E94D316B1E008950C94D316672FBC
:102BC000782F8827B85F39F0B93FCCF38695779591
:102BD0006795B395D9F73EF490958095709561957A
:102BE0007F4F8F4F9F4F0895E89409C097FB3EF4A5
:102BF00090958095709561957F4F8F4F9F4F99234A
:102C0000A9F0F92F96E9BB279395F69587957795C7
:102C10006795B795F111F8CFFAF4BB0F11F460FF87
:102C20001BC06F5F7F4F8F4F9F4F16C0882311F0DF
:102C300096E911C0772321F09EE8872F762F05C0F3
:102C4000662371F096E8862F70E060E02AF09A958E
:102C5000660F771F881FDAF7880F9695879597F983
:102C600008950E94BB1690F09F3748F4911116F01A
:102C70000C94D41660E070E080E89FEB089526F491
:102C80001B16611D711D811D0C944E160C94691646
:102C900097F99F6780E870E060E00895882371F4F9
:102CA000772321F09850872B762F07C0662311F4E5
:102CB00099270DC09051862B70E060E02AF09A951C
:102CC000660F771F881FDAF7880F9695879597F913
:102CD00008959F3F31F0915020F48795779567953F
:102CE000B795880F911D9695879597F908959FEF51
:102CF00080EC089500240A94161617061806090693
:102D0000089500240A941216130614060506089561
:102D1000092E0394000C11F4882352F0BB0F40F4E9
:102D2000BF2B11F460FF04C06F5F7F4F8F4F9F4F29
:102D3000089557FD9058440F551F59F05F3F71F0AB
:102D40004795880F97FB991F61F09F3F79F0879512
:102D50000895121613061406551FF2CF4695F1DF9B
:102D600008C0161617061806991FF1CF869571052B
:102D70006105089408950E94A116A0F0BEE7B91756
:102D800088F4BB279F3860F41616B11D672F782F83
:102D90008827985FF7CF869577956795B11D9395AE
:102DA0009639C8F30895E894BB2766277727CB01A7
:102DB00097F908950E944C1708F48FEF08950E9428
:102DC000F2160C9488160E947A1638F00E9481162A
:102DD00020F0952311F00C9448160C9477161124CA
:102DE0000C94D4160E94991670F3959FC1F3950F19
:102DF00050E0551F629FF001729FBB27F00DB11D7F
:102E0000639FAA27F00DB11DAA1F649F6627B00D0E
:102E1000A11D661F829F2227B00DA11D621F739FF7
:102E2000B00DA11D621F839FA00D611D221F749F05
:102E30003327A00D611D231F849F600D211D822F4C
:102E4000762F6A2F11249F5750409AF0F1F0882373
:102E50004AF0EE0FFF1FBB1F661F771F881F9150A0
:102E60005040A9F79E3F510580F00C9448160C94F1
:102E7000D4165F3FE4F3983ED4F386957795679533
:102E8000B795F795E7959F5FC1F7FE2B880F911DCA
:102E90009695879597F90895990F0008550FAA0BF5
:102EA000E0E8FEEF16161706E807F907C0F012165D
:102EB0001306E407F50798F0621B730B840B950B60
:102EC00039F40A2661F0232B242B252B21F40895B5
:102ED0000A2609F4A140A6958FEF811D811D089552
:102EE00097FB072E16F4009407D077FD09D00E94B7
:102EF0008A1707FC05D03EF4909581959F4F089561
:102F0000709561957F4F0895EE0FFF1F0590F49126
:102F1000E02D0994AA1BBB1B51E107C0AA1FBB1FD0
:102F2000A617B70710F0A61BB70B881F991F5A9555
:102F3000A9F780959095BC01CD01089581E090E0BE
:102F4000F8940C94941AFB01DC0101900D9200207E
:102F5000E1F70895AEE0B0E0E0EBF7E10C946B1A16
:102F60000D891E8986E08C831A8309838FEF9FE782
:102F70009E838D83AE01475E5F4F6F89788DCE0152
:102F800001960E94CC17EF81F885E00FF11F1082A7
:102F90002E96E4E00C94871AABE0B0E0E2EDF7E1A6
:102FA0000C945D1A6C017B018A01FC011782168268
:102FB000838181FFCCC1CE0101963C01F601938152
:102FC000F70193FD859193FF81917F01882309F497
:102FD000BAC1853239F493FD859193FF81917F01C8
:102FE000853229F4B60190E00E94C319E7CF912CF5
:102FF000212C312CFFE1F315D8F08B3279F038F425
:10300000803279F08332A1F4232D20611DC08D32EE
:1030100061F0803369F4232D216016C0832D826016
:10302000382EE32DE4603E2E2AC0F32DF8601DC03B
:1030300037FC2DC020ED280F2A3040F08E32B9F435
:1030400036FC81C1232D2064322E19C036FE06C005
:103050008AE0989E200D1124922E11C0EAE02E9E47
:10306000200D1124222EF32DF0623F2E08C08C3645
:1030700021F4832D8068382E02C0883641F4F70190
:1030800093FD859193FF81917F018111B3CF982F9B
:103090009F7D9554933028F40C5F1F4F9FE39983D5
:1030A0000DC0833631F0833771F0833509F059C094
:1030B00021C0F801808189830E5F1F4F882483948B
:1030C000912C530113C02801F2E04F0E511CF8015E
:1030D000A080B18036FE03C0692D70E002C06FEFA2
:1030E0007FEFC5010E94B8194C018201F32DFF77D3
:1030F0003F2E16C0280122E0420E511CF801A0808C
:10310000B18036FE03C0692D70E002C06FEF7FEF23
:10311000C5010E94AD194C01F32DF0683F2E8201CC
:1031200033FC1BC0822D90E088169906B0F4B601DE
:1031300080E290E00E94C3192A94F4CFF50137FC95
:10314000859137FE81915F01B60190E00E94C3191D
:1031500021102A9421E0821A91088114910471F7B8
:10316000E8C0843611F0893641F5F80137FE07C012
:1031700060817181828193810C5F1F4F08C06081E3
:103180007181072E000C880B990B0E5F1F4FF32DDA
:10319000FF763F2E97FF09C09095809570956195B9
:1031A0007F4F8F4F9F4FF0683F2E2AE030E0A30102
:1031B0000E94FF19882E861845C0853731F4232DCB
:1031C0002F7EB22E2AE030E025C0932D997FB92EB4
:1031D0008F36C1F018F4883579F0B5C0803719F012
:1031E000883721F0B0C0E92FE061BE2EB4FE0DC0DB
:1031F000FB2DF460BF2E09C034FE0AC0292F2660C3
:10320000B22E06C028E030E005C020E130E002C068
:1032100020E132E0F801B7FE07C060817181828150
:1032200093810C5F1F4F06C06081718180E090E048
:103230000E5F1F4FA3010E94FF19882E8618FB2DD9
:10324000FF773F2E36FE0DC0232D2E7FA22E891430
:1032500058F434FE0BC032FC09C0832D8E7EA82E9C
:1032600005C0B82CA32C03C0B82C01C0B92CA4FEF7
:103270000FC0FE01E80DF11D8081803321F49A2DED
:10328000997EA92E09C0A2FE06C0B394B39404C0CF
:103290008A2D867809F0B394A3FC11C0A0FE06C065
:1032A000B21488F4280C922C9B180EC0B21460F44F
:1032B000B60180E290E00E94C319B394F7CFB21434
:1032C00018F42B1802C0982C212CA4FE10C0B601B3
:1032D00080E390E00E94C319A2FE17C0A1FC03C0C6
:1032E00088E790E002C088E590E0B6010CC08A2D26
:1032F000867859F0A1FE02C08BE201C080E2A7FCF3
:103300008DE2B60190E00E94C319891438F4B60129
:1033100080E390E00E94C3199A94F7CF8A94F30156
:10332000E80DF11D8081B60190E00E94C319811063
:10333000F5CF222009F442CEB60180E290E00E944F
:10334000C3192A94F6CFF6018681978102C08FEFC8
:103350009FEF2B96E2E10C94791AFC0105906150E5
:1033600070400110D8F7809590958E0F9F1F08959B
:10337000FC016150704001900110D8F78095909544
:103380008E0F9F1F08950F931F93CF93DF93FB0121
:10339000238121FD03C08FEF9FEF2CC022FF16C0B9
:1033A00046815781248135814217530744F4A08117
:1033B000B1819D012F5F3F4F318320838C93268104
:1033C00037812F5F3F4F3783268314C08B01EC0179
:1033D000FB010084F185E02D0995892BE1F6D801E8
:1033E00016968D919C911797019617969C938E93A4
:1033F0001697CE01DF91CF911F910F910895FA0199
:10340000AA27283051F1203181F1E8946F936E7F23
:103410006E5F7F4F8F4F9F4FAF4FB1E03ED0B4E014
:103420003CD0670F781F891F9A1FA11D680F791F55
:103430008A1F911DA11D6A0F711D811D911DA11D66
:1034400020D009F468943F912AE0269F1124301976
:10345000305D3193DEF6CF010895462F4770405D11
:103460004193B3E00FD0C9F7F6CF462F4F70405DC0
:103470004A3318F0495D31FD4052419302D0A9F71B
:10348000EACFB4E0A6959795879577956795BA9515
:10349000C9F700976105710508959B01AC010A2EDB
:1034A00006945795479537952795BA95C9F7620FB2
:1034B000731F841F951FA01D08952F923F924F9256
:1034C0005F926F927F928F929F92AF92BF92CF92B4
:1034D000DF92EF92FF920F931F93CF93DF93CDB7BD
:1034E000DEB7CA1BDB0B0FB6F894DEBF0FBECDBF35
:1034F00009942A88398848885F846E847D848C8406
:103500009B84AA84B984C884DF80EE80FD800C810E
:103510001B81AA81B981CE0FD11D0FB6F894DEBFF1
:0C3520000FBECDBFED010895F894FFCF61
:10352C000100000000B75E2C2F17180C0C070400CC
:10353C003E1F101008090503010100000000D4090A
:10354C003D096B09210A9C097A098E0950696E673D
:10355C0000534E522061742067773D25640920008A
:10356C0046726F6D2067773D25642C2564000D0A2B
:02357C0000004D
:00000001FF
