:020000040020DA
:10200000107E00208D22200047D2200045D22000E3
:1020100045D2200045D2200045D22000000000001B
:102020000000000000000000000000006FE520003C
:1020300045D22000000000008DE52000A9D220003C
:10204000BBD22000C1D22000C7D22000CDD22000B8
:1020500000000000AFD22000B5D2200045D2200001
:1020600045D2200000000000000000000000000039
:10207000000000000000000045D220000000000029
:10208000000000000000000045D2200045D22000E2
:1020900045D2200045D2200045D2200045D2200064
:1020A00045D2200045D2200045D2200045D2200054
:1020B00045D2200045D2200045D2200045D2200044
:1020C00045D2200045D2200045D2200045D2200034
:1020D00045D22000000000000000000000000000C9
:1020E00000000000000000000000000000000000F0
:1020F0000000000000000000553820006538200076
:1021000000000000000000000000000000000000CF
:1021100000000000000000000000000000000000BF
:1021200000000000000000000000000000000000AF
:10213000000000000000000000000000000000009F
:10214000000000000000000000000000000000008F
:10215000000000000000000000000000000000007F
:10216000000000000000000000000000000000006F
:10217000000000000000000000000000000000005F
:10218000000000000000000000000000000000004F
:10219000000000000000000000000000000000003F
:1021A000000000000000000000000000000000002F
:1021B000000000000000000000000000000000001F
:1021C000000000000000000000000000000000000F
:1021D00000000000000000000000000000000000FF
:1021E00000000000000000000000000000000000EF
:1021F00000000000000000000000000000000000DF
:1022000000000000000000000000000000000000CE
:1022100000000000000000000000000000000000BE
:1022200000000000000000000000000000000000AE
:10223000000000000000000000000000000000009E
:10224000000000000000000000000000000000008E
:10225000000000000000000000000000000000007E
:10226000000000000000000000000000000000006E
:1022700045D22000393720005D372000D92D2000BD
:10228000D5392000F928200045D2200008B5094B97
:10229000FF221A600848094A4824E369121A0849CB
:1022A00098470848084AA369121A0021984700F085
:1022B0000DF8FEE7B4200D40404000201D420020F4
:1022C000A0002100204200200B760020F7B500F08E
:1022D00063FC00F01DFD00F079FC00F06DFA01F0E8
:1022E00067FB0BF0B8F900F00BFD00F0C7F8012018
:1022F0000AF0ACFF04F04AFD00F03AFC002000F0C8
:1023000055FB012000F052FB4849002000F01AFC68
:1023100004F082FE62B604200AF098FF44480AF0F6
:10232000F9FF44480AF0F6FF00F0E8F9002004F055
:1023300021FF01F027FA00213F4804F0B3FD04F02B
:1023400049FB0AF0AFFF00F06BFD00F087FD09F0DC
:10235000C9FF0821684601F051FB9DF807309DF840
:102360000670364C43EA07276B4603CB206061605A
:10237000334801F07DFB0025615D3248013501F0F5
:1023800077FB072D2D4EF7D12F4DF1792F4801F016
:102390006FFBEC6A4AF6CD310220A0473946032094
:1023A000A0471A210120A047694608226B6B0B2029
:1023B0009847274801F05CFB264B18680AF0AAFFF3
:1023C000254801F055FB254B18680AF0A3FF244867
:1023D00001F04EFB234B18680AF09CFF224A336839
:1023E00013607368536009F093FC00211F4804F0E8
:1023F00059FD00211E4804F055FD1E4B01219B682C
:10240000812098470BF0F6F81B480BF0E9F800F034
:10241000B5FB02200AF01AFF00F0B6FB04F0CEFC78
:1024200010F0FF0FF8D101F057FAF5E7D56F200053
:1024300084F02000A0F02000DC4000200376002083
:10244000C5F02000E3F02000A4EF20007CFD200078
:10245000E9F0200018F02000F0F02000FCEF200050
:10246000F7F0200024F02000E86B0020504100200D
:10247000FC400020BCEE200060F0200008B500F019
:10248000DDF8024B00221A7008BD00BF0260002078
:10249000024A13781843107000F0F4B8026000206C
:1024A000034A137823EA0000107000F0EBB800BF75
:1024B0000260002020B1012805D1044B1878704734
:1024C000034B186870470020704700BF036000206E
:1024D00020900D4010B5094A002013780133137085
:1024E000074B197804F0B6FCBDE8104005490023FD
:1024F000054A0968054804F0A3BA00BF036000203C
:10250000FA75002058420020D524200030420020D7
:10251000812808B52AD0B0F5807F39D0802839D1FC
:1025200004F02CFC1C4B1D4A18701368032123F087
:102530000803136052F8203C002023F0080342F8FF
:10254000203C52F81C3C23F0080342F81C3C52F893
:10255000183C43F0080342F8183C042200F0E6FB64
:10256000032200210E4800F083FB13E00D4B0E48C0
:102570001A6829B142F008021A600123036005E0DD
:1025800022F008021A600123C0F88030084608BD16
:10259000064B1960012008BDFA75002020940D40FB
:1025A000B125200010940D4000E100E058420020C9
:1025B00008B50F480BF063F8C8B108210C480BF0C0
:1025C0004CF80C4B196869B10B4B00221A700B4B7D
:1025D0001B6823B90A4A0B4804F032FA02E00948A2
:1025E00004F070FABDE80840074804F095BD08BD46
:1025F00050420020584200200360002020900D40EF
:10260000D524200030420020BCEE2000084A136888
:1026100023F00403136052F8203C43F0040342F813
:10262000203C044B00221A60034B01221A707047B1
:1026300020C40D4010C00D40046000200D4A0E491A
:10264000136823F0C003136052F8203C43F0C0032A
:1026500042F8203C094B00221A600B6823F010035B
:102660000B6051F8203C43F0100341F8203C044B30
:102670001A60704720A40D4020C40D4000A30D40F7
:1026800040C00D4000F0020202F0FF010B4B12B1FE
:10269000FF221A6000E0196000F0040202F0FF015E
:1026A000074B12B1FF221A6000E0196010F0010020
:1026B000044B1ABFFF221A601860704700A20D4039
:1026C00000A10D4040C00D40044B1868C0F3072026
:1026D000030904BF1030C0B2704700BF1C300D406A
:1026E000054B1868C0F3C21001289ABFC0F1020060
:1026F00040034FF40040704714300D402DE9F0477F
:1027000088B0FFF7E1FF174B48251C68AB68074608
:1027100098476B68804698470546FFF7E1FF0646F5
:1027200000F08EFA814600F097FA824600F044FAF3
:10273000B60A04F00103AD0AC4F340040690039303
:10274000CDF814A0CDF8109002940196009507F0F2
:102750000F03C7F307124146034801F089F908B097
:10276000BDE8F0871C300D4005F12000F8B500F001
:1027700081F80F4B0024D3E900673A46B04238BFD6
:102780007A1C15460443C3E90045DFF828E0DEE97A
:102790000001821B61EB070312196B41CEE9002394
:1027A00004F044FA18B1BDE8F84004F0C3B9F8BD2C
:1027B00020420020284200200D4B0E4AE0215A60A2
:1027C0000D4A82F82310002207219A6019600B49F4
:1027D0000B6843F001030B60094B1A60042243F8B5
:1027E0000C2C012243F8082C0F22DA62704700BF3C
:1027F00010E000E047E8010000ED00E008200D4097
:102800000C000340034BD3E90023100A40EA0360A5
:10281000704700BF20420020034BD3E90023D00BB8
:1028200040EA4340704700BF28420020054B186033
:102830001C3B1A6842F001021A601A68D207FCD4E5
:10284000704700BF2800034010B5064C236823F0F2
:1028500001032360FFF78AFF236843F0010323602D
:1028600010BD00BF10E000E0014B1868704700BFCA
:102870005C420020074B084A196804331B68126841
:10288000120442EA0323054A0B43106843EA00603E
:10289000704700BF40500D4048500D404C500D4017
:1028A00010B50446104A1368DB07FCD572B6FFF773
:1028B000E1FF231A062BD8BFC41D0C4B220E1A6051
:1028C000C4F3074243F8042CC4F3072243F8082C4E
:1028D000E2B243F80C2C62B6054B4FF400321C6098
:1028E000044B1A6110BD00BF50500D404C500D40BC
:1028F0005C42002000E100E008B500F0D1FF074B8A
:1029000000221A60064B4FF40032C3F89021C3F83E
:102910009020BDE8084004F0FBBA00BF5C420020F4
:1029200000E100E0064B1B681B075FBF054B186802
:1029300080F00800C0F3C00048BF0020704700BF0F
:1029400018C0004018D00040164A2C2303FB002377
:102950004FF6BF7270B5DC680546236C62649BB2AB
:1029600013F050020DD0104EA369DB0608D456F8C0
:1029700025301BB12068C0B29847F5E72368F3E71C
:1029800070BD13F4D06F0BD04FF440732363FF235B
:102990006360E36AE262E362236B43F00103236353
:1029A00070BD00BFCCEE20006042002001282DE960
:1029B000F74F064600F2B6802C2545435B4F7C1945
:1029C00094F92080B8F1000FC0F2AC8094F9229005
:1029D000B9F1000FC0F2A680554800F0D7FF554A64
:1029E0007B591168E5680B4313605168636894F97B
:1029F00021A00B4353609168A3685FFA89FB0B43E6
:102A000093600023C5F8C83F23690AEBC8021A6027
:102A100094F92330227D00939DF8003058461946E2
:102A2000019300F08DF9019B08221946584600F0E9
:102A30007DF9414A4FEA0939009959F8020001230A
:102A400003FA01F1014349F802104FEA083858F837
:102A5000020003FA0AF1014348F802105021A96369
:102A6000A96B94F9240041F4D061A9630221696340
:102A70004FF440712963A16900286962E169A96284
:102A80004FF07001E962154616DB94F92510A2F5A6
:102A9000A64241EAC0041C3A1460040362598B4008
:102AA000134363510022C9B2C0B200F03FF9234A78
:102AB000136843F4004313602C2303FB067393F95C
:102AC0002640002C1BDB93F927A05FFA84F85FFAFD
:102AD0008AF9012249464046240300F031F962593F
:102AE000012303FA0AF3134363510822494640467F
:102AF00000F01CF9114A136843F4804313602C233F
:102B000003FB0676F268136B43F00103136396F838
:102B100028300122590903F01F0302FA03F3084A7F
:102B200042F8213003B0BDE8F08F00BFCCEE2000AA
:102B30002529200028200D4020940D4030D0004051
:102B400000E100E001289CBF014B43F820107047D2
:102B500060420020012808D8044B2C2202FB0030E0
:102B6000C3689A699206FCD419607047CCEE2000C5
:102B7000014B00221A60704700500D40014B0822A3
:102B80001A60704700500D40024BA0221A6050227C
:102B90001A60704700500D40014B024A9A6070471E
:102BA00000ED00E000202000024B1868C0F38150C7
:102BB000704700BF04200D4008B5FFF7F5FF024B3A
:102BC00053F8200008BD00BF24EF200038B5164D93
:102BD000164C2B68012223F040032B60236806214A
:102BE00023F040032360032000F0A0F82B680122AB
:102BF00023F080032B602368072123F080032360E8
:102C0000032000F093F80A4A0A4B0B491A600A683D
:102C10000A4B1340084A002BF9D113685901FCD420
:102C200013685B01FCD538BD20C40D4000C40D40C5
:102C30000101020000200D4004200D4000000101B0
:102C4000034B04481B6803F007031841704700BF9B
:102C500004200D400048E801034B04481B68C3F3FF
:102C600002231841704700BF04200D400048E801CE
:102C7000024B02EBC10243F8220070476842002079
:102C8000F8B507460E46094D002405EB411547FAF5
:102C900004F3DB07E1B204D555F824300BB130461C
:102CA00098470134082CF2D1F8BD00BF68420020DB
:102CB0002DE9F04780464FEA0837DFF8409007F1EA
:102CC000804505F5592500F0EBFDD5F8186457F857
:102CD00009304FEAC80A23FA0AF446EA0400E4B2CB
:102CE0004146C0B2F6B204FA0AF4FFF7C9FFC5F8CC
:102CF0001C6447F80940BDE8F08700BF18970D40F5
:102D00008022002101480AF0F1B900BF684200208A
:102D1000034A044B1A60044B803A1A60704700BFA4
:102D200080400D40EC420020E8420020034B01EBC4
:102D3000C0011B6843F82120704700BFEC4200200F
:102D4000034B01EBC0011B6843F82120704700BF13
:102D5000E84200200E2870B50BD1154B154E1C68AB
:102D600044F002051D60356825F03F0343F0010380
:102D70003360114E336823F0FF031A4311430143BC
:102D80000E4A316013681B06FCD50D4B0D4A1B68BB
:102D900012680E2803F0FC0343EA022308BF054A29
:102DA0001BB204BF1560024A184608BF146070BD0C
:102DB00034000144F486084008700D4000700D4056
:102DC0000C700D4010700D40024B1868B0FA80F086
:102DD0004009704700B7084010B5074B4FF4004258
:102DE000064CC3F89021C3F89020206818B104F075
:102DF00071F80023236010BD00E100E0F0420020E4
:102E0000064A136843F002031360536843F0020359
:102E10005360936843F002039360704748200D406D
:102E200007B50C4800F0B2FDFFF7EAFF0A4B1A683D
:102E300042F002021A6000220192019A0F2A02DC7B
:102E4000019A0132F8E71A6822F002021A6003B010
:102E50005DF804FBC92D200054200D40064A13687C
:102E600023F002031360536823F002035360936856
:102E700023F002039360704748200D40084B93F9FC
:102E80000020002A09DB074AED2111601160E321CF
:102E900011601A7862F07F021A700120704700BF3B
:102EA00008600020388808400C4A13689907FCD451
:102EB0000A4B1B685B065FBF094BED221A601A6064
:102EC000084B1B6813B1064BEF221A60064A01201B
:102ED000137803F07F031370704700BF4C860840DF
:102EE000388808402C8608400860002038B5A0F1DA
:102EF0000B04E3B20F2B054613D80B4B1B6813F0E2
:102F00003F0302D0FFF7D0FF012304EB8404074AFC
:102F10000B3414600BB1FFF7B1FF054B68B21D70A5
:102F200038BD4FF0FF3038BD488608403C86084029
:102F30001B42002010B50B4B1B68990603D1FFF70D
:102F40009DFF012300E0002307490A68D207FCD552
:102F5000064A1468C4F300140BB1FFF7A5FF20461E
:102F600010BD00BF48860840648608404C86084073
:102F7000044B186800F02200A0F120035842584189
:102F8000704700BF4C860840024B186800F04000B4
:102F9000704700BF4C86084038B50C46002900F049
:102FA0008880102800F28780DFE800F0090F1A1CE3
:102FB00023394254596F738585787A7C7F003F4B63
:102FC0001B68003318BF012370E03D4B05221B68CE
:102FD00003F07F030B3B93FBF2F30B33DBB265E0B3
:102FE000384B00E0384B1A68043B1B6843EA022365
:102FF0005CE000230B60354B354A1B6803F001038E
:103000000B601268900644BF43F002030B60314B23
:103010001B78002B4BD00B6843F0040346E02E4B8B
:1030200000201B780860002B41D001230B6038BDC5
:103030002A4B2B491A680023D2B201EBC300007956
:10304000904203D8264A52F833302FE001330E2B3A
:10305000F3D127E0234B1B685BB2493B26E0224BB0
:103060001B68990603D1FFF709FF012300E0002345
:103070001E490A68D207FCD51D4A1568493D6DB244
:103080000BB1FFF711FF256011E01A4B93F90030E7
:103090000CE0194B1B7803F07F0307E00B2305E0DE
:1030A0001A2303E06FF0170300E0072323600020DA
:1030B00038BD022038BD012038BD00BF2C86084035
:1030C0003C860840CC850840D485084000860840EE
:1030D00024860840076000201A42002040860840ED
:1030E00034EF20005886084048860840648608402F
:1030F00060860840066000200560002038B505465F
:103100000C46134A13689B07FCD4124B93F900300A
:10311000002B01DBFFF7B2FE0F4BEE221A60691E97
:103120001A60A21C43F8102C2144022000F044FB3A
:10313000013C0A4924012143022000F04FFB0220F8
:1031400000F056FB022000F06BFB002038BD00BFF2
:103150004C860840086000203888084002C001C042
:10316000F8B5214B93F90030002B0DDBFFF782FB04
:103170000546FFF783FE6FF00904641BFFF77AFB37
:10318000C442FBD4012600E00026184B1B7823B96B
:10319000174D2B68990604D405E0FFF7CBFE0028F5
:1031A000F6D10220F8BD134CE923236004272B68D5
:1031B0009A0707D4013F17F0FF0703D00620FFF757
:1031C00035FBF4E72B689B0704D4EE2323602360D0
:1031D000012403E02C6814F00204FBD10EB1FFF7C8
:1031E00063FE2046F8BD00BF086000201A420020A0
:1031F0004C86084038880840214B1870002834D08D
:10320000204A13681B03FCD51F4B1A6842F00202C8
:103210001A601A6842F001021A601A681A495007C7
:10322000FBD50A6822F001020A601968164A4907AC
:10323000FBD4116841F002011160116841F00101F5
:1032400011601A685207FCD5104A136823F0040372
:103250001360D2F8A83123F00403C2F8A8310C4B54
:103260004FF40052C3F890207047084A136843F0A7
:1032700004031360064B4FF400521A61704700BFFD
:103280000760002004200D40048808408C86084018
:1032900000E100E010B50C46072861D8DFE800F037
:1032A000040E181C233F455B012902D1FFF7E6FD00
:1032B0004BE0002958D1FFF7F7FD46E0A1F10B03E1
:1032C0000F2B51D8C8B2FFF711FE01303DD149E0B4
:1032D0008CB2E2B2254B02E08CB2254BE2B2240A5A
:1032E0001A605C6031E031F007033DD1214B11F0F1
:1032F000010F1A68C1F3800014BF42F0010222F0EE
:1033000001021A601C4B11F0020F1A6814BF42F040
:10331000200222F020021A60FFF76EFF15E031F064
:10332000010021D1154B197010BD01F118031F2B9D
:103330001AD813490D2351F83300DA00844206DC11
:103340000F4B13441A790F4B1A60002010BD13F174
:10335000FF33F0D2F9E7CCB20B4B49341C60F4E7F1
:10336000012010BD032010BD022010BDC8850840FB
:10337000D085084000860840248608401A42002074
:1033800034EF200040860840588608400B280DD1B5
:10339000082A0DD161B1074B074A083111F8010D18
:1033A00043F8040F9342F9D1002070470120704781
:1033B00002207047A4850840C485084070B52F4D91
:1033C0002B6813F0400308D02D4E3368DCB21B0687
:1033D00005D52C4BED221A601A60002070BD042C1C
:1033E000F7D9023C8C42F4DCE4B2032C21D0011961
:1033F0000139032000F0E8F9631E23491B0119433A
:10340000032000F0EBF9032000F0F2F9032000F0B4
:1034100007FA032000F010FA0028FAD131681B4B9C
:10342000493949B219703368194E18063370D0D52E
:1034300006E0336803703368437033688370EDE7E8
:1034400089B2042008F024FF3178032001F07F01C5
:1034500008F01EFF0F4B1B7873B92B685A060BD56B
:10346000064B1B681B0603D50B4803F033FD03E036
:10347000044BED221A601A60204670BD4C8608404D
:10348000288808403888084002C0010C06600020E7
:10349000056000200760002050400020F8B5294F4B
:1034A0003D7815F001054BD1274B01241C605C6071
:1034B0009C60A3F59323A3F51473F8221A600922E4
:1034C000C3F89021152270331A6003F59B230B2259
:1034D00003F59E731A60A3F59B23A3F5F0734022B6
:1034E0001A601A687F2642F020021A60D52243F83B
:1034F0001C5CDE62DA61154B1878FFF7F7FC144BA1
:103500004FF480421E60134B02201A6100F07CF9D8
:103510001149022000F058F9032000F075F90E4916
:10352000032000F049F90D4B1878FFF765FE294696
:103530000B4803F0B7FC3B78204623433B70F8BDB3
:103540000020F8BD08600020A8200D401B4200208C
:103550009486084000E100E02888084007600020C9
:103560005040002038B503880446CBB140F20342F6
:10357000934203D000230380032038BD194B1878F1
:103580001A4628B11B7873B1174B1B7858060AD519
:10359000822908D1137843B1134B1A78520614D4F8
:1035A00040F203432380012038BD08F017FE08F0E5
:1035B000ABFD8021FFF702FF0028EDDD80B208F0AF
:1035C00087FD0A4B1B699847E6E700221A70084BF3
:1035D0001D68FFF769FCFFF761FFAB06E0D0FFF75E
:1035E0004DFCDDE7076000200860002024F020008B
:1035F000488608400B282DE9F84F0E4610D1082ABE
:1036000040F0828000297FD0414B424A4E1E53F841
:10361000041D934206F8011FF9D10020BDE8F88F80
:103620000C286ED1042A6FD100296DD03A4B3B484B
:103630001A68DFF8F8C022F007021A600268DFF8A3
:10364000F0A042F008020260DAF80040DCF8001056
:103650001A68DFF8E0E022F07002314F1A60DEF8FD
:1036600000203D68E4B2090244EA056401F47F41A8
:103670001204214302F47F020A432A490024D1F8AC
:1036800000805FFA88F544EA02081A68A94622F029
:10369000070242F001021A60026842F0080202606A
:1036A000DAF80000DCF800201D68C0B225F07005D3
:1036B00045F010051D60DEF800303D68120240EA5A
:1036C000056002F47F421B04024303F47F031343AB
:1036D0000A6844EA030A5FFA82FBFFF7CBF8B8EB0B
:1036E0000A0869EB0B094FEAC93105460E4A002367
:1036F0004FEAC83041EA584109F05CFA281A3060B4
:103700008BE70120BDE8F88F0220BDE8F88F00BFED
:10371000C8850840A88508401088084004880840EB
:10372000208808401C8808400048E80118880840A4
:10373000148808402488084008B5054B1B7813B945
:10374000044803F0C7FB044B00221A6008BD00BF09
:10375000076000205040002034880840064B07488E
:103760001A68042A1FBF06490A7842F040020A700C
:1037700000221A6003F0AEBB2C88084050400020A5
:103780000860002010B5094C40220021204609F0B5
:10379000ADFC074B01221A605C60064B4FF480427F
:1037A0005A604FF400425A6010BD00BF0040002034
:1037B00004F00F4000E100E003289EBF014B000130
:1037C000195070470040002003289EBF024B03EBB6
:1037D00000104160704700BF0040002003289EBFDA
:1037E000024B03EB00108160704700BF00400020D7
:1037F000032806D8034901220B6802FA00F0184397
:103800000860704728F00F40032806D803490122BA
:103810000B6802FA00F018430860704720F00F4070
:10382000032806D8034901220B6802FA00F0184366
:103830000860704714F00F4003289FBF044B03EB50
:103840000010806800F0070088BF0020704700BFAC
:1038500000400020024B4FF0FF321A60704700BF5B
:1038600004F50F40014B01221A6070474CF00F40E5
:10387000094A1368084913F4801FFAD1074B1A68E4
:1038800022F480321A600A68D203FCD41A6842F427
:1038900000321A60704700BF04200D4000200D4028
:1038A00010B50B4B1A681C4612F0030F0ED00949D5
:1038B0000B68084A13F0806FFAD113685B01FCD5DE
:1038C000FEF7C2FFFFF7D4FF0023236010BD00BF47
:1038D00058200D4004200D4038B5264B1C6814F0CC
:1038E0003F0413D1244D55F8243023B1984768B1D3
:1038F0000134052CF7D1214D2B783BB1FEF7B4FFF5
:103900000446FEF7B7FF201A092801D830BF38BD9A
:10391000002CFBD01A4B1B481A6822F400321A60A4
:103920000268184912F4801FFAD11A6842F48032F2
:103930001A600B68DB03FCD5FEF79CFF201A0928F0
:1039400003D8BDE83840FFF793BF63280E4C02D977
:103950002B78022B00D00123236003F071FA20B1F1
:10396000FFF786FF0023236038BDFEF77DFF0028A8
:10397000CCD1F5E748860840F442002009600020D9
:1039800000200D4004200D4058200D400749002321
:1039900051F82320824207D01AB9044A42F8230082
:1039A00070470133052BF3D1704700BFF44200206C
:1039B000054B00221A60054A136943F004031361A2
:1039C000034B02221A70704758200D4000ED00E0B2
:1039D0000960002010B5074B4FF48032064CC3F845
:1039E0009021C3F89020206818B103F073FA0023E7
:1039F000236010BD00E100E00843002030B5184B03
:103A00001A78431E22B101F520112731154A1FE013
:103A1000154A1278122AF6D1144A12784B2AF2D19A
:103A20004A0802F12814B4F1281F04D014F8015DEB
:103A300003F8015FF7E701F5201127310023104457
:103A4000934204DA11F80149C4540133F8E730BD58
:103A5000914204D011F8010903F8010FF8E730BDD5
:103A60002B002800270028002A0028002900280011
:103A70000FB407B504AA52F8041B0448019200F0E1
:103A800035F803B05DF804EB04B0704760400020E7
:103A90001FB51446074A8DE80300029221461A46D4
:103AA00002A8CDF80CD000F021F8009B00221A707B
:103AB00004B010BDB3D3200070B505460C46102CE1
:103AC00007D92B68102208496868984750B9103CFC
:103AD000F5E734B12B68224668680349BDE87040B9
:103AE0001847204670BD00BF23F220002DE9F04F9B
:103AF000064615468FB006914FF0000B069B1B78CB
:103B0000CBB1069C274617F8013B1BB1252B14D0DF
:103B10003C46F7E7069BA3420DD0069B0699C3EBF4
:103B200004084246336870689847002840F01F83B5
:103B30002378C34423B9584634E3069BA342ECD10F
:103B40006378002BF7D039460024084610F8013B73
:103B50000A462B2B11D006D8202B11D0232B12D1A3
:103B600044F0080416E02D2B04D0302B0BD144F088
:103B700010040FE044F001040CE044F0060409E0F6
:103B800044F0020406E0A3F13107082F11D84FF0EA
:103B9000000801E00146D8E70A4611F8013BA3F10D
:103BA0003000092813D80A2202FB0838A8F130088F
:103BB000F2E72A2B09D12B680246002B05F10405F8
:103BC000B8BF44F00104984601E04FF000081378B4
:103BD0002E2B1AD15178531CA1F1300009280ED890
:103BE000194600270A780B46A2F13000092801F196
:103BF00001010DD80A2303FB0727303FF2E72A29EA
:103C000004D12F68931C043502E013464FF0FF37B0
:103C10001A786C2A09D15A786C2A02D144F08004AF
:103C20000AE0013344F060040BE0682A09D15A78B5
:103C3000682A03D144F02004023302E0013344F047
:103C400040041A78642A3CD01FD8462A48D00DD8A0
:103C5000252A5AD003D8002A3FF46DAF57E0412AF5
:103C60004AD0452A53D144F4424450E0582A31D036
:103C700004D8472A4BD144F4A13448E0612A38D013
:103C8000632A44D144F4A06441E06E2A3AD007D8B4
:103C9000662A22D027D3672A28D0692A11D036E095
:103CA000732A2CD006D86F2A11D0702A2FD144F451
:103CB00040742CE0752A07D0782A28D144F4C854DF
:103CC00025E044F4245422E044F410641FE044F45A
:103CD00088541CE044F4B24419E044F4007416E043
:103CE00044F4844413E044F4024410E044F4813486
:103CF0000DE044F4C1340AE044F4E13407E044F454
:103D0000806404E044F4E06401E044F4C0640133FE
:103D1000069304F4E063B3F5806F00F08F8113D84D
:103D2000B3F5807F27D0B3F5407F7FF4E7AEAE4B8D
:103D300014F4804FAD4A18BF1A460DF133032868BA
:103D4000002104351F46B5E1B3F5C06F08D0B3F5C7
:103D5000E06F00F02282B3F5A06F7FF4CFAEF2E106
:103D600033680122A24970689847002840F0FF811B
:103D70000BF1010BC2E6002FACBF24F010040127A9
:103D800014F40053079304F0E0032ED0402B12D01C
:103D900005D8ABB1202B21D195F900200DE0602B87
:103DA0000ED0802B1AD1073525F0070303F1080543
:103DB000D3E9002307E0B5F90020D317043502E06A
:103DC0002A680435D317002A73F1000108DA524239
:103DD00063EB4303CDE90023012304E00022002329
:103DE000CDE900230023059329E0402B13D004D80C
:103DF000BBB1202B1DD12A780EE0602B11D0802B77
:103E000017D1073525F0070303F10805D3E900238F
:103E1000CDE900230BE02A880023CDE900230435F7
:103E200005E02B6800221946CDE900120435079BF6
:103E3000D9E70023059300220023CDE9002304F4F1
:103E4000C053B3F5805F0CD0B3F5C05F33D0B3F58A
:103E5000006F4FD1DDE900230DF13609CDE90223D2
:103E600004E0DDE900230DF1360915E0DDE9022368
:103E700013433AD0DDE902010A22002308F09AFE3A
:103E8000DDE90201303209F8012D00230A2208F091
:103E900091FECDE90201E9E752EA030125D002F0E3
:103EA0000701303109F8011DD10841EA4371D808F2
:103EB0000A460346F0E74C4B14F4804F0DF13609E7
:103EC0004A4918BF1946DDE9002352EA03000CD025
:103ED00002F00F00085C4FEA131E09F8010D1009EB
:103EE00040EA037002467346EFE70DF13603C9EB73
:103EF000030302E00DF1360900230293029B41F611
:103F00000802BB4238BFFF1A41F2080302EA04026A
:103F100028BF00279A4202D1002F08BF012741F68F
:103F20000801029B8A4203EB07000DD1DDE9002363
:103F3000134309D02F4A304914F4804F4FF0020A3E
:103F40000CBF0B46134602E04FF0000A5346079A97
:103F50009AB1059A52B904F00602022A0AD0062A3A
:103F6000264A04BF4FF0010A134606E04FF0010A4B
:103F7000234B02E0234B4FF0010A0AEB000290456D
:103F80008CBFC2EB08084FF0000814F00102009249
:103F90000DD1E10602D54744904608E0414630463F
:103FA0000593FFF789FD059B002840F0E080BAF1FA
:103FB000000F07D03468524619467068A0470028A1
:103FC00040F0D580029B03EB0B04BB46BBF1100F06
:103FD00033681BD910220C4970689847002840F0BC
:103FE000C680ABF1100BF1E7F0F1200001F22000E8
:103FF00021F2200015F2200012F2200018F2200019
:10400000F7FF20001400210033F22000BBF1000F65
:1040100006D05A46654970689847002840F0A78046
:104020003368029A4946706854449847002840F023
:104030009E80009B3C44002B39D032E0D5F80090A4
:104040000435B9F1000F0AD0CA469AF800300AF1D7
:1040500001020BB19246F8E7C9EB0A0A03E0DFF868
:1040600050914FF0060A002F02DBBA4528BFBA462E
:10407000D0458CBFCAEB08084FF0000814F00107C8
:1040800005D141463046FFF717FD00286FD1336850
:104090005246494670689847002868D10AEB0B04DD
:1040A0002FB141463046FFF707FD00285FD108EBEE
:1040B000040B23E550EA010E0ED000F00F0E12F8AB
:1040C0000EE04FEA111C03F801ED4FEA101E4EEA14
:1040D000017E70466146EDE7FF1A02BF30220127DC
:1040E00003F8012C07F1030708BF03F1FF3378221F
:1040F000B84503F8012C4FF0300203F8022C88BFBA
:10410000C7EB08084FF0230298BF4FF0000814F0E7
:104110000104A3F1030903F8032C04D141463046FE
:10412000FFF7CAFC18BB33683A464946706898479F
:10413000E8B95F4424B141463046FFF7BDFCB0B951
:1041400008EB070BDAE4B8F1010F2B688CBF08F11C
:10415000FF384FF0000814F0010405F104058DF854
:10416000203008D141463046FFF7A6FC10B14FF091
:10417000FF3017E0C3443368012208A970689847EC
:104180000028F4D108F101072CB141463046FFF771
:1041900093FC0028EBD1BB44B0E42B680435C3F892
:1041A00000B0ABE40FB0BDE8F08F00BF33F22000E9
:1041B0001AF2200010B54FF6FF7008F053FA0022F3
:1041C0008221144802F064FE00F028FF00F040FF56
:1041D000002000F045FE104BFF221A700F4A00230A
:1041E000136013710E4A0F490F4C1048136034F8D6
:1041F0001320D20302F5F42202F5907292FBF0F242
:1042000041F8232001330C2BF1D1BDE8104009F017
:10421000AFB900BF68400020A8670020EC6700200D
:10422000804C0020AC6700206CF0200040420F0062
:1042300073B503880546B3F5347F1AD007D8002B31
:1042400040F083800C21434809F0D5F90BE040F29F
:10425000D72293423BD040F20732934237D074E0EA
:104260003C4809F0D1F93C4B1B684BB94FF434730F
:104270002B80384809F0DAF90028F1D1002067E0F6
:10428000364B1B6863BB02F065FFC0F30A0131487F
:1042900009F0B1F940F2D72318E0314809F0ACF841
:1042A000044608B32F4E316800294BD0A1EB91048E
:1042B00002F050FF33689B08B0FBF3F101FB1300E1
:1042C0000119244809F097F940F207332B8021485F
:1042D00009F0ACF90028D1D01F4B1B68002BE1D0AE
:1042E000204B1B6873B3D8E78DF8060007F076FF04
:1042F00021460E2007F0CCFF07F006FF0DF1070363
:104300000DF10602802102F027F8061ECADDB0B2C8
:1043100007F0DEFE22462146114800F0D9FD044692
:1043200018B9114808F0F6FFBCE79DF806203146A1
:104330000E48FFF79DFB9DF80730E3739DF80630AC
:10434000A373AFE74FF40061BBE700232B8003208A
:1043500002B070BD10430020344300203C430020D5
:104360004FF220000C43002057F220007AF2200088
:10437000244B13B59B689847002808DA07F0B2FE73
:104380000146214802B0BDE81040FFF771BB0A208A
:1043900007F086FF4FF6FF73984219D008F06AF8CD
:1043A000A0B10F2007F08EFF20B10F2007F08AFF89
:1043B000C47900E004460A2007F072FF2146024655
:1043C000124802B0BDE81040FFF752BB08F078F881
:1043D0000F2007F077FF90B10F2007F073FFC4792B
:1043E0000A2007F05DFF214602460948FFF740FB1F
:1043F000084BDB68019302B0BDE810401847044643
:10440000EEE700BF44F0200099F22000B4F2200053
:10441000D9F2200050F020002DE9F043064685B087
:1044200010200F4607F04EFF3A4B04461B6883B935
:10443000394B1B680BB9394800E0394808F06AFF6E
:10444000394630460123042205B0BDE8F0430AF0A6
:1044500028BD34490AF03BF988B9334B0A201A7851
:10446000511C11F0FF010ABF023219701A7019783D
:1044700007F00EFF01210B2007F00AFF00E02B4C94
:1044800001210E2007F004FF204608F0B5FF28495F
:1044900080460F2007F00AFF264B5B689847B0F173
:1044A000000901DA2448C9E73A463146204600F0BF
:1044B0000FFD1D4B054680B90CB1E57900E025469E
:1044C000204693F8009008F097FF434600904A4634
:1044D00029461A48FFF7CCFAB2E780F80E900CB1E3
:1044E000E67900E0264620461F7808F085FF04465E
:1044F000286895F80E900AF055F88DE810020290A1
:1045000043463A4631460E48FFF7B2FA05B0BDE8D9
:10451000F08300BF3443002020430020FFF220003E
:104520003FF3200031FF20000A60002047F2200006
:104530000376002044F020006BF3200098F3200065
:10454000D3F320007FB5244C01A9A66A0420B0470C
:1045500008B1224827E00199E56A21F0030141F002
:10456000040101910420A84708B11D481BE002A9DD
:104570000520B04708B11B4815E00299052021F03D
:1045800001010291A84708B117480CE00F21012052
:10459000A84708B1154806E0236B042203A90C20A4
:1045A000984718B1124808F0B5FE12E0FFF702FE76
:1045B00000F0C4FD00F0B8FF02F0C6F904210D4878
:1045C00009F095F808210C4809F091F80B4B0122ED
:1045D0001A6004B070BD00BFA4EF200012F42000E8
:1045E00059F42000A9F42000F0F4200040F5200048
:1045F0007BF5200020680020236800202043002055
:1046000008B5044B08B11B6A00E05B6A98470120BB
:1046100008BD00BFA4EF200038B50E4B1B68BBB12E
:1046200000F00AFC05462C1D07F0D8FD214610209D
:1046300007F03CFE084B002108489B6898470CB1E6
:10464000E97A00E02146BDE838400548FFF710BA96
:1046500038BD00BF3443002050F0200079472000CF
:10466000C4F5200038B5114B1C68012C1BD1104B30
:104670001D68C5B929460F481C6002F013FC294685
:104680000D4802F00FFC29460C4802F00BFC0C4BC5
:104690000C4A19680C4B0D48002914BF11461946E5
:1046A000FFF7E6F900E00024204638BD2043002053
:1046B00038430020684000208840002078400020D7
:1046C0003C430020DCF52000E8F52000EDF520005B
:1046D000034B4FF400621860024B1A60704700BF32
:1046E0003C4300200C430020014B00221A6070471D
:1046F000F8430020014B1870704700BFA8670020E6
:10470000014B1860704700BF64430020B0F5C85FDC
:10471000024B28BF4FF4C850186070470C4300206C
:104720002DE9F0410F4B1D68D5B90F4B1B68BBB18C
:104730000E4F3868A0B10A26B0FBF6F4041B02F055
:1047400009FD3A682B46B2FBF6F2B0FBF2F101FB31
:104750001200074A01190748BDE8F04102F070B99C
:10476000BDE8F0813C430020344300206443002036
:10477000194620004043002038B50C46114620461B
:10478000154604F0F3F9102007F09CFD20B110202D
:1047900007F098FDC17900E001462B462246034808
:1047A000FFF766F9BDE83840FFF7BABF03F620000F
:1047B00008B5084B1A68012A0AD10022822106484E
:1047C0001A6002F047FBBDE80840044808F0A2BDAB
:1047D00008BD00BF344300207840002022F62000AE
:1047E0002DE9F04F0388BBB080464BB140F2133245
:1047F00093420BD000230380032092E001F0C6FF18
:1048000040F21333A8F8003001208AE08229FBD15E
:10481000DFF828A1D146444808F095FF07B27A1C7A
:1048200064D0902606FB07A603AAD6F88810304667
:1048300007F076FFC0B2F8B19DF824309DF81C4017
:10484000022B0ABFB4FA84F500256D09012C16D19C
:104850004FF0900B0BFB079B3046BBF8881007F01E
:10486000CDFCBBF88C10042007F012FD9BF88E10D5
:10487000204607F00DFD03E00546044600E0002455
:10488000294808F053FF14B1FFF772FDC3E7002D6C
:10489000C1D0902303FB079701230193009423AB1E
:1048A00013AAD7F88810304601F0F6FD0028B2D0E0
:1048B00000F0C2FA0028AED0011D15A809F007FFCC
:1048C0000028A8D0D7F880302599591A04D0174865
:1048D000FFF7CEF8FFF76CFF9DF89C101F299AD9BF
:1048E0001348FFF7C5F8FFF763FF94E7114D12482F
:1048F00008F029FF00B2431C80D055F82040206802
:1049000007F052FA237B627BA16860680AF0C9FA5B
:10491000204600F04FFB00F09BFB074808F006FF25
:10492000E5E73BB0BDE8F08F206800203CF62000B2
:104930006CF6200000680020236800202868002012
:104940002DE9F04F0388B7B007461BB1B3F5277FB9
:1049500015D097E0934A012193481371136008F032
:104960004AFEFDF74FFF914B18600EE0904B1B681D
:1049700083B98D4808F048FE4FF427733B808A487E
:1049800008F054FE002800F08281DFF87082DFF822
:1049900020B2C146D8F80030002B73D1DBF80030CC
:1049A000002B6FD1FDF72EFFDFF810A207909AF8C9
:1049B00000307E4E7F4C1BB13368C31A802B1AD94E
:1049C0007D4B18680D9002F0C5FB36AB00F003007C
:1049D000184410F8A45C9AF80030AB4209D0E36A9E
:1049E000294601209847754B294675481D70FFF7E9
:1049F0003FF8079B3360236A9847E569A84790B959
:104A00006C4B9B699847002834D0FDF733FF0C901E
:104A1000A84740B9FDF72EFF0C9A6FF4A3739B1AB9
:104A2000C342F5D426E0674E23697F21304698477C
:104A3000236BC6F8880004220CA90C2098479AF82A
:104A40000020D6F888106048FFF712F80C9B00256C
:104A500007930DF12F03009301951FAB0FAAD6F812
:104A60008810304601F018FD80B9D6F888105748F4
:104A7000FEF7FEFFD9F80030002B3FF477AF636AF2
:104A8000984787E700233B80032000E121AB93E8B0
:104A900003009DF88C30DFF860A15A1C8AF80020D2
:104AA0009DF84D203F4E012A86E8030001D1484879
:104AB000EAE0FF2B01D14748E6E09DF88D00464A29
:104AC0004649DFF83CE110B935F80E3002E01FAB83
:104AD0002B445B8ADB0303F5F42303F5907393FB0C
:104AE000F1F342F815300235182DECD19DF8C420B1
:104AF00052B9314B04211868394B0E900E9818604A
:104B0000384B19805A8019E0BDF8C650102D12D8C4
:104B10002A4632A9324808F00FFA4FF0FF33B3FBB0
:104B2000F5F36B435B42B3FBF5F12E4A158005FBB1
:104B30001135558002E029462B4899E79DF8A630AB
:104B40002BB92A4808F0E6FB00F006FD5AE000F019
:104B5000E7FB9DF8AA30042B21DCBDF8A8109DF8D6
:104B6000A700099300F024FB099B06221FA902FB62
:104B700003133A3308902CAD0993099B06359D42E7
:104B800040D035F8083C15F8061C019335F80A3C6E
:104B9000012200930898164B00F0D0FBEDE7194670
:104BA000144865E7EC6700202443002060430020A0
:104BB0003C430020A4EF200043F220000B600020C3
:104BC0009BF620006843002077F82000B9F620000B
:104BD000DDF620001CF72000AC67002040420F00EB
:104BE000DC670020F46700203EF720006FF720000C
:104BF00047F22000A8F72000A867002034430020D7
:104C00006CF020009AF800301F2B3CD811A800F05F
:104C1000D5F8002837D011A800F022F9BDF85A00C5
:104C200007F020FD1B4B1C499868079B1B4D181A69
:104C300001F028FB0123C9F800309DF84D302B60AE
:104C4000FFF76EFD08F093FC9DF8AA1033790591EB
:104C5000BDF8A810BDF85A2004919DF8C410104862
:104C600003919DF88D1002910E49097801913168E8
:104C700000912968FEF7FCFE11A807F04FFB0A20FF
:104C800008F030FBF6E6084808F044FBF2E637B0DF
:104C9000BDE8F08FAC670020EC670020F8430020EF
:104CA000DAF72000A86700205DF8200040F2B32268
:104CB0002DE9F3410388044693420AD0B3F52F7FD0
:104CC0000DD0002B43D110E0264A138040F2B323CD
:104CD00023802448FFF734FE012806D83BE0224B0E
:104CE0001B68002B39D1FFF765FA1F4EDFF894805F
:104CF0001E4F35682DBBD8F80030002BE4D04AF6A3
:104D0000CD3007F0AFFC3868194B019001980422B0
:104D10001860184B1A805D8000F01EFC0123336080
:104D2000154B1D7007F098FC144D01462B682A792D
:104D30001348FEF79DFEFDF79DFD294601F0A2FAFE
:104D4000D7E701F065FA4FF42F73238005E00023C5
:104D50000380032002E0002000E0012002B0BDE853
:104D6000F08100BF2C5900203443002043F2200082
:104D7000DC670020F4670020A8670020EC670020B3
:104D8000B4F820003C43002038B5054600F0A8FEEA
:104D900008B1002038BD084808F0EFFC04460028A0
:104DA000F7D02946201D09F092FC18B9204608F0DA
:104DB00016FDF3E7204638BDFC43002038B5054614
:104DC000FFF7E2FF044668BB00F090FE50B31648C0
:104DD00008F018FD044618B33822002108F086F9BF
:104DE000082104F1340008F082FC2946201D09F056
:104DF00069FC0E49284609F06AFC38B90C49284676
:104E000009F065FC003018BF012000E001200023FC
:104E1000E37301232073A3732146064808F0CAFCFC
:104E200000F0AAFE204638BDA44000204FF220002A
:104E300047F22000FC43002008B500F051FE08B105
:104E4000002008BD054808F098FC0028F8D0437BF6
:104E500013B908F0C4FCF8E708BD00BFFC4300200C
:104E600070B5044600F03CFE08B1002070BD164B42
:104E70001E68002EF9D1FFF7DFFF05462CB1204652
:104E8000FFF79CFF044608B9EFE73446AC4215D063
:104E90000DB1E97A00E0294604B1E67A32460B48C2
:104EA000FEF7E6FD64B1012363734FF4C060FFF7C2
:104EB00027FCFFF735FC0DB100236B73012070BD9B
:104EC0002046FFF71DFCF6E73C43002035F92000A3
:104ED0002DE9F34704468A46914600F001FE074655
:104EE00020B100244FF0FF36254630E02046FFF782
:104EF00065FF05460028F4D000F13408404608F06C
:104F00000AFC06B2731C21D01A4808F07BFC044648
:104F1000E8B106F011FF206098B1032305EB860588
:104F20006373C4F804A0C4F80890277340466C610A
:104F300008F0E3FB224631460F48FEF799FD204674
:104F400014E021460B4808F071FC00E03C4600F0FC
:104F5000C7FD01460CB1236800E02346019300948D
:104F600033462A460548FEF783FD002002B0BDE81F
:104F7000F08700BF9840002059F920008EF92000EA
:104F800038B5044600F0ACFD08B1002038BD002C57
:104F9000FBD004F1340008F0C9FB05B26B1CF4D05F
:104FA000294604EB85040248FEF762FD606938BDBE
:104FB000BEF9200010B5044640B1006806F0DEFEE0
:104FC0002146BDE81040024808F030BC10BD00BFCB
:104FD0009840002070B505460426284608F01DFAC2
:104FE000B0B92846FFF7CCFF044660B146730948C4
:104FF00008F090F96068237B627BA16809F051FF9B
:105000002046FFF7D7FF21460348FEF731FDE4E7CE
:1050100070BD00BFEBF9200008FA2000F8B500F0E1
:105020005FFD054680B9094808F0A7FB0446012644
:1050300054B1204608F0D3FB07462046FFF7CAFFCD
:10504000E573A6733C46F3E7F8BD00BFFC430020C0
:1050500038B500F045FD10BB114808F08EFB044642
:10506000ECB1204608F0BBFBA3890546ABB9637CD5
:105070009BB9204608F0D1F978B100F037FD60B156
:105080002146074808F083FB00F076FD2046FFF735
:10509000A1FF2146034808F0C9FB2C46E0E738BDD4
:1050A000FC430020A440002070B505460E4600F0E9
:1050B00017FD08B1002070BD0B4808F05EFB0446E8
:1050C0000028F7D0237B4BB9637C3BB9314620469F
:1050D00008F0B3F910B12DB12C6070BD204608F076
:1050E0007EFBECE770BD00BFFC43002070B50546B9
:1050F00000F0F6FCE0B90F49284609F0E8FA064648
:105100000D4808F03AFB044690B1E37B63B1637C41
:1051100023B94EB1E37B013BE37305E0211D284633
:1051200009F0D5FA0028F5D1204608F058FBEAE747
:1051300070BD00BF47F22000FC43002008B50A48BC
:1051400008F018FB094808F04DFB094808F04AFB35
:105150000848FFF733FE084B18600848FFF72EFE9B
:10516000074B186008BD00BFFC430020A44000208E
:10517000984000204FF22000FC67002047F22000FA
:10518000F867002010B5044600F0AAFC08B1002022
:1051900010BD064808F0F1FA0028F8D08388A34231
:1051A00002D008F01CFBF7E710BD00BF70480020DC
:1051B000F8B506460D4609B90020F8BDFFF7E2FF35
:1051C00007460028F8D100F091FC0028F4D01248DE
:1051D00008F018FB0446A8B14FF0FF33B3FBF5F31A
:1051E0006B435B42B3FBF5F205FB12338680C5804F
:1051F00003810C302061E76008F0BCFA21460748C3
:1052000008F0D8FA2A4631460548FEF731FC00F08E
:10521000B3FC2046F8BD00BFB0400020704800201D
:1052200031FA20007FB50C46064600283ED0002902
:105230003ED0CA8983889A423CD100F057FC05468B
:1052400000282FD0A11D02A8257D09F03BFA1B4B99
:10525000607B1A68B188944204BF00221A600190F2
:10526000608A227D238A00901548FEF701FC2146C2
:10527000306908F08CFA2146124808F0D7FA00F09D
:105280007BFCEA070CD502A8FFF798FD40B1437CF0
:10529000013B43746B075EBF837C03F1FF33837470
:1052A000012508E0084808F035F804E0054602E06A
:1052B0000D4600E00025284604B070BD804C00205B
:1052C00055FA2000BC40002080FA200010B50446AA
:1052D00008B9002010BD206908F04FFA014618B146
:1052E0002046FFF79FFFF6E700F000FC0028F0D013
:1052F000E288A1880748FEF7BBFB2146064808F074
:1053000095FA2146054808F042FA00F035FC0120E4
:1053100010BD00BFBAFA2000B04000207048002045
:1053200008B5054808F029FA20B1FFF7CFFF00289B
:10533000F7D100E0012008BD704800202DE9F04FB2
:1053400085B0894692461D46BDF83870BDF83CB020
:105350000646002850D0394608F0BBF800F0C6FBDE
:10536000044618B9274807F0D5FF46E0264808F05C
:1053700049FA044628B9254807F0CCFF00F0FCFBA9
:105380003BE00146306908F015FA214A84F8149090
:10539000136884F815A0A380591CB38804F106088B
:1053A000E3810023A3611B4B1160002D08BF1D4644
:1053B000404629462782A4F812B009F083F9EB7918
:1053C000B1884A4602938DE8800853461248FEF79A
:1053D0004FFB00F0D1FB237DDA070ED54046FFF7E7
:1053E000EDFC50B1437C01334374237D5B0704D44F
:1053F000837C0133837400E00446204605B0BDE899
:10540000F08F00BFE1FA2000BC40002018FB200014
:10541000444C002031FF200043FB20002DE9F84FD1
:1054200007468846914600F05BFB0446002856D1AB
:105430003C4808F0A2F9254682462646BAF1000FFC
:1054400047D03A79BAF80830BAF80610534393FBBC
:10545000F1F2386801FB1233B0FBF1F201FB1202EA
:105460009BB292B2134493FBF1FB01FB1B3BDAF8B6
:1054700010001FFA8BFB08F080F928B3038A9B45C4
:1054800024BFBAF806209B18CBEB03039BB28DB167
:105490009E4213D815D12A7D037D82EA0301C907F4
:1054A00005D4B0F80EE0E9898E4529D31FE0D9076D
:1054B00026D41CE02C461E46054602E005461E4644
:1054C000002408F08CF9D8E7504608F088F98246A5
:1054D000B4E7B8F1000F04D0A8F8006001E00024A0
:1054E0002546B9F1000F19D0C9F8004016E0002C8C
:1054F000E7D113F0020F234614BF0446002403E053
:1055000054B98542DDD0034612F0020F18BF2C4675
:10551000002B18BF1D46D4E70546D2E72846BDE854
:10552000F88F00BF7048002008B500F0DFFA58B1CE
:10553000064808F057F9064808F054F9054808F0FD
:1055400019F900F019FB012008BD00BFBC40002084
:10555000B04000207048002007B5FFF7E1FE0321AE
:105560000020FFF725FE0023019300930122034B47
:105570000F21FFF7E3FE03B05DF804FB47F22000C4
:105580000138012882B004D8034B5B6A019302B052
:10559000184702B0704700BFA4EF20002DE9F34187
:1055A0000C4617461E468046FDF764F9A31EDA191D
:1055B000A0422CBF00230123944294BF002101216B
:1055C0009942054603D1904234BF002301238BB199
:1055D00001F088F9C0B102232C1B00F8103B0C4AE3
:1055E000334630210197009407F0F7FE01F09EF951
:1055F000002009E000930122064B3919404601F0D2
:1056000075FCB0FA80F0400902B0BDE8F08100BF3F
:1056100020FC2000CD5B200013B50446237D002034
:10562000DB07019001D400201EE0637D013B012BCC
:1056300005D8104B21461868019007F0FEFE637DE7
:10564000022B11D080B9A01DFFF79EFB21460190CF
:1056500007F0F3FE40B9084B019A1B689A42E2D169
:10566000214601A8FFF720FD019A044B1A6002B001
:1056700010BD00BFFC670020F8670020504C0020E0
:1056800040F232222DE9F04FA14DCBB02B880446D9
:1056900093425CD040F25122934200F0A780002B4D
:1056A00040F073819B4808F036F89B4B186001303E
:1056B00000F06B81DFF8A892D9F800300BB11868C0
:1056C00018B9964B05221A70EFE006F085FB944E50
:1056D000D9F800303060186808F064FF914B924AA6
:1056E0001968924B0F7B10701F703368904F93F8BE
:1056F00002E0904687F800E08E4F3F68B942374697
:105700008D4E08D1D9F80020C1B2D27B184600F0E6
:10571000A9FE306001E0012333603368002B00F004
:10572000C480864B98F8001038685B68984700285A
:1057300040F0BB80824B20461968824B9A68824BAE
:105740000E3AFFF72BFF10B140F232234BE0DFF8A7
:10575000F091DFF8F081FDF78DF8D9F80020D8F846
:105760000830774F1344C3F10C03C342754EF2D493
:10577000DFF8B4A1714B9AF800009B689847B268B3
:105780003B68DFF898811344704ADFF8D0911360CA
:105790009AF800206E4B120513446E4A88F80000F8
:1057A00093FBF2F3B26A0120934294BFC9F8003030
:1057B000C9F80020FFF7E4FE98F80030002B71D103
:1057C0005A4A1278002A6ED1D9F80030B26830698E
:1057D0001A440A3A024439685F4B2046FFF7DEFE5E
:1057E00020B140F251232B80012060E1544F554CF1
:1057F000FDF740F85949A2680B683E681344C3F1AD
:10580000080223698846D31A9B1BC3424D4EEFD42E
:105810004A4CDFF83891236A9847A769B84718B10E
:10582000FDF728F8804615E0FDF724F8D8F8003099
:1058300032691A44F3691A44D9F800301344C01A83
:105840000028EBDBECE7FDF715F8736A4344C01A58
:10585000002802DAB8470028F5D10120FFF790FEB2
:105860007F2123692AA89847011E2C4F15DD2D4E54
:10587000336823B15B7B1C1C18BF012400E01C466D
:105880002B4B2AA81A780DF10B03019313AB00934D
:1058900003AB00F00DFD10B17BE040F0C9800223A6
:1058A0003B7002E0042388F800302D4E0020FFF703
:1058B00067FE336819481A7B01780132D2B21A7335
:1058C0005973184B8146D3F80080264B98F80C701A
:1058D0001B681C7D04F00404E4B281B94046FFF764
:1058E0004FFB002F40F0D9801CB1404607F0C2FDAD
:1058F000D3E0404607F091FD0028F6D1CDE0082A1C
:1059000032D94046FFF73CFB002F00F0C380C4E0D3
:105910003059002023680020684C0020DD60002002
:10592000EC4C0020504C0020DE6000204A6000203B
:10593000DC600020FC670020C8400020A4EF2000AD
:105940005C4C0020AC67002032FC20009C4C002006
:1059500020A1370040420F003DFC2000784C002081
:10596000644C0020804C00203FB934B101274046F0
:1059700007F085FD002F00F0908000F0B3FF044693
:10598000002857D14B4801F0A5FA00232B800320B3
:105990008DE0002C4CD0BDF94C20474C002A4FEA3A
:1059A000C232ABBF02F5F422A2F5F42202F59072E6
:1059B000A2F5907292FBF4F4404B414A19681068CA
:1059C000122CC1EB000B91469846DFF8F8A001DDE0
:1059D000122304E014F1120F04DA6FF01103CAF875
:1059E000003001E0CAF80040DAF800309C420FD0E5
:1059F00000F078FF60B1022300F8103B314B324ACF
:105A00001B6830210093234607F0E7FC00F08EFF6F
:105A10002E4B01221A701FFA8BF13068DAF8002041
:105A200000F0B6FD99E8030088E80300FEF778FE71
:105A3000002335E799F800300027036133680770C9
:105A40001A7B0277186808F0ADFD1E4B60771B6863
:105A5000A3611E4B1B7884F820303368186806F069
:105A6000BBF90378E77703F007035A1E534253410B
:105A7000A37733681021186808F098FD30B1144BF3
:105A800010211B68186808F091FDC079606100F072
:105A90004DFF77E7002C7FF46AAF0E4B31681A6830
:105AA0000D4B0E4843F8221007F027FE65E74BB078
:105AB000BDE8F08F6840002040420F00844C002079
:105AC000EC6700207C4C002049FC2000D2600020C4
:105AD000644C0020684C00200068002023680020EF
:105AE000014B1868704700BF6C4C0020F8B51D4B87
:105AF0001A681F464ABB1C4C1C49012323600A68D4
:105B000025460C464AB1FCF7B5FE06462368002B35
:105B1000FCD1FCF7AFFE0122861B3968A9B9114BF5
:105B200001241C6029600AB90120F8BD00F0DAFEEA
:105B30000028F9D002230E4A302100F8103B3346EA
:105B400007F04BFC00F0F2FEEEE700F0CBFE40B1B8
:105B5000022300F8103B074907F016FB00F0E6FEB1
:105B60000020F8BD6C4C0020584C0020604C0020F8
:105B70005DFC200070FC2000014B00221A60704781
:105B80006C4C002030B50F4D04796A882B88624335
:105B900092FBF3F503FB152294B20268B2FBF3F01B
:105BA00003FB102292B2224492FBF3F003FB10227B
:105BB00092B2114491FBF3F203FB1211024B89B232
:105BC000585C30BDF4670020DC6700202DE9F04F01
:105BD000B14D87B02B888046B3F5777F3FD001D891
:105BE0003BB1B3E2B3F5787F45D0B3F5836F40F0B6
:105BF000AD82AA4B1B68002B00F0A882A84C20683D
:105C0000002800F07682A74B1B68002B40F07182C1
:105C1000A54A01211160A54A1360A54A1370FFF738
:105C2000FBFCA44B18601E46002800F07A82336803
:105C3000002B00F0858223689F48997CFFF7A2FF24
:105C40009E4B014618709E4B0120DB6A98473368D3
:105C500063B19C4B00221A804FF477732B8040462F
:105C6000FFF70EFD012800F2CC8173E2964A138003
:105C70004FF478732B8040F2FA27934E934CB6F88A
:105C80000090B246B9452BD040F26D33994500F0F3
:105C90004381B9F1000F40F0B1818D4807F03BFD21
:105CA00002B2511C04D18B4A136801331360A5E181
:105CB0008949A368086809680344884803608848DC
:105CC0000360884B902000FB0230874BE26818602D
:105CD0000A3A864B4046FFF761FC08B13780D8E0AE
:105CE0007D4EFCF7C7FD3268E368DFF8ECB1134482
:105CF000C3F10803C342F4D4714E336A9847D6F80F
:105D00001890C847002840F02782F3699847002878
:105D100040F02282C84710F0FF0F40F01D82FCF7D0
:105D2000A9FDE168A369DBF800200B441344C01A05
:105D30000028EFDB02204CE1FCF79CFDA269E36840
:105D4000DBF800101344A26A1A445318C01A002842
:105D500002DAC8470028EFD10120FFF711FCF369F0
:105D6000DFF85C919847002800F03281DFF878B1C5
:105D7000D9F81020DBF800307F21184602939047B5
:105D8000029B05A9C3F88800D9F828300920984754
:105D9000DBF800E0484A0EF1800392E8030083E854
:105DA0000300059B524AAEF88C30444BDEF8881055
:105DB0001B7870468EF88E3006F0B2FC0028DFF8B3
:105DC000309100F3CE810020DBF80030DFF834E1C1
:105DD000D3F88810CB1C01F103014FEA0151ABBF8E
:105DE00001F5F422A1F5F42302F59072A3F5907366
:105DF000ACBF92FBFEF393FBFEF33E4A1360934667
:105E0000002800F0E5803C493C4808F060FC002890
:105E100000F0B681314B3A681B68991A384B19600B
:105E200099F81330002B00F08C80364A002902FBD1
:105E300001F2BDBF4FF40041A2F5804292FBF1F2A6
:105E400002F580422A4BACBF42F3CF3212B24FF080
:105E500000099B7E7F218DE804022B482B4A07F026
:105E600046FB2B4B484518606BDD81B273682648B2
:105E70009847DBF80030626939681A440E3A254BBE
:105E80004046FFF78BFB002846D040F26D33AAF85E
:105E9000003048467CE100BF3259002034430020E6
:105EA000804C0020584C0020604C00207C4C00208E
:105EB000D2600020644C0020EC670020D3600020FA
:105EC000A4EF2000305900202E590020AC6700209C
:105ED000206800208C4C00205C4C0020984C002056
:105EE000904C002028680020544C002097FC200093
:105EF000A04C0020744C0020037600204B60002052
:105F0000484C002040420F0053600020D460002025
:105F1000704C0020A6FC20009F4FA04EFCF7AAFC6E
:105F200062693B6813443268C3F10C039B1AC34295
:105F3000F4D49B4B18889B4B9B6898470120FFF734
:105F40001FFB9948FEF720FF0446C0B1437BB3B165
:105F5000964A974B16681968761A92E8030083E808
:105F60000300944B01211A68934B52421A60934BE1
:105F700020461970B1B200F00BFBFEF7D1FB904840
:105F800007F0BBFB00F0AEFCF8B18E4A01230370B2
:105F9000D37B0361D37C43778B4B1B68D3F888306A
:105FA0000377854B1B684361844B1B7880F8203056
:105FB000137C591E4B424B41837792F82030C377B4
:105FC0007C4B1B68836100F0B1FC804800F082FFCD
:105FD0000020FFF7D5FA7E4B1A681C4672B100F01C
:105FE00081FC48B1022300F8103B7A4A2368302133
:105FF00007F0F3F900F09AFC002323600023AAF8CD
:106000000030754B754F1B68684E0BBB684C33688E
:106010002268F96A9A1A4FF41943B3FBF1F1642329
:106020004B439A4214D900F05DFC58B1022300F8AA
:10603000103B326823683021D31A694A07F0CDF942
:1060400000F074FC674B00221A60FEF7B1FB48E0D9
:10605000DFF8B8910023CB46DFF850A1ADF814303B
:10606000D9F8000038B1037D03F00503052B02D1F8
:106070000630FFF73BF85C4A05A94C48FFF7CEF91C
:10608000CBF8000010B90123ADF81430BDF81400AE
:106090003368FC6A1B1828BF9AF80410336024BFC9
:1060A00001318AF804104449444A0B6804FB003467
:1060B00000230B6013704D4B204619681A6803913A
:1060C00022441A60029300F0DBFA029B03991A68DB
:1060D000104418602246464B4046FFF75FFA0028FE
:1060E000BED0444B00221A604FF483632B80012002
:1060F0004EE000F0F7FB002883D0022300F8103BAD
:106100003D4A3E4B1B6811682268B2FA82F252097E
:106110008DE806003A4A302107F05FF900F006FCEE
:106120006FE723681B7D9F073FF581AD2E4B1868F5
:1061300000283FF47CAD2060FFF76EFA306076E512
:1061400023681B7D98073FF576AD5AE700232B8027
:1061500003201DE000201BE0FCF78CFB0F4F386094
:10616000F7E5484606F084FA00283FF42CAE254AAD
:106170000D49484606F098FA003018BF012023E682
:106180002149204808F0A3FA00283FF41EAF41E659
:1061900007B0BDE8F08F00BF744C0020904C002089
:1061A000704C0020A4EF2000D4600020EC67002099
:1061B000844C0020484C00207C4C0020D260002001
:1061C00020680020A04C0020544C00206840002093
:1061D0008C4C0020B2FC20003C430020AC67002027
:1061E000C9FC2000944C00204C4C00205C4C00204A
:1061F000EDFC2000604C0020584C00206C4C00202E
:1062000080FC20004B60002031FF2000804C0020EB
:1062100037B5154C2546154A0DF106011248FFF712
:10622000FDF8134B186010B90123ADF80630236850
:10623000BDF806209B182B600E4B28BF2179DB6A26
:1062400028BF013103FB02F20B4B28BF21711968F3
:10625000186810441860094B0948FFF79FF9002897
:10626000D9D003B030BD00BFEC6700204C4C0020FB
:10627000804C0020AC6700205C4C0020F2FC200029
:10628000E04C0020064B074A1860074B03C983E81F
:106290000300064B82E8030000221A60704700BF2B
:1062A0005C4C0020844C0020EC670020804C0020D7
:1062B0002DE9F3470A9F8146884692460B9E1D466C
:1062C0000BB9002040E00029FBDB1A4606F028FA53
:1062D00002280446F5DD06B13070AB7E5345F0D19F
:1062E000284606F0C5F90028EBD06A46002128466A
:1062F00006F0DAF90028E4D01549684608F0E7F915
:1063000030B167B15C220021384606F0EFFE06E0AE
:106310001049684608F0DBF90028F2D1D1E7AB7DDF
:10632000E4B25BB1C4EB08013A46C9B209EB040020
:1063300008F0E5FA431CC4D00444E4B21EB132783C
:10634000FB7813443370204602B0BDE8F08700BFED
:106350000376002031FF20002DE9F0417E29A8B00E
:1063600006460F461446984601DC002075E04022A0
:10637000002101A806F0BAFE0123022203218DF8B4
:106380001A308DF81C208DF81B208DF819308DF8EF
:106390001D1006F061F9ADF8220006F05DF93049F4
:1063A000ADF8200003A808F08DF9FF23314601A8BD
:1063B0008DF804308DF8053008F009FDC5B2002DC8
:1063C000D3D05C22002111A806F090FE11AA791BFF
:1063D000701908F0B6F9421C02D14FF0FF303CE0D2
:1063E0002844C5B204B12570A81CC4B2B8F1000F8E
:1063F00001D088F8004011AA391B301908F0BEF905
:10640000431CEAD02044C4B2391B11AA301908F049
:1064100019FA411CE1D02044C4B211AA391B301929
:1064200008F034FA421CD8D02044C4B211AA391B57
:10643000301908F0BCF9431CCFD02044C5F57F4388
:10644000C4B2FE33234411AA791B7019ADF8483049
:1064500008F083F90130C0D0204628B0BDE8F081B3
:106460000376002030B5134604460D4699B008491E
:1064700003AA03C982E80300064AE91A1278E01861
:106480008DF8142001AA08F079F9012019B030BD67
:10649000EC670020A86700202DE9F7430A9F81469A
:1064A0000E4698461446002A50D0002950DB06F0CC
:1064B00037F9054618B9284806F02CFF44E0217E3C
:1064C000227C012900D9D2B199F8010099F8003055
:1064D00000902248FDF7CCFAE18B2148FDF7C8FA7D
:1064E00004F1080005F01AFFA18B1E48FDF7C0FA61
:1064F000204605F013FF0A2006F0F4FE28E007B15D
:106500003870EDB2B8F1000F07D05C220021404690
:1065100006F0ECFDFF2388F81030A37D73B1711BEA
:106520004246C9B209EB050008F0E9F9431C03D162
:106530000D4806F0EFFE0BE02844C5B227B13A78CB
:1065400098F8033013443B70284602E0104600E000
:10655000002003B0BDE8F083FEFC200025FD2000F4
:1065600082FD2000A8FD2000B2FD200008B5074BE9
:106570001B68012B08D1084607F070FA07F012FAE1
:10658000BDE80840FEF76CBC08BD00BF34430020E6
:106590002DE9F041304E314C3368314D834206D005
:1065A000304A00231360304A306013704CE02B688F
:1065B00020680B44B3F5C87F2B6049D310442B4AA5
:1065C000294E80FB02012A4ADFF8B080D26A5A4382
:1065D000D31706F09FFA33780BB988F80030254FAF
:1065E00098F80020072B47F8220002D801333370B7
:1065F00003E04FF4F050FEF783F898F800300022E3
:10660000013303F0070388F80030134631788A42DB
:1066100004DA57F8220001320344F8E793FBF1F360
:10662000104E336000F05EF968B10223326800F862
:10663000103B4FF4807392FBF3F330210E4A06F0C7
:10664000CCFE00F073F9002323602B60BDE8F081DD
:1066500002442260BDE8F081944C00201C4D0020D3
:10666000184D0020F04C0020E06000200040420F58
:10667000AC670020F84C0020D7FD2000DF60002030
:106680002DE9F743384B1C68002C69D0374B1B6849
:10669000002B64D0364D4FF480420023E5FB0023ED
:1066A000D60B46EA4346E1177143002304FB03136C
:1066B000A6FB04012F4C194423682F4A10EB030852
:1066C00041EBE37940460023494606F023FA2B4B81
:1066D0002B4903FB00832360B1F9003018184FEAFF
:1066E000C03455BF04F5F424A4F5F42404F59074E3
:1066F000A4F5907494FBF5F42B466343002CBDBFC6
:10670000A3F580424FF4004392FBF3F303F580437B
:10671000ACBFC3F3CF339BB280B2C31A0B8084EA01
:10672000E473A3EBE473B3F5807F13DD00F0DAF8D4
:1067300050B1022300F8103B124A23463021009644
:1067400006F04BFE00F0F2F8002CCCBF4FF4807442
:106750006FF0FF040C4A13682344136000E01C46EA
:10676000204603B0BDE8F083F04C0020944C00209C
:1067700040420F00F44C00200040420F00C0BDF02A
:1067800034590020E1FD20001C4D00202DE9F04F80
:10679000474D484C2968236887B0994204D0464841
:1067A000FDF766F92B682360444F3E46444806F0E7
:1067B000CAFF00B2431C78D085017C19E3682BB96D
:1067C0006268217A3F48FDF753F923E0D889FEF744
:1067D000D9FCE26894F80890D4F804A0B2F80EB09E
:1067E00008B1C48800E00446B2F81280138A701918
:1067F0005FFA88F104300593FFF7C4F9059B039015
:106800000193CDF8088000945B46524649462E48D5
:10681000FDF72EF9735D7419012B25D007D3022BD8
:106820003FD105F11000384406F074FD39E0217FB6
:106830006069E37FA27F0391216901900291617FEA
:10684000224D00912249002808BF29462148FDF722
:106850000FF994F820301BB1A1691F48FDF708F922
:106860000A2006F03FFD1CE0216994F81DE0E37F5B
:10687000A27F0191217F164800911449BEF1000FBB
:1068800018BF01461548FDF7F3F894F820301BB106
:1068900061691148FDF7ECF83544A9691048FDF726
:1068A000E7F8074806F042FF80E707B0BDE8F08F41
:1068B000204D0020244D00200BFE2000284D0020FC
:1068C000E160002023FE200041FE200005FE2000A4
:1068D00008FE20006CFE200088FE200090FE2000B4
:1068E000A2FE200008B50C4806F015FF431C0CD092
:1068F0000A4B0B4903EB80131A1D03C982E80300FE
:10690000084A18461268DA6008BD074A0020136872
:106910000133136008BD00BFE1600020284D002056
:10692000EC670020804C0020204D002008B5044872
:1069300006F0E3FEBDE80840024800F0CBBA00BF15
:10694000E1600020684000200821014806F0CFBE29
:10695000E1600020F8B50388064615462BB14A2BA6
:1069600015D0002303800320F8BD174806F005FF6B
:1069700004462CB1A168201D06F03DFE2468F8E70E
:10698000124B01221A704A2333800120F8BD882956
:10699000FBD10D4806F0F1FE0446002CF3D0231D78
:1069A0009D420ED12146084806F0F1FE084B62696F
:1069B0001F681A60A2691D460AB1E06990472F60FE
:1069C000E1E72468E9E700BF284F0020E4600020E9
:1069D000344F002010B5064B002406481C7006F00A
:1069E000C9FE2146BDE81040034800F05BBA00BF75
:1069F000E4600020284F0020CC40002070B5044601
:106A0000E3610B4B049D1B786561A26143B1094DA5
:106A1000094B2E68201D2B6006F0EDFD2E6000E076
:106A2000A1602146BDE87040044806F0C3BE00BF27
:106A3000E4600020344F0020CC400020284F00208C
:106A400013B5034C24680094FFF7D8FF02B010BDC3
:106A5000344F002070B5094B05461B783BB1084CFC
:106A6000084B26680430236006F0CEFD26602946D8
:106A7000BDE87040044806F09DBE00BFE460002001
:106A8000344F0020CC400020284F002070B5094B27
:106A900005461B783BB1084C084B26680430236040
:106AA00006F0BBFD26602946BDE87040044806F0AC
:106AB00081BE00BFE4600020344F0020CC400020A5
:106AC000284F002010B5084B04461B781BB104303A
:106AD00000F0B4F801E0C36003612146BDE8104056
:106AE000024806F054BE00BFE4600020284F00209A
:106AF00010B50E4C236813B90D4A136010BDFBF797
:106B000081FE216891E80C001A44131A8A6842B188
:106B100092E812002144091A8B4228BF0B46926862
:106B2000F5E71844024B186010BD00BF2C4F002041
:106B3000304F0020014800F0CDB900BFDC400020FC
:106B40002DE9F8430388054633B1592B0BD00023B8
:106B500003800320BDE8F883234A136059232B8068
:106B60000120BDE8F883872924D08229F6D11E4F61
:106B70004FF00008B9463C680026002CEED02046B5
:106B800006F07DFD98B122468821E06800F062F9A8
:106B900058B9E060A3680EB1B36001E0C9F80030F5
:106BA000C4F80880FFF7A4FFE5E7FFF7C3FF264618
:106BB000A468E2E70C4900200B681BB90028CDD07F
:106BC0000B60CBE7DC68A24202D19B680120F4E7AE
:106BD00000B10B6099680029C0D0C86882420ABF22
:106BE00089680B469960F5E72C4F002010B50446E4
:106BF000FFF7A0FFE3680B4A4BB113683BB1A34218
:106C000003D1094A1268DA6007E09B68F6E7064B91
:106C10001B68E36013681460A360BDE81040FFF7D1
:106C200067BF00BF2C4F0020344F0020024B186874
:106C3000003018BF012070472C4F002010B50B4AC0
:106C400004461368834206D18368136008E09A689B
:106C5000944203D01346002BF9D103E0A2689A6056
:106C6000FFF746FF0023A360E36010BD2C4F002018
:106C700010B50446FBF7D0FD94E80C001344C01A8D
:106C8000024B98428CBF0020012010BDFEFFFF7F09
:106C900038B5836804460D469BB10A48046002205B
:106CA000A07304F10C0098470238012801D9832D04
:106CB00005D121462046BDE8384000F005B8012343
:106CC000A37338BD344F00202DE9F8431C4A044615
:106CD000156889462B4690461A4E3768A34204D061
:106CE0000BB11B68FAE7BDE8F88334B3A37BABB103
:106CF0000023A37345B1A54204D02246872128462C
:106D000006F0A3FC2D68F5E7A3683BB14C4505D020
:106D100034602A46832104F10C009847D8F80030EB
:106D20009C4203D12268064B05E0134623B11A6842
:106D30009442FAD122681A603760BDE8F88300BF38
:106D4000384F0020344F0020002370B51D46094AFB
:106D500001261370084A146854B1E37B33B1A6735B
:106D6000E573002282212046FFF792FF2468F3E7B3
:106D700070BD00BFE7600020384F0020024B18783C
:106D8000421C1A70704700BFE8600020064B8A2240
:106D90001A70064A00231370054A1370054A1360DF
:106DA000054A1360704700BFE8600020E5600020DE
:106DB000E6600020384F0020344F00202DE9F041DC
:106DC0001A4D2B780BB1FFF7BFFF194C22783AB35D
:106DD000184E0C213378184F5943781817F8018052
:106DE00001334768806803F01F03013A3370227053
:106DF00068B9124B1E689EB12B780BB1FFF7A4FF48
:106E000030463A46414606F020FC3668F3E7B8F1D2
:106E1000810F04BF012383733A46414606F015FCF7
:106E20002B7820781844BDE8F08100BFE76000208F
:106E3000E6600020E56000203C4F0020384F002035
:106E4000024A034B10781B7818447047E660002014
:106E5000E7600020F0B50B4E3378202B0FD00A4CA2
:106E60000C252478094F1C4404F01F046C430133A3
:106E70003D19A86039556A6033700020F0BD0120CB
:106E8000F0BD00BFE6600020E56000203C4F002020
:106E900038B5034C256806F0D8FB256038BD00BF27
:106EA000344F002030B40A4C0A4625682B468342F2
:106EB0000CD00BB11B68FAE740B10121056081736A
:106EC00020608381812130BCFFF7E2BF30BC704776
:106ED000384F002038B1837B013B012B9FBF024A12
:106EE0000123C37313707047E7600020024610B59A
:106EF000064853600468029B11609360026014B9F5
:106F00000846FBF7CDFC002010BD00BFBC500020A0
:106F100010B5084C206858B100232360816843688D
:106F20009847236823B1BDE810401868FBF7B8BC48
:106F300010BD00BFBC50002070B505880446672D09
:106F400009D0792D30D0002D34D1FFF717FF1C4B1D
:106F500018701C4B1D601B4D2E461B4806F0B7FBDE
:106F6000431C01D167231DE00A28164A07D02B686D
:106F70007E2BF2DC5A1C3260144AD054EDE71368C1
:106F80000025591C1160114A2846D5540C4B19781C
:106F9000FFF760FF0E4B2A4685211868FFF75AFF5E
:106FA00020B97923238009E0852907D1054B0022E8
:106FB0001A60D0E700230380032070BD012070BD5C
:106FC000FF750020C8500020C05000206A610020DA
:106FD000344F00200D2810B5014615D00B4C2378F6
:106FE0002BB90B4806F060FB48B9012306E00A28DC
:106FF00005D1074806F058FB08B100232370054867
:10700000FFF768FF012010BD002010BD696100205E
:10701000C0500020EC40002008B5054905488022FA
:1070200006F03BFBBDE8084000210348FFF73ABFEC
:10703000E9600020C0500020EC4000202DE9F04124
:1070400006880546772E31D07E2E40D0002E4ED1B8
:107050002B4CFFF793FE266026462A4B2A4FDFF87B
:10706000B0801870236857F823204AB1002108F82F
:107070000310936880209847336801333360F1E749
:10708000224A1370772320E0214AD256002A12DBCD
:107090001B4A136801331360194B1C4A1B68127892
:1070A0009A42F1DC1B4B1B68002BEBD0194A0023E2
:1070B0001360134AEFE7144A002052F82320114BC3
:1070C0001978FFF7C7FE30B97E232B8014E00D4BF3
:1070D0001B788B4210D10A4B0D491A688B5C03F068
:1070E0007F038B540B4A136801331360D0E70023EE
:1070F00003800320BDE8F0810120BDE8F08100BFDE
:10710000CC5000200076002040400020EA610020A2
:10711000FB750020D050002010B40A4B0A491A78A1
:107120000023934203DA51F82340A04208D10749D3
:107130000748CA5C62F07F02CA5410BCFFF7CABE9F
:107140000133EEE7EA61002040400020FB7500209B
:10715000FC400020054A136843F004031360044B0D
:107160001B68906943EA002080B2704700700D40B0
:1071700014700D4010B5184A136823F00C03136007
:10718000164B01221A601A68012AFCD1144B0822FE
:107190001A60E322C3F8142203F505731946114A55
:1071A0001368DB07FCD5104C10200023226801383F
:1071B00002F0010243EA02034FEA43039BB2F5D116
:1071C000002BF1D0094A180A03F0FE031060136087
:1071D000EF230B6010BD00BF00700D40A8200D40D4
:1071E00024860840648608409C86084014700D4040
:1071F0002DE9FF47224C234D04F108030FCB8DE806
:107200000F002B786F4694F80780BBB11E493A22D5
:10721000A2710A88D21A92B20A80A2F12801081239
:10722000207103F128002044C3F1040361712C3A5A
:10723000011D184405F0F6FE00232B70134806F0DC
:107240009CFA0646DFF840A09EB1D6F80490B9F14A
:10725000000F09D0BAF800302A782C3B22449BB2A8
:10726000383241463846C847304606F0B8FA064636
:10727000EAE7054B2E701E8004B0BDE8F08700BF22
:10728000F06B0020ED610020DC6B0020D45000206A
:10729000F8B52C4B2C4C1B7904F11806E371237EB6
:1072A00004F10805FF2B08D195E80F0086E80F00D0
:1072B0003146284600F0BCFA1BE02F46B646234A6A
:1072C0003B4603CB7345106051601F4602F1080234
:1072D000F6D196E80F0085E80F001C4B1C4D03F11A
:1072E00010062A4618685968083303C2B342154687
:1072F000F7D1184D2B78BBB117493A22A2710A88F1
:10730000D21A92B20A80A2F128010812207103F168
:1073100028002044C3F1040361712C3A011D184474
:1073200005F080FE00232B702B7881222833E5188E
:10733000E25400236B706B8006F01DFBC043688035
:10734000F8BD00BF706A0020F06B002036590020A5
:10735000086C0020ED610020DC6B002038B504468D
:107360000B480D4606F009FA50B10379A34204D147
:1073700043799D4206D0FF2B04D006F030FAF3E7A4
:10738000012038BD8368002BFAD09847002038BD13
:10739000D85000200146014806F00CBAD850002011
:1073A0002DE9F74F474D82462B7889469346464C48
:1073B00043B12833E35C3A2B0BD1444A00231380BA
:1073C0002B707CE0A3793A2B03D194F92830002B61
:1073D000F3DA3F4E03F012FE37463E4A06F1100E36
:1073E000334603CB7345106051601E4602F108021C
:1073F000F6D1364EDFF8D0803388414630339BB229
:10740000B3F5A06F88BF4FF4A063338032882B7828
:10741000D21A04EB4300303A3030019305F002FEFB
:107420006022019B22700022627062803A2213B1B6
:1074300088F8282001E088F80620274A224B127994
:10744000E271228972B95A8962B99A8952B9DA8984
:1074500042B91A8A32B95A8A22B99A8A12B9DB8A8F
:10746000002BAAD01D4B0FCB87E80F00194B1B78C0
:10747000FF2B05D1BAF1040F9FD1B9F1020F9CD1B6
:107480001449164800F0D4F92F78584607F128031C
:10749000E21804F803A082F8019006F075FA338828
:1074A0002C37283BE0511A1263712B782271283354
:1074B0001C440023638006F05EFAC043608003B082
:1074C000BDE8F08FED610020F06B0020DC6B002048
:1074D000086C002036590020706A0020F86B0020EC
:1074E0002DE9F0411E460F461B4905460C46602318
:1074F0000B7000234B704B803A238B71174B9046D7
:107500001B7900F1100ECB71331D1A120A714B71E9
:1075100001F11802134628686968083503C37545E8
:107520001A46F7D10E492C36A1F1100000F080F96F
:107530000C4B1B782833E518E75400236B8085F843
:10754000018006F018FAC043074B68801E80BDE832
:10755000F04102F08FBC00BFF06B0020706A002089
:10756000086C0020ED610020DC6B002008B50448A9
:10757000FFF710FFBDE808400248FFF70BBF00BF50
:107580000C410020184100202DE9F341154D0091D8
:1075900004460E4690461F460195034620220321CD
:1075A000114806F075F901282B4616D12A6804F116
:1075B0001001107020462A68023250F8044B8842AD
:1075C00042F8044BF9D11868089B86744361099B03
:1075D00080F813800777836100E0002002B0BDE8E7
:1075E000F08100BFE05000206C6B0020F8B507462A
:1075F0000B4B0C4D03F160062B602C68B4420BD290
:10760000237833B1A27C3946D208A01C05F062FC75
:1076100020B120342C60F0E70020F8BD0120F8BD37
:107620006C6B0020E050002013B5084C80230093C1
:107630000194034620220321054806F029F908B9E0
:10764000206800E0002002B010BD00BFE450002020
:10765000886A002030B548F2FE040C4B0C4A03F156
:107660006001136013688B420CD21D783DB1451C3C
:1076700002D09D7C854202D15D88A54203D0203393
:107680001360EFE70023184630BD00BF886A002072
:10769000E450002037B5104D802300930446034684
:1076A0000195122205210D4806F0F2F801282B461B
:1076B0000ED12A6804F11001107020462A680232A7
:1076C00050F8044B884242F8044BF9D1186800E0A6
:1076D000002003B030BD00BFDC5000200C6B002048
:1076E000F7B5214C80230093054603460E46174606
:1076F0000194202203211D4806F0CAF8012830D148
:107700002A46236805F1100118702368023352F8E5
:10771000040B8A4243F8040BF9D12068C77416B9E8
:107720000123037505E0002303753146183005F089
:1077300085FF23680E480121997402234370FF22BC
:107740000023027043808380C38003818372C172EF
:1077500002736B7B4373EB89C381FFF79BFF206848
:1077600000E0002003B0F0BDE4500020886A002053
:107770004659002013B5084C80230093019403461A
:1077800012220521054806F083F808B9206800E0B8
:10779000002002B010BD00BFDC5000200C6B0020A8
:1077A00038B50546C8B10D48022200244270FF23B7
:1077B0000122C27244808480C48004818472037375
:1077C0000370EB7B43732B8AC381FFF7D3FF044A1B
:1077D000106008B106F080F82C7038BD46590020C2
:1077E000DC50002070B50F4C0F4B2646236003F190
:1077F00060052068A8420ED2037843B1037D33B9F7
:107800001830FFF735FA10B13068FFF7C9FF236869
:1078100020332360EDE700F05FF9BDE870400348D6
:1078200005F0F2BEE4500020886A0020CC6B0020F6
:107830002DE9F84F48F2FE030A8805469A420F46A2
:1078400023D00A78FF2A20D01C490024A04689466C
:107850009B461B4A0A6002F1600AD9F8006056454F
:1078600017D233786BB1B37C012B0AD173885B4597
:1078700007D0B11C384606F03CF880459CBF344622
:1078800080462036C9F80060E7E70120FFF7E2FEF6
:1078900004464CB92C806C80AC80EC802C816C81CF
:1078A000AC81EC81BDE8F88FA31C123453F8042B93
:1078B000A34245F8042BF9D1BDE8F88FE45000202D
:1078C000886A002070B5094EB0684508FFF742FC91
:1078D0000446FFF73FFC2402B268A4B22044B0FB88
:1078E000F2F302FB1300284470BD00BF706A002051
:1078F00073B52F4C01F0E2F800F06AF86022002125
:107900002C4805F0F3FB0021F822204605F0EEFBA1
:10791000294B20221A70294B18221A704FF4A063A9
:107920002360274B40262671A360FFF7CBFF42F26E
:107930001073236148F2FE03314640F2FF26002512
:10794000E06025751F4C2A46238065802B46A58064
:10795000E580204601950095FFF716FE20461A495E
:1079600005F0BEFF294601222046FFF7B9FE4FF47D
:1079700080732046E38126806580A580E58025818F
:107980006581A581FFF786FE4FF4007320462680AF
:107990006580A580E58025816581A581E381FFF76C
:1079A00079FE0A480C2102B0BDE8704005F023BE04
:1079B000706A00206C6B0020696B0020686B0020EF
:1079C000C027090046590020E86B0020CC6B00203E
:1079D00008B5044805F006FFBDE80840024805F078
:1079E000C9BE00BF244100202851002038B50546FB
:1079F0000A4805F0C2FE044678B1AC4209D12146DE
:107A0000064805F0C4FE2146BDE83840044805F0AC
:107A10000DBF204605F0E3FEEDE738BD28510020FC
:107A20002441002038B50546084805F0A6FE044666
:107A300048B110222946201D05F04CFA18B1204605
:107A400005F0CDFEF3E7204638BD00BF28510020E9
:107A5000F8B505460E46FFF7E5FF044640B9104865
:107A600005F0D0FE0446C8B101460E4805F0AFFE51
:107A70002B46251D03F110072A461868596808335C
:107A800003C2BB421546F7D136B1314604F11400AA
:107A900005F0D4FD002300E0012323772046F8BD44
:107AA000244100202851002038B50A4805F065FE21
:107AB000044600255CB1251D284601F033F808B1C5
:107AC000437C23B9204605F08AFE0446F2E72846A7
:107AD00038BD00BF2851002010B50A4805F04DFE02
