:020000040800F2
:10000000000200205904000835040008E903000834
:1000100000000000000000000000000000000000E0
:10002000000000000000000000000000BD03000808
:1000300000000000000000009503000845040008CF
:10004000C1000008C1000008DD5D0008C100000813
:10005000C1000008E9090008E9090008E9090008E9
:10006000C1000008C1000008C1000008C10000086C
:10007000C1000008C1000008C1000008A913000861
:10008000C1000008C1000008C10000080000000015
:10009000C1000008C1000008C1000008C10000083C
:1000A000C1000008C1000008C1000008D307000813
:1000B000C9070008C100000800000000C1000008D6
:1000C00010B500F0BFF910BD10B500F095FA10BDE5
:1000D0007047000070B50C00060000F07DFA094B77
:1000E000094A1D682919914202D8084A914204D24E
:1000F0000C23012533606D4200E0196000F074FAB2
:10010000280070BD00020020005000203C1E00208E
:1001100010B51900100000F07DFA10BD10B51900DF
:10012000100000F081FA10BD13230360012040424B
:10013000704713230360012040427047132303607C
:100140000120404270470023022203608A425B4143
:10015000180070470020124B10B51860114B12495F
:100160001A680C6853421340104A5343104ADB0E7E
:10017000D35C104A9B009B581B68083B9C420ED0E6
:10018000844204D022790A2A01D1013222710A2242
:100190001A710622985E084A0B601080012010BD7B
:1001A00054030020280400205C03002031B57C07A4
:1001B00010D80008640300205803002030B50379EC
:1001C000092917D9092B31D804004379184A9B0013
:1001D0009D580834002D04D02D6885609D582C60F2
:1001E00000E08460D45001234479124AA34014688B
:1001F00023431AE0092B19D944790D4BA400E25886
:10020000002A07D01568AA4202D10022E25001E07C
:100210002C6814604479A2009B58002B06D101334E
:10022000A340044A14689C4323001360017130BD4D
:10023000640300202804002010B5094B1B681A79BC
:10024000092A02D95B79834209D900F0D0F9002844
:1002500003D00122034B1A6001E000F091F810BDB9
:100260005C0300205403002070B5002400F0B4F9B2
:10027000084B094A1B88094D1BB29B009C50084A39
:10028000210013682868013B1360FFF797FF2C607B
:1002900000F072F858030020A40300205C03002043
:1002A000600300200F4BFF2283429B415B421901F8
:1002B000C840824292415242D30002000F20DA40ED
:1002C0009042804140428000C2400B430321914252
:1002D000894149424900CA4003430B43500818432F
:1002E0007047C046FFFF0000D318032293431F4A04
:1002F00010B51C1F2260620703D0083B1C001C4B7A
:1003000023608022231F52041A601A4A043B18609B
:10031000043B1A600022043B1A60043B03321A605B
:10032000043B013A1A60043B013A1A60043B19602D
:100330000632043B1A60043B013A1A60043B013A5E
:100340001A60043B013A1A60043B07321A60043B0E
:10035000013A1A60043B013A1A60043B013A1A6000
:100360002000032344385B42036010BD7777777722
:10037000888888886902000800F032F901DFFEE70A
:100380008021034A490553680B4353607047C046B8
:1003900000ED00E0EFF30980EC4685464046494613
:1003A00052465B46FFB4704601B46846E5460249D2
:1003B0000968086000F002F85C030020FFF7CAFE3D
:1003C000EE46084800680068854601BC8446FFBCCC
:1003D0008046894692469B46684680F30988F546E2
:1003E000604700005C0300200F49104A104B68462C
:1003F000904203D8984201D9002102E0091C8D46A1
:10040000012104207246024202D1EFF3088001E08C
:10041000EFF30980F0B443464C4655465E4678B447
:100420006B4600F04DF8C04600020020005000204E
:100430005801002010B50249042000F04DFDC046CF
:1004400030D8000810B50249062000F045FDC0462E
:100450003CD800087047704770B5FFF7FBFF6A464D
:10046000104B11499A4201D902C3FBE700230F4800
:100470000F49104C1A188A4203D2E558043315600C
:10048000F8E700210C4B0D4A934201D202C3FBE76F
:10049000FFF7E1FF00F0FEFC0AF0C8F800F050FDA5
:1004A00070BDC04600000020FEE7FEE7000200200D
:1004B0005403002030E60008540300203C1E0020B6
:1004C000F0B58DB00A92364A0B931268354B040092
:1004D00003919A4202D034480AF0FEFC039B002BA1
:1004E00005D0002531480AF0F7FC2E0024E0250055
:1004F0002368E76904936368A6690593A3682435B4
:100500000693E36807932369089363690993BB051E
:1005100000D4043D26480AF0DFFC079B059A0093AF
:100520000499069B23480AF051FC00973300099A6E
:10053000089921480AF04AFC20480AF0CDFC0A99A3
:100540001F480AF043FC039B002B23D11D480AF0EF
:10055000C3FC31001C480AF039FC6946104BC91A2B
:100560001A4BC91803D5494219480AF02FFC0B9BB6
:100570001E00201C8268C36801698C4641698E4652
:10058000AD46311CF0C9A046A946B246BB46F0C9EB
:100590004168006801BE0F49052000F09DFCC0467F
:1005A00000000020FEE7FEE74AD8000860D80008F7
:1005B0008FD80008AAD80008E7D8000825D9000875
:1005C0002AD900083CD900086DD90008A8FEFFFF11
:1005D00095D90008C2D90008EFF3108072B67047B1
:1005E00062B6EFF31080704780F310887047EFF326
:1005F0000580C0B270470000E12110B5034B044AEA
:100600004902002000F080F810BDC046040200201E
:10061000C110000810B50A000100024800F05BFD9F
:1006200010BDC0460402002010B50C000A000100F5
:10063000002000F027F8200010BD00001C234343D9
:100640000D4A70B59C58E569AB0607D50B4BC00049
:10065000616A1A18C9B2C3585068984708221542EF
:1006600002D0236A13432362054B1B68002B01D081
:10067000FFF786FE70BDC046D8D900086C04002084
:100680005403002070B5012803D90D49032000F060
:1006900023FC1C2358430B4BC358186800070ED586
:1006A00080208A18914206D00C78DD690542FCD082
:1006B0009C620131F6E74022D9691142FCD070BD3D
:1006C00010DA0008D8D9000810B50400012803D9B1
:1006D0000A49032000F000FC094BC200D358002B4C
:1006E00002D0012000F024FD1C2363431800054BB9
:1006F0001B18987C596800F0C3FD10BD10DA000883
:100700006C040020D8D90008F7B506000191140048
:10071000012803D92849032000F0DEFB1C252749C6
:10072000C200454354508A185360254B01215D197E
:10073000EF68380000F091F8380000F0EBF8697CC1
:10074000380000F0C5F81E4B0093002C08D0AF68AD
:100750000021380000F081F8297C380000F0B8F85A
:100760003000FFF7B1FF1C235E43009B9D5900231F
:100770002B606B60AB60009B9E19337D002B18D102
:10078000B07C00F06FFD019907F08EFC80B2E8604C
:100790000923002C0AD0F27C53B2002B05DB1F2367
:1007A0001A401E3B9340074A13602D232B60002004
:1007B00001E001204042FEBD10DA00086C04002078
:1007C000D8D9000800E100E010B50020FFF736FF9F
:1007D00010BD10B50120FFF731FF10BD10B5194A4B
:1007E000002807D0012815D1022017490B68834340
:1007F0000B6020E00E20144B19680143C0201960E3
:10080000596880000143596059680130FF30014345
:10081000596010E00421002413698B431361FFF732
:10082000DBFEBFF34F8F30BFFFF7DEFE002C08D09A
:1008300000F0BCFC05E00421136901240B431361A3
:10084000EDE710BD00ED00E00070004010B5FFF7CF
:10085000C3FE0020FFF7C2FF10BDF7B501250F232F
:10086000040007000E002900800A9C431F4003403B
:100870009940032000F004FD032279008A40944649
:10088000D24320680323104020602068019030008C
:1008900018408840019B184303232060E068024011
:1008A000B00803408B40E260E268360913432A0037
:1008B000BA403540BD40E360636800209343624620
:1008C000636063681D436560A3681343A360FEBD56
:1008D00070B50F240322060020404500AA40A6431D
:1008E0003368934333600223AB40326813430722DB
:1008F0008242AD411040220080008240814033603E
:100900006B429B00F3181D6A95431D621A6A1143DE
:10091000196270BD0F2301000122994303409A40E0
:100920008A6170470F2302009A4303401033180076
:100930000123834093617047F7B515000F2204002F
:100940000F00810A1140019114402349E2005350E5
:100950008A1801210600089B0800536000F090FCF3
:1009600039003000FFF779FF1C4B2022012C03DDFA
:100970004022032C00DD80221A6001221100A140D8
:10098000C943174B9868084098602800D54010402C
:10099000A040A5409F68A41038439860D868A40080
:1009A0000140D960D968B2400D430E49DD6064183A
:1009B00003210F25314089008D40A068A843019D87
:1009C000A0608D402900A0680143A1605A611968A8
:1009D00000200A431A60FEBD7C04002000E100E014
:1009E0000004014000000140F8B50E4B00241D003A
:1009F00001275A691E6816403B00A340334206D0C7
:100A00006B61094BE20099184868D3589847013444
:100A1000102CF1D1054B1B68002B01D0FFF7B0FC67
:100A2000F8BDC046000401407C04002054030020AF
:100A300010B5002000F07AFC10BD000070B5044D28
:100A40002C68FFF7F5FF2B689C42F8D1204370BD5E
:100A500004050020054B10B51B68002B04D182B2A1
:100A60001900180000F044FC10BDC046000500202D
:100A700010B50A4A1368002B0CD09C6881688C4220
:100A800002D21A001B68F6E78C4203D15968446809
:100A9000A142F6D90360106010BDC04610050020C9
:100AA000F7B580222B4C5202236801949B182360D7
:100AB0002368002B03D1284A1368013313600020F8
:100AC000264B254E1A681860254B07001B68B44654
:100AD0001900244D2A60002911D066468C683668BA
:100AE000B4420CD8019C246800944C68260C009CED
:100AF0003604A64203D10F0001200968EBE7002865
:100B000001D017480160002F22D0002139608A42AD
:100B10001DD01100002B04D050685C68A04200D9A1
:100B20001900080012681B68002A01D103600CE05C
:100B3000002B01D1026008E056685F681400BE42D5
:100B400000D91C0004602000ECE7296000E02B6065
:100B5000F7BDC0460405002008050020FC04002065
:100B6000100500200C050020F8B50123324E334C4F
:100B700033602368002B07D1FFF792FFFFF758FF80
:100B80002F4B9842FAD043E0FFF752FF050011E0E7
:100B9000BFB2B84205D223685F68FFF749FFA84299
:100BA000F6D223681A681869226000225A609A6097
:100BB000DA6890472368002B07D1FFF739FF14301C
:100BC000854213D9FFF76CFF0BE05F68FFF730FF3A
:100BD0008542E0D8BBB28342DDD91B1A132BECD877
:100BE000D9E7FFF725FF8542FBD311E02368002BEF
:100BF00007D05F68FFF722FF143F14308742D9D334
:100C000013E0FFF715FF0700854203D9FFF748FF00
:100C10000025CFE7030014339BB2984204D9FFF7B5
:100C200007FF8742FBD9F1E7054F00233800336007
:100C3000FFF710FFF8BDC046000500200C0500209E
:100C4000FFFF0000164B10B51A6882420BD11268E4
:100C50001A60002A02D05068143800E01148FFF7EB
:100C6000F9FE1BE013001A68002A04D09042F9D163
:100C700002681A6012E00C4A1368002B03D09842F5
:100C800003D01A00F8E7094A05E00368136005E09D
:100C90009842FAD01A001368002BF9D110BDC04653
:100CA0000C050020FFFF0000FC04002010050020C0
:100CB000002310B5044A0549180000F049FB012043
:100CC0004042FFF7C7FE10BD690B000840420F000D
:100CD00070B5FFF7B3FE074B04001E68FFF7AEFECA
:100CE0008442F6D80024020031002300200080183E
:100CF000594170BD08050020F8B504000D00FFF74C
:100D00009DFE0023060023602B1A1E2B0CD8ADB2CB
:100D1000FFF78EFE8542FBD3FFF78AFE8542FBD8A4
:100D2000E3682069984747E0FFF756FC63680700CF
:100D3000002B3DD1A368002B3AD128001F4B14385B
:100D400065601A68864200D90132A2601B68A268F9
:100D50009A4205D81A4B1A68030C1B049A4203D016
:100D60002000FFF785FE1FE0B6B2B04202D9154B56
:100D700019000FE0144A1368002B04D059688D4203
:100D800001D31A00F7E7236014600DE05668B542FE
:100D900003D313001A68002AF8D122601C600B6884
:100DA0009C4201D1FFF756FE3800FFF71DFC03E01F
:100DB0002000FFF747FFC0E70020F8BD080500202E
:100DC000040500200C050020FC04002070B5040080
:100DD000FFF702FC63680500002B06D1A368002B17
:100DE00003D12800FFF700FC70BD2000FFF72AFFA9
:100DF000F7E7C36870B504000D00002B16D0FFF7AD
:100E0000E5FF1D2D0CD8FFF713FE0600FFF710FEBF
:100E1000831B9BB29D42F9D8E3682069984705E09F
:100E2000FFF70CFE29182000FFF766FF70BD0000D9
:100E3000F7B504000D00161E02D1FFF7DAFF25E01A
:100E4000FFF7CAFB63680090002B1BD1A368002B3F
:100E500018D1FFF7F3FD0E4B07001B680193FFF756
:100E6000EDFD8742F5D8019B28186060F318854294
:100E700000D901332000A360FFF7FAFD0098FFF7C7
:100E8000B3FB03E02000FFF7DDFEE2E7F7BDC0465D
:100E90000805002010B50B4C00F07AF90121200064
:100EA000FFF7DBFC2000FFF735FD01210648FFF7C7
:100EB000D4FC01210548FFF7D0FC01210448FFF7CD
:100EC000CCFC10BD0C00005005040050060400507E
:100ED00007040050704700000D4B10B51A680C0055
:100EE000002A0ED101321A60032803D17146094845
:100EF00009F06CFF2100084809F068FF074809F075
:100F000065FFFFF769FBFFF7E5FFFFF79FFCC046B2
:100F10001405002022DA000826DA000842DA000868
:100F200010B500F053FB034809F050FF00F0DEFA63
:100F3000002010BD50DA000810B500F0DFF8FCE723
:100F40001FB5FFF749FB002480210D4B0F221B68C2
:100F5000490002930B4B019400930B480C2300F0C3
:100F600035F8C021094B07221B68C9000293084BC2
:100F70000194009307480C2300F028F8FFF7FCF9D0
:100F800018020020390F0008180500201C0200205C
:100F9000210F00081806002070B50B79092B03D922
:100FA00009490320FFF798FF0A004C7908320368CB
:100FB000002B06D01D00083D6D79AC4201D318000E
:100FC000F5E78B60026070BD10DA0008F0B587B0FD
:100FD00005000291039204930F2A2BD803230340A8
:100FE000191E029B04D00422531A029AC518D31A60
:100FF0000322303B93430593EC18049B1B0705D554
:101000002B00A34203D21B600433FAE72D60FFF7E5
:10101000E3FA01230700284A19B2019199005658B2
:10102000002E0AD00133212BF6D13800FFF7DCFA6D
:101030008B2000E0162040423BE06B469B888C50A2
:101040000C98E3802A00059B0D99FFF74DF9029B50
:101050000121E3620E9B194AA3626B461B7B206051
:10106000637101235B42E3611368656201331360BE
:10107000049B2671A660E66026616661A661266211
:101080000B4203D02000FFF799F80EE00B2120005F
:10109000FFF794F8049B5B0707D43800FFF7A4FA26
:1010A0006B469889FFF7C8F802E03800FFF79CFA12
:1010B000019807B0F0BDC046A403002060030020E3
:1010C00070B5040000F0AFF905002000103000F00A
:1010D000B3FA280070BD70B504000D001600320090
:1010E0002900200000F08BF9002805D12000012103
:1010F000103000F071FAF2E770BD0000F8B50B4C4B
:10110000022625682B041B0E02D1EEB2731E9E41EF
:10111000FFF762FA236807009D4202D13000FFF713
:101120005DFB3800FFF760FAF8BDC04620020020E2
:1011300070B5094D04002B5CFF2B03D10749032038
:10114000FFF7CAFEFFF748FA2B5D0133DBB22B55E0
:10115000FFF74AFA70BDC0462002002010DA0008EE
:1011600070B5094D04002B5C002B03D10749032007
:10117000FFF7B2FEFFF730FA2B5D013BDBB22B55D8
:10118000FFF732FA70BDC0462002002010DA0008D6
:1011900010B500F02BFC80210020490500F070F80C
:1011A00000F004F800F052F910BD00008021284B37
:1011B00049001A6810B50A431A60D968254A1140D7
:1011C000D960186824490140196000210120996103
:1011D0001968014310000422196019681142FCD0FB
:1011E00002241E4A1168214311601168013C214309
:1011F000116080211A4A09011160102154680C42C3
:10120000FCD18821DA68C903DA60DA68DA60DA6862
:10121000DA60DA680240DA60DA680A438021DA606C
:101220001A6849040A4380211A6089041868084A28
:101230000842FBD00324D068A043D060D16821438A
:10124000D1600C21DA680A400C2AFBD110BDC046DF
:1012500000100240FFFF02FFFEFFF2FE00200240EE
:1012600000700040004870470048E801024B185CDD
:10127000024B58437047C04684DA00080048E80132
:1012800000B5032813D80B4B06F0FAFE02060A0E2F
:101290009A6B114399630AE05A6B1143596306E054
:1012A0001A6B1143196302E0DA6A1143D962BFF382
:1012B0004F8F00BD0010024000B5032814D80B4A20
:1012C000CB4306F0DDFE02060A0E916B0B409363E2
:1012D0000AE0516B0B40536306E0116B0B40136344
:1012E00002E0D16A0B40D36200BDC046001002404C
:1012F00010B5032915DC0C4C000103592018406877
:10130000024008000C308000181842600222186960
:101310008A40010091431961D96800200A43DA60CC
:1013200001E00120404210BD88DA0008024B0001B4
:10133000C358586A7047C04688DA00080121034B39
:101340000001C25813680B431360704788DA000825
:1013500070B504000E0000281DD180250F49ED0551
:101360000CC10121FFF78CFF0D4B2C6020006C603D
:10137000EB62FFF77BFF310006F096FE012380222F
:101380000138A8626B61074B120220001A60FFF758
:10139000D5FF200001E00120404270BD180C002064
:1013A000FFFF000000E100E0F8B5802400250227DF
:1013B000E4052369E6681E403A00AA40324207D09D
:1013C000E36829009343E360064B1A685868904726
:1013D0000135042DF0D1044B1B68002B01D0FEF722
:1013E000CFFFF8BD180C002054030020826801686C
:1013F000531C83604368013B1340C85C7047F8B5D9
:10140000070015000C001600002E0AD0BA68FB6811
:101410009A4206D03800FFF7E9FF013E2070013400
:10142000F2E7A81BF8BDC26830B543688468121B98
:101430009A4208D0C2680468013B551C1340C5603D
:10144000E154002001E00120404230BD10B50020F1
:1014500004F09EFA012004F09BFA04F001FC10BD98
:1014600007B5034B68460021595E00F02DFA07BD11
:10147000840D002030B59DB008210CA800F0A2FA20
:1014800001A800F099FA144C1448210009F09EFCC0
:10149000200009F02BFD124DC2B22100280000F0FF
:1014A0006DFE0200042804D021000E4809F08EFCD5
:1014B00002E0280000F0A8FE03A804F00DFC039B46
:1014C00003A81433039309F0ABFA0022064903A8DA
:1014D00004F048FCD4E7C04698DA0008A6DA000811
:1014E000200C0020B3DA000861140008F0B5284889
:1014F00087B009F0F1FC274809F0EEFC264C274F95
:101500002100380000F0D5FA254E2100300000F00F
:10151000D0FA244D2449280000F0CBFA234C2000B7
:1015200000F0B6FD2000390000F08FFE20003100F1
:1015300000F091FE2000290000F093FE052120001C
:1015400000F0A6FE1A4809F0C7FC2000002100F0B8
:10155000DBFD041E04D0174809F0BEFC012015E095
:10156000154809F0B9FCC021144B06220293144B14
:1015700089000093019423001248FFF727FD124BC6
:101580000100188004A800F09FF9200007B0F0BD0A
:10159000DBDA000801DB000837DB0008640D0020FF
:1015A0007C0D00206C0D002027DB0008200C0020A3
:1015B00048DB000860DB000876DB00088FDB0008F2
:1015C00075140008860D0020840D002010B500F071
:1015D00088FAFFF76DFB10BD70B505000C00FEF733
:1015E000FBFF2B680600002B04D1013B2B60FEF7AC
:1015F000FBFF19E0002C19D00E4B02211C682000C3
:10160000FEF7DCFD2B68013305D1230008332B6086
:101610000023A36003E021002800FFF7BDFC300099
:10162000FEF7E2FFFEF7ACFE012002E0FEF7DCFF72
:10163000200070BD5C03002070B50500FEF7CCFFF4
:1016400006002868002803D0431C05D100232B6026
:101650003000FEF7C9FF12E003680B212B60083849
:101660000400FEF7ABFD2B68002B01D1013B2B6082
:1016700064793000FEF7B8FF2000FEF7DDFD70BD95
:10168000F8B505000F00FEF7A7FF3A4B3A4A1B8852
:1016900006001BB29B009858036A002B1CD04469BB
:1016A0008369A34218D0631C4361C3691C40002FA7
:1016B00009D10369002B06D1631C04D13000FEF769
:1016C00093FF200054E0002C0ADB026AE300D318E9
:1016D0002A0082CB82C204E001246442002FE8D0B9
:1016E000C5600269002A2CD013680361002C0EDB50
:1016F00083694169C469056A591A8C4203DB591C24
:101700008161234001E001235B42DB00ED18083AD0
:101710001400D36806CB06C523790F25052B06D008
:1017200000230B21E3602000FEF748FD65793000BF
:10173000FEF75AFF0E2D02D82800FEF77DFD01208E
:1017400016E0002C10DA0321FEF738FD3000FEF71A
:101750004BFFFEF715FE094B1B681879C0B2032832
:10176000EDD10749FFF7B8FB3000FEF73DFFE6E794
:10177000F8BDC04658030020A40300205C030020ED
:1017800010DA000810B583694269C4699A1A944254
:1017900001DA002009E05A1C82612340F9D4026A70
:1017A000DB00D31805C905C3012010BDF7B51E0025
:1017B000254B8900CC58254B00901B880192038053
:1017C000002C05D101253000FEF70EFF6D4239E0F7
:1017D0002379032B28D01E4B009920001F68FFF7A8
:1017E000D1FF051E09D03000FEF7FEFE3B79012532
:1017F000052B27D1FEF7C4FD24E0019B002B03D16C
:101800003000FEF7F1FE1DE03979009B0539FB60E1
:101810004A424A413800111DFEF7D0FC2000390031
:101820001030FFF7B9FB07E0E368009A03CA03C36F
:101830000B212000FEF7C2FC3000FEF7D5FE01258B
:10184000FEF79EFD2800FEBDA403002058030020E3
:101850005C03002070B50400FEF7BEFE074B0500D8
:101860001B8821002380064B1868FFF78BFF0400BC
:101870002800FEF7B9FE200070BDC04658030020C6
:101880005C0300200E4A89000300885810B5002828
:1018900012D021221A800279032A09D1C26812CB00
:1018A00012C20B21FEF78AFC0120064B186005E0EE
:1018B0001900FFF767FF01E00120404210BDC0465C
:1018C000A40300205403002070B504000D00FEF7AF
:1018D0008EFE002804D029002000FFF7D3FF10E07F
:1018E000084B1B881BB29D4203D12000FFF7B2FFBB
:1018F00007E0FEF771FE0122030029002000FFF738
:1019000055FF70BD58030020F7B5114F05003B8807
:101910000C001BB21600934203D10E490320FFF7BF
:10192000DBFAFEF759FE3B880B4A1BB29B009F581F
:10193000019005213800FEF741FC2300FC6006CD34
:1019400006C320003100019B0122FFF72FFFFEBDDF
:101950005803002010DA0008A403002070B504002A
:101960000D00FEF739FE0022A35E114A9B009C5831
:101970000600002C03D10F490320FFF7ADFA2379AD
:10198000052B04D0FEF730FE012040420EE0E36854
:10199000200006CD06C30B21FEF710FC6479300051
:1019A000FEF722FE2000FEF747FC012070BDC04676
:1019B000A403002010DA000810B50121FFF760FE33
:1019C00010BD0000074B4A1E1B6810B5114018627D
:1019D00003D005490320FFF77FFA59619961DA6165
:1019E00010BDC0465C03002010DA0008184B194AED
:1019F000196AF0B50A408021C9030A4380211A629E
:101A0000DA69C9051202120A0A43DA610322C02503
:101A100000219446FF27AD008A080F489200121853
:101A200060463E000840C000864054590131B4432E
:101A300040268640344354512029EDD11A6910398B
:101A40000A431A615A69F131FF310A435A61F0BD04
:101A500000ED00E0FFFF00FF00E100E003001A7866
:101A6000002A01D00133FAE7181A70471F2310B576
:101A7000027804211340C8220933934201D39B1AF0
:101A8000DBB2013952080029F7D11B015AB21F23DA
:101A900040780424034009331800C831884201D338
:101AA000431AD8B2013C4908002CF7D11043C0B208
:101AB00010BDF8B5060008000D000124FFF7CEFFA9
:101AC0000023044047089C4209D1BC4206D0600074
:101AD0002818FFF7CBFF30550134F6E72300180034
:101AE000F8BD07B5042101A805F03AFD019800F002
:101AF00027F807BD70B50600884203D30F490320BD
:101B0000FFF7EAF90D1A2800FEF7CCFB6B1E1D4209
:101B100001D1C0B204E0C3B21E2B05D8C0B201305F
:101B200001248440013C01E00124644200F010F8EB
:101B300020408542FAD9301870BDC04610DA00083E
:101B400010B50100014805F019FB10BD88100020F8
:101B50001449F0B50B684D685E002B008F68CA68A9
:101B60007B4076085E40730050085E4050407040F5
:101B7000012402000B692240524213405F4083025D
:101B800073404E69C8603240534002008B601B0AAC
:101B90005B191C4088695A40634218400D604F60D1
:101BA0005040F0BD88100020F0B587B015000F0040
:101BB000060000F07EFB01A90400280002F074F981
:101BC00002AB002804D000221A709A609A810FE0BC
:101BD000B1797279012904D118701A719F609D81C1
:101BE00006E001211A71032219709F609D81DA734A
:101BF0009C73180002F072FC08230B2801D8024BDA
:101C00001B5C180007B0F0BDCCDB0008F0B510215C
:101C100087B00400A0273648FFF7D4FE7F0002A853
:101C2000FFF7CAFE02AB5888324B984204D10398A2
:101C30000368DB689847F2E72F4BC0180D28EED8F1
:101C400006F014FA070A0EEDEDEDEDEDED101A2D8C
:101C50003F202A4BDB6801E0284B5B689847DEE7B2
:101C6000039BFBE7039B200059681A68904704A96F
:101C700002A8FFF773FED2E7039B21790193059336
:101C800004A832E04022039BFF32197AA1545B7A08
:101C90003F3AE3554223FF3AFF33E254BFE7039B49
:101CA000052B08D1002165790A0061712000FFF73A
:101CB0007BFF6571B3E7124A04A842804360217933
:101CC00013E020000F4B039D04AE73802A7BA968AC
:101CD0004B3008F0CFFC3E232A7BFF33E2549F2297
:101CE0003000EB785200A3542179FFF7EDFD96E721
:101CF000A410002056340000A9CBFFFFBC15002023
:101D0000623400006334000007B50A790968FFF700
:101D10004BFF6A46044B01905380044B68460021F8
:101D2000595EFFF7D1FD07BD62340000A815002001
:101D3000F0B5C5B002AB040058600E2944D80800C5
:101D400006F09EF9084219420A42424242421032CB
:101D500034383D001D4A06E0200004F0D2F91C4B47
:101D60001B6825E01B4A5A801B4A18000021515E5F
:101D7000FFF7AAFD28E0236820005D6800231A0011
:101D80001900A847236801AE05005F680200330010
:101D900004A92000B84702230D48F356846832781E
:101DA000A9B204A8A0470FE00C4ADCE7084B1B6966
:101DB000984709E0606F064BC0B25B6903E0044BD3
:101DC000783420789B69984745B0F0BD56340000C0
:101DD000BC15002058340000A8150020573400001E
:101DE000037807B5042B0AD16A46054B6846538031
:101DF00005230193034B0021595EFFF765FD07BDE5
:101E000062340000A815002007B50378002B02D02B
:101E1000012B10D01CE041780E4A0F4B002905D150
:101E20006846019142800021595E0FE069464A8070
:101E30000122019207E04378002B09D16A46074B43
:101E400001905380044B68460021595EFFF73CFD2A
:101E500007BDC04661340000A815002064340000AE
:101E600037B543780400002B1FD143790F4D012B68
:101E700009D16A460E4B684653800523019300231F
:101E8000E95EFFF721FD637B002B04D06A46094B16
:101E90000194538004E06A46054B53800623019366
:101EA0000023E95E6846FFF70FFD37BDA815002047
:101EB000623400006334000007B54378002B07D17B
:101EC0000378002B0FD16A46074B5380062303E0AB
:101ED0006A46054B538007230193044B6846002153
:101EE000595EFFF7F1FC07BD62340000A815002021
:101EF000F0B50D788DB00400002D40D0012D78D1C3
:101F0000290000F00AFA29002000FFF765FB0023F2
:101F100007AE30003371357002F0CEF80423337011
:101F2000230047331B7830001A06230048331B7800
:101F30001B04134322004A32127813432200493211
:101F4000127812021343736002F0B6F8052333705F
:101F5000230030003733736002F0AEF8062333708D
:101F6000230030002733736002F0A6F8300035708C
:101F7000357102F0A1F82000FFF75EFB39E000F0B8
:101F800098F90127012101902000FFF725FB04A803
:101F90000770057102F090F8E31D08930833099368
:101FA00008330A936B461B7907AE200035703374F3
:101FB000FFF742FB300002F0EDF9B84209D00028EB
:101FC00017D00D4A02A90D4B4A800B280BD1039064
:101FD0000AE0094B02AA53800A230393074B10001F
:101FE0000021595E03E003970021595E02A8FFF724
:101FF0006BFC0DB0F0BDC04661340000A815002098
:1020000070B50D00160004000121FFF7E5FA1B4B27
:1020100032002B601A4B29006B601A4B1A48AB60D8
:102020001A4BEB60052301F0F7FD2000FFF704FBDE
:102030002000002100F02CF92000002100F04BF9D5
:102040002000012100F058F92000002100F00FF9D4
:102050002000022100F072F92000002100F070F948
:102060002000322100F06EF90C21200000F07BF9F5
:1020700042230022FF33E25470BDC046B91E00085F
:10208000611E0008091E0008BC150020E11D0008A3
:1020900030B5134C85B005001249200004F0E4FD72
:1020A0008021114B06222360104BC9006360104B46
:1020B000019502930F4B104800930823FEF786FF0B
:1020C0000E4B1880002806DD28000D4A0D49FFF749
:1020D00097FF002001E00120404205B030BDC0461E
:1020E00024110020A4DB000858DD0008311D000881
:1020F00096DB00080D1C0008A4110020A815002084
:10210000A4150020AC150020F0B58BB06B46D9713A
:1021100001210600DD1DFFF75FFA012307AC200057
:10212000237001F033FF27793000FFF785FA032091
:10213000002F19D10D4B0E4A1B8805A8337103AB34
:10214000039243600B4A0C4B4280210000229A5EAE
:102150000495FFF7D9FB2B783800002B04D1200021
:10216000FFF72AFC6068C0B20BB0F0BD5803002036
:10217000F11E000860340000A8150020F0B54223CD
:102180008DB001920022FF33C2540E0001210500E0
:10219000FFF722FA012309AC2000237001F0F6FEBC
:1021A00027792800FFF748FA0220002F1FD0114B93
:1021B00003AA1B8807A82B716B461B790E49137164
:1021C00005AB069243600D4A0D4B059142802100FC
:1021D00000229A5E0396FFF797FB2000FFF7ECFBC7
:1021E000084B628808209A4201D16068C0B20DB0E5
:1021F000F0BDC04658030020091D000860340000EF
:10220000A81500206234000007B50A4B1B88037133
:102210006846FFF7D1FB6B465888074B984205D0BC
:10222000064BC01843425841083001E00198C0B243
:102230000EBDC04658030020623400009DCBFFFF56
:1022400010B50121FFF7C8F910BD10B507300822FD
:1022500008F010FA10BD10B50F30082208F00AFA85
:1022600010BD10B51730102208F004FA10BD30B5BB
:1022700085B00D000400FFF7E3FF002301A8037001
:10228000057101F019FF2000FFF7D6F905B030BD48
:1022900030B585B00D000400FFF7D2FF142301A86C
:1022A0000370057101F008FF2000FFF7C5F905B0C4
:1022B00030BD30B585B00500FFF7C2FF142301AC77
:1022C0002000237001F062FE24792800FFF7B4F9A2
:1022D000200005B030BD30B585B00D000400FFF71B
:1022E000AFFF022301A80370057101F0E5FE200095
:1022F000FFF7A2F905B030BD30B585B00D00040080
:10230000FFF79EFF072301A80370057101F0D4FEBB
:102310002000FFF791F905B030BD30B585B004005D
:102320000D00FFF78DFF032301A80370456001F046
:10233000C3FE2000FFF780F905B030BD4171704742
:102340008171704730B585B004000D00FFF778FF4C
:102350001B2301A80370456001F0AEFE2000FFF7CB
:102360006BF905B030BD30B585B00D000400FFF746
:1023700067FF1C2301A80370057101F09DFE20007A
:10238000FFF75AF905B030BD37B514000E4A01AB5E
:102390002C32127805009A7009221A700B4A597073
:1023A0001278002A01D00A221A70094A19001078FE
:1023B00002F090FA2A1983B20020934203D3FF233C
:1023C00093424041C0B23EBD901700209E1A0020AB
:1023D000CA17002070B50024284B294A1C70294BCD
:1023E0001C60294B1C60294B1C60294B1C7001236D
:1023F0001370284A1370284A1470284A1470284A07
:102400001380284A1470284A1470284A1370284AE6
:10241000284B1178901C197051785970C07F991C05
:10242000C877190010002431243060C860C1100042
:1024300019002C3000782C310870100019002D3054
:1024400000782D310870116B526B19635A631A4B67
:102450000221187802F04EFA184B1C70184B1C70B1
:10246000184B1C70184B1B68002B02D05C629B6AD7
:10247000FAE7164A1370164A137070BD241900202B
:1024800025020020E41A00200C1600201C16002053
:1024900084190020240200208B1A0020E81A002052
:1024A000DA150020C91700209F1A002026020020FC
:1024B000D416002090170020CA170020FB18002017
:1024C000091600201016002080190020191600207F
:1024D000D815002010B50C4805F088F80B4B1B7878
:1024E000002B07D001220A4B1A700423094A1168F5
:1024F00099431160084B1B78022B04D12021074A15
:1025000013780B43137010BDBC1A0020FB18002079
:102510008B1A0020BC160020F41700208D1A002012
:1025200073B51A4805F062F80022194B19491A7060
:10253000194B0C001B78194D0B70194B981CC07F60
:102540001E00C87018002D3000788A740874CA7490
:102550001448154A007812784874022A02D12B6B6D
:1025600001939847114B124A18780432210002F067
:10257000FBF9A37C002B03D16B6BF068019302E0A5
:1025800000206B6B0193984773BDC046281900204B
:10259000F5150020A01A00201916002070DD000893
:1025A000901700209E1A0020F4170020CA17002060
:1025B000DC15002037B5194805F018F8184B1949F3
:1025C0001B7819480B70194B00785A6A0C004A6046
:1025D0001A002D3212781D000A74154A12784A74B6
:1025E0000122CA74022802D000238B7400E08A748E
:1025F000104B114A18780432210002F0B5F9002876
:102600000BD00E4BA27C5B6B00200193002A00D103
:10261000E868984701220A4B1A7037BD501900200C
:1026200019160020EC1A0020F41700209017002043
:102630009E1A0020CA170020DC15002070DD00085B
:10264000F515002010B5FFF7B5FF0222014B1A70F7
:1026500010BDC046F515002013B51D4C2378022B84
:1026600003D01C4BDB6A019398471B4B1B4A19781C
:1026700012781B4B002915D1002A02D0194A0331C8
:10268000517003225A702378022B1DD0164B186804
:1026900004F0CAFF154B1B68984212D3144804F08B
:1026A000A5FF09E0002A02D004210E4A517004223D
:1026B0005A702378022B07D020210E4A13780B433F
:1026C00013702378022B01D1FFF7BCFF13BDC04666
:1026D000F417002070DD0008F5150020FB1800201D
:1026E000F8150020C0160020041B0020141600203E
:1026F000501900208D1A00200B4B07B51B78022BB8
:1027000004D00A4BDB6A0193984701E0FFF79AFF78
:1027100002232021064A5370064A5370064A137852
:102720000B43137007BDC046F417002070DD00088E
:10273000C0160020F81500208D1A002013B51D4C7E
:102740002378022B03D01C4BDB6A019398471B4B69
:102750001B4A197812781B4B002915D1002A02D088
:10276000194A0531517005225A702378022B1DD069
:10277000164B186804F058FF154B1B68984212D38B
:10278000144804F033FF09E0002A02D006210E4A63
:10279000517006225A702378022B07D020210E4A4E
:1027A00013780B4313702378022B01D1FFF74AFFF4
:1027B00013BDC046F417002070DD0008F515002099
:1027C000FB180020F8150020C0160020041B002074
:1027D00014160020501900208D1A0020F0B587B083
:1027E00004F019FF3A4D06002B78022B04D0394B28
:1027F000DB6A0193984701E0FFF724FF364B374C23
:102800001B78002B2DD0364B364F1968380004F05A
:10281000F4FE380004F0D4FE2B78022B08D0324F9F
:10282000324B3800196804F0E8FE380004F0C8FEA6
:102830002B78022B03D02E4B1B78002B1FD012239A
:1028400003A90B702B4B187802F044F8274B2A4D44
:102850001B68C118280004F0D0FE280004F0B0FE68
:102860000DE0264A53700422254B5A702378002B22
:1028700001D101332370202223781343237022785F
:10288000204B120705D51E4A1278002A01D10132C9
:1028900000E000221A701C4B1C4A1B7804A913701C
:1028A0000B701B4B4E601B784B70124B187802F06C
:1028B0001AF8184B1E600E4B1B78002B05D10F4ADF
:1028C0005370154A13780133137007B0F0BDC0463A
:1028D000F417002070DD0008260200208D1A002069
:1028E000001B002028190020501900201416002079
:1028F000FB180020CA170020BC1A0020C0160020B8
:10290000F81500202519002019160020D8150020E0
:1029100024190020041B002084190020F0B50500B4
:102920008FB003920793039B994200D3FEE1685C4A
:102930004C1C0238E4B2082800D9F7E105F0AAFBE4
:10294000090015008D00AA00E6000A01410162019C
:102950009E010022E64B5A702A5DCC1C02311A728D
:10296000C9B26A5CE4B25A72BFE100230B2706AA1F
:1029700053729372BF1809AA13703B70631EEB1851
:102980000B93039B0BA901331B1B0B71D94BDA4E25
:102990001B7806A88B7133002C331B784B7173782E
:1029A000CB7133780B72D54BDB7F4B72D44B1B78DA
:1029B00001929C460A2306AA9B1809220097121826
:1029C000604601F0E8FFC34304905B0708D106AB03
:1029D0005B7ACA4A737006AB9B7A33703B78D377C5
:1029E00009AB1B7805211800029305F05DFB8021DF
:1029F000C44A49421278C3B28A1AD2B2013A069244
:102A0000C14A032710780022BC4616001100059326
:102A1000BE4B1B78059FB94212D0069FBB420CDA11
:102A20006046BB4E5A1CF0546846007CD2B2B0548B
:102A30000122100016000233DBB20131C9B2E9E70E
:102A4000002E01D0B1490B70002A01D0AE4B187096
:102A5000029B013BE418E4B247E101202B5DAD4A43
:102A60008024137002009A40AB4BA84F1A80A54BEC
:102A700064421B783A78E31A0231DBB2CCB293425B
:102A800000D832E1042113183B70A14B99549E4B9E
:102A900018702AE10F230726285D0BAF03403B7017
:102AA000CB1CDBB2EB5C020932407A701A020B1DC0
:102AB000DBB2EB5C4C1D0231C9B21B0413436A5CF0
:102AC00039001343642253430C938D4BE4B21878BE
:102AD00001F070FF0640072E09D1874B39781A00A4
:102AE000283211707A685A627A780233DA7780264F
:102AF000844A864912787642B21AD2B20B78013AE9
:102B0000934200DBF1E0824A8536DDE0834BFF2013
:102B10001B68002B03D01B68002B00D09847802631
:102B2000784A7A4912787642B21AD2B20B78023ACF
:102B3000934200DBD9E0764A8636D6545E1CF6B264
:102B40009055D81C08703F2107980233DBB2014032
:102B5000D154C7E02B5D09AF3B71CB1CDBB2EB5C02
:102B6000802618020B1DDBB2EB5C8C1D1B0403439B
:102B7000881CC0B2285C05310343642043430B9397
:102B80000023C9B20C936B5C0BAA13725C4B390027
:102B90001878099201F017FF5A4A5C491278764278
:102BA000B21AD2B20B78013AE4B2934200DB9CE055
:102BB000574A8736D6549E1C0133DBB20E70D05470
:102BC00090E00F232A5D0231C9B2134000D10133D6
:102BD000FA22FA20802492005343474A800013616E
:102BE0001B185361474B49481B786442E31A02782B
:102BF000DBB20C00934278D90821531C0370444B7C
:102C0000995467E000232A5D0BAC02312370203316
:102C1000CEB2134000D001236370D30601D5012347
:102C200023700F231340A370354B2100187801F057
:102C3000D3FE431C20D0304F22783B002C331A7037
:102C40003B0062782D331A70A378354AD05C05F0CA
:102C500063FE386380202B4B2C491B784042C31AFB
:102C60000A78DBB2934207D9531C0B700921284B19
:102C700099540122244B1A70340036E02B5D0BAFBF
:102C80003B70CB1CDBB2EB5C4C1D1A020B1DDBB2A4
:102C9000EB5C0231C9B21B0413436A5C8026134308
:102CA000642253430C93164B3900187801F09DFEB3
:102CB000144A164912787642B21A0B78D2B2E4B2AC
:102CC0009A4212D9124A8A36D6549E1C0133DBB27C
:102CD0000E70D05404221021124B1A70124A13782D
:102CE0000B4313700122084B1A7021001BE6C046EB
:102CF000F8150020081600209017002091170020DA
:102D0000CA1700209F1A002010160020C9170020A3
:102D10003C160020E81A0020DA15002034160020A6
:102D2000D8DB0008F41500208D1A00200FB0F0BD8C
:102D3000F0B58FB0059314AB07921A880023069163
:102D4000BF4DC0490A930B702B80059BBE4C591E8A
:102D50008B4101785B42217000781A40BB4FD3B29F
:102D600040093B7005F096F9080067014A006701C9
:102D700047006701670159010123E0182B80B44B1C
:102D80000822196804F007FC2888B24B083080B28A
:102D9000196808222880201804F0FDFB2B880026E3
:102DA00008332B80AC4B5B6905939847AB4B82B2E1
:102DB0001A802B88120AE054991C01339BB2E2540A
:102DC000A74A89B229800AABC9B21268200001F073
:102DD000E7FC2B880A9A591C100A89B2E254605405
:102DE000991C89B2100C6054191D03339BB2120E4A
:102DF0002980E25420E10122924B1A70994B072658
:102E00001B78002B00D117E1069B01241B78964DFF
:102E1000F3400BA94B702B680C704B60934B94489C
:102E20005A7800780A721A784A721A002C3212788C
:102E30008A721A19009501F07FFD069B0440A001DB
:102E40001C7840239C43069B04431C70894B1A78D2
:102E5000002A06D000221A702032E3B21343069AE9
:102E60001370854F784C3B68844E1A0A6370A270C9
:102E70001A0C1B0E2371069BE2701B78804D637148
:102E800033688049A3711B0AE3717F4B1A787F4B2B
:102E90001878281804F07BFB7C4B05991A787A4B3C
:102EA00008941B780996D218784BD2B21A70280071
:102EB000774B00292BD065490C78002C27D01B7844
:102EC0000824002B2ED00F2A1CD80F20069B1B781D
:102ED0001907090F5118014083430B430699280035
:102EE0000B7008994B71002391B29CB2A14205D995
:102EF000089C1D5CE41825720133F6E714000834C1
:102F0000E4B20FE000230A70079305950AE0082455
:102F1000002A07D01B78002B04D04C4B05901A7068
:102F20000023079300215A4B19700B009A4223D9B2
:102F30005348C55CE81E07281BD805F0A1F8181AED
:102F4000041618101A044F4E013375544C4DDBB261
:102F5000481CED5CC0B20231C9B2355409E0082604
:102F6000484D481C6E54C1B203E0023300E0013307
:102F7000DBB20133DBB2D9E7434B1970002902D031
:102F80000122434B1A70059B002B27D02F4B197839
:102F9000002923D06A462C4B127F651C1A55079ACC
:102FA000EDB289B25B19002A0CD16846374A007F1E
:102FB00010700293314B374A1B680193079B0093B3
:102FC0003B6807E002932D4B334A1B6801930023B3
:102FD00000933B68059801F065FB2C0000261B4B15
:102FE000174D19780AAB091929800293099B294AC0
:102FF0001B68009601933B68089801F00FFB2A8834
:103000000A9B08998B548C18190A61700432190CA8
:103010001B0EA170E3702A800EE0059E311E0BD0BE
:103020000026B34208D0D2B2601C04F0B0FA3B785C
:1030300001332B8000E0022630000FB0F0BDC04607
:10304000081B0020FB1800208C1900208C1A00207F
:1030500030160020B81A002070DD00088619002004
:10306000B41A0020241900201C16002090170020FC
:10307000CA1700200916002088190020E41A002031
:103080003C1600200C1700209F1A0020C9170020B2
:10309000101600208E1A002020160020F0B589B0EE
:1030A00002ABDE1D002333706B46012501901B79B6
:1030B00004A91B4C0B7063781A4F4B7023783200B5
:1030C0008B70236B4B60636B8B60174B1B888B8102
:1030D000164B18783B0001F052FC154B154A5D70F9
:1030E00055706178144C997031782000D97001992D
:1030F0001961396851609960FA21890004F07DFAFC
:10310000200004F05DFA084B0C4819780C4B9B6AC0
:10311000984700200B4B1A6815431D6009B0F0BD9D
:10312000901700208C170020081B0020CA170020D1
:10313000C0160020F8150020CC1700208C190020A4
:1031400070DD0008BC1600200023F0B589B00493A0
:103150004F4B02901B780925FF2B00D194E0002BE8
:1031600001D14C4A13604C4B4C4A1B7805AD4C4E78
:103170001278EB704B4B2A7032781868AA7004F002
:1031800053FA494C494F23686860AB60484B387824
:103190001B7829006B7001F03AFC464B22681B88B3
:1031A000454C013B53433B4A0593136063783878A1
:1031B0002B723378414EAB72384B29001B786B72FF
:1031C0003F4B1B686B60009204AB320001F026FCA1
:1031D0000396002816D005000B2855D1029B002B22
:1031E00052D000250499A9424ED01023354A364CBE
:1031F000106803432000136004F0FFF9200004F07E
:10320000DFF941E021000122A31C3D78DB7F2D3155
:103210005BB2A2560978280001F014FC2B4E227AEA
:10322000009641B26368280001F093FB28213878AA
:10323000274F227A61560097636801F08AFB174B8B
:103240001B78002B06D1A269F368D318214A1360BA
:10325000E26910E00121204B61561A781F4B0825C6
:103260001878FFF791F800280ED02269F368D31878
:10327000184A13606269FB68D318194A1360039BEC
:103280001878FFF70BFF0500280009B0F0BDC04615
:10329000E81A002038160020D81500202419002034
:1032A000C8170020041600208C170020CA17002021
:1032B00025190020DA15002090170020191600208B
:1032C000041B0020BC160020FC180020A01A0020BF
:1032D000EC1A0020001B0020C91700208C1A0020C7
:1032E0001416002030B50D000B4C85B0247803A9CE
:1032F000E4010C70009313002A00FFF719FD002869
:1033000007D1064A064B126858711871DA60FFF748
:103310001BFF05B030BDC04608160020E41A00208F
:10332000C016002010B5064804F060F91023054AC5
:103330000120116899431160FFF706FF10BDC046D8
:10334000FC180020BC160020F0B5A04E85B030005F
:1033500004F04CF99E4C019621789E4D8B0600D4CA
:10336000D6E02B685A0602D5412293432B600920F0
:1033700000230840984213D0974A5778022F03D071
:10338000964F7F78022F0BD101232F68944E9F43D5
:103390002F6000273770934E1771367897605671FB
:1033A000914A17781600002F38D1002B36D100280B
:1033B00034D00A070BD5894A1078002807D15278F3
:1033C000002A20D1894A1360894A13701BE0894A78
:1033D000874B0132D07F1A78904201D98A0717D5DE
:1033E0000222114005D17E4A117083490A680132D8
:1033F0000A6000221A70814B1B78934203D17B4AEA
:1034000013680133136001232A689A432A6005E098
:103410002022237893432370FFF784FF2378784A90
:103420009B071AD56C4B6F481979002904D175494F
:10343000077809788F4210D90021117031706F49D7
:103440000978002903D1694F396801313960017861
:10345000597101232968994329601378002B57D0AB
:10346000102329680B4053D1137066495D4A0978CF
:1034700013781700994232D9082B30D80133DBB2C8
:103480001370DB070ED51E235A4F03A90B703B00A8
:103490002C331B788B707B784B705B4B187801F06A
:1034A00019FA78700120FFF74FFE002804D120227E
:1034B0002378934323702BE00922474B48495A70E5
:1034C00000220A70012132701A71464A2868127867
:1034D00088435A71474A286052789A7010E04A4BE4
:1034E0000121187801F006FA01232A689A43002383
:1034F0002A603B4A33701370374A13713B7853711B
:103500003E4B1B78002B03D1384A136801331360FC
:1035100002222B68134201D093432B602B68002BAF
:103520001ED101222378134206D093432370374BD8
:1035300029481B681B68984708222378134206D045
:1035400093432370314B25481B689B689847304B49
:103550001B78002B30D1202223789343237007E07F
:10356000FA210198890004F048F8019804F028F83D
:1035700002222378134213D093432370254B1B78E8
:10358000934201D1FFF75EF823785B0704D41F4B09
:1035900021481B685B689847042223789343237073
:1035A0001022237813420FD093432370174B1B48EC
:1035B0001B68DB68984707E00422184B1A702378D1
:1035C0000C3213432370C6E705B0F0BDCC170020C2
:1035D0008D1A0020BC160020C0160020F81500200F
:1035E000C917002024020020FB180020E41A002044
:1035F00084190020901700201C16002018160020A7
:103600008B1A002025020020CA170020F81700207E
:103610009F1A0020F4170020DC150020F41500206C
:103620004023094A10B511680B431360074B1B7800
:10363000002B01D0FEF74EFF2223054A11780B43E1
:103640001370FFF781FE10BDBC160020FB18002090
:103650008D1A0020F0B5D94C95B0DBB20993E28108
:103660006B4624220491002106009B181B78D44845
:103670002374D44B01711B7811916374D24BE170A8
:10368000DB6AA1706171A16021736173A1746161D2
:10369000217005939847CD4803F0A8FF3378580967
:1036A00001380B93062800D925E204F0F3FC07004B
:1036B000240284002402840024021002C44B1B78DC
:1036C000002B01D001233DE2C24C049BC24D591E88
:1036D000671C701C89B23B002A6801F089F82C2213
:1036E0006B469B181B782A682370049B2000191FC7
:1036F00089B211AB01F054F8049BB84EE318DA1EFE
:10370000127811029A1E127812040A43191F013B03
:1037100009781B780A431B061343119A934247D139
:10372000AF4B39001A88AF4B00932868AE4B01F0BD
:1037300081F86379E0791A02A3791B041343227993
:103740001343AA4A1360227A637A120202431B04CB
:1037500013431A00A37A1B061343A54A1360E17AA8
:10376000A44B4A06520F981CC2770F221800114032
:1037700028300170217B0A4000D101221A61FA220F
:10378000196992004A43FA2189001A6152185A6154
:10379000049D994B12A918780D34113D12940D71A6
:1037A00001F0BAF8002301227370894B1A70A6E168
:1037B00007237370A3E18F4B10A92D331B788B70F7
:1037C00023794B7009230B708C4B1B78002B01D095
:1037D0000A230B70884B187801F07CF8049A0D3A94
:1037E000131C120400D500231BB2834200D969E7E1
:1037F000B37871781B020B431A00F3781B04134350
:10380000327912061A437A4B06921B689A4213D0F9
:103810007B4B1F68002F00D193E1069B3A689342CF
:1038200008D13B1D089310330D937B6A0793012346
:103830000A930BE0BF6AEDE7724B00271B68079302
:1038400000230A93674B0D93674B0893737918070E
:103850000593030F0E93049BF318DA1E15789A1E36
:1038600012782D02120415431A1F013B12781B789F
:1038700015431B062B430F93F379B2791B021343B5
:10388000079A9B1A9BB20C936B4630229B5E049A5C
:10389000111F002B16DB0C9A079B944663441C00F7
:1038A00011AB02930123089A009389B2069B0194FD
:1038B000300000F0B3FE119B0F9A9D1A6A426A41D4
:1038C000D5B215E080200125079A400214181C1972
:1038D00011AB0293089A069B89B2019400953000BF
:1038E00000F09CFE0F9B119A934201D00025079C8B
:1038F000112310A90B70404B187800F0EBFF0C9AC5
:103900002E4B824203D30A225C615A701BE1002DC8
:1039100000D1D9E0694628200022091809785A7098
:10392000997005999A60C906C90F597124491A738B
:103930004A7035495C610A6034490A700A99012964
:103940000BD102321A707B6A9C4204D1002C02D047
:1039500008221A4BB9E07C621FE01F210B988843B4
:1039600001002B48A0290ED101221A70254B0270AC
:103970001B689C420FD1002C0DD0264A9C3913782D
:103980000B43137007E01A701E4B02701B689C42B9
:1039900001D1002CDCD11B4B1C60094A1378012B90
:1039A0003CD1059B9B063CD500211B4B1970059B08
:1039B0009B06DB0F1371014A937432E0DC15002083
:1039C000C0160020F515002070DD000850190020F9
:1039D00024190020FC170020B41A0020F81500203C
:1039E00086190020201600208E1A00207819002049
:1039F0008819002090170020CA1700209E1A002066
:103A0000801900200C1600201C1600209F1A002090
:103A1000091600208D1A0020C917002000224C4BE7
:103A20001A700E9A049B0832043B9B1A002B42DD4D
:103A30000E9B0499093307930798B35C0D1A454907
:103A4000043DEDB2CB700F00002B1CD10F27059A5F
:103A50003A40171E0ED1012330183F4EA9B20093F1
:103A6000089A069B0296019400F08CFE099B2A009E
:103A7000390025E0042439488B740278224302700F
:103A8000374A137131E0059B1B0704D0099B0821BD
:103A90003000FEF743FF01940124079BA9B2F01800
:103AA0002D4E00940296069B0D9A00F06BFEBE60B0
:103AB0003D737C7319E0059B1F0716D00821099BF5
:103AC0003000FEF72BFF10E00C225A703BE0224D35
:103AD000711C2800049A03F05AFD0323237000236D
:103AE000A560049D6370013D257302211B4A137874
:103AF0000B43137003E001236370FFF791FD194B33
:103B0000194C1B78002B07D1184B1B78022B0DD1B9
:103B1000200003F06BFD09E0114B1B79002BF7D15E
:103B2000134B1A78134B1B789A42F1D82379002B48
:103B30000BD12021094A13780B431370FFF704FCC3
:103B400003E00B236370FFF76BFD15B0F0BDC046BB
:103B5000C9170020DC150020FC1700208D1A00205A
:103B6000C0160020FB180020BC1A0020F41700200B
:103B7000240200202502002010B5134B86B01B78CC
:103B800002AA1370114B02A95A7888814A701A78D8
:103B90008A701A6B5B6B0392019304930C4B187839
:103BA00000F049FFFA210B4C8900200003F025FDAD
:103BB000200003F005FD01230020074A11680B4394
:103BC000136006B010BDC0461916002090170020E3
:103BD000CA170020CC170020BC16002010B5040026
:103BE0000A4B0800DB6B51B222009847FA21084CBF
:103BF0008900200003F001FD200003F0E1FC012317
:103C0000044A002011680B43136010BD70DD0008EA
:103C1000CC170020BC160020F0B51D00032385B092
:103C200007000C0016000193002900D1FCE00B688E
:103C3000002B00D1F8E04B68002B00D1F4E08B683A
:103C4000002B00D1F0E0CB68002B00D1ECE0280085
:103C500000F03CFE0A230193002800D1E4E000229A
:103C6000734B28001C60734B03AC1E60724B734E89
:103C70001A700022724B21001A700022714B3570AD
:103C80001A60714B1A700022704B1A60704B1A60E8
:103C90000B23237000F01EFE431E98416D4B210044
:103CA000187008233078237000F014FE05236A4D45
:103CB000210028703078237000F00CFE0C2368700F
:103CC00021003078237000F005FE0D23E86021000C
:103CD0003078237000F0FEFD0E232861210030783B
:103CE000237000F0F7FD0F23686121003078237006
:103CF00000F0F0FD1023A86121003078237000F05F
:103D0000E9FD1323E86121003078237000F0E2FD23
:103D1000AB1CD877142321003078237000F0DAFD33
:103D20001523686221003078237000F0D3FD2B004A
:103D3000283318701A2321003078237000F0CAFD50
:103D40002B002C3318701B2321003078237000F0D7
:103D5000C1FD2B002D3318701C23210030782370F7
:103D600000F0B8FD1D23286321003078237000F097
:103D7000B1FD012468630021307800F0BBFD6B1CAD
:103D8000DC770A2306220A216B60344B2A721A72EE
:103D9000EA685960DA602A691A616A695A61AA692F
:103DA0009A61EA69DA611B19DC77FEF713FB2C4D87
:103DB0002C49280003F0FFFBFA212800890003F0BA
:103DC0001CFC2949294803F0F6FB2949294803F03E
:103DD000F2FB2949294803F0EEFB2949294803F061
:103DE000EAFB03F018FC284B284D1860284B3800DC
:103DF0003B60284BBB60284B3B61284B7B60284BCA
:103E0000FB602B68019398476B690193984703F017
:103E1000B5FB244B20001C70AB6D01939847EB6AF7
:103E20000193984700230193019805B0F0BDC04667
:103E3000F8170020341600208D1A0020CA17002021
:103E4000F4170020BC1600209E1A0020041B00203E
:103E500038160020C8170020D41600209017002024
:103E6000CC1700204933000825330008FC18002037
:103E70002125000828190020B52500085019002028
:103E8000D5240008BC1A00200416002070DD0008AC
:103E9000DD270008553600083D270008F9260008F0
:103EA000592600087C190020F0B50E278DB02F4A46
:103EB000059004ABFF1853780D003B700F2304A945
:103EC00012785B181A700320002D4CD0284A09A9DB
:103ED0001278284E0392284A284C12780492002225
:103EE0000A70274A12784A70264A1068486070782B
:103EF000087230782C3648723078887220780092B8
:103F00003A0000F019FD337808A98B703B781A4EFF
:103F10004B7009230B701C4B154F1A782300002A95
:103F200001D00A220A700498039A844618786244E1
:103F3000D4B200F0CFFCC0B26870844202D8001B3B
:103F4000287003E0002428703C7034700E23002198
:103F500004AA9B18595622000598FEF715FA03008B
:103F600058425841C0000DB0F0BDC046D4160020E4
:103F7000C9170020901700209F1A0020CA170020A0
:103F8000081600201C1600209E1A002013B50323DB
:103F9000041E71D00078013B1E286DD804F070F823
:103FA000101214181A1C1E202224272A33303C40D9
:103FB0004346494C4F515654585A5C5F63666800FB
:103FC0002E4B02E02E4B00E02E4B1B78237152E06B
:103FD0002D4B42E02D4B40E02D4B42E02D4B40E07D
:103FE0002D4BF2E72D4BF0E701A919230DE0043426
:103FF0002B4B01E02B4B0434243306CB06C43AE0B0
:1040000001A9172301E0162301A90B70264B18788C
:1040100000F060FC60602EE0214B0133DB7FD5E7D0
:104020001F4BDB681DE01E4B1B691AE01C4B5B69D4
:1040300017E01B4B9B6914E0194BDB6911E0194B2E
:1040400000E0174B5B78C1E7164BBEE7144BBCE7AB
:10405000164B02E0164B00E0164B1B6801E0104BBC
:104060005B68636007E00E4B1B7AAFE70C4B00E028
:104070000C4B5B6B63600023180016BDF417002027
:104080002419002008160020781900208819002023
:104090008E1A0020201600207C1900209E1A002075
:1040A00090170020D4160020CA170020E41A002020
:1040B0000C1600208019002070B5040086B000287E
:1040C00000D1C1E00120A14B1B68034200D03BE1BD
:1040D00020781E2800D934E103F0DCFF1F004400E3
:1040E00047004A004D00500056005E006600330154
:1040F00069009700B800AB00BD00C500C900CD0045
:10410000D100D500D900E8000901FB0018011C010D
:1041100033011F0125012B013001257900248C4B2F
:104120001D70A54218D0022D00D00CE1894B1C70E7
:10413000894BDB6A03939847884B894D190089485E
:10414000283109781A7A0078009549B25B6800F046
:1041500000FCFEF777FAF6E07F4BDB6A03939847A3
:104160002800F1E02279804BCEE022797F4BCBE032
:1041700062687F4BCCE062687E4BC9E061680029D1
:1041800062D010227C4804E0616800295CD01022D3
:104190007A4803F0FCF9CFE02079794B18706E4B28
:1041A0009B6D03939847C7E02279764BACE0237A66
:1041B0006A4D04A90B702B006A4E2D331B783078A2
:1041C00006224B7000F09DFB00283DD02B000434EC
:1041D000243306CC06C35E4B1B78022B00D0ABE029
:1041E000614B1B78002B00D1A6E05B4BDB6A03938D
:1041F000984728215A4B2A7A6956307800936B6881
:1042000000F0A7FBFEF71EFA96E0237A04A90B70D4
:10421000524B06222D331B784B70524B187800F00E
:1042200070FB002810D0584B0434243306CC06C34E
:1042300082E0636804A9049301230B71494B187849
:1042400000F071FB002877D103207DE0636804A9AA
:1042500004930023F1E72279531E0E2BF4D83F4B31
:104260000133DA7768E062683C4BDA6064E06268E8
:104270003A4B1A6160E06268384B5A615CE06268F0
:10428000364B9A6158E06268344BDA6154E0237926
:1042900004AD2B70334B05221878290000F031FB58
:1042A0000028D1D02A78384B5A7045E023792B4C1E
:1042B00004AD2B7023002C331B780422AB70294BE8
:1042C0002900187800F01DFB0028BDD02B78637002
:1042D00032E0237904AD2B70224B08221878290094
:1042E00000F00FFB0028AFD02A78274B0CE0237991
:1042F00004AD2B701B4B07221878290000F001FB3E
:104300000028A1D02A78154B1A7015E062681F4B5F
:104310001A6011E062681E4BFAE763681A4A53603C
:104320000E4A536008E02379174A13720B4A13723E
:1043300002E06268094B5A63002005E06268124B94
:10434000F9E7022000E0200006B070BDBC16002096
:10435000F4170020FB18002070DD000890170020E3
:10436000EC1A0020CA17002024190020081600208B
:1043700078190020881900208E1A002020160020AD
:104380007C1900209E1A0020D4160020E41A002078
:104390000C16002073B5041E01D1032382E0424EA7
:1043A0003168002901D001237CE0404D0C22280017
:1043B00003F0FDF8012320786B70032870D803F018
:1043C0005FFE02314B56102336681E40EBD1636806
:1043D000002BE2D0A368002BDFD0E368002BDCD0F9
:1043E000FDF7F8FF0821324A13780B4310211370B0
:1043F000237862682B702F4B1A60A2682E4B1A60CC
:10440000E2682E4B1A602E4B6156187800F0F6FACF
:104410002C4B32005870310001A833000670FEF7B3
:1044200061FF30E00821224A0120137828700B43F5
:104430001370254B25491C7880235B421B1B0A788F
:10444000DBB2934222D913180B700221204B9954EE
:10445000204B1870002325E002230821144A2B70FA
:1044600013780B431370A088FFF786FB0BE0032340
:1044700008210F4A2B7013780B431370227BA088FE
:10448000A168FFF7ABFB002398420BD00022082164
:10449000114B1A70064A13788B431370030001E026
:1044A0000220F3E7180076BDBC160020F8150020A6
:1044B0008D1A0020B81A002030160020B41A0020EF
:1044C000CA170020901700209F1A0020C91700204B
:1044D0003C16002010160020FB180020F0B5040048
:1044E00089B0002801D1032582E0434B01251F68D4
:1044F000002F00D07CE005AE142239003F48377011
:1045000003F055F83D4B5D703D4B1D702378AB4279
:1045100018D0002B0FD0032B29D12022394B524227
:104520001D703378134333700A266368A6570193CE
:10453000238902931DE0334B32781D701F231340F3
:10454000402207E0E27B2F4B1A701F233278134082
:1045500080225242134333700E26A36827790193B9
:10456000A389A65702930125E02FBCD802E03D00A5
:104570003E000027012307A90B70234B2C331B7827
:104580008B70224B187800F0A5F91F4B0393002D78
:104590002DD01F4B1B78002B13D1B04200D230001E
:1045A000039B06AD28702C331B780422AB70174B8D
:1045B0002900187800F0A5F9002894D02B78039AE8
:1045C0005370029B019A390005A8FEF78BFE002864
:1045D00008D101212278094B1A700E4A13780B4337
:1045E000137002E000220C4B1A70050000E0023547
:1045F000280009B0F0BDC046BC160020C01600203F
:10460000240200202502002090170020CA17002055
:10461000081600208D1A0020FB180020F7B50E00A8
:104620000700019208AA1C4C1178099A6171190AB5
:104630001A4DA371E171190C1B0E6372130A280045
:10464000A272E372130C120E23736273E67321726B
:1046500003F074F92800019903F080F92800210083
:10466000102203F082F9F2B23900280003F07DF93C
:104670000B4C2900200003F0D6F962782078A3784B
:10468000120202431B0413431A00E3781B06134370
:104690000A9A1360F7BDC046270200200C1B0020B9
:1046A000251D0020F0B585B01D00334F0AAB1B78E7
:1046B00002900E0001920021F02238000B9C03931F
:1046C00002F075FF3A001021019803F0DBFA6A4608
:1046D0002A4B127B9D715A712A0ADA712A0C1A72BE
:1046E000220A2D0E9C72DA72220C240E5D725C730B
:1046F000350001241A7323000F331B01DBB2019331
:104700000F2D19D91E4F1D481B4A3900C47303F0E1
:104710003FFB00230C9A019901985118029A121834
:10472000D05CDA5D4240CA540133102BF2D1103D07
:104730000134ADB2E4B2DEE733091C01341B1F01C2
:10474000A4B2FFB20133002C13D00D4D0B480A4A1E
:104750002900C37303F01CFB00230C9AD119029AA1
:10476000D219D05CEA5C4240CA5401339AB29442F6
:10477000F3D805B0F0BDC046341C0020370200203D
:10478000241C002030B585B00A9D08AC2478029521
:10479000099D00940195FFF785FF05B030BD00002D
:1047A000F7B507000D00104C1E002000019203F029
:1047B000C5F80199200003F0D1F8EAB239002000D1
:1047C00003F0D3F8094D2100280003F02CF96A7892
:1047D0002878AB78120202431B0413431A00EB78CB
:1047E0001B0613433360F7BD0C1B0020251D002062
:1047F000F7B51D0004000E4E0F0001920021F022BB
:10480000300002F0D4FE32001021019803F03AFA91
:1048100032002900200003F0BBFA0F2F06D929002F
:10482000200010311030320003F0B2FAF7BDC0465C
:10483000341C0020F0B587B000936B460400224D75
:10484000DA800F002800F02200219E1D02F0AFFE4A
:104850002A001021200002AC03F014FA20001022DC
:10486000002102F0A4FE0123237008336B443900B9
:104870001800062202F08BFE0F236B441800310053
:10488000022202F084FE2A000099200003F080FA40
:1048900020001022002102F08AFE02232370092347
:1048A0006B4439001800062202F071FE0F236B449E
:1048B00018003100022202F06AFE2A000C99200042
:1048C00003F066FA07B0F0BD341C002005384342FF
:1048D0005841704710B5052803D1080000F00CF9C5
:1048E00000E0002010BD10B5052802D1080000F03E
:1048F00069F910BD10B5052802D1080000F076F95D
:1049000010BD10B50B00052804D11100180000F0EF
:104910009BF900E0002010BD10B5052802D1080069
:1049200000F060FD10BD10B5052803D1080000F0AF
:10493000A9F900E0002010BD10B504000800110026
:104940001A00052C03D1029B00F0B4F900E000200E
:1049500010BD10B50400080011001A00052C02D18A
:10496000029B00F0E5F910BD10B50B00052804D13D
:104970001100180000F01EFA00E0002010BD10B574
:10498000040008001100052C03D11A0000F08AFA77
:1049900000E0002010BD13B50400080011001A004B
:1049A000052C05D1059B0093049B00F00DFB00E056
:1049B000002016BD10B5052803D1080000F09AFBB1
:1049C00000E0002010BD10B5052803D1080000F05C
:1049D0003FFD00E0002010BD10B5052803D1080000
:1049E00000F0ACFB00E0002010BD10B5052803D19D
:1049F000080000F0A7FB00E0002010BD10B505285E
:104A000003D1080000F0BEFB00E0002010BD10B58F
:104A1000052802D1080000F0B7FB10BD10B5040056
:104A2000080011001A00052C03D1029B00F0C8FBFE
:104A300000E00A2010BD10B5052802D1080000F0E2
:104A40002FFD10BD10B5040008001100052C03D186
:104A50001A0000F04DFD00E0D0B210BD37B5194B83
:104A600004001B6A0D0001939847002829D0164BBB
:104A7000164AE318934201D8022318E0144B154A52
:104A8000E318934201D8002311E0134B134AE318B3
:104A9000934201D801230AE0114B124AE3189342D2
:104AA000EAD9114B114AE318934202D803232B7021
:104AB00007E00F4BE4180F4B9C4201D80423F6E7A4
:104AC00000203EBD70DD000840AA8FCC7F841E0010
:104AD000C02571CCC0C62D00FF5E43CCBF270900A6
:104AE000A0B038CC20A1070040022ECC90D003000B
:104AF000606E29CCE093040010B5030000780938FB
:104B0000152847D803F0BCFA161A0B1F21242729B1
:104B10002B2E463746393B3D3F464641440D01204A
:104B200039E000205B785BB2834201D0013BD8B210
:104B300040B230E05B78184A5BB202E05B78174A1B
:104B40005BB2D05C27E0164825E0FA20800022E026
:104B5000FA20C0001FE013481DE013481BE080202E
:104B6000C00118E0FA211148890002F008FDFA237B
:104B7000DB00C0180FE00E480DE00E480BE00E48B9
:104B800009E0102007E00D4805E08320C00502E0A1
:104B90000B4800E0002010BD3CDC00080CDC0008E5
:104BA000B80B0000881300007017000018FCFFFF0E
:104BB00008E6D333361D0020F81D0020381D0020E4
:104BC0009A9909400C23020010B5017852684B43B2
:104BD00004494078CB18597A034B0901591800F061
:104BE0002DFD10BD381D00204802002070B50128A1
:104BF00017D0002804D002281DD101220E4917E049
:104C00000E4B0F4A1800110070C970C070C970C0F7
:104C10001833183213CA13C30723074901220B8024
:104C200006E0084A044B11881B880B43138002E0FE
:104C3000044800F0F5FC70BDF81D0020381D002070
:104C4000E8DB0008361D00200300081F10B5072808
:104C500005D803F015FA10061010100404140020F3
:104C60000EE0002005221856002100F09BFC431E98
:104C70009841C0B204E0002007221856F4E7012052
:104C800010BD000010B50479002C05D0012C0AD10C
:104C900001682200054802E001220168044800F092
:104CA000BFFC012000E0002010BDC046F81D002020
:104CB000361D0020F0B585B001920F0008220921B1
:104CC0000500002482564156406818606878A0426A
:104CD00025D0A24201D11A6020E06B683F2B1ED97B
:104CE0005F2B17D91F261E40012E13D11E2303A8A8
:104CF00042700370AB7A8370FFF7FEFE42B2002A67
:104D000008D12B78002B08D0072008490B880343D3
:104D10000B8002E02100012401E0110014002000BA
:104D2000019B3A70197005B0F0BDC046361D0020D9
:104D3000F0B587B01C0004911500031C072800DDA6
:104D4000072358B2164986006370164F7358012224
:104D5000BB4204D0144A9B185A4253415A00A270D5
:104D6000072803D12B3000F041FD04E00F4B895997
:104D7000185C00F021FD0E4B0600DB6D0F00059363
:104D80009847230008340C330293009001942B00C1
:104D9000049A3000390000F035FD07B0F0BDC04680
:104DA0001CDC000890D00300E05EF8FF14DC000873
:104DB00070DD0008F0B50127334E8FB073680C9199
:104DC000C75705000B934468984700230B969842F9
:104DD00057D1EB7C002B09D10C222B782B49534364
:104DE0005C58CB185B68002B00D01C00284B2000BF
:104DF000DB571E000B9BDB680D939847AB7C072F9E
:104E000017D10993012305932B89FA2202930523D5
:104E1000002401931F4B920000930B9B72439B69EC
:104E200008940D93079406940494039423001A495C
:104E300013E0099300232A89012402920822079390
:104E4000069305930493039300930B9B01929B6934
:104E500032000D932300A978089420000D9EB047DE
:104E60006B7C2000002B01D00C4B00E00C4BD95D7B
:104E70000B9B0D315B6DC9B20B9398470C9B1F7058
:104E8000012318000FB0F0BD70DD0008381D0020B0
:104E900014DC00088545010050C300000CDC00084C
:104EA0003CDC0008F0B593B0109201220F918256BD
:104EB0003C4B01789B5605000C930C234B433A491D
:104EC000CB185B7A39491B01CB189B788178181C69
:104ED0004CB25BB2A34200DA081C012143B20D932D
:104EE000334B9200D358334A0B91934205D0324A48
:104EF0009B185A4253418B400B93AA6869680D98DE
:104F000000F0E0FC0C232A782C4F5343FA680E90F3
:104F10001192254A00249858119B98470122284B4A
:104F2000AA560893079406940594072A13D10123DF
:104F3000049304330293FA230C9A9B005343009387
:104F4000FB6903940C9301940B9B1E4A0E9920005D
:104F50000C9EB04710E00823012602930C9B03949B
:104F60000093FB6922000C930C9C049601960B9B0A
:104F70000E993000A0473400104E297B736D20003D
:104F80000B939847736A297B20000B9398476A46D6
:104F90003421109B5218186001200F9B12781A7050
:104FA00013B0F0BD14DC0008381D002048020020BA
:104FB0001CDC000890D00300E05EF8FF70DD000804
:104FC000B80B0000A8610000F0B505000020072420
:104FD00007008FB0039304AB0191029258802B79A4
:104FE000BB4207D92B6805AED819310000F07BFB16
:104FF000002831D107A80470AB7905AC4370637801
:105000003A4A8370A37804A9C370237805310371E9
:10501000EB7943712B7A83716B7A0025C37110236E
:10502000037204AB0233C3600723426104AA4374D2
:105030000376063223000574457600F06FFB060008
:10504000072844D102222900294802F0B0FA04AB13
:105050005B88274A13803AE0B28804AB5A80F17823
:105060003818C7B2002902D10624002AB7D04B1E37
:105070000624042BB3D9A142B1D80C260023B44690
:105080000093013406290DD166465E433000174E69
:105090008659002E12D0012098400243012092B27E
:1050A00000900BE0160001201E41064206D0664625
:1050B0005E430E483658002E00D106240133102BD3
:1050C000E0D1009B002B8AD004AB5A8087E73000E8
:1050D0006378019A1370A378029A13702378039A65
:1050E0001370149B1F700FB0F0BDC046381D002018
:1050F000361D002037B5104B05001B6A4068019330
:1051000098470400601E8441002007222856002191
:10511000063400F047FA002801D1FD231C4001208D
:1051200005222856002100F03DFA002801D1FB237A
:105130001C4020003EBDC04670DD000801204042FA
:105140007047000013B56B46D91D0023040040686A
:105150000B70FFF783FC0C22431E9841237808490B
:1051600053435A580230002A02D1FD23184006E06A
:10517000032803D16268CB185A6000E0022016BDF4
:10518000381D0020704700007FB50B4A01AB01922B
:105190000A4A029242781A7202785A7282789A7295
:1051A000C278DA724268049282681800059200F0B0
:1051B0009EFB07B000BDC046381D002048020020FD
:1051C000F0B58BB0059105000021170006A810224C
:1051D0001E0005F0D9FA3F4C01220021200000F00A
:1051E00000FA002803D1072223881343238068682C
:1051F0002C6802F019FA844253D800243460A97A4A
:10520000687A0523344A00F01EFA01906B7A334E17
:1052100002930823EB56250003930094E3B2049312
:105220002C4B01221B882341134204D101340C363C
:10523000102CF3D128E03368002BF7D0029B002B11
:105240001CD0317A03984AB209071211091700F0ED
:10525000A9F90028EAD0737A1F4A1B01D318DB682A
:10526000002B06D16946097C6B1C06AA5155DDB29C
:10527000DCE7009B0133DBB20093D7E70723012271
:1052800023411342D2D0DCE7002D11D0691E00204B
:1052900002F075F906AB1B5C0020059A13703860AC
:1052A00015E068682C6802F0BFF9231A019302E048
:1052B000009B002B03D0019B0B203B6007E00721E4
:1052C0000C20044A13880B431380009B3B600BB0F7
:1052D000F0BDC046361D002048020020381D0020C9
:1052E000F0B5002485B002ABDF1D3C7006790500E7
:1052F00003200F2E57D82B682100187A07220007A9
:10530000001700F04FF9019008202B682100185673
:105310000722001100F046F90134002803D0019C57
:1053200063425C41E4B22B68187A030740B21B1752
:105330000011834200DD0124022E11D8002B00DD74
:1053400001240722052100F02DF9002800D10124B5
:105350000C2373432A68154912685B589A421ED180
:105360002B6839001868FFF779FB002817D0052053
:10537000002C18D10C22130073430C49CB181800D1
:105380002968019302F003F93B78019A20005372D7
:105390000123B340064A11880B43138003E0062023
:1053A000002C00D1023805B0F0BDC046381D0020E9
:1053B000361D002010B504780021022C0CD90C22D7
:1053C000130063430548C01805F0DEF921001022E0
:1053D000034800F0F2F80100080010BD381D00205D
:1053E000361D00205023F0B587B003AC237203793B
:1053F0000700102B2AD100260325072D0FD83B6864
:105400009A5D991922604B781B02134323608A78B6
:1054100012041343642253432360002302E0002359
:105420002360237263602368002B05D001A80194D8
:105430000571FFF755FF04E06B4668461D70FFF7E6
:10544000B9FF0135EDB20336102DD6D107B0F0BD4E
:1054500007B502680379116800290AD16A466846CF
:105460001370FFF7A7FF421E904103234042034001
:1054700014E000926A4668461371FFF731FF062870
:1054800009D802F0FDFD0A080808040608000223F6
:1054900004E0012302E0002300E0032318000EBD16
:1054A00037B50C2203780F4953435D58CB185B7A0C
:1054B0000D4A1B01D3189B788278040051B2181C46
:1054C0005BB28B4200DA101CA268616840B200F047
:1054D000F9F9064B0100DB6B2800A289019398477C
:1054E00037BDC046381D00204802002070DD00088E
:1054F0008A1A52B2101C002A00DA0020C0B270478B
:10550000064A6423904206D9054B984201D9054BBF
:1055100001E0FA239B0018007047C0467FEE36007A
:105520007F3F5C0210270000F0B5002585B00AAC73
:105530000391655700249A4231DBAA422FDC2300F5
:105540000F34A4461D01EDB2A84227D903995C008F
:10555000615A2C002E00103401910294019F741B9B
:1055600027413C0001273C420FD00C246146744384
:105570000B9F3C19247A67B2240724173F110C4073
:10558000A24202DB0F40BA4206DD02990136B14267
:10559000E4D10133DBB2D5E7012400E00024200090
:1055A00005B0F0BD10B5040000208C4204DBE00F14
:1055B000D317A2425841C0B210BD30B50B0915092E
:1055C0000024AB420BD8914209D25B00C0180134D1
:1055D0000F23220019408A40038893430380200050
:1055E00030BDF7B5060001920024002817D0019BBA
:1055F000994213D200254B009F5B2B000120A8404D
:1056000002003A40904201D10133DBB20135102D46
:10561000F4D1E3180131DCB2C9B2E8E72000FEBDE5
:1056200010B5002809D0002907D00023520093426A
:1056300003D0CC5AC4520233F9E710BD8A60002867
:1056400000D14A607047F7B501250E001B010433F5
:10565000D3180190141D00936D42009BA34240D0CB
:10566000019B002B1CD1206801F0DEFF0700002EFB
:1056700033D0606801F0D8FF874201D9206800E08C
:10568000606801F0D1FFA368984201D30023A360B2
:10569000A368002B1FD0181A85421CD905001AE0F8
:1056A000002E16D06068A76801F0BEFF874201D8BF
:1056B0000023A360A768002F0DD0606801F0B4FF3D
:1056C0003F1ABD4207D96068A56801F0ADFF2D1AE9
:1056D00001E03500A6601034BFE73000002FD2D0C3
:1056E000CCE72800FEBD10B5027803000020032A95
:1056F00013D15A780F301400120904408C704A708C
:105700009C788C80DA78120222438A801A791040C1
:105710000870052053065B0FCB7010BDF0B587B045
:10572000059302230326042703910492C356040021
:105730000293437805788657C757002B0CD11D4A32
:105740000220215E914202D007271D00E757052362
:105750000626E356A6570293002D20D06269102337
:1057600001921122A256E3560092207A029AE16831
:10577000FFF7DAFE002801D102239D4319231822E6
:10578000E356A2569E4204DB964203DD04239D436A
:1057900000E01E00072D02D1002F00D101376A461C
:1057A0002800039B127A1A70049B1E70059B1F70C1
:1057B00007B0F0BD0F0F000001238340D0B51800E3
:1057C0000C0004F03BFE060020000F0004F078FE01
:1057D00002000B003000390003F008FC0022024BED
:1057E00004F028F8D0BDC04600408F4010B504F04A
:1057F00067FE02000B000020014903F0F7FB10BD1B
:1058000000002040F7B504000D00101F400000927A
:10581000019304F013FE22002B0004F00BF8019B0F
:10582000060058000F0004F04BFE02000B00300091
:10583000390003F0AFF82B00220003F0D7FB06007D
:105840000F0001F02FFD02F003FE009B984206D9E5
:105850003000390001F026FD02F0FAFD0090099BAE
:10586000009A20001A6029000022144B03F0E2FF86
:10587000060000980F0004F023FE22002B0003F026
:10588000D9FF00220E4B03F0D5FF02000B003000C1
:10589000390004F049FA040008980D0004F010FEE5
:1058A00002000B002000290004F03EFA01F0FAFC8F
:1058B00004F08EFD0A9B1860F7BDC0460000104042
:1058C0000000E03F70B54000141C0D1C03F024F8EC
:1058D000011C281C02F09AFE211C02F097FE04F025
:1058E00027FE01F075FD04F073FD40B270BDF8B500
:1058F0000C23C27A040053430268D3185D7A4368CC
:105900002D015D190023EB60437A2E88877A002BE6
:1059100012D1C068FFF7F4FD002F02D1237A002BCB
:1059200010D082B2331C964200D2031C22699BB273
:10593000013B5343EB6005E0002F03D00369013EB8
:105940005E43EE60F8BD0000F8B5104C400124182D
:10595000676801213800FAF780FFA668002130004F
:10596000FAF77BFFE56801212800FAF776FF247D2E
:1059700038002100FAF7ACFF30002100FAF7A8FF49
:1059800028002100FAF7A4FFF8BDC04650DC00084B
:10599000F8B50400012803D90E490320FBF79CFA4F
:1059A00000250D4B8200D550FFF7CEFF0B4B640155
:1059B0001B191E7F9F6930003900FBF761FC074B04
:1059C0003900E35830001D60DD615D60FBF774FC59
:1059D000F8BDC04610DA0008FC1D002050DC0008AD
:1059E00070B50C00012820D84B1C20D0FF23114A91
:1059F0009943914210D11C4019D10F4D40012D18EF
:105A00002E69731C13D001213000FAF726FF297D7F
:105A10003000FAF75DFF06E001212000FAF71DFFD4
:105A20002000FAF777FF002003E0012000E00220C9
:105A3000404270BD00FFFFFF50DC0008F7B50400D6
:105A40000193830016480F00C01801210092FBF754
:105A5000C3FD0120FBF76CFB124E640133191D7F5F
:105A600099692800FBF70CFC052255430E4A009962
:105A70005519019AA359AA5CD2000A4304210A438A
:105A80001A600A4A974205D0C0211A6889000A4361
:105A90001A6002E05A680A435A600020FEBDC04600
:105AA000FC1D002050DC000844DC000800FFFFFF64
:105AB00070B50400002104250A4863011A58C31870
:105AC00011605168187FA94351609969FBF7F4FB95
:105AD0000120FBF745FB0448A4000019FBF7ACFDCF
