:020000040020DA
:10200000E87C00208D2220009FD220009DD220005D
:102010009DD220009DD220009DD220000000000013
:10202000000000000000000000000000EDE62000BD
:102030009DD22000000000000BE720008BD4200080
:102040009DD42000A3D42000A9D42000AFD4200028
:102050000000000091D4200097D420009DD22000E1
:102060009DD22000000000000000000000000000E1
:1020700000000000000000009DD2200000000000D1
:1020800000000000000000009DD220009DD2200032
:102090009DD220009DD220009DD220009DD2200004
:1020A0009DD220009DD220009DD220009DD22000F4
:1020B0009DD220009DD220009DD220009DD22000E4
:1020C0009DD220009DD220009DD220009DD22000D4
:1020D0009DD2200000000000000000000000000071
:1020E00000000000000000000000000000000000F0
:1020F0000000000000000000314F2000414F200090
:1021000000000000000000000000000000000000CF
:1021100000000000000000000000000000000000BF
:1021200000000000000000000000000000000000AF
:10213000000000000000000000000000000000009F
:10214000000000000000000000000000000000008F
:10215000000000000000000000000000000000007F
:10216000000000000000000000000000000000006F
:10217000000000000000000000000000000000005F
:10218000000000000000000000000000000000004F
:10219000000000000000000000000000000000003F
:1021A000000000000000000000000000000000002F
:1021B000000000000000000000000000000000001F
:1021C000000000000000000000000000000000000F
:1021D00000000000000000000000000000000000FF
:1021E00000000000000000000000000000000000EF
:1021F00000000000000000000000000000000000DF
:1022000000000000000000000000000000000000CE
:1022100000000000000000000000000000000000BE
:1022200000000000000000000000000000000000AE
:10223000000000000000000000000000000000009E
:10224000000000000000000000000000000000008E
:10225000000000000000000000000000000000007E
:10226000000000000000000000000000000000006E
:102270009DD22000154E2000394E2000B54420008C
:10228000B1502000D53F20009DD2200008B5094B59
:10229000FF221A600848094A4824E369121A0849CB
:1022A00098470848084AA369121A0021984701F084
:1022B0007BFBFEE7B4200D4040400020214200207F
:1022C00090F4200028420020E874002010B5044655
:1022D000436E9847034BE06E00221978BDE810402A
:1022E00003F056BDD67400202DE9F04F0C4685B0A2
:1022F00017461E46002B00F06D8191F8B0341BB1DB
:1023000001F595600AF0E1FF94F8B1346BB93B78C0
:10231000012E84F8B134D4F8AC3403F10103C4F8CD
:10232000AC3400F05781012500E0002594F8B73463
:102330005BBB7819AE4240F24D81D4F8AC3494F8CE
:10234000B82401330132052B10F8011B05F10105FA
:10235000C4F8AC3484F8B82405D900228021204682
:10236000FFF7B4FF36E194F8B634B4F8B2E401F004
:102370007F0202FB03E2DB0184F8B6340B06A4F80B
:10238000B224D7D4012384F8B734B4F8B224B2F518
:10239000007F05D994F8B13403F0F003302B04D159
:1023A0004FF001084FF000092FE0D4F8AC340132AF
:1023B0001E449642C4F8AC64C0F00C8107E102F000
:1023C000F002302A2BD094F8B904731BC0F5007AC0
:1023D0009A4528BF9A4620445246791900F2BA40DD
:1023E0000AF08EFDD4F8AC3494F8B9245344524426
:1023F00084F8B924C4F8AC3455440022D1B28A45DB
:1024000002F10102FAD8AE4261D9B4F8B224D4F88C
:10241000AC340132934294F8B124D0D35DE094F807
:10242000BF26002ACFD194F8BE269AB97A5D691CDE
:102430001202581CB142A4F8BA26C4F8AC0444D223
:10244000795C02330A430235A4F8BA26C4F8AC34E6
:1024500084F8BE86B4F8BEA6BAF1010FB3D1B4F8C1
:10246000BC06B4F8BA26C5EB060B121A934528BF72
:10247000934620441FFA8BF31A46791900F2C46080
:1024800001930AF03DFDD4F8AC24019BB4F8BA16D0
:102490001D441344B4F8BC26C4F8AC345A4492B278
:1024A0009142A4F8BC260DD1631884F8BFA683F826
:1024B000C496B4F8B234023B5B1A9BB2A4F810374E
:1024C000A4F8123784F80E877DE70D467BE7B4F851
:1024D000B2240132934298D27CE002F0F003502BF8
:1024E00070D006D8302B3CD0402B49D0202B6ED159
:1024F00019E0702B66D002D8602B63D067E0902B78
:102500004FF001024BD0B02B61D184F8992294F89E
:10251000BB3494F8BA24032143EA0223A4F8B43468
:1025200004F2B44250E094F8BB544DB1204604F29A
:10253000BB428221FFF7CAFE20460AF0E8FE46E0D1
:10254000E18A012384F89932244A2346C90104F11F
:10255000180003F013FA082384F860302A4629464D
:1025600032E004F2BA43C4F8083794F8B93420468C
:10257000A4F80C370023A4F812370AF0B0FE26E0C6
:10258000012394F8BA2484F8993294F8BB340521D5
:1025900043EA0223A4F8B43404F2B44214E084F809
:1025A000992294F8BB3494F8BA24022143EA022316
:1025B00094F8BC24ADF80C308DF80E20A4F8B43497
:1025C00003AA01E0002284212046FFF77FFE0123B9
:1025D00084F8B034002005B0BDE8F08FE12520007C
:1025E00010B590F838308BB100F22C74022380F8CB
:1025F000603020460BF0D1F9204606F07FFF2046E0
:10260000BDE81040342200210AF054BD034B0246BD
:10261000BDE810401978024803F0BABB825F002081
:102620004040002030B504460523002580F8603086
:10263000012385B0A0F86830A0F89C5280F838508B
:1026400000F595600AF041FE0E4B84F87452039336
:102650000D4B04F22C75029304F174024FF40073D5
:102660000092214604F2A6220193284606F0CCFEF1
:102670002846B4F8282704F5E36105B0BDE83040EA
:1026800006F0F8BE8D262000E922200013B50C4686
:102690008DF80720042A3BD8DFE802F0200303036B
:1026A0002D001C4B0A461C48197803F071FB0323CC
:1026B00084F8603004F1180003F0A2F90DF107026C
:1026C00001212046FFF702FE20460AF020FE637D2E
:1026D000012B1DD12046FFF7A5FF19E0062381F845
:1026E0006030012381F874320C4B0A460A4819788D
:1026F00003F04EFB0CE0B1F84E372BB9012381F803
:10270000743201F174030B6704F1180003F05CF9F3
:1027100002B010BD8A5F002040400020855F00208D
:1027200038B51D4C2578002D34D103F0C5FA1B4B6C
:1027300018701B4B187003F0BFFA1A4B187003F097
:10274000BBFA194B187003F0B7FA184B187003F066
:10275000B3FA174B187003F0AFFA164B187003F06A
:10276000ABFA154B187003F0A7FA144B187003F06E
:10277000A3FA134B1870134B187003F09DFA124B09
:10278000187012480AF084FF2946114803F028FB0C
:102790000123237038BD00BF865F00208D5F0020BD
:1027A000835F0020855F0020895F00208B5F002011
:1027B0008C5F0020875F0020825F0020D67400209D
:1027C0008A5F0020845F0020885F00203C42002058
:1027D00040400020F8B51F46137804460E461546C3
:1027E00033B34FF4EC6200210AF064FC294604F193
:1027F0000C000AF0F3FDBDF81820012300256375D5
:10280000A4F8A422A4F8683004F595606766E6662B
:10281000A4F89C5284F838500AF057FD84F874529A
:10282000FFF77EFF214603480AF052FF2846F8BD15
:102830008220F8BD3C420020F0B50446084694F8DA
:10284000601085B003291ED8E38204F17403236766
:10285000237D002543F00203C4F81407A4F82827B9
:1028600084F89952237569460BF0A3F868B19DE886
:102870000F0004F5E36787E80F00054B224619783F
:10288000044803F085FA002000E0802005B0F0BD88
:102890008D5F00204040002090F860300246082BF9
:1028A00007D1092380F86030024B0348197803F000
:1028B0006FBA7047895F0020404000202DE9F34146
:1028C0008DF8071040F2A941038806468B42154651
:1028D00000F028830CD840F284418B421ED040F295
:1028E0009B418B4200F00983002B40F0AF8069E0F0
:1028F000B3F5996F00F00E8405D840F2BB418B42CE
:1029000000F09383A2E040F2D5418B4200F06B854A
:1029100040F2E2418B4200F0898697E0BF4B9DF880
:1029200007201B789A4207D1BD4B28461D600A2319
:1029300085F860300AF0EBFCBA4B9DF807201B7855
:102940009A4204D1B64B28461D60FFF76BFEB64B8A
:102950009DF807201B789A4237D0B44A9DF807307B
:102960001178994206D1AE4B1D6095F86030092B65
:1029700000F0E982AE4B9DF807201B789A4200F0E8
:102980004483AC4B9DF807201B789A4200F0B28339
:10299000A94B9DF807201B789A4206D1A04B1D60D9
:1029A00095F87432012B00F01585A44B9DF8072093
:1029B0001B789A4206D19A4B1D6095F87432012B10
:1029C00000F01F8640F284433CE0954B1D60B5F853
:1029D000A432A5F8543795F87432012BBDD10023E9
:1029E000A5F89C328E4F3C68B4F89C32B3F5D17F89
:1029F00000F08B8157D8B3F5CD7F00F00A8132D833
:102A000040F29712934200F0D980B3F5CC7F22D2E6
:102A1000002B00F08E80B3F5CA7F40F06A8294F8F4
:102A20007432002B40F0B3803B6893F860300A2B7F
:102A300093D0834B00221978824B186803F0A8F9D1
:102A400040F29B433380012000F031BF00233380EC
:102A5000032000F02CBF00F0BF8040F29912934297
:102A600000F0C88045E240F29D12934200F01481CC
:102A7000B3F5CF7F09D240F29B12934200F0EF8072
:102A8000B3F5CE7F00F0F98033E240F29F1293421B
:102A900000F01E81B3F5CF7F40F20C81B3F5D07FFB
:102AA00000F0248125E240F2B312934200F0A281AB
:102AB000B3F5DA7F20D240F2A712934200F05A8198
:102AC000B3F5D47F09D2B3F5D27F00F0348140F260
:102AD000A512934200F03E810BE240F2A91293420C
:102AE00000F06581B3F5D47F40F2528140F2AB1221
:102AF000934200F06D81FCE1B3F5DD7F00F0BC8115
:102B000009D8B3F5DA7F00F0848140F2B71293421E
:102B100000F09081EDE1B3F5DF7F00F0CD81B3F5FA
:102B2000E57F00F0CE8140F2BB12934240F0E1819C
:102B3000B1E1228A102384F8783202B1023202F124
:102B40000C03B4F8542002B102321344B4F85C20F0
:102B500002B102321344B4F8402002B102321344ED
:102B6000B4F8482002B102321A44C4F87C2204F5B9
:102B7000217104F520700AF095FB94F88432042B3F
:102B800005D9002281212046FFF7A0FBB1E194F88E
:102B9000781220460AF0EBFB20B14FF4CA73A4F878
:102BA0009C323CE794F8842204F5207120460AF018
:102BB000EEFB40B140F29713A4F89C3294F87432C3
:102BC000002BEFD130E7002120460AF0D0FB40B1C6
:102BD0004FF4CC73A4F89C3294F87432002BF2D1E9
:102BE00022E7062120460AF0C2FB40B140F29913C9
:102BF000A4F89C3294F87432002BF2D114E7062228
:102C0000114920460AF0C3FB00B34FF4CD73A4F87A
:102C10009C3294F87432002BF1D105E78A5F0020D2
:102C2000384200208D5F0020855F0020895F0020F2
:102C3000825F00208B5F00208C5F0020875F002078
:102C4000885F002028430020D5EF20000321204684
:102C50000AF08DFB40B140F29B13A4F89C3294F82B
:102C60007432002BF2D1DFE6217D20460AF07FFB93
:102C700040B14FF4CE73A4F89C3294F87432002B18
:102C8000F2D1D1E6E18A2046090A0AF070FB40B190
:102C900040F29D13A4F89C3294F87432002BF1D1C9
:102CA000C2E6A17D20460AF062FB40B14FF4CF732B
:102CB000A4F89C3294F87432002BF2D1B4E60021CF
:102CC00020460AF054FB40B140F29F13A4F89C3216
:102CD00094F87432002BF2D1A6E6217C20460AF04B
:102CE00046FB40B14FF4D073A4F89C3294F8743290
:102CF000002BF2D198E6228AE16820460AF047FBD1
:102D000040B14FF4D173A4F89C3294F87432002B84
:102D1000F1D189E6237D5A0704D494F91430002BAD
:102D20005BDA5EE0002120460AF021FB40B14FF45F
:102D3000D273A4F89C3294F87432002BF2D173E66B
:102D400094F8401020460AF012FB40B140F2A5135F
:102D5000A4F89C3294F87432002BF1D164E6B4F8F4
:102D60004020E16B20460AF012FB40B140F2A7136D
:102D7000A4F89C3294F87432002BF0D154E6002170
:102D800020460AF0F4FA40B14FF4D473A4F89C3210
:102D900094F87432002BF2D146E694F8481020469D
:102DA0000AF0E5FA40B140F2A913A4F89C3294F875
:102DB0007432002BF1D137E6B4F84820616C20461C
:102DC0000AF0E5FA0028A8D040F2AB13A4F89C3230
:102DD00094F87432002BEFD126E6237D5B0642D4B3
:102DE0002DE0002120460AF0C2FA40B140F2B313B0
:102DF000A4F89C3294F87432002BF2D114E694F8C3
:102E0000541020460AF0B3FA40B14FF4DA73A4F834
:102E10009C3294F87432002BF1D105E6B4F85420BA
:102E2000216D20460AF0B3FA0028D6D040F2B7133D
:102E3000A4F89C3294F87432002BEFD1F4E52046CC
:102E40000AF084FA072384F860304FF4A061201D53
:102E50000AF0FEFB04F595600AF037FA4FF4E573CB
:102E6000A4F89C322DE0002120460AF080FA40B1FF
:102E70004FF4DD73A4F89C3294F87432002BF2D135
:102E8000D2E594F85C1020460AF071FA40B140F2A5
:102E9000BB13A4F89C3294F87432002BF1D1C3E533
:102EA000B4F85C20A16D20460AF071FA0028C6D063
:102EB0004FF4DF73A4F89C3294F87432002BEFD1F6
:102EC000B2E594F8993204F10408012B07D1404689
:102ED0000AF0D0FB48B12046FFF7DEFC05E0404693
:102EE0000AF0C8FB0028F2D19EE504F595600AF0CF
:102EF000ECF90023A4F89C322FE5BB4B9DF807109A
:102F00001B788B4214D0B94B1B788B423FF66AADCD
:102F1000B74B1B788B42FFF465ADB64B186802F0D7
:102F200037FF5FE5B04B9DF807101B788B4212D13D
:102F3000B14B0A221B68022083F860200022A3F80C
:102F40009C2200F0B4BC95F87432012B58D10023B8
:102F5000A5F89C3204E0A54B1B788B4240F2E88137
:102F600040F2E512A44F3C68B4F89C32934212D070
:102F7000B3F5F37F01D22BB135E01AD0B3F5F87F6A
:102F800028D030E0E02120460AF0F1F940B140F2CB
:102F9000E513A4F89C3294F87432002BF2D1D1E1FD
:102FA000002120460AF0E3F940B14FF4F373A4F88E
:102FB0009C3294F87432002BF2D1C3E120460AF01F
:102FC000C5F94FF48071201D0AF042FB4FF4F873ED
:102FD000A4F89C3294F874322BB9201D0AF04AFBF5
:102FE000002800F0AF810023A4F89C3238680AF072
:102FF0008EF90DF1070201213868FFF767F9B9E48E
:103000002A467E4802F0C4FEB4E47B4B1D6095F86E
:103010007432012B7FF4B5AC95F86030082B7FF447
:10302000B0AC0023A5F89C320BE06F4B9DF8071065
:103030001B788B423FF47CAF6C4B1B788B4240F289
:10304000928140F2D2216C4A14681746B4F89C323F
:103050008B4214D001D84BB148E040F2D3229342C6
:103060001BD040F2DE2293422FD03FE0C021204609
:103070000AF07DF940B140F2D223A4F89C3294F8D2
:103080007432002BF2D178E1002120460AF06FF96A
:1030900040B140F2D323A4F89C3294F87432002B50
:1030A000F2D16AE120460AF051F9012384F8383060
:1030B00004F595600AF009F94FF4A061201D0AF0AB
:1030C000C7FA40F2DE23A4F89C3294F8B0343BB146
:1030D00004F595600AF0F9F8002384F8383005E02B
:1030E000201D0AF0C7FA0028F2D146E10023A4F817
:1030F0009C3246E4404B1D6095F87432012B7FF4FE
:1031000047AC95F86030082B7FF442AC0023A5F85B
:103110009C320BE0344B9DF807101B788B423FF438
:1031200007AF324B1B788B4240F2388140F21622B7
:10313000314B1C689846B4F89C72974200F0898025
:103140000ED8B7F5047F49D001D817B3EBE040F2B1
:1031500013239F4260D040F215239F426AD0E2E0E1
:1031600040F21B239F4200F0A480B7F5077F08D2EE
:10317000B7F5067F7DD040F219239F4200F088808A
:10318000D1E000F0A58040F225239F4200F0B580F9
:10319000C9E0B4F88C228223053284F87832C4F86E
:1031A0007C2204F5217104F520700AF07BF894F874
:1031B0008432042B08D93A4681212046FFF786F84D
:1031C000A4F89C72FFF7E4BB94F8781220460AF04A
:1031D000CEF8A8B14FF40473A4F89C3294F874327A
:1031E000002BF1D1E4E000BF8A5F0020835F002064
:1031F000845F002028430020384200204040002007
:1032000094F8842204F5207120460AF0C0F840B1F9
:1032100040F21323A4F89C3294F87432002BEFD1BF
:10322000C6E0002120460AF0A2F840B140F2152382
:10323000A4F89C3294F87432002BF2D1B8E094F8E0
:10324000861220460AF093F840B140F21623A4F803
:103250009C3294F87432002BF1D1A9E0B4F88C12AE
:103260002046090A0AF083F840B14FF40673A4F827
:103270009C3294F87432002BF0D199E094F88C12BF
:1032800020460AF074F840B140F21923A4F89C32A9
:1032900094F87432002BF1D18AE0B4F88C22D4F87F
:1032A000881220460AF073F840B140F21B23A4F8BC
:1032B0009C3294F87432002BEFD179E094F8981294
:1032C00020460AF054F840B14FF40773A4F89C323A
:1032D00094F87432002BF1D16AE020460AF036F8F7
:1032E0004FF4A061201D0AF0B3F904F5956009F0D0
:1032F000ECFF40F22523A4F89C3294F89932271D64
:10330000012B0AD138460AF0B5F904F5956009F0A9
:10331000DCFF002384F86A3005E038460AF0AAF999
:103320000028EFD144E00023A4F89C32FFF730BB23
:10333000B84B1B788B42FFF413AEB74B186802F002
:1033400027FD0DE63B6893F860300A2B3FF44EAE44
:10335000B24B00221978B04B186802F019FD40F208
:10336000A943FFF76FBBAB4B1B788B42FFF469AEF1
:10337000A94B186802F00CFD63E63B6893F86030D7
:10338000082B7FF4FEAAA54B00221978A24B1868DF
:1033900002F0FEFC40F2BB43FFF754BB9D4B1B7891
:1033A0008B42FFF4C3AE9C4B186802F0F1FCBDE603
:1033B000D8F8003093F86030082B7FF4E9AA974BD7
:1033C00000221978944B186802F0E2FC4FF49963DC
:1033D000FFF738BB95F86030082B7FF4E6AA00238E
:1033E000A5F89C320BE08E4B9DF807101B788B42A2
:1033F0003FF49EAD8B4B1B788B4240F2E6808A4BAC
:103400001C689846B4F89C72B7F5157F7DD011D82A
:1034100040F24F239F424AD0B7F5147F01D20FB339
:10342000CEE040F251239F4252D040F253239F42BC
:103430005CD0C5E040F257239F4200F08580B7F58D
:10344000167F04D240F256239F426ED0B8E040F27D
:1034500059239F4200F0898040F262239F4200F08E
:103460009980ADE0B4F88C22A223043284F878323B
:10347000C4F87C2204F5217104F5207009F012FFD4
:1034800094F88432042B08D93A4681212046FEF76D
:103490001DFFA4F89C72FFF788BA94F878122046B2
:1034A00009F065FF40B140F24F23A4F89C3294F834
:1034B0007432002BF1D192E094F8842204F520714B
:1034C000204609F064FF40B140F25123A4F89C3239
:1034D00094F87432002BEFD181E00021204609F0EE
:1034E00046FF40B140F25323A4F89C3294F8743262
:1034F000002BF2D173E094F88612204609F037FFD2
:1035000040B14FF41573A4F89C3294F87432002B38
:10351000F1D164E0B4F88C122046090A09F027FFC3
:1035200040B140F25623A4F89C3294F87432002B38
:10353000F0D154E094F88C12204609F018FF40B105
:1035400040F25723A4F89C3294F87432002BF1D146
:1035500045E0B4F88C22D4F88812204609F017FF11
:1035600040B140F25923A4F89C3294F87432002BF5
:10357000EFD134E0204609F0E9FE4FF4A061201DB0
:103580000AF066F804F5956009F09FFE40F26223A8
:10359000A4F89C3294F89932271D012B0AD13846A1
:1035A0000AF068F804F5956009F08FFE002384F8AE
:1035B0006A3005E038460AF05DF80028EFD10EE0E9
:1035C0000023A4F89C32FFF7F0B9124B1B788B4212
:1035D000FFF415AF104B186802F0DAFB0FE7D8F8CC
:1035E000003093F86030082B7FF4DFA90B4B0022EA
:1035F0001978094B186802F0CBFB40F2D543FFF76E
:1036000021BA95F86030082B7FF4DCA90023A5F8D7
:103610009C3217E0845F002028430020885F002050
:103620008A5F0020835F002038420020A14B9DF874
:1036300007101B788B423FF47BAC9F4B1B788B426F
:1036400040F21A819D4D2C68B4F89C32B3F5267F68
:1036500000F0958011D840F2932293425FD0B3F5E9
:10366000257F01D223B302E140F29522934267D035
:1036700040F29722934273D0F9E040F29D229342A8
:1036800000F0AE8009D840F29A22934200F0888080
:10369000B3F5277F00F09580E9E040F2A222934243
:1036A00000F0AF8040F2B322934200F0CA80DEE027
:1036B00094F8982294F89A12530043F03003DBB246
:1036C000012984F8783204BF43F0010384F878328A
:1036D000B4F88C12D4F894320B440AB9023300E0E7
:1036E0000433C4F87C32D4F87C2204F5217104F54B
:1036F000207009F0D7FD94F88432042B05D90022FC
:1037000081212046FEF7E2FDB1E094F878122046D0
:1037100009F02DFE40B140F29323A4F89C3294F8B6
:103720007432002BF1D1B1E094F8842204F52071B9
:10373000204609F02CFE40B140F29523A4F89C32BB
:1037400094F87432002BEFD1A0E0B4F88C1220462C
:10375000090A09F00CFE40B140F29723A4F89C320C
:1037600094F87432002BF0D190E094F88C1220463B
:1037700009F0FDFD40B14FF42673A4F89C3294F893
:103780007432002BF1D181E0B4F88C22D4F8881285
:10379000204609F0FCFD40B140F29A23A4F89C3287
:1037A00094F87432002BEFD170E094F89832E3B1C2
:1037B0000021204609F0DBFD40B14FF42773A4F847
:1037C0009C3294F87432002BF2D15FE094F88612A8
:1037D000204609F0CCFD40B140F29D23A4F89C3274
:1037E00094F87432002BF1D150E0B4F89422D4F85C
:1037F0009012204609F0CBFD40B140F2A223A4F87C
:103800009C3294F87432002BEFD13FE0204609F04F
:103810009DFD4FF4A061201D09F01AFF94F8982235
:103820002AB9274BE06E197802F0B2FA18E0012AA3
:1038300016D104F5956009F048FD40F2B323A4F8D1
:103840009C3294F89932271D012B03D1384609F098
:1038500011FF05E0384609F00DFF0028F6D115E00C
:1038600004F5956009F031FD002384F86A300023E7
:10387000A4F89C32FFF7A6B8124B1B788B42FFF4DA
:10388000E1AE114B186802F083FADBE62B6893F87F
:103890006030082B7FF496A80C4B002219780A4B55
:1038A000186802F075FA40F2E243FFF7CBB802B0B5
:1038B000BDE8F0818A5F0020835F0020384200204D
:1038C000D6740020845F002028430020885F0020F9
:1038D00070B51E4690F860300446082B20D190F851
:1038E0006A500121F5B980F86A10B0F86810C0F884
:1038F0008822023189B2A0F86810A0F8861210461A
:1039000009F026FC084BA4F88C0284F8986284F82D
:10391000995222461978054802F03AFA284670BDB5
:10392000812070BD084670BD8B5F002040400020A4
:1039300070B51E4690F860300446082B2BD190F8E5
:103940006A5001214DBB80F86A10B0F868109DF8EC
:103950001830023189B2A0F86810A0F8861280F8F9
:103960009A32C0F88822104609F0F2FB049BA4F8B2
:103970008C02C4F894329DF81430C4F8906284F834
:103980009832074B84F8995222461978054802F07C
:10399000FFF9284670BD812070BD084670BD00BF8C
:1039A000875F002040400020F7B500F063FC00F086
:1039B0001DFD00F079FC00F06DFA01F067FB09F0E5
:1039C00045FE00F00BFD00F0C7F8012009F02FFDC7
:1039D00002F07AF900F03AFC002000F055FB0120DB
:1039E00000F052FB4849002000F01AFC02F0B2FA45
:1039F00062B6042009F01BFD444809F07CFD4448F0
:103A000009F079FD00F0E8F9002002F051FB01F027
:103A100027FA00213F4802F0E3F901F079FF09F0AD
:103A200032FD00F06BFD00F087FD07F059FE082124
:103A3000684601F051FB9DF807309DF80670364C42
:103A400043EA07276B4603CB20606160334801F0EF
:103A50007DFB0025615D3248013501F077FB072DC4
:103A60002D4EF7D12F4DF1792F4801F06FFBEC6A05
:103A70004AF6CD310220A04739460320A0471A213B
:103A80000120A047694608226B6B0B209847274806
:103A900001F05CFB264B186809F02DFD254801F06C
:103AA00055FB254B186809F026FD244801F04EFB14
:103AB000234B186809F01FFD224A336813607368AE
:103AC000536007F02FFB00211F4802F089F9002105
:103AD0001E4802F085F91E4B01219B688120984702
:103AE00009F083FD1B4809F076FD00F0B5FB0220CC
:103AF00009F09DFC00F0B6FB02F0FEF810F0FF0F9D
:103B0000F8D101F057FAF5E7115F2000E9EF200046
:103B100005F0200088400020E07400202AF02000FA
:103B200048F0200010EE200054F420004EF0200059
:103B300068EE200055F0200074EE20005CF02000BC
:103B40009CEE2000C46A002038410020A8400020DC
:103B500028ED2000CCEE200008B500F0DDF8024B87
:103B600000221A7008BD00BF8E5F0020024A137841
:103B70001843107000F0F4B88E5F0020034A1378E9
:103B800023EA0000107000F0EBB800BF8E5F002049
:103B900020B1012805D1044B18787047034B1868F1
:103BA00070470020704700BF8F5F002020900D40BD
:103BB00010B5094A0020137801331370074B1978A8
:103BC00002F0E6F8BDE8104005490023054A0968FF
:103BD000054801F0D3BE00BF8F5F0020D7740020DE
:103BE00068420020B13B200040420020812808B5F7
:103BF0002AD0B0F5807F39D0802839D102F05CF826
:103C00001C4B1D4A18701368032123F0080313602E
:103C100052F8203C002023F0080342F8203C52F8E0
:103C20001C3C23F0080342F81C3C52F8183C43F0BB
:103C3000080342F8183C042200F0E6FB03220021AE
:103C40000E4800F083FB13E00D4B0E481A6829B1B3
:103C500042F008021A600123036005E022F0080226
:103C60001A600123C0F88030084608BD064B196071
:103C7000012008BDD774002020940D408D3C200009
:103C800010940D4000E100E06842002008B50F48A4
:103C900009F0F0FCC8B108210C4809F0D9FC0C4B24
:103CA000196869B10B4B00221A700B4B1B6823B9C2
:103CB0000A4A0B4801F062FE02E0094801F0A0FE4A
:103CC000BDE80840074802F0C5B908BD60420020C1
:103CD000684200208F5F002020900D40B13B200003
:103CE0004042002028ED2000084A136823F0040316
:103CF000136052F8203C43F0040342F8203C044B8C
:103D000000221A60034B01221A70704720C40D4034
:103D100010C00D40905F00200D4A0E49136823F03B
:103D2000C003136052F8203C43F0C00342F8203C2B
:103D3000094B00221A600B6823F010030B6051F846
:103D4000203C43F0100341F8203C044B1A607047BC
:103D500020A40D4020C40D4000A30D4040C00D40E4
:103D600000F0020202F0FF010B4B12B1FF221A60B9
:103D700000E0196000F0040202F0FF01074B12B1ED
:103D8000FF221A6000E0196010F00100044B1ABF16
:103D9000FF221A601860704700A20D4000A10D407C
:103DA00040C00D40044B1868C0F30720030904BF4E
:103DB0001030C0B2704700BF1C300D40054B186872
:103DC000C0F3C21001289ABFC0F1020040034FF4B3
:103DD0000040704714300D402DE9F04788B0FFF7E0
:103DE000E1FF174B48251C68AB68074698476B688E
:103DF000804698470546FFF7E1FF064600F08EFA39
:103E0000814600F097FA824600F044FAB60A04F0C0
:103E10000103AD0AC4F3400406900393CDF814A047
:103E2000CDF8109002940196009507F00F03C7F3A8
:103E300007124146034801F089F908B0BDE8F08750
:103E40001C300D406AF02000F8B500F081F80F4BEF
:103E50000024D3E900673A46B04238BF7A1C1546C1
:103E60000443C3E90045DFF828E0DEE90001821BD6
:103E700061EB070312196B41CEE9002301F074FED8
:103E800018B1BDE8F84001F0F3BDF8BD28420020AC
:103E9000304200200D4B0E4AE0215A600D4A82F854
:103EA0002310002207219A6019600B490B6843F028
:103EB00001030B60094B1A60042243F80C2C012209
:103EC00043F8082C0F22DA62704700BF10E000E0D0
:103ED00047E8010000ED00E008200D400C00034021
:103EE000034BD3E90023100A40EA0360704700BF88
:103EF00028420020034BD3E90023D00B40EA434083
:103F0000704700BF30420020054B18601C3B1A6808
:103F100042F001021A601A68D207FCD4704700BF51
:103F20002800034010B5064C236823F001032360EA
:103F3000FFF78AFF236843F00103236010BD00BF31
:103F400010E000E0014B1868704700BF6C42002091
:103F5000074B084A196804331B681268120442EAC6
:103F60000323054A0B43106843EA0060704700BF13
:103F700040500D4048500D404C500D4010B5044687
:103F8000104A1368DB07FCD572B6FFF7E1FF231A6E
:103F9000062BD8BFC41D0C4B220E1A60C4F3074277
:103FA00043F8042CC4F3072243F8082CE2B243F888
:103FB0000C2C62B6054B4FF400321C60044B1A61A6
:103FC00010BD00BF50500D404C500D406C420020C1
:103FD00000E100E008B500F0D1FF074B00221A60B5
:103FE000064B4FF40032C3F89021C3F89020BDE88F
:103FF000084001F02BBF00BF6C42002000E100E050
:10400000064B1B681B075FBF054B186880F0080054
:10401000C0F3C00048BF0020704700BF18C0004078
:1040200018D00040164A2C2303FB00234FF6BF7222
:1040300070B5DC680546236C62649BB213F05002D5
:104040000DD0104EA369DB0608D456F825301BB1FD
:104050002068C0B29847F5E72368F3E770BD13F412
:10406000D06F0BD04FF440732363FF236360E36A88
:10407000E262E362236B43F00103236370BD00BF80
:1040800038ED20007042002001282DE9F74F064648
:1040900000F2B6802C2545435B4F7C1994F92080B3
:1040A000B8F1000FC0F2AC8094F92290B9F1000F82
:1040B000C0F2A680554800F0D7FF554A7B591168D9
:1040C000E5680B4313605168636894F921A00B43C2
:1040D00053609168A3685FFA89FB0B4393600023E8
:1040E000C5F8C83F23690AEBC8021A6094F9233067
:1040F000227D00939DF8003058461946019300F048
:104100008DF9019B08221946584600F07DF9414A75
:104110004FEA0939009959F80200012303FA01F125
:10412000014349F802104FEA083858F8020003FA30
:104130000AF1014348F802105021A963A96B94F9D0
:10414000240041F4D061A963022169634FF44071F6
:104150002963A16900286962E169A9624FF07001D1
:10416000E962154616DB94F92510A2F5A64241EA4C
:10417000C0041C3A1460040362598B40134363511A
:104180000022C9B2C0B200F03FF9234A136843F4D9
:10419000004313602C2303FB067393F92640002C85
:1041A0001BDB93F927A05FFA84F85FFA8AF90122F2
:1041B00049464046240300F031F96259012303FACD
:1041C0000AF31343635108224946404600F01CF9A4
:1041D000114A136843F4804313602C2303FB0676D3
:1041E000F268136B43F00103136396F82830012241
:1041F000590903F01F0302FA03F3084A42F8213079
:1042000003B0BDE8F08F00BF38ED20000140200072
:1042100028200D4020940D4030D0004000E100E007
:1042200001289CBF014B43F82010704770420020CA
:10423000012808D8044B2C2202FB0030C3689A697D
:104240009206FCD41960704738ED2000014B002223
:104250001A60704700500D40014B08221A607047E9
:1042600000500D40024BA0221A6050221A60704785
:1042700000500D40014B024A9A60704700ED00E08B
:1042800000202000024B1868C0F38150704700BF27
:1042900004200D4008B5FFF7F5FF024B53F820004E
:1042A00008BD00BF90ED200038B5164D164C2B68A8
:1042B000012223F040032B602368062123F04003F2
:1042C0002360032000F0A0F82B68012223F0800374
:1042D0002B602368072123F080032360032000F074
:1042E00093F80A4A0A4B0B491A600A680A4B1340B2
:1042F000084A002BF9D113685901FCD413685B01FB
:10430000FCD538BD20C40D4000C40D4001010200A1
:1043100000200D4004200D4000000101034B044823
:104320001B6803F007031841704700BF04200D40CD
:104330000048E801034B04481B68C3F302231841FB
:10434000704700BF04200D400048E801024B02EB1B
:10435000C10243F82200704778420020F8B50746B2
:104360000E46094D002405EB411547FA04F3DB071F
:10437000E1B204D555F824300BB1304698470134EA
:10438000082CF2D1F8BD00BF784200202DE9F0479B
:1043900080464FEA0837DFF8409007F1804505F581
:1043A000592500F0EBFDD5F8186457F809304FEAAD
:1043B000C80A23FA0AF446EA0400E4B24146C0B24D
:1043C000F6B204FA0AF4FFF7C9FFC5F81C6447F80F
:1043D0000940BDE8F08700BF18970D4080220021FA
:1043E000014808F067BE00BF78420020034A044B32
:1043F0001A60044B803A1A60704700BF80400D403D
:10440000FC420020F8420020034B01EBC0011B6876
:1044100043F82120704700BFFC420020034B01EB12
:10442000C0011B6843F82120704700BFF8420020FC
:104430000E2870B50BD1154B154E1C6844F00205C3
:104440001D60356825F03F0343F001033360114ED2
:10445000336823F0FF031A43114301430E4A3160CE
:1044600013681B06FCD50D4B0D4A1B6812680E28FD
:1044700003F0FC0343EA022308BF054A1BB204BF52
:104480001560024A184608BF146070BD340001442C
:10449000F486084008700D4000700D400C700D400F
:1044A00010700D40024B1868B0FA80F04009704758
:1044B00000B7084010B5074B4FF40042064CC3F854
:1044C0009021C3F89020206818B101F0A1FC0023CE
:1044D000236010BD00E100E000430020064A13689D
:1044E00043F002031360536843F002035360936880
:1044F00043F002039360704748200D4007B50C4815
:1045000000F0B2FDFFF7EAFF0A4B1A6842F0020220
:104510001A6000220192019A0F2A02DC019A0132EC
:10452000F8E71A6822F002021A6003B05DF804FB93
:10453000A544200054200D40064A136823F00203CE
:104540001360536823F002035360936823F002035F
:104550009360704748200D40084B93F90020002AD3
:1045600009DB074AED2111601160E32111601A781F
:1045700062F07F021A700120704700BF945F002034
:10458000388808400C4A13689907FCD40A4B1B680A
:104590005B065FBF094BED221A601A60084B1B686F
:1045A00013B1064BEF221A60064A0120137803F07C
:1045B0007F031370704700BF4C860840388808405E
:1045C0002C860840945F002038B5A0F10B04E3B2BC
:1045D0000F2B054613D80B4B1B6813F03F0302D07B
:1045E000FFF7D0FF012304EB8404074A0B34146067
:1045F0000BB1FFF7B1FF054B68B21D7038BD4FF02E
:10460000FF3038BD488608403C8608401F420020E5
:1046100010B50B4B1B68990603D1FFF79DFF0123D3
:1046200000E0002307490A68D207FCD5064A14684F
:10463000C4F300140BB1FFF7A5FF204610BD00BF67
:1046400048860840648608404C860840044B186839
:1046500000F02200A0F1200358425841704700BFEB
:104660004C860840024B186800F04000704700BFBD
:104670004C86084038B50C46002900F08880102888
:1046800000F28780DFE800F0090F1A1C233942543A
:10469000596F738585787A7C7F003F4B1B680033A8
:1046A00018BF012370E03D4B05221B6803F07F0318
:1046B0000B3B93FBF2F30B33DBB265E0384B00E0CE
:1046C000384B1A68043B1B6843EA02235CE0002372
:1046D0000B60354B354A1B6803F001030B60126811
:1046E000900644BF43F002030B60314B1B78002B54
:1046F0004BD00B6843F0040346E02E4B00201B78A0
:104700000860002B41D001230B6038BD2A4B2B4998
:104710001A680023D2B201EBC3000079904203D89B
:10472000264A52F833302FE001330E2BF3D127E025
:10473000234B1B685BB2493B26E0224B1B68990662
:1047400003D1FFF709FF012300E000231E490A6897
:10475000D207FCD51D4A1568493D6DB20BB1FFF774
:1047600011FF256011E01A4B93F900300CE0194B52
:104770001B7803F07F0307E00B2305E01A2303E017
:104780006FF0170300E007232360002038BD0220EC
:1047900038BD012038BD00BF2C8608403C8608404B
:1047A000CC850840D485084000860840248608400F
:1047B000935F00201E42002040860840A0ED2000AC
:1047C000588608404886084064860840608608404D
:1047D000925F0020915F002038B505460C46134AD1
:1047E00013689B07FCD4124B93F90030002B01DBBC
:1047F000FFF7B2FE0F4BEE221A60691E1A60A21C70
:1048000043F8102C2144022000F044FB013C0A49EB
:1048100024012143022000F04FFB022000F056FB50
:10482000022000F06BFB002038BD00BF4C86084022
:10483000945F00203888084002C001C0F8B5214BC1
:1048400093F90030002B0DDBFFF782FB0546FFF7E5
:1048500083FE6FF00904641BFFF77AFBC442FBD4AC
:10486000012600E00026184B1B7823B9174D2B6852
:10487000990604D405E0FFF7CBFE0028F6D102200C
:10488000F8BD134CE923236004272B689A0707D44B
:10489000013F17F0FF0703D00620FFF735FBF4E7D1
:1048A0002B689B0704D4EE2323602360012403E0DC
:1048B0002C6814F00204FBD10EB1FFF763FE204612
:1048C000F8BD00BF945F00201E4200204C860840C7
:1048D00038880840214B1870002834D0204A1368CB
:1048E0001B03FCD51F4B1A6842F002021A601A68BB
:1048F00042F001021A601A681A495007FBD50A688B
:1049000022F001020A601968164A4907FBD41168AF
:1049100041F002011160116841F0010111601A6853
:104920005207FCD5104A136823F004031360D2F831
:10493000A83123F00403C2F8A8310C4B4FF4005205
:10494000C3F890207047084A136843F004031360CB
:10495000064B4FF400521A61704700BF935F00206E
:1049600004200D40048808408C86084000E100E0E7
:1049700010B50C46072861D8DFE800F0040E181CBB
:10498000233F455B012902D1FFF7E6FD4BE00029FB
:1049900058D1FFF7F7FD46E0A1F10B030F2B51D8DB
:1049A000C8B2FFF711FE01303DD149E08CB2E2B24E
:1049B000254B02E08CB2254BE2B2240A1A605C60FF
:1049C00031E031F007033DD1214B11F0010F1A689E
:1049D000C1F3800014BF42F0010222F001021A600C
:1049E0001C4B11F0020F1A6814BF42F0200222F093
:1049F00020021A60FFF76EFF15E031F0010021D1AF
:104A0000154B197010BD01F118031F2B1AD813494B
:104A10000D2351F83300DA00844206DC0F4B1344B7
:104A20001A790F4B1A60002010BD13F1FF33F0D23A
:104A3000F9E7CCB20B4B49341C60F4E7012010BD00
:104A4000032010BD022010BDC8850840D085084055
:104A500000860840248608401E420020A0ED200069
:104A600040860840588608400B280DD1082A0DD1F1
:104A700061B1074B074A083111F8010D43F8040FE3
:104A80009342F9D1002070470120704702207047FF
:104A9000A4850840C485084070B52F4D2B6813F0DD
:104AA000400308D02D4E3368DCB21B0605D52C4BD5
:104AB000ED221A601A60002070BD042CF7D9023C68
:104AC0008C42F4DCE4B2032C21D00119013903201B
:104AD00000F0E8F9631E23491B011943032000F08D
:104AE000EBF9032000F0F2F9032000F007FA0320AD
:104AF00000F010FA0028FAD131681B4B493949B24D
:104B000019703368194E18063370D0D506E0336833
:104B100003703368437033688370EDE789B2042013
:104B200006F0B4FD3178032001F07F0106F0AEFD00
:104B30000F4B1B7873B92B685A060BD5064B1B68B5
:104B40001B0603D50B4801F063F903E0044BED228B
:104B50001A601A60204670BD4C86084028880840BC
:104B60003888084002C0010C925F0020915F00204D
:104B7000935F002060400020F8B5294F3D7815F084
:104B800001054BD1274B01241C605C609C60A3F5A0
:104B90009323A3F51473F8221A600922C3F8902115
:104BA000152270331A6003F59B230B2203F59E73C5
:104BB0001A60A3F59B23A3F5F07340221A601A68CC
:104BC0007F2642F020021A60D52243F81C5CDE6288
:104BD000DA61154B1878FFF7F7FC144B4FF480425D
:104BE0001E60134B02201A6100F07CF9114902206B
:104BF00000F058F9032000F075F90E49032000F089
:104C000049F90D4B1878FFF765FE29460B4801F06E
:104C1000E7F83B78204623433B70F8BD0020F8BD01
:104C2000945F0020A8200D401F4200209486084079
:104C300000E100E028880840935F002060400020E9
:104C400038B503880446CBB140F20342934203D007
:104C500000230380032038BD194B18781A4628B169
:104C60001B7873B1174B1B7858060AD5822908D1D7
:104C7000137843B1134B1A78520614D440F203430D
:104C80002380012038BD06F0A7FC06F03BFC802104
:104C9000FFF702FF0028EDDD80B206F017FC0A4B9B
:104CA0001B699847E6E700221A70084B1D68FFF75A
:104CB00069FCFFF761FFAB06E0D0FFF74DFCDDE7D5
:104CC000935F0020945F00209CEE200048860840FF
:104CD0000B282DE9F84F0E4610D1082A40F08280AB
:104CE00000297FD0414B424A4E1E53F8041D934287
:104CF00006F8011FF9D10020BDE8F88F0C286ED10D
:104D0000042A6FD100296DD03A4B3B481A68DFF86E
:104D1000F8C022F007021A600268DFF8F0A042F043
:104D200008020260DAF80040DCF800101A68DFF8C8
:104D3000E0E022F07002314F1A60DEF800203D689A
:104D4000E4B2090244EA056401F47F4112042143FC
:104D500002F47F020A432A490024D1F800805FFA56
:104D600088F544EA02081A68A94622F0070242F0D0
:104D700001021A60026842F008020260DAF80000DC
:104D8000DCF800201D68C0B225F0700545F0100564
:104D90001D60DEF800303D68120240EA056002F452
:104DA0007F421B04024303F47F0313430A6844EA6F
:104DB000030A5FFA82FBFFF7CBF8B8EB0A0869EB4E
:104DC0000B094FEAC93105460E4A00234FEAC830A5
:104DD00041EA584107F0D2FE281A30608BE70120E3
:104DE000BDE8F88F0220BDE8F88F00BFC8850840F5
:104DF000A88508401088084004880840208808409A
:104E00001C8808400048E8011888084014880840B9
:104E10002488084008B5054B1B7813B9044800F0F6
:104E2000F7FF044B00221A6008BD00BF935F00200B
:104E30006040002034880840064B07481A68042A5E
:104E40001FBF06490A7842F040020A7000221A6029
:104E500000F0DEBF2C88084060400020945F0020F6
:104E600010B5094C40220021204608F023F9074BD9
:104E700001221A605C60064B4FF480425A604FF486
:104E800000425A6010BD00BF0040002004F00F40F7
:104E900000E100E003289EBF014B0001195070475C
:104EA0000040002003289EBF024B03EB001041602E
:104EB000704700BF0040002003289EBF024B03EB59
:104EC00000108160704700BF00400020032806D812
:104ED000034901220B6802FA00F01843086070478A
:104EE00028F00F40032806D8034901220B6802FA74
:104EF00000F018430860704720F00F40032806D8E0
:104F0000034901220B6802FA00F018430860704759
:104F100014F00F4003289FBF044B03EB0010806880
:104F200000F0070088BF0020704700BF004000204D
:104F3000024B4FF0FF321A60704700BF04F50F407C
:104F4000014B01221A6070474CF00F40094A136868
:104F5000084913F4801FFAD1074B1A6822F48032F3
:104F60001A600A68D203FCD41A6842F400321A604C
:104F7000704700BF04200D4000200D4010B50B4BC2
:104F80001A681C4612F0030F0ED009490B68084A34
:104F900013F0806FFAD113685B01FCD5FEF7C2FFF6
:104FA000FFF7D4FF0023236010BD00BF58200D4041
:104FB00004200D4038B5264B1C6814F03F0413D173
:104FC000244D55F8243023B1984768B10134052C9D
:104FD000F7D1214D2B783BB1FEF7B4FF0446FEF725
:104FE000B7FF201A092801D830BF38BD002CFBD0EC
:104FF0001A4B1B481A6822F400321A6002681849DA
:1050000012F4801FFAD11A6842F480321A600B68D9
:10501000DB03FCD5FEF79CFF201A092803D8BDE866
:105020003840FFF793BF63280E4C02D92B78022B30
:1050300000D00123236000F0A1FE20B1FFF786FF1E
:105040000023236038BDFEF77DFF0028CCD1F5E7B3
:105050004886084004430020955F002000200D4052
:1050600004200D4058200D400749002351F823200B
:10507000824207D01AB9044A42F82300704701332C
:10508000052BF3D1704700BF04430020054B0022DD
:105090001A60054A136943F004031361034B0222AB
:1050A0001A70704758200D4000ED00E0955F002019
:1050B00010B5074B4FF48032064CC3F89021C3F86B
:1050C0009020206818B100F0A3FE0023236010BDDB
:1050D00000E100E01843002030B5184B1A78431E59
:1050E00022B101F520112731154A1FE0154A127827
:1050F000122AF6D1144A12784B2AF2D14A0802F148
:105100002814B4F1281F04D014F8015D03F8015FDE
:10511000F7E701F52011273100231044934204DA08
:1051200011F80149C4540133F8E730BD914204D06D
:1051300011F8010903F8010FF8E730BD2B00280032
:10514000270028002A002800290028000FB407B5EE
:1051500004AA52F8041B0448019200F035F803B089
:105160005DF804EB04B07047704000201FB5144692
:10517000074A8DE80300029221461A4602A8CDF89C
:105180000CD000F021F8009B00221A7004B010BD72
:1051900095D5200070B505460C46102C07D92B6814
:1051A000102208496868984750B9103CF5E734B1B7
:1051B0002B68224668680349BDE8704018472046BE
:1051C00070BD00BF8AF120002DE9F04F064615465C
:1051D0008FB006914FF0000B069B1B78CBB1069C5D
:1051E000274617F8013B1BB1252B14D03C46F7E7A7
:1051F000069BA3420DD0069B0699C3EB04084246CA
:10520000336870689847002840F01F832378C344B0
:1052100023B9584634E3069BA342ECD16378002BB4
:10522000F7D039460024084610F8013B0A462B2BDC
:1052300011D006D8202B11D0232B12D144F0080412
:1052400016E02D2B04D0302B0BD144F010040FE0CE
:1052500044F001040CE044F0060409E044F00204C8
:1052600006E0A3F13107082F11D84FF0000801E044
:105270000146D8E70A4611F8013BA3F1300009289E
:1052800013D80A2202FB0838A8F13008F2E72A2BCB
:1052900009D12B680246002B05F10405B8BF44F084
:1052A0000104984601E04FF0000813782E2B1AD124
:1052B0005178531CA1F1300009280ED81946002757
:1052C0000A780B46A2F13000092801F101010DD83E
:1052D0000A2303FB0727303FF2E72A2904D12F686E
:1052E000931C043502E013464FF0FF371A786C2AFE
:1052F00009D15A786C2A02D144F080040AE00133C3
:1053000044F060040BE0682A09D15A78682A03D176
:1053100044F02004023302E0013344F040041A78E0
:10532000642A3CD01FD8462A48D00DD8252A5AD006
:1053300003D8002A3FF46DAF57E0412A4AD0452AEE
:1053400053D144F4424450E0582A31D004D8472A7B
:105350004BD144F4A13448E0612A38D0632A44D1C7
:1053600044F4A06441E06E2A3AD007D8662A22D0DD
:1053700027D3672A28D0692A11D036E0732A2CD087
:1053800006D86F2A11D0702A2FD144F440742CE033
:10539000752A07D0782A28D144F4C85425E044F46B
:1053A000245422E044F410641FE044F488541CE0C8
:1053B00044F4B24419E044F4007416E044F4844424
:1053C00013E044F4024410E044F481340DE044F46A
:1053D000C1340AE044F4E13407E044F4806404E0BA
:1053E00044F4E06401E044F4C0640133069304F43F
:1053F000E063B3F5806F00F08F8113D8B3F5807F41
:1054000027D0B3F5407F7FF4E7AEAE4B14F4804F66
:10541000AD4A18BF1A460DF1330328680021043540
:105420001F46B5E1B3F5C06F08D0B3F5E06F00F0EB
:105430002282B3F5A06F7FF4CFAEF2E13368012290
:10544000A24970689847002840F0FF810BF1010BDA
:10545000C2E6002FACBF24F01004012714F400535F
:10546000079304F0E0032ED0402B12D005D8ABB147
:10547000202B21D195F900200DE0602B0ED0802B40
:105480001AD1073525F0070303F10805D3E90023F6
:1054900007E0B5F90020D317043502E02A68043587
:1054A000D317002A73F1000108DA524263EB430379
:1054B000CDE90023012304E000220023CDE90023ED
:1054C0000023059329E0402B13D004D8BBB1202B37
:1054D0001DD12A780EE0602B11D0802B17D1073513
:1054E00025F0070303F10805D3E90023CDE90023E4
:1054F0000BE02A880023CDE90023043505E02B6862
:1055000000221946CDE900120435079BD9E7002394
:10551000059300220023CDE9002304F4C053B3F522
:10552000805F0CD0B3F5C05F33D0B3F5006F4FD1BF
:10553000DDE900230DF13609CDE9022304E0DDE9C0
:1055400000230DF1360915E0DDE9022313433AD0BB
:10555000DDE902010A22002307F010FBDDE9020168
:10556000303209F8012D00230A2207F007FBCDE9AC
:105570000201E9E752EA030125D002F007013031C8
:1055800009F8011DD10841EA4371D8080A460346CB
:10559000F0E74C4B14F4804F0DF136094A4918BF1F
:1055A0001946DDE9002352EA03000CD002F00F0097
:1055B000085C4FEA131E09F8010D100940EA037058
:1055C00002467346EFE70DF13603C9EB030302E031
:1055D0000DF1360900230293029B41F60802BB42FB
:1055E00038BFFF1A41F2080302EA040228BF00276D
:1055F0009A4202D1002F08BF012741F60801029B01
:105600008A4203EB07000DD1DDE90023134309D0E3
:105610002F4A304914F4804F4FF0020A0CBF0B465A
:10562000134602E04FF0000A5346079A9AB1059AD2
:1056300052B904F00602022A0AD0062A264A04BFFA
:105640004FF0010A134606E04FF0010A234B02E037
:10565000234B4FF0010A0AEB000290458CBFC2EBCE
:1056600008084FF0000814F0010200920DD1E10685
:1056700002D54744904608E0414630460593FFF77F
:1056800089FD059B002840F0E080BAF1000F07D0AB
:105690003468524619467068A047002840F0D5800B
:1056A000029B03EB0B04BB46BBF1100F33681BD905
:1056B00010220C4970689847002840F0C680ABF172
:1056C000100BF1E755F1200066F1200088F1200071
:1056D0007AF1200077F120007FF120007DF1200099
:1056E0005AF020009AF12000BBF1000F06D05A4674
:1056F000654970689847002840F0A7803368029A8F
:105700004946706854449847002840F09E80009BAA
:105710003C44002B39D032E0D5F800900435B9F183
:10572000000F0AD0CA469AF800300AF101020BB104
:105730009246F8E7C9EB0A0A03E0DFF850914FF010
:10574000060A002F02DBBA4528BFBA46D0458CBFF7
:10575000CAEB08084FF0000814F0010705D14146D4
:105760003046FFF717FD00286FD13368524649468F
:1057700070689847002868D10AEB0B042FB14146A6
:105780003046FFF707FD00285FD108EB040B23E547
:1057900050EA010E0ED000F00F0E12F80EE04FEAA4
:1057A000111C03F801ED4FEA101E4EEA017E70460F
:1057B0006146EDE7FF1A02BF3022012703F8012CF2
:1057C00007F1030708BF03F1FF337822B84503F858
:1057D000012C4FF0300203F8022C88BFC7EB0808F9
:1057E0004FF0230298BF4FF0000814F00104A3F11A
:1057F000030903F8032C04D141463046FFF7CAFCE5
:1058000018BB33683A46494670689847E8B95F4420
:1058100024B141463046FFF7BDFCB0B908EB070B99
:10582000DAE4B8F1010F2B688CBF08F1FF384FF0B4
:10583000000814F0010405F104058DF8203008D1AA
:1058400041463046FFF7A6FC10B14FF0FF3017E09D
:10585000C3443368012208A9706898470028F4D12E
:1058600008F101072CB141463046FFF793FC0028B0
:10587000EBD1BB44B0E42B680435C3F800B0ABE413
:105880000FB0BDE8F08F00BF9AF1200081F1200039
:10589000F8B50388064615462BB14A2B15D00023D0
:1058A00003800320F8BD174807F0F5FE04462CB12D
:1058B000A168201D07F09AFE2468F8E7124B012228
:1058C0001A704A2333800120F8BD8829FBD10D4886
:1058D00007F0E1FE0446002CF3D0231D9D420ED1BB
:1058E0002146084807F0E1FE084B62691F681A600C
:1058F000A2691D460AB1E06990472F60E1E724687C
:10590000E9E700BF1C430020965F002028430020E9
:1059100010B5064B002406481C7007F0B9FE21465E
:10592000BDE81040034800F05BBA00BF965F00205E
:105930001C4300207840002070B50446E3610B4B07
:10594000049D1B786561A26143B1094D094B2E6826
:10595000201D2B6007F04AFE2E6000E0A16021466A
:10596000BDE87040044807F0B3BE00BF965F00205A
:1059700028430020784000201C43002013B5034C2E
:1059800024680094FFF7D8FF02B010BD2843002020
:1059900070B5094B05461B783BB1084C084B26688F
:1059A0000430236007F02BFE26602946BDE87040D6
:1059B000044807F08DBE00BF965F002028430020FA
:1059C000784000201C43002070B5094B05461B7829
:1059D0003BB1084C084B26680430236007F018FEE2
:1059E00026602946BDE87040044807F071BE00BF3C
:1059F000965F002028430020784000201C430020B0
:105A000010B5084B04461B781BB1043000F0B4F805
:105A100001E0C36003612146BDE81040024807F081
:105A200044BE00BF965F00201C43002010B50E4C02
:105A3000236813B90D4A136010BDFEF751FA2168AF
:105A400091E80C001A44131A8A6842B192E81200D5
:105A50002144091A8B4228BF0B469268F5E7184487
:105A6000024B186010BD00BF2043002024430020DB
:105A7000014800F0CDB900BF884000202DE9F8436F
:105A80000388054633B1592B0BD000230380032034
:105A9000BDE8F883234A136059232B800120BDE819
:105AA000F883872924D08229F6D11E4F4FF00008B1
:105AB000B9463C680026002CEED0204607F0DAFDFF
:105AC00098B122468821E06800F062F958B9E06098
:105AD000A3680EB1B36001E0C9F80030C4F80880D3
:105AE000FFF7A4FFE5E7FFF7C3FF2646A468E2E758
:105AF0000C4900200B681BB90028CDD00B60CBE708
:105B0000DC68A24202D19B680120F4E700B10B607F
:105B100099680029C0D0C86882420ABF89680B46CC
:105B20009960F5E72043002010B50446FFF7A0FF79
:105B3000E3680B4A4BB113683BB1A34203D1094A56
:105B40001268DA6007E09B68F6E7064B1B68E360C3
:105B500013681460A360BDE81040FFF767BF00BF83
:105B60002043002028430020024B1868003018BF53
:105B7000012070472043002010B50B4A04461368EB
:105B8000834206D18368136008E09A68944203D088
:105B90001346002BF9D103E0A2689A60FFF746FF95
:105BA0000023A360E36010BD2043002010B504462D
:105BB000FEF7A0F994E80C001344C01A024B984277
:105BC0008CBF0020012010BDFEFFFF7F38B5836829
:105BD00004460D469BB10A4804600220A07304F1FC
:105BE0000C0098470238012801D9832D05D12146A0
:105BF0002046BDE8384000F005B80123A37338BD46
:105C0000284300202DE9F8431C4A044615688946BC
:105C10002B4690461A4E3768A34204D00BB11B683E
:105C2000FAE7BDE8F88334B3A37BABB10023A373D9
:105C300045B1A54204D022468721284607F000FD41
:105C40002D68F5E7A3683BB14C4505D034602A4682
:105C5000832104F10C009847D8F800309C4203D10E
:105C60002268064B05E0134623B11A689442FAD124
:105C700022681A603760BDE8F88300BF2C4300201B
:105C800028430020002370B51D46094A01261370E1
:105C9000084A146854B1E37B33B1A673E57300225C
:105CA00082212046FFF792FF2468F3E770BD00BF12
:105CB000995F00202C430020024B1878421C1A7078
:105CC000704700BF9A5F0020064B8A221A70064A6E
:105CD00000231370054A1370054A1360054A1360C8
:105CE000704700BF9A5F0020975F0020985F0020F8
:105CF0002C430020284300202DE9F0411A4D2B7839
:105D00000BB1FFF7BFFF194C22783AB3184E0C21A4
:105D10003378184F5943781817F8018001334768D2
:105D2000806803F01F03013A3370227068B9124B88
:105D30001E689EB12B780BB1FFF7A4FF30463A46A0
:105D4000414607F07DFC3668F3E7B8F1810F04BFE8
:105D5000012383733A46414607F072FC2B78207882
:105D60001844BDE8F08100BF995F0020985F0020D3
:105D7000975F0020304300202C430020024A034B51
:105D800010781B7818447047985F0020995F0020B6
:105D9000F0B50B4E3378202B0FD00A4C0C2524780D
:105DA000094F1C4404F01F046C4301333D19A860E3
:105DB00039556A6033700020F0BD0120F0BD00BF8E
:105DC000985F0020975F00203043002038B5034CD7
:105DD000256807F035FC256038BD00BF284300204A
:105DE00030B40A4C0A4625682B4683420CD00BB1CE
:105DF0001B68FAE740B1012105608173206083814F
:105E0000812130BCFFF7E2BF30BC70472C4300203B
:105E100038B1837B013B012B9FBF024A0123C3732F
:105E200013707047995F0020024610B50648536012
:105E30000468029B11609360026014B90846FEF783
:105E40009DF8002010BD00BFB044002010B5084CE4
:105E5000206858B10023236081684368984723680D
:105E600023B1BDE810401868FEF788B810BD00BF28
:105E7000B044002070B505880446672D09D0792DFF
:105E800030D0002D34D1FFF717FF1C4B18701C4B7E
:105E90001D601B4D2E461B4807F0A9FC431C01D179
:105EA00067231DE00A28164A07D02B687E2BF2DCF8
:105EB0005A1C3260144AD054EDE713680025591C6F
:105EC0001160114A2846D5540C4B1978FFF760FF32
:105ED0000E4B2A4685211868FFF75AFF20B979230F
:105EE000238009E0852907D1054B00221A60D0E7FD
:105EF00000230380032070BD012070BDDC740020EE
:105F0000BC440020B44400201C6000202843002032
:105F10000D2810B5014615D00B4C23782BB90B4832
:105F200007F052FC48B9012306E00A2805D10748CA
:105F300007F04AFC08B1002323700548FFF768FF0B
:105F4000012010BD002010BD1B600020B4440020C3
:105F50009840002008B505490548802207F02DFC2F
:105F6000BDE8084000210348FFF73ABF9B5F0020CF
:105F7000B4440020984000202DE9F04106880546F1
:105F8000772E31D07E2E40D0002E4ED12B4CFFF7F5
:105F900093FE266026462A4B2A4FDFF8B080187001
:105FA000236857F823204AB1002108F803109368AA
:105FB00080209847336801333360F1E7224A137039
:105FC000772320E0214AD256002A12DB1B4A1368AD
:105FD00001331360194B1C4A1B6812789A42F1DC9A
:105FE0001B4B1B68002BEBD0194A00231360134A8C
:105FF000EFE7144A002052F82320114B1978FFF7DD
:10600000C7FE30B97E232B8014E00D4B1B788B42EA
:1060100010D10A4B0D491A688B5C03F07F038B5437
:106020000B4A136801331360D0E700230380032079
:10603000BDE8F0810120BDE8F08100BFC044002030
:10604000DD740020504000209C600020D8740020A7
:10605000C444002010B40A4B0A491A780023934222
:1060600003DA51F82340A04208D107490748CA5C27
:1060700062F07F02CA5410BCFFF7CABE0133EEE7DC
:106080009C60002050400020D8740020A8400020D0
:10609000054A136843F004031360044B1B689069BE
:1060A00043EA002080B2704700700D4014700D402C
:1060B00010B5184A136823F00C031360164B012225
:1060C0001A601A68012AFCD1144B08221A60E322D4
:1060D000C3F8142203F505731946114A1368DB0748
:1060E000FCD5104C102000232268013802F0010278
:1060F00043EA02034FEA43039BB2F5D1002BF1D0F0
:10610000094A180A03F0FE0310601360EF230B60C6
:1061100010BD00BF00700D40A8200D40248608402F
:10612000648608409C86084014700D402DE9FF47A6
:10613000224C234D04F108030FCB8DE80F002B7880
:106140006F4694F80780BBB11E493A22A2710A88B3
:10615000D21A92B20A80A2F128010812207103F12A
:1061600028002044C3F1040361712C3A011D184436
:1061700006F03CFF00232B70134807F08CFA06460C
:10618000DFF840A09EB1D6F80490B9F1000F09D015
:10619000BAF800302A782C3B22449BB23832414670
:1061A0003846C847304607F0AFFA0646EAE7054BDF
:1061B0002E701E8004B0BDE8F08700BFCC6A0020BE
:1061C000BF600020B86A0020C8440020F8B52C4BFE
:1061D0002C4C1B7904F11806E371237E04F10805A9
:1061E000FF2B08D195E80F0086E80F0031462846BE
:1061F00000F0E6FA1BE02F46B646234A3B4603CBA7
:106200007345106051601F4602F10802F6D196E80E
:106210000F0085E80F001C4B1C4D03F110062A46A9
:1062200018685968083303C2B3421546F7D1184DB0
:106230002B78BBB117493A22A2710A88D21A92B2BE
:106240000A80A2F128010812207103F128002044DD
:10625000C3F1040361712C3A011D184406F0C6FE17
:1062600000232B702B7881222833E518E254002379
:106270006B706B8007F03DFBC0436880F8BD00BFCA
:106280004C690020CC6A0020B0580020E46A00204D
:10629000BF600020B86A002038B504460B480D46A0
:1062A00007F0F9F950B10379A34204D143799D4233
:1062B00006D0FF2B04D007F027FAF3E7012038BD02
:1062C0008368002BFAD09847002038BDCC440020CA
:1062D0000146014807F0FCB9CC4400202DE9F74FF6
:1062E000474D82462B7889469346464C43B1283326
:1062F000E35C3A2B0BD1444A002313802B707CE0E3
:10630000A3793A2B03D194F92830002BF3DA3F4ECE
:1063100004F0F0FC37463E4A06F1100E334603CB3C
:106320007345106051601E4602F10802F6D1364EE8
:10633000DFF8D0803388414630339BB2B3F5A06F8D
:1063400088BF4FF4A063338032882B78D21A04EBD5
:106350004300303A3030019306F048FE6022019B42
:1063600022700022627062803A2213B188F82820DD
:1063700001E088F80620274A224B1279E27122892F
:1063800072B95A8962B99A8952B9DA8942B91A8AB4
:1063900032B95A8A22B99A8A12B9DB8A002BAAD05A
:1063A0001D4B0FCB87E80F00194B1B78FF2B05D136
:1063B000BAF1040F9FD1B9F1020F9CD114491648CC
:1063C00000F0FEF92F78584607F12803E21804F888
:1063D00003A082F8019007F098FA33882C37283B05
:1063E000E0511A1263712B78227128331C44002368
:1063F000638007F07EFAC043608003B0BDE8F08F91
:10640000BF600020CC6A0020B86A0020E46A002047
:10641000B05800204C690020D46A00202DE9F041DA
:106420001E460F461B4905460C4660230B70002391
:106430004B704B803A238B71174B90461B7900F1C0
:10644000100ECB71331D1A120A714B7101F1180233
:10645000134628686968083503C375451A46F7D19D
:106460000E492C36A1F1100000F0AAF90C4B1B7854
:106470002833E518E75400236B8085F8018007F086
:1064800038FAC043074B68801E80BDE8F04103F036
:10649000AFB800BFCC6A00204C690020E46A00203D
:1064A000BF600020B86A002028B121B141600146D8
:1064B000014807F00DB97047C844002008B50448EA
:1064C000FFF706FFBDE808400248FFF701BF00BF25
:1064D000B8400020C44000202DE9F341154D009143
:1064E00004460E4690461F4601950346202203218E
:1064F000114807F08CF901282B4616D12A6804F1BF
:106500001001107020462A68023250F8044B88426D
:1065100042F8044BF9D11868089B86744361099BC3
:1065200080F813800777836100E0002002B0BDE8A7
:10653000F08100BFD4440020486A0020F8B5074627
:106540000B4B0C4D03F160062B602C68B4420BD250
:10655000237833B1A27C3946D208A01C06F09EFCF9
:1065600020B120342C60F0E70020F8BD0120F8BDF8
:10657000486A0020D444002013B5084C80230093BF
:106580000194034620220321054807F040F908B989
:10659000206800E0002002B010BD00BFD8440020F9
:1065A0006469002030B548F2FE040C4B0C4A03F13C
:1065B0006001136013688B420CD21D783DB1451CFD
:1065C00002D09D7C854202D15D88A54203D0203354
:1065D0001360EFE70023184630BD00BF6469002058
:1065E000D844002030B548F2FE040C4B0C4A03F1AD
:1065F0006001136013688B420CD21D783DB1451CBD
:1066000002D09D7C854202D15D88A54203D1203312
:106610001360EFE70023184630BD00BF6469002017
:10662000D844002037B5104D80230093044603461C
:106630000195122205210D4807F0E9F801282B46A3
:106640000ED12A6804F11001107020462A68023227
:1066500050F8044B884242F8044BF9D1186800E026
:10666000002003B030BD00BFD0440020E869002006
:10667000F7B5214C80230093054603460E46174686
:106680000194202203211D4807F0C1F8012830D1D0
:106690002A46236805F1100118702368023352F866
:1066A000040B8A4243F8040BF9D12068C77416B969
:1066B0000123037505E0002303753146183006F009
:1066C000B8FF23680E480121997402234370FF220A
:1066D0000023027043808380C38003818372C17270
:1066E00002736B7B4373EB89C381FFF79BFF2068C9
:1066F00000E0002003B0F0BDD84400206469002011
:10670000C058002013B5084C802300930194034621
:1067100012220521054807F07AF808B9206800E040
:10672000002002B010BD00BFD0440020E869002066
:1067300038B50546C8B10D48022200244270FF2337
:106740000122C27244808480C480048184720373F5
:106750000370EB7B43732B8AC381FFF7D3FF044A9B
:10676000106008B107F077F82C7038BDC0580020D1
:10677000D044002070B50F4C0F4B2646236003F128
:1067800060052068A8420ED2037843B1037D33B977
:106790001830FFF70BFA10B13068FFF7C9FF236814
:1067A00020332360EDE700F0E7FABDE870400348CE
:1067B00006F025BFD844002064690020A86A0020A4
:1067C0002DE9F84F48F2FE030A8805469A420F4623
:1067D00023D00A78FF2A20D01C490024A0468946ED
:1067E0009B461B4A0A6002F1600AD9F800605645D0
:1067F00017D233786BB1B37C012B0AD173885B4518
:1068000007D0B11C384607F033F880459CBF3446AA
:1068100080462036C9F80060E7E70120FFF7C2FE96
:1068200004464CB92C806C80AC80EC802C816C814F
:10683000AC81EC81BDE8F88FA31C123453F8042B13
:10684000A34245F8042BF9D1BDE8F88FD8440020C5
:106850006469002070B5094EB0684508FFF718FC60
:106860000446FFF715FC2402B268A4B22044B0FB32
:10687000F2F302FB1300284470BD00BF4C690020F6
:1068800073B52F4C01F004FB00F092F86022002158
:106890002C4806F00FFC0021F822204606F00AFCE6
:1068A000294B20221A70294B18221A704FF4A0632A
:1068B0002360274B40262671A360FFF7CBFF42F2EF
:1068C0001073236148F2FE03314640F2FF26002593
:1068D000E06025751F4C2A46238065802B46A580E5
:1068E000E580204601950095FFF7F6FD20461A4900
:1068F00006F0B5FF294601222046FFF7B9FE4FF406
:1069000080732046E38126806580A580E58025810F
:106910006581A581FFF786FE4FF40073204626802F
:106920006580A580E58025816581A581E381FFF7EC
:1069300079FE0A480C2102B0BDE8704006F056BE50
:106940004C690020486A0020456A0020446A002003
:10695000C0270900C0580020C46A0020A86A00208F
:106960002DE9F84305460F480F46904606F093FE82
:106970000446DFF8389094B1012D04D80A4806F097
:10698000BCFE034601E0D9F80030424639462846AD
:106990006668B047204606F0B7FE0446EBE7BDE860
:1069A000F88300BFA8480020204500201C45002097
:1069B00008B50B4806F0ABFE0A4806F069FE0A4B24
:1069C0000A49186804F094FC094806F0A0FE09483A
:1069D00006F05EFEBDE80840074806F059BE00BF5D
:1069E000F0400020A4450020EC400020B7D8200053
:1069F000D040002020450020A848002008B540B124
:106A0000044B4168186807F005FFBDE8084006F030
:106A100088BF08BDEC400020014806F03CBE00BF26
:106A2000A445002008B506F07EFF38B1044B0146AE
:106A3000186807F0DCFE003018BF012008BD00BF59
:106A4000EC4000202DE9F0418046FFF7E5FF0027EC
:106A500004463E469CB194F82450AF420AD8EA0856
:106A600004F10801404606F019FA18B9802D08D043
:106A70002F462646204606F01AFF0446EAE76EB186
:106A80003446084806F007FE844207D021460548F0
:106A900006F00BFE2146034806F027FE2046BDE81F
:106AA000F08100BFA445002038B5044600283ED040
:106AB0004368002B3BD001461D4806F0F6FD636895
:106AC000586806F0E8FD054630B143689C4207D09F
:106AD000284606F019FEF6E704F1080002F004FF6C
:106AE00063682946586806F0E0FD6368586806F058
:106AF000D2FD28B9636859680E4B186804F0ACFCE5
:106B000021460D4806F027FE29460C4806F023FED4
:106B10000B4A20461368013B1360FFF76FFF04F137
:106B200008010246BDE838400320FFF719BF38BD11
:106B3000A4450020EC400020F0400020FC40002054
:106B40001C45002010B5044680B1406870B106F0C5
:106B5000A2FD20B14068FFF7A7FF6068F7E7044B8C
:106B60002146BDE81040186804F076BC10BD00BF97
:106B7000EC4000202DE9F84F074610468946904624
:106B800006F0D1FE834610B90020BDE8F88F3846E4
:106B9000FFF758FF044660B1FFF730FF014628B108
:106BA0001022404606F07AF9002856D02046FFF71A
:106BB0007BFF2B4B1A689A46102AE5D0294E59467E
:106BC000306807F014FE054668B9034604225946AA
:106BD000306804F0BDFB05460028D5D0002368606E
:106BE000036006F055FD204806F0A1FD044600288C
:106BF000CAD001461D4806F078FD1D4806F097FDF5
:106C000020B92146184806F0A6FDBDE744600146BC
:106C1000686806F05DFDDAF80030656001332946EA
:106C20003068CAF8003004F02DFC3B4604F108053A
:106C300007F110062A4618685968083303C2B342A0
:106C40001546F7D1002384F82490A361E361236201
:106C5000424639460220FFF783FE2046BDE8F88F02
:106C60001C450020EC400020F0400020A4450020FE
:106C7000FC40002038B505460D4806F00CFD0446E2
:106C8000A0B1AC420ED12146094806F00EFD2146C6
:106C9000084806F060FD221D1146BDE8384001207D
:106CA000FFF75EBE204606F02FFDE8E738BD00BFC7
:106CB00020450020D040002038B50546084806F0A1
:106CC000EAFC044648B110222946201D06F0E6F8E9
:106CD00018B1204606F018FDF3E7204638BD00BF86
:106CE00020450020F8B505460F46FFF7E5FF0446AE
:106CF00040B9134806F01BFD0446F0B101461148A7
:106D000006F0F3FC2B46261D05F1100E32461868DE
:106D10005968083303C273451646F7D137B139466F
:106D200004F1140006F085FC002300E00123237722
:106D30002A4629460020FFF713FE2046F8BD00BF73
:106D4000D04000202045002038B50A4806F0A3FCBA
:106D5000044600255CB1251D284601F0CDF808B198
:106D6000437C23B9204606F0CFFC0446F2E72846D0
:106D700038BD00BF2045002010B50A4806F08BFC46
:106D8000044670B1237F43B904F11400FEF70EFFEF
:106D900018B12046FFF76EFFEFE7204606F0B4FC7F
:106DA000EEE710BD2045002037B5124B124D1C7880
:106DB0002B796A79C4EB032313449BB2ADF80630F8
:106DC000BDF806302022184405F1080180B206F013
:106DD00074FDBDF8062004F1280192B2294406F0A2
:106DE0006CFD10B140BA80B201E04FF6FF7003B005
:106DF00030BD00BFBF600020CC6A0020F8B52C4F2A
:106E00002C4D97F800E02C4C0EF1280C0CEB0503F0
:106E10005E780220F600207007360021864242DBB1
:106E20000CEB0003EA18EB5C012B05D002D3632BBB
:106E300006D014E0013033E05278023210442FE0E3
:106E400001B1207003F0D4FEB8B13B78227828332A
:106E500013441D446B7813440233237025E003F080
:106E6000C003802B04D0C02B09D0402B15D102E0E9
:106E700051B1207008E001B120700120F8BD01B1CE
:106E800020702B7EFF2BF8D00EEB0002283202215F
:106E90000420FFF723FA0220F8BD53780233184488
:106EA000C0B20121BAE701B120700020F8BD00BFD7
:106EB000BF600020CC6A0020C5600020F0B5C57816
:106EC000124A0D44EDB2D57083780F0A3B44DBB211
:106ED000937044789F4254700678167005D9601CF0
:106EE000C0B2507008B901361670C9B28D420CDAC2
:106EF0000133DBB2054993703BB94B780133DBB208
:106F00004B7013B90B7801330B70F0BDC06A0020D1
:106F100010B5094C0146236803F11400FFF7CEFFBA
:106F2000064A236811781975517859759178D27885
:106F30009975DA7510BD00BFF06F0020C06A00209F
:106F400008B5FFF79DFCFFF7B9FA01F049F90023F6
:106F500019460F4A22F813100133082BFAD10023E7
:106F600019460C481A183033B3F5F07F82F8251013
:106F7000F8D1094B4FF480621A8000231946074864
:106F80001A182033B3F5A07F1182F9D108BD00BFD4
:106F9000DC710020F46F0020D0580020F071002038
:106FA000F0B5344A344F138801339BB2B3F5FA4F2E
:106FB00028BF4FF480531C0A44EA0324A4B20025DE
:106FC000EE1996F825E0BEF1000F02D0368AA642EF
:106FD000EAD03035B5F5F07FF2D11380264A002390
:106FE00002F5F07692F8255085B1072D09D13BB115
:106FF00092F8267093F82650AF4288BF134600E0FF
:1070000013463032B242EDD10BB930E013460222C2
:1070100083F82520194A1C82157859821D765578E7
:1070200000F110065D769578D2789D764025DA7667
:10703000DD8300221D8401251A755A759A75DA754B
:107040009D8383F8272083F8265083F82220032588
:10705000102283F8245083F823201D4602462C4634
:1070600010685168083203C4B2422546F7D1184669
:10707000F0BD00BFD0580020F46F0020C160002098
:10708000F8B5104E3578DDB10F4F05F127033C8878
:10709000A34202DB00233B8011E00C4BA4F1280249
:1070A000521B5919184605F0A1FF641BA4B23C807D
:1070B000283C221200F8242C00F8234C00233370C3
:1070C000F8BD00BFBF600020B86A0020F46A00204D
:1070D000074A002332F81310814204D1044A0021E8
:1070E00022F8131070470133082BF3D1704700BF0B
:1070F000DC71002004282DE9F74FA14E00F06B82CF
:10710000A049A14DA14FA24A03283C680D6015601B
:107110008A4615D194F8253003F00F03032B08D1CC
:10712000A38B002B40F064869A4B08221A7000F063
:1071300054BD022B40F05C86002305F8073CABE30E
:1071400002287AD1944A00231370944A3380138022
:10715000934AD3780133DBB2D37063B993780133A8
:10716000DBB293703BB953780133DBB2537013B980
:1071700013780133137094F8253003F0FD02052ACB
:107180000DD194F826300133DBB2782B84F8263009
:1071900040F02E86002384F8253000F029BE002B15
:1071A00000F02686A28B7B48002A3DD094F826204A
:1071B000511E84F82610002A40F01A8694F82720E1
:1071C000082A04D0591E01290AD8052A08D100230B
:1071D00084F825308023037002F052FB00F00BBDD1
:1071E000042A9CBF0321914003F00F0394BFC9B24E
:1071F00030210132013B84F8261084F82720072B28
:1072000000F2F685DFE813F0440308000A00AF043B
:10721000F405AF04F405AF0400223AE3042303703D
:1072200002F02EFB00F014BD03F00F03032B40F01F
:10723000DF850823037000F0D0BC052811D1594B1D
:107240001B681B8A002B00F0D3850C3D1560534A48
:10725000002313803B6033804E4B08220D601A7070
:10726000B7E115F83C3C3C3D03F0F003602B40F0E7
:10727000BF852A796B7912023188D018884200F3D1
:10728000B7852833134433802B7AFF2B00F0B08569
:10729000454BAA1D404F454C1A6000223A7022709F
:1072A000AA799846B2B901232370FFF7A7FD0128F8
:1072B00000F09E8503D3022800F096850AE03B7813
:1072C00003F128022A44C8F800205278083303EB5F
:1072D000C2033B703648FFF74FF910B1DFF8CC908E
:1072E000AEE03348FFF70EFA0028F7D12A7E304B84
:1072F000FF2AA3F118035FD048F2FE00198B8142E8
:107300005AD01989814257D079B9598969B999896F
:1073100059B9D98949B91B8A3BB9698A254B21B921
:10732000998A11B9DB8A002B46D0298B214B79B978
:10733000598B69B9998B59B9D98B49B9198C39B914
:10734000598C29B9998C19B9DB8CB3F5807F33D06E
:107350003388B3F5A06F04D94FF4A0620021022056
:1073600005E0EB79012B06D8002211460320FEF739
:10737000B5FF00F039BD0F4A013BD37100F034BDB9
:10738000B86A0020EC6F0020086B0020F06F00202E
:10739000BC6A0020E06F0020BF600020EC7100207C
:1073A000C1600020E86F0020E46F0020C060002072
:1073B000E46A0020CC6A002048F2FE032989994241
:1073C00040F01685298B9F4B81B9598B71B9998BE8
:1073D00061B9D98B51B9198C41B9598C31B9998C92
:1073E00021B9DB8CB3F5807F00F00285FF2A00F025
:1073F000FF849548FFF7A2F80246002840F0F88481
:107400000221D4E024D9BBF13A0F74D02BD9BBF1BF
:107410003B0F00F0ED84BBF13C0F68D123789A0755
:107420003AD5590663D443F0400389F80030FFF79A
:10743000E5FC012800F0DC8431D3022800F0D4847C
:10744000D8F8000090F800B0BBF12B0FDAD132E091
:10745000BBF1060F00F01081BBF1110F6AD0BBF138
:10746000000F44D104E0BBF12C0F00F0C1843EE0DA
:107470002378D9073BD443F0010389F80030FFF7A4
:10748000BDFC012800F0B484D7D23B786F4A03F1E9
:1074900028012944116008E043F00203C5E73B7866
:1074A00003F128012944C8F800104978083303EB98
:1074B000C1033B70C4E7237803F0040202F0FF012C
:1074C000AAB943F0040389F800303B7803F128009F
:1074D0002844C27812B103F12A020AE05B4A4178DB
:1074E000106008335A4A03EBC1031370A8E7421B2C
:1074F000012104203BE706F0FCF94FF6FF739842A8
:1075000040F076843B782833E85C02F04BF83B7817
:107510002833EA18E85C5178FEF7BEFE012801BF67
:1075200000234B4A338013703388002B00F06084B3
:1075300000F05ABCFFF7A4FDEB8D85F806B073B9D7
:10754000B5F82A80B8F1000F00F05284414F424D47
:107550003C4B2F60B3F8289007F5A0770BE006F0BE
:10756000CEF94FF6FF73984240F04284E8E7238A51
:107570002BB920342C602C68BC42F8D315E0984518
:10758000F7D1638A0BB14B45F3D123682BB96368FC
:107590001BB9A3680BB9E3685BB1102221462F48E1
:1075A00005F07CFC0028E4D103E000220421012046
:1075B000DDE633882A49303B338000230B602949BC
:1075C0000220294A08702949CAF800200A60284A7E
:1075D000138002F055F9264B1A88002A00F008841F
:1075E00002F13003174C9BB23380283B19126371B0
:1075F000194B08321B6852BA2171197DA2850022ED
:10760000E2851A8AE17122855A8A11216285A17167
:1076100004F118050FCB85E80F00294604F1080096
:10762000FFF7CEF8134B04F13C021A6006F067F93D
:10763000C04380B208B1E085D0E34FF6FF73E38525
:10764000CCE300BFCC6A0020E46A0020E46F002095
:10765000BF600020F0710020E86F0020D46A002095
:10766000F06F0020E06F0020FC6A0020BC6A002060
:10767000EC710020EC6F0020FFF702FD85F806B0EA
:1076800006F03AF94FF6FF739842AF4C40F0B083E2
:10769000B4F82A90B9F1000F00F0AA83B4F828B02A
:1076A000BBF1000F00F0A483A84C04F5F07394F82C
:1076B0002580B8F1000F0FD0228A4A450CD1628A8A
:1076C0005A4509D110222146A148019305F0E6FB55
:1076D000019B002800F0F68030349C42E7D195F8F9
:1076E000353003F03F03022B08D19A4A002332F8C9
:1076F0001310494550D00133082BF8D195F83520A7
:10770000914B520700F17483142283F835203C22F8
:107710003280502283F8342093F8332093F831409C
:1077200093F82F0083F82F2093F8322093F82E102F
:1077300093F8307083F82E20013093F82D2083F8D1
:107740002D4093F82C40C0B283F8321083F83120DA
:1077500083F82C7083F8304083F8330060B901312E
:10776000C9B283F8321039B90132D2B283F831206C
:1077700012B9621C83F830202B8D6A8D744C2A85D7
:107780006B8504F1100594E80F0085E80F00294689
:107790002046FFF715F80CE3002422466B4B93F8C4
:1077A000251021B9694B302404FB023413E007296A
:1077B00009D13CB193F8260094F82610884288BF7E
:1077C0001C4600E01C4601320A2A03F13003E6D1D0
:1077D000002C00F00D83604B00271C60032384F80D
:1077E000263084F82430042384F82330584B84F85E
:1077F00022700FCB84E80F00584B01201A7884F8D0
:10780000250022765A78A08362769A78DB78A27671
:10781000E37695F82C3084F82770237595F82D3091
:10782000A4F81090637595F82E30A4F812B0A375E3
:1078300095F82F30E375FFF76BFB95F8343003F0C4
:10784000F002502A24D91A093B46053A9200E91859
:1078500091F83C00E0B1012801D1013316E0022883
:107860000FD191F83D0004280BD191F83E2091F8FA
:107870003F3043EA0223402B28BF4023E383238485
:1078800006E0E91891F83D1011B10B449342DEDB9C
:1078900010222D4B83F835202B4B93F8352042F0E6
:1078A000020283F83520022283F83C20042283F868
:1078B0003D20002283F83E20402283F83F20328082
:1078C00060223AE2244B95F835101C60244B11F0ED
:1078D000040F1870994603D084F825002022DAE1BD
:1078E000338808F00F08A3F12802174BB8F1020FF4
:1078F00093F834304FEA1313A2EB83039BB2338027
:1079000003D101F03F02122A05E0B8F1010F03D1C3
:1079100001F03F02022A25D00BB98B0722D0AA8D95
:10792000A38A9A4204D1084BDA8DE38A9A4219D08D
:10793000880740F1FB81B8F1010FA9D0B8F1020F1F
:1079400040F0F481A8E700BFCC6A0020F46F00206B
:10795000D46A0020DC710020F06F0020C16000209C
:10796000E06F0020C9064DD5A18B00294AD004F153
:107970001800FFF7A3FAAF4B95F8301093F800E02A
:10798000AD4A8E453ED192F831105878884239D1AF
:1079900092F832C09978614534D192F83320DB787F
:1079A00093422FD1E37694F8273084F818E060767C
:1079B000A176F3B994F8243094F8262094F8221094
:1079C0009B1AA3EBD103DBB258B200281944BCBF09
:1079D0005B4258B294F82330C9B2A3EB93031A1850
:1079E000D3B284F8233003EBD10384F8221084F857
:1079F0002430012389F8003094F8243084F82630AC
:107A00000023A38394F8252002F00F03013B072BEA
:107A100000F2EE81DFE813F0080025008200430148
:107A200065017F018A01350199F80020834BD20757
:107A30000FD5032284F82520308840221A700022B6
:107A4000A283002800F0C68042221A70FFF760FA75
:107A5000C0E095F8353003F03F03022B40F0C881B9
:107A600016E799F80030DB074DD595F8353003F06F
:107A70003F03122B47D1704B93F8343003F0F002E0
:107A8000502A24D91B09053B9B000022A91891F814
:107A90003C00E0B1012801D1013216E002280FD1EB
:107AA00091F83D0004280BD191F83E2091F83F3029
:107AB00043EA0223402B28BF4023E383238406E0CC
:107AC000A91891F83D1011B10A449A42DEDB032354
:107AD00084F8253095F82C300120237595F82D3049
