:100000000C94BC030C94E4030C94E4030C94E403FC
:100010000C94E4030C94E4030C94E4030C94E403C4
:100020000C94E4030C94E4030C94E4030C94E403B4
:100030000C94E4030C94E4030C94E4030C94E403A4
:100040000C94020B0C94E4030C94180A0C94F2091F
:100050000C94E4030C94E4030C94E4030C94E40384
:100060000C94E4030C94E40345054A054D05500542
:1000700053055605700512061B061E0621062406AA
:1000800029062C06220726072A07320736073A07D1
:100090003E0746074A074E0758079907AA07BC07B5
:1000A000CD07DF07F1070308130823083308860785
:1000B0005E244C6F52612073796E6320776F726497
:1000C0003A20737461746520005E24536574207354
:1000D000796E6320776F726420746F203078005ED1
:1000E0002444656661756C742073796E6320776F44
:1000F00072643A203078005E242A2A2A2A2A2A2A80
:100100002A2A2A506F776572204F4E3A2073746105
:100110007465200023230041434B20534E52206C32
:100120006173742072637620706B743A20004143CF
:100130004B207061796C6F61643A200041434B2021
:100140006C656E6774683A200041434B206E756D94
:100150006265723A2000536F757263653A200044FD
:10016000657374696E6174696F6E3A200023232091
:1001700041434B20746F2073656E643A0023232043
:1001800041434B2073657420616E642077726974FB
:1001900074656E20696E204649464F202323002354
:1001A00023206E6F7420656E6F75676820546F41F1
:1001B00020666F722041434B20617400556E72655A
:1001C000636F676E697A656420636D640A00496EC7
:1001D00076616C696420636F6D6D616E642E204F73
:1001E0004E206F72204F46462061636365707465D0
:1001F000642E0A005E2453657474696E67204C6F28
:100200005261206D6F64756C6520746F204F464697
:100210000A005E2453657474696E6720706F776599
:1002200072204F4E3A20737461746520005E24532F
:10023000657474696E67204C6F5261206D6F6475D0
:100240006C6520746F204F4E00496E76616C696456
:1002500020506F7765722E204C2C20482C204D2C7E
:100260002078206F72205820616363657074656424
:100270002E0A005E2453657474696E6720506F7790
:1002800065723A20737461746520005E245365744E
:10029000204C6F526120506F77657220746F200080
:1002A00054696D653A20005E2453657474696E6705
:1002B000204368616E6E656C3A20737461746520CA
:1002C000005E24536574204C6F5261206368616E38
:1002D0006E656C20746F2000232323004F4B002D8C
:1002E0002D3E2053494653206475726174696F6EC8
:1002F00020005365742073656E645F6361645F6E94
:10030000756D62657220746F20005E244C6F5261BF
:100310002073796E6320776F72643A20737461740E
:100320006520005E245365742073796E6320776FB7
:10033000726420746F20307800507265616D626C59
:1003400065204C656E6774683A20004765742050DC
:100350007265616D626C65204C656E6774683A20E9
:10036000737461746520005E244C6F5261206D6F60
:1003700064653A20737461746520005E245365746B
:10038000204C6F5261206D6F646520746F20005E99
:10039000247365742053463A207374617465200099
:1003A0005E247365742053463A20005E2452656DC6
:1003B0006F746520636F6E666967206C6F636B6531
:1003C000640A005E24005E2450617273696E6720C7
:1003D000636F6D6D616E640A005E2441434B207251
:1003E000657175657374656420627920005E2453BD
:1003F000657474696E6720706F776572204F4E3A2E
:1004000020737461746520005E2452657365747492
:10041000696E6720726164696F206D6F64756C65C9
:10042000005E2452656365697665206572726F723D
:1004300020005E244C6F772D6C6576656C206777A5
:1004400020737461747573204F4E0052637620736D
:10045000657269616C3A20000000000025002800E8
:100460002B0000000000240027002A0004040404DC
:10047000040404040202020202020303030303034E
:10048000010204081020408001020408102001022B
:10049000040810202A2A205573696E672073796E2C
:1004A0006320776F7264206F66203078006173205C
:1004B0004C522D42532E2057616974696E67205249
:1004C0004620696E70757420666F72207472616E5A
:1004D00073706172656E742052462D736572696126
:1004E0006C206272696467650A005E245358313279
:1004F00037322F373620636F6E66696775726564B1
:1005000020005E2452617720666F726D61742C202A
:100510006E6F7420617373756D696E6720616E799B
:100520002068656164657220696E2072656365701C
:1005300074696F6E0A003A20737461746520005EFE
:10054000244C6F5261206164647220005E245072FA
:1005500065616D626C65204C656E6774683A200059
:100560005E2447657420507265616D626C65204C35
:10057000656E6774683A20737461746520005E2448
:1005800042616420507265616D626C65204C656EDD
:100590006774683A20736574206261636B20746FBE
:1005A0002038005E24507265616D626C65204C6578
:1005B0006E6774683A20005E244765742050726547
:1005C000616D626C65204C656E6774683A20737467
:1005D00061746520005E24506F7765723A207374F1
:1005E00061746520005E24536574204C6F52612055
:1005F000706F7765722064426D20746F20005E24F6
:100600005573652050415F424F4F535420616D70C8
:100610006C6966696572206C696E65005F38363892
:100620003A20737461746520005E244368616E6EC5
:10063000656C2043485F30005E244368616E6E65E0
:100640006C2043485F31005E244368616E6E656CC8
:100650002043485F31385F383638283836382E31F5
:100660004D487A293A20737461746520005E2443F2
:100670006F6E6669677572696E6720666F72204C6F
:100680006F526157414E0A005E2453657474696E5F
:1006900067206D6F64653A20737461746520005E35
:1006A000244C6F5261206D6F6465200000000008CB
:1006B0000002010000030407000000000000000029
:1006C0002072656D61696E696E6720546F412069A3
:1006D000732000206379636C6520656E647320610C
:1006E0007420006379636C6520626567696E7320AE
:1006F000617420002323206E6577206379636C6525
:1007000020666F7220546F412023230053583132EA
:100710003736204C462F48462063616C696272610F
:1007200074696F6E00556E7265636F676E697A6586
:1007300064207472616E73636569766572005358E4
:10074000313237362064657465637465642C2073B8
:1007500074617274696E67005358313237322064A5
:10076000657465637465642C207374617274696E5A
:1007700067002E2E2E00B41C11241FBECFEFD8E030
:10078000DEBFCDBF12E0A0E0B1E0E4ECF8E402C0CF
:1007900005900D92AC33B107D9F724E0ACE3B2E099
:1007A00001C01D92AA35B207E1F713E0CCEBD3E00C
:1007B00004C02197FE010E945721CB3BD107C9F706
:1007C0000E946A120C9460240C94000080912D0306
:1007D000882329F18DE10E94C3109091F202682FC5
:1007E000911102C0646001C061608DE10E9401113D
:1007F0008DE10E94C3109091F202992311F020E044
:1008000001C022E090E002C0959587952A95E2F715
:1008100080FF07C081E08093240380E008958FEF7C
:10082000089581E00895FF920F931F93CF93DF9374
:100830002091F202211107C09C0127503109233079
:10084000310520F405C08A30910510F081E0EDC03B
:10085000EC0181E00E94C310F82E80912D038111DC
:10086000D3C00E94D811182F61E881E00E940111C5
:100870008DE10E94C310082F8091F20281111DC0EA
:10088000C830D10589F0C930D10599F0C730D105FC
:1008900091F50F730E945012809115038B3011F067
:1008A0008C3049F5016027C0802F8F77082F0064B6
:1008B00022C0802F8F7B082F1BC00F70C830D1053E
:1008C000B9F0C930D105B1F0C730D105A1F4006746
:1008D0000E945012809115038B50823060F486E2A2
:1008E0000E94C310682F686086E20E94011103C055
:1008F000006801C00069602F8DE10E94011164E66B
:1009000070E080E090E00E94BC0A8DE10E94C3107C
:100910009091F202911135C0C830D105D9F0C9309B
:10092000D10521F1C730D10509F060C0282F30E092
:1009300076E0359527957A95E1F7232B09F056C097
:10094000909115039B3009F061C0282F2095122F3C
:1009500011704CC0282F30E066E0359527956A95D8
:10096000E1F72130310509F041C059C0282F30E0AE
:1009700056E0359527955A95E1F722303105B1F5C6
:100980004EC0C830D105E9F0C930D10529F1C730D2
:10099000D10561F5282F30E044E0359527954A953B
:1009A000E1F72730310511F586E20E94C3109091DE
:1009B00015039B3081F583FB882780F911E0182708
:1009C00015C0282F30E094E0359527959A95E1F7EA
:1009D0002830310559F423C0282F30E084E03595C4
:1009E00027958A95E1F729303105C9F01123B9F02F
:1009F0006F2D81E00E94011164E670E080E090E0DC
:100A00000E94BC0A812F11C012E02ECF9C3039F415
:100A100080FD05C008C09C3011F483FF04C0C09362
:100A2000130310E0E5CF11E0E3CFDF91CF911F91E9
:100A30000F91FF900895BF92CF92DF92EF92FF92B5
:100A40000F931F93CF93DF93D82F81E00E94C310A1
:100A5000182F80912D03811104C00E94D811C82F36
:100A60000DC161E881E00E9401118EE10E94C31076
:100A7000C82FCD2ED12CF6013697E730F10508F0BE
:100A80004CC0EC5CFF4F0C945721CF76C0660E949F
:100A9000E60345C0CF77C0674EC0CF78C0684BC073
:100AA000CF79C06948C0CF7AC06A45C0CF7BC06BE0
:100AB00080912D038823B1F08091F202811108C04A
:100AC0008DE10E94C310829586958695837005C03E
:100AD0008DE10E94C31082958F708093130302C032
:100AE000CF7CC06C80911303873029F58091F2028E
:100AF00081110AC08DE10E94C310082F0160602F90
:100B00008DE10E94011118C086E20E94C310682F77
:100B1000686086E20E9401110EC0D63061F40E9426
:100B2000E60365E081E30E9401116CE087E30E9427
:100B3000011100E037C000E080912D03882351F1BE
:100B40008DE10E94C31090911503963059F0909159
:100B5000F202682F911102C06B7F01C06E7F8DE1A0
:100B60000E9401118091F202882311F0B12C02C081
:100B700042E0B42E80911503863061F08DE10E9431
:100B8000C31090E002C095958795BA94E2F780FF74
:100B90001092240363E081E30E9401116AE087E37D
:100BA0000E9401118091F202811104C0C460602F83
:100BB0008DE106C086E20E94C310682F646086E261
:100BC0000E9401116C2F8EE10E94011164E670E019
:100BD00080E090E00E94BC0A8091F20281110AC07C
:100BE0008DE10E94C310082F8EE10E94C310C82F10
:100BF00020E009C086E20E94C310C82F8EE10E9447
:100C0000C3100C2F23E0F6013697E730F10598F575
:100C1000E55CFF4F90E034E0959587953A95E1F7D4
:100C20000C945721069749F5C2FF27C080912403F1
:100C3000813019F51EC0079701F508C00897E9F43F
:100C400005C00997D1F402C00A97B9F4C2FF15C0D4
:100C500010C00B9791F402C00C9779F4C2FF0DC03D
:100C6000802F90E002C0959587952A95E2F780FF46
:100C700004C0C0E003C0C1E001C0C2E0612F81E058
:100C80000E94011164E670E080E090E00E94BC0ADE
:100C90008AEF8D0F873018F4D0931503C0E08C2FA6
:100CA000DF91CF911F910F91FF90EF90DF90CF9048
:100CB000BF9008951F93CF93DF93C82F81E00E94C8
:100CC000C310182F80912D03811104C00E94D811E8
:100CD000D82F01C0D2E061E881E00E9401118DE1CE
:100CE0000E94C3109091F202911114C0C23061F0C1
:100CF00020F4C13009F58F7C1EC0C33041F0C430F0
:100D0000D9F4877E806218C0877D806115C08F7D91
:100D1000886112C0817FC23051F020F4C13061F48B
:100D200082600AC0C33029F0C43029F005C0846055
:100D300003C0866001C08860682F8DE10E940111A8
:100D400064E670E080E090E00E94BC0A8DE10E94C1
:100D5000C3109091F202913011F421E001C023E020
:100D6000C230A1F018F4C13031F031C0C330C9F045
:100D7000C43011F12CC090E002C0959587952A955A
:100D8000E2F787709927019749F527C090E002C0E4
:100D9000959587952A95E2F7877099270297F1F440
:100DA0001CC090E002C0959587952A95E2F7877060
:100DB0009927039799F411C090E002C09595879503
:100DC0002A95E2F787709927049741F406C08FEFC0
:100DD0008C0F843018F0D1E003C0D0E0C09314032E
:100DE000612F81E00E94011164E670E080E090E0F4
:100DF0000E94BC0A8D2FDF91CF911F910895CF9251
:100E0000DF92EF92FF921F93CF93DF93C82F81E081
:100E10000E94C310D82F80912D03811102C00E941F
:100E2000D81161E881E00E940111CC2ED12CF6018D
:100E30003197EB30F10508F052C0EE5BFF4F81E0D7
:100E40000C9457210E945A068CE007C00E945A0653
:100E50008CE017C00E945A068AE00E941B0587E0BA
:100E600090E023C00E945A068CE01BC00E945A06E4
:100E70008AE007C00E945A068BE013C00E945A06FF
:100E800089E00E941B0588E090E00FC00E945A068E
:100E900089E007C00E945A0688E003C00E945A06F3
:100EA00087E00E941B0589E090E00E94130419C0AE
:100EB0000E945A068CE00E941B0587E090E00E9489
:100EC000130484E30E94111284E994E00E94EF0F5E
:100ED00060E170E08091F3020E94441202C01FEFB3
:100EE0003DC18DE10E94C310F6013197EB30F10551
:100EF000C8F011E0CB3009F431C18091F4020E94B6
:100F0000111211110DC0C093060328C12111BDC0DB
:100F1000A3E095958795AA95E1F7019709F410C18B
:100F200011E01CC1E35BFF4F2091F20290E00C94B2
:100F30005721211109C0E3E095958795EA95E1F7DE
:100F4000019709F0A0C0A7C095958795C99709F0AA
:100F50009AC0A1C0211109C063E0959587956A9553
:100F6000E1F7099709F08FC096C095958795813470
:100F7000910509F088C08FC0211109C043E0959503
:100F800087954A95E1F7019709F07DC092C0959544
:100F90008795C99709F077C08CC0211109C023E05B
:100FA000959587952A95E1F7419709F06CC073C034
:100FB000959587958934910509F065C06CC021111C
:100FC00009C0B3E095958795BA95E1F7099709F0BF
:100FD0005AC06FC0959587958134910509F053C02B
:100FE00068C0211109C0F3E095958795FA95E1F75E
:100FF000419709F048C06BC0959587958934910554
:1010000009F041C064C0211108C073E0959587952F
:101010007A95E1F70997B9F568C095958795813478
:10102000910589F562C0211108C053E09595879517
:101030005A95E1F7419739F558C0959587958934C8
:10104000910509F552C0211108C033E095958795A7
:101050003A95E1F74197B9F456C09595879589344B
:10106000910589F450C0211108C013E0959587952A
:101070001A95E1F7419739F454C0959587958934CD
:10108000910509F44EC011E038CF95958795C99721
:1010900009F046CF55C08EE10E94C31090E0E4E015
:1010A00095958795EA95E1F711E00C9709F025CF22
:1010B00045C08EE10E94C31090E074E0959587953D
:1010C0007A95E1F711E00A9709F017CF37C08EE162
:1010D0000E94C31090E064E0959587956A95E1F7CA
:1010E00011E00B9709F009CF29C08EE10E94C310CF
:1010F00090E054E0959587955A95E1F711E00997AE
:1011000009F0FBCE1BC08EE10E94C31090E044E0CA
:10111000959587954A95E1F711E0089709F0EDCE8E
:101120000DC08EE10E94C31090E034E09595879544
:101130003A95E1F711E0079709F0DFCE10E0DDCE38
:101140008EE10E94C31090E024E0959587952A9542
:10115000E1F70C9709F0E4CE10E0D5CE6D2F81E0D9
:101160000E94011164E670E080E090E00E94BC0AF9
:10117000812FDF91CF911F91FF90EF90DF90CF9063
:10118000089590E0FC01E058FB4F2491FC01E459E4
:10119000FB4F8491882399F090E0880F991FFC0100
:1011A000EE59FB4FA591B491FC01E85AFB4F859194
:1011B00094918FB7F894EC91E22BEC938FBF089544
:1011C000CF92DF92EF92FF920F931F93CF93DF9313
:1011D0006C017A018B01C0E0D0E0CE15DF0581F013
:1011E000D8016D918D01D601ED91FC910190F081B6
:1011F000E02DC6010995892B11F02196EECF7E01D5
:10120000C701DF91CF911F910F91FF90EF90DF9079
:10121000CF900895089580E090E00895FC01538DEB
:10122000448D252F30E0842F90E0821B930B5417C0
:1012300010F0CF96089501970895FC01918D828D4D
:10124000981761F0828DDF01A80FB11D5D968C911A
:10125000928D9F5F9F73928F90E008958FEF9FEF25
:101260000895FC01918D828D981731F0828DE80FE1
:10127000F11D858D90E008958FEF9FEF0895FC019B
:10128000918D228D892F90E0805C9F4F821B910968
:101290008F739927089585E592E00E943F0921E028
:1012A000892B09F420E0822F0895FC01848DDF0151
:1012B000A80FB11DA35ABF4F2C91848D90E00196C9
:1012C0008F739927848FA689B7892C93A089B189B8
:1012D0008C91837080648C93938D848D981306C059
:1012E0000288F389E02D80818F7D80830895EF92BD
:1012F000FF920F931F93CF93DF93EC0181E0888FD0
:101300009B8D8C8D981305C0E889F989808185FDB6
:1013100026C0F62E0B8D10E00F5F1F4F0F731127A5
:10132000E02E8C8DE8120CC00FB607FCFACFE889CE
:10133000F989808185FFF5CFCE010E945509F1CF53
:101340008B8DFE01E80FF11DE35AFF4FF0829FB72E
:10135000F8940B8FEA89FB89808180620AC09FB76D
:10136000F894EE89FF896083E889F9898081837028
:10137000806480839FBF81E090E0DF91CF911F91D7
:101380000F91FF90EF900895CF93DF93EC01888D3C
:101390008823C9F0EA89FB89808185FD05C0A88979
:1013A000B9898C9186FD0FC00FB607FCF5CF8081FF
:1013B00085FFF2CFA889B9898C9185FFEDCFCE0149
:1013C0000E945509E7CFDF91CF91089580E090E02A
:1013D000892B29F00E944B0981110C94000008957B
:1013E0000E9471211F920F920FB60F9211242F931A
:1013F0003F934F935F936F937F938F939F93AF939D
:10140000BF93EF93FF9385E592E00E945509FF910A
:10141000EF91BF91AF919F918F917F916F915F916C
:101420004F913F912F910F900FBE0F901F901895E5
:101430001F920F920FB60F9211242F938F939F93A9
:10144000EF93FF93E0916502F09166028081E09155
:101450006B02F0916C0282FD12C0908180916E024D
:101460008F5F8F7320916F02821751F0E0916E02AF
:10147000F0E0EB5AFD4F958F80936E0201C08081A2
:10148000FF91EF919F918F912F910F900FBE0F9031
:101490001F90189590E0FC01E455F94F2491FC0150
:1014A000E058FB4F3491FC01E459FB4FE491EE23EB
:1014B00009F43CC0222339F1233091F038F4213073
:1014C000A9F0223001F584B58F7D12C0273091F04C
:1014D0002830A1F02430B9F4809180008F7D03C0C2
:1014E000809180008F77809380000DC084B58F77C6
:1014F00084BD09C08091B0008F7703C08091B00097
:101500008F7D8093B000F0E0EE0FFF1FE85AFB4F95
:10151000A591B4919FB7F894611104C08C91309556
:10152000382302C0EC913E2B3C939FBF08953FB7F8
:10153000F8948091500290915102A0915202B09182
:10154000530226B5A89B05C02F3F19F00196A11D97
:10155000B11D3FBFBA2FA92F982F8827820F911D49
:10156000A11DB11DBC01CD0142E0660F771F881F90
:10157000991F4A95D1F708958F929F92AF92BF928B
:10158000CF92DF92EF92FF926B017C010E94970A4B
:101590004B015C01C114D104E104F104F1F00E949B
:1015A000970ADC01CB0188199909AA09BB09883E71
:1015B0009340A105B10570F321E0C21AD108E108FA
:1015C000F10888EE880E83E0981EA11CB11CC1149E
:1015D000D104E104F10419F7DDCFFF90EF90DF9023
:1015E000CF90BF90AF909F908F9008952FB7F894B1
:1015F00060914C0270914D0280914E0290914F0289
:101600002FBF08951F920F920FB60F9211242F93A0
:101610003F938F939F93AF93BF9380914C02909190
:101620004D02A0914E02B0914F0230914B0223E047
:10163000230F2D3720F40196A11DB11D05C026E80A
:10164000230F0296A11DB11D20934B0280934C02E3
:1016500090934D02A0934E02B0934F02809150029E
:1016600090915102A0915202B09153020196A11D96
:10167000B11D8093500290935102A0935202B093F7
:101680005302BF91AF919F918F913F912F910F90F6
:101690000FBE0F901F9018958EBD00000DB407FE71
:1016A000FDCF8EB50895CF93DF938FE996E00E942A
:1016B000EF0F6AE070E0809103010E94B5100E9474
:1016C0002010809103010E94FF06C82F88E896E051
:1016D0000E94EF0F6AE070E08C2FCC0F990B0E94F4
:1016E00074100E942010809103018830E8F096E089
:1016F00090933C028B30D9F48DE696E00E94EF0F78
:1017000066E676E089ED90E00E943E11C82F880FD2
:10171000DD0B87E496E00E94EF0F81E080934A02A0
:1017200084E38093000130C083E080933C026091A9
:1017300056047091570480915804909159040E9466
:101740003E11C82F80916801863058F088E396E0FA
:101750000E94EF0F8091680190E06AE070E00697C8
:101760000AC089E296E00E94EF0F8091680190E044
:101770006AE070E004960E9474100C2E000CDD0BE1
:101780008CE196E00E94EF0F6AE070E0CE010E94CB
:1017900074100E94201081E080930F038EEF95E07B
:1017A0000E94EF0F0E9420108091F202882311F016
:1017B000CDE401C0CAE581E00E94C310D82F80911A
:1017C0002D03813011F461E802C061E081E00E94E4
:1017D000011164E88C2F0E94011180E10E941C110C
:1017E0009091F20280910F03911106C0811102C005
:1017F000CFE008C0CCE806C0882311F0CCE801C0D7
:10180000CEE0C0676C2F89E00E940111C0931A03DB
:1018100089E00E94C310C1E090911A03981301C09F
:10182000C0E06D2F81E00E94011164E670E080E06D
:1018300090E00E94BC0A85EE95E00E94EF0F6AE0FE
:1018400070E08EE00E94B5100E94201085ED95E0BA
:101850000E94EF0F6AE070E08C2F90E00E947410FD
:101860000E9420100E94DE10C82F87EB95E00E9496
:10187000EF0F6AE070E08C2F90E00E9474100E94DD
:10188000201083EA95E00E94EF0F60911F03709192
:10189000200380E090E04AE00E942E100E94201079
:1018A00080911F0390912003089709F44AC08EE7A6
:1018B00095E00E94EF0F81E00E94C310C82F809135
:1018C0002D03813051F461E80E94011160E080E253
:1018D0000E94011168E081E20AC061E081E00E949B
:1018E000011160E085E20E94011168E086E20E9439
:1018F00001116C2F81E00E94011164E670E080E02C
:1019000090E00E94BC0A0E94DE10C82F80E695E09D
:101910000E94EF0F6AE070E08C2F90E00E9474103C
:101920000E9420108CE495E00E94EF0F60911F034D
:101930007091200380E090E04AE00E942E100E9407
:101940002010C1E0C09323038FE395E00E94EF0FC6
:101950006AE070E081E00E94B51086E395E00E94A5
:10196000EF0F6AE070E080E090E00E9474100E9447
:10197000201080914A02882331F082E095E00E9495
:10198000EF0FC0930D038AEE94E00E94EF0F8DEAF3
:1019900094E0DF91CF910C94EF0F1F93CF93DF93DF
:1019A0008091F5020E94C10861E08091F5020E94D9
:1019B0004A0A64E670E080E090E00E94BC0ACFB77B
:1019C000F89480915402811124C0E6E7F4E08491F8
:1019D000EAE8F4E09491E82FF0E0EE0FFF1FEE59F3
:1019E000FB4FA591B491EC91E92321F461E08AE0E9
:1019F0000E944A0A8AE00E94C1088CB580618CBDB1
:101A00008CB580648CBD8DE00E94C1088BE00E9483
:101A1000C108809154028F5F80935402CFBF8CB570
:101A20008F7D8CBD8CB58C7F81608CBD8DB58160C8
:101A30008DBD8CB5837F8CBD64E670E080E090E066
:101A40000E94BC0A82E40E94C310823239F488E505
:101A500097E00E94CC111092F20211C082E40E9421
:101A6000C310823141F48EE397E00E94CC1181E0F3
:101A70008093F20204C085E297E00E94CC1180912D
:101A8000F202813061F08BE10E941C110E94D8119A
:101A9000182F80912D03813009F050C029C08CE0AF
:101AA00097E00E94CC1160E089E00E9401118BE375
:101AB0000E94C310682F60648BE30E9401118BE3C6
:101AC0000E94C31085FDFBCF60E070E089ED90E0DF
:101AD0000E943E118BE30E94C310682F60648BE369
:101AE0000E9401118BE30E94C31085FDFBCFCBCF79
:101AF0008091F202882319F0D2E0CEE102C0D1E059
:101B0000CDE18C2F0E94C3109091F202682F9111A9
:101B100002C0626001C064608C2F0E9401118C2F92
:101B20000E94C31090E002C095958795DA95E2F780
:101B300080FF11C081E0809326030DC080E30E94E6
:101B4000C310682F606180E30E94011180E30E944E
:101B5000C31084FDEFCF0E94DE108091F4020E943A
:101B6000111280912D03882329F089E30E94C3106C
:101B70008093F3028091F3028093F4020E94F60AAC
:101B8000611571058105910511F00E94F31D812FEA
:101B9000DF91CF911F9108959FB7F89480915402DF
:101BA000882319F08150809354028091540281114E
:101BB00003C08CB58F7B8CBD9FBF8091F5020E94C6
:101BC000C10860E08091F5020C944A0ACF9381E04D
:101BD0000E94C310C82F80912D03813031F461E839
:101BE0000E9401116FEF82E10AC061E081E00E9472
:101BF00001116FEF8EE30E9401116FEF8FE30E94DE
:101C000001116C2F81E0CF910C94011180912D0373
:101C10008130D9F489E10E94C31080931003282FEA
:101C200030E087FF0AC0319521953109332735957A
:101C3000279535952795219504C035952795359598
:101C4000279520931B0380E008958FEF08958F92CE
:101C50009F92AF92BF92CF92DF92EF92FF920F933B
:101C60001F93CF93DF9380912D03813009F093C0B0
:101C70000E94060EC82F81118FC08AE10E94C310F6
:101C8000D0911B039091F20200911603109117035B
:101C90002091180330911903C82ED12CE12CF12C7E
:101CA000D7FF3DC0913019F06BE870E002C06DE9DC
:101CB00070E00C3C1C4C274D310518F080E090E0A2
:101CC00002C087E090E0860F971F66277727681B82
:101CD000790B072E000C880B990B0E94C91F4B0132
:101CE0005C01C701B6010E94C91F9B01AC01C5017F
:101CF000B4010E949C1E6B017C016D2FDD0F770BE0
:101D0000880B990B0E94C91F20E030E040E85EE399
:101D10000E94B2209B01AC01C701B60133C09130D3
:101D200019F06BE870E002C06DE970E00C3C1C4CEF
:101D3000274D310518F020E030E002C027E030E008
:101D4000260F371F66277727621B730B072E000CA1
:101D5000880B990B0E94C91F4B015C01C701B6019A
:101D60000E94C91F20E030E040E851E40E94B22008
:101D700020E030E040E751E40E941F1F9B01AC01CE
:101D8000C501B4010E949C1E0E94911F70931E0306
:101D900060931D0301C0CFEF8C2FCC0F990BDF9107
:101DA000CF911F910F91FF90EF90DF90CF90BF9058
:101DB000AF909F908F900895CF93DF93C82F81E0CD
:101DC0000E94C310D82FC093320380912D0381301D
:101DD00051F461E80E9401116091320382E20E9495
:101DE000011182E20AC061E081E00E94011160916C
:101DF000320382E30E94011182E30E94C310C1E01A
:101E000090913203981301C0C0E06D2F81E00E94D1
:101E100001116AEF70E080E090E00E94BC0A8C2F14
:101E2000DF91CF910895CF92DF92EF92FF920E94BF
:101E3000F60AC0905004D0905104E0905204F09003
:101E40005304C616D706E806F90608F065C0C09226
:101E50004C04D0924D04E0924E04F0924F0440EABC
:101E60005CE860E070E0409348045093490460935C
:101E70004A0470934B04D701C60180589141A94C84
:101E8000BF4F8093500490935104A0935204B09399
:101E9000530484EF96E00E94CC1183EE96E00E94FA
:101EA000EF0F60914C0470914D0480914E0490911D
:101EB0004F044AE00E942E1083ED96E00E94EF0F3F
:101EC0006091500470915104809152049091530498
:101ED0004AE00E942E1080EC96E00E94EF0FC09026
:101EE0004804D0904904E0904A04F0904B04F7FE77
:101EF0000CC08DE20E946F1066277727CB016C190A
:101F00007D098E099F094AE003C04AE0C701B60176
:101F10000E942E100E941C10609148047091490488
:101F200080914A0490914B04FF90EF90DF90CF9006
:101F30000895FF920F931F93CF93DF93CDB7DEB732
:101F400027970FB6F894DEBF0FBECDBFBC0127E0C8
:101F5000E2E3F2E0CE010196DC0101900D922A95B8
:101F6000E1F7DC0120E030E004E011E0FB0140811A
:101F70005181FA01EC5FFE4FF080F3E2FF16E9F0C9
:101F8000F80101900020E9F73197E450F1404E1735
:101F90005F0798F4FC0101900020E9F73197E81BF6
:101FA000F90B2E173F0748F4FD924F5F5F4FFB017F
:101FB000518340832F5F3F4FD9CFFC01E20FF31FC6
:101FC00010820E94FC1D27960FB6F894DEBF0FBE4C
:101FD000CDBFDF91CF911F910F91FF9008950F9387
:101FE0001F93CF93DF938C01C0E0D0E0F801EC0F9A
:101FF000FD1F6491662341F085E592E00E94770918
:10200000892B11F02196F2CFCE01DF91CF911F9154
:102010000F910895009769F0FC0101900020E9F705
:102020003197AF01481B590BBC0185E592E00C9438
:10203000E00880E090E0089589E392E00C940A10B3
:10204000CF93DF938BE392E00E940A10EC010E9491
:102050001C108C0F9D1FDF91CF9108958F929F923E
:10206000AF92BF920F931F93CF93DF93CDB7DEB79D
:10207000A1970FB6F894DEBF0FBECDBF19A24230B4
:1020800008F44AE08E010F5D1F4F842E912CA12C85
:10209000B12CA50194010E946A1EE62FB901CA0164
:1020A00001501109EA3014F4E05D01C0E95CD80187
:1020B000EC93232B242B252B61F7C8010E940A10D7
:1020C000A1960FB6F894DEBF0FBECDBFDF91CF91C2
:1020D0001F910F91BF90AF909F908F900895682FA0
:1020E00085E592E00C947709CF92DF92EF92FF9210
:1020F000CF93DF936115710559F4682F85E592E060
:10210000DF91CF91FF90EF90DF90CF900C94770903
:102110006C01990FEE08FF086A307105D9F4F7FEDB
:1021200017C08DE20E946F10EC0166277727CB0164
:102130006C197D098E099F094AE00E942E108C0FB0
:102140009D1FDF91CF91FF90EF90DF90CF9008958A
:102150004AE001C0462FC701B601DF91CF91FF9041
:10216000EF90DF90CF900C942E10AB01682F4115AB
:10217000510521F485E592E00C94770970E080E048
:1021800090E00C942E101F93CF93DF93182FC2EF83
:10219000D2E060E08B810E944A0A812F8F770E94F3
:1021A0004C0B80E00E944C0B182F61E08B810E9449
:1021B0004A0A812FDF91CF911F91089580912D03BD
:1021C000813049F480E20E94C31010921F03809373
:1021D000200381E208C085E20E94C31010921F0311
:1021E0008093200386E20E94C31020911F03309148
:1021F0002003280F311D3093200320931F0380E01C
:1022000008950F931F93CF93DF93082F162FC2EFDC
:10221000D2E060E08B810E944A0A802F80680E9491
:102220004C0B812F0E944C0B61E08B81DF91CF9191
:102230001F910F910C944A0ACF93DF938C31D0F405
:10224000C82FC06281E00E94C310D82F80912D0357
:10225000813011F461E802C061E081E00E94011167
:102260006C2F8BE00E9401116D2F81E00E94011103
:1022700080E001C08FEFDF91CF9108958F929F9200
:10228000AF92BF92CF92DF92EF92FF92CF93DF9304
:102290004B015C010E94F60A6093F6027093F7020C
:1022A0008093F8029093F90281E00E94C310D82F26
:1022B00080912D03813011F461E802C061E081E07A
:1022C0000E940111B5018827992786E00E9401111B
:1022D00099278B2D7A2D692D87E00E940111682D99
:1022E00088E00E9401110E94F60A6093FA0270933E
:1022F000FB028093FC029093FD0264E670E080E0B4
:1023000090E00E94BC0A86E00E94C310C82E87E0BD
:102310000E94C310C82FD12CDC2CCC24E12CF12C32
:10232000FE2CED2CDC2CCC2488E00E94C3102C2F3A
:1023300030E0322F222790E0A0E0B0E0820F931F20
:10234000A11DB11DC80ED91EEA1EFB1E8C149D04D2
:10235000AE04BF0451F48092160390921703A0922A
:102360001803B0921903C0E001C0C1E06D2F81E0F5
:102370000E94011164E670E080E090E00E94BC0AD7
:102380008C2FDF91CF91FF90EF90DF90CF90BF9097
:10239000AF909F908F900895CF93DF930E94EF0F9F
:1023A000EC010E941C108C0F9D1FDF91CF910895AE
:1023B000CF93DF93C0E068EC70E080E090E00E9493
:1023C000BC0A60E081E00E94011160E881E00E94A7
:1023D000011161E881E00E9401118AE0C89FB0010B
:1023E00011246E5C7F4F072E000C880B990B0E9406
:1023F000BC0A81E00E94C310D82F82E797E00E94B8
:10240000CC11C0FD05C0C43111F0CF5F01C0C0E0E8
:10241000D13889F681E080932D0380E0DF91CF9160
:102420000895CF93DF93C82F81E00E94C310D82F67
:1024300080912D03811102C00E94D81161E881E0D2
:102440000E9401116C2F89E30E94011164E670E083
:1024500080E090E00E94BC0A89E30E94C310C81388
:1024600004C0C093F302C0E001C0C1E06D2F81E061
:102470000E94011164E670E080E090E00E94BC0AD6
:102480008C2FDF91CF910895CF93DF930E94B510E9
:10249000EC010E941C108C0F9D1FDF91CF910895BD
:1024A00080912D038823A1F08EE10E94C31090E05B
:1024B00024E0959587952A95E1F78093150386503A
:1024C000873010F090E001C091E081E08927089505
:1024D0008FEF0895CF93DF93CDB7DEB768970FB630
:1024E000F894DEBF0FBECDBF789484B5826084BD02
:1024F00084B5816084BD85B5826085BD85B5816008
:1025000085BD80916E00816080936E001092810085
:102510008091810082608093810080918100816040
:102520008093810080918000816080938000809101
:10253000B10084608093B1008091B000816080938D
:10254000B00080917A00846080937A0080917A0054
:10255000826080937A0080917A00816080937A0013
:1025600080917A00806880937A001092C10068EBB5
:102570007BE080E090E00E94BC0A80E480937C00D5
:1025800080917A00806480937A0080917A0086FD41
:10259000FCCF609178008091790070E0782B072E55
:1025A000000C880B990B611571058105910511F0DF
:1025B0000E94F31DE0916502F091660282E0808343
:1025C000E0916102F09162021082E0916302F09169
:1025D000640283E3808310926D02E0916902F091BE
:1025E0006A0286E08083E0916702F0916802808150
:1025F00080618083E0916702F09168028081886049
:102600008083E0916702F091680280818068808316
:10261000E0916702F091680280818F7D80830E9443
:10262000CD0C082F10E087EF90E00E94EF0F6AE0DA
:1026300070E0C8010E9474100E942010012B29F440
:1026400081E0809347020E94530B80912D038823E1
:1026500089F089E30E94C3108093F3028FED90E02C
:102660000E94EF0F60E170E08091F3020E94B510CC
:102670000E942010809100018231E1F00E9411122D
:10268000182F89EC90E00E94EF0F60E170E08091DC
:1026900000010E94B5100E94201080EB90E00E9483
:1026A000EF0F6AE070E0812F110F990B0E947410F8
:1026B0000E94201085E592E00E94C40968EE73E054
:1026C00080E090E00E94BC0A1A82198210924902AE
:1026D0001092480285E592E00E943F09892B91F112
:1026E0001A82198285E592E00E943F0909811A81C8
:1026F000892BB9F000351105A4F485E592E00E941C
:102700001D09F801EC5FFE4F808389819A81019653
:102710009A83898362E370E080E090E00E94BC0AC3
:10272000E1CFF801EC5FFE4F10828BE494E00E9451
:10273000EF0F84E091E00E940A100E94201081E0D7
:102740008093490280914702882309F4FEC1809159
:102750004902811103C280914502909146028C3357
:10276000910511F0892B71F482E394E00E94EF0F40
:102770000E94201085E592E00E94C4091092460252
:102780001092450288E0E6E3F3E0DF011D928A95AE
:10279000E9F786E493E090933C0380933B0368E081
:1027A0008AE00E94011163E28CE00E94011160E066
:1027B0008DE00E940111809115038A50833010F43E
:1027C00065E001C068E08FE10E94011160E085E2F0
:1027D0000E94011180912D03813031F48FEF0E940E
:1027E000DC0E182F65E80DC020910D0380912103A8
:1027F00090912203211101C004960E94DC0E182F33
:1028000065E081E00E94011111110C94A91C0E9445
:10281000F60A6B017C01B0E1CB0EB7E2DB1EE11CD6
:10282000F11C80912D03813009F582E10E94C310D3
:10283000182F14FD30C50E94F60A6C157D058E0513
:102840009F0508F097C482E10E94C310182F61E031
:1028500070E080E090E00E94BC0AEBCF0E94F60A94
:102860006C157D058E059F0508F084C48FE30E94DA
:10287000C31082FF02C00C948D1CF0CF85E20E9431
:10288000C31081110C948D1C0E94F60A6C157D05F5
:102890008E059F0598F38091270390912303891754
:1028A00011F0811163C40E94F60A6B017C01E0E122
:1028B000CE0EE7E2DE1EE11CF11C80912D0381307B
:1028C00009F0F4C482E10E94C310182F86FF02C0F1
:1028D0000C94941C0E94F60A6C157D058E059F05CC
:1028E00088F300E012E061E881E00E94011100231A
:1028F00009F452C580912D03813009F0F3C460E0E2
:102900008DE00E94011180910D03882309F4EFC42A
:102910001092360380910D038111FCC40E94C310F4
:1029200080933703807F803109F4E9C4803209F451
:10293000E6C482E08093290303E08091290381307B
:1029400009F487C6823011F40C94A71C0E94060E6D
:102950000E94270E053009F07AC680914704811144
:102960003DC50E94E60D80912D03813009F035C6EA
:1029700061E80E94011187E00E94DC0E8111A4C76A
:102980008091380380933E0380E280933F038091DF
:10299000360380934003809139038093410382E0A2
:1029A00080934203E0914303F09144038091290313
:1029B0008083009143031091440389E10E94C31076
:1029C000D80111968C9360E88DE00E94011160910E
:1029D0003E0380E00E94011160913F0380E00E946D
:1029E00001116091400380E00E9401116091410358
:1029F00080E00E9401116091420380E00E94011179
:102A0000E0914303F0914403608180E00E94011152
:102A1000E0914303F0914403618180E00E94011141
:102A20008DE791E00E94CC118DE691E00E94CC11DF
:102A30008FE591E00E94EF0F6AE070E080913E0325
:102A40000E94441286E591E00E94EF0F6AE070E078
:102A5000809140030E94441289E491E00E94EF0FAC
:102A60006AE070E0809141030E9444128CE391E09F
:102A70000E94EF0F6AE070E0809142030E944412CE
:102A80008EE291E00E94EF0FE0914303F091440346
:102A90006AE070E080810E94441287E191E00E9428
:102AA000EF0F80911B036AE070E0082E000C990B79
:102AB0000E9474100E941C1084E191E00E94CC11CD
:102AC0000E941C101092290364EF71E080E090E0F6
:102AD0000E94BC0A80E197E29093460480934504EB
:102AE0000E94F60A6B017C01B0E1CB0EB7E2DB1E5F
:102AF000E11CF11C80912D03813009F071C50E9409
:102B0000E60D63E881E00E94011182E10E94C3109A
:102B100083FD77C50E94F60A6C157D058E059F051D
:102B2000A0F311E00E94E60D8091450290914602CB
:102B300001969093460280934502112309F4CAC579
:102B4000E12EF12C133009F090C5809149028111DA
:102B500005C080914802882309F405C31A821982AE
:102B6000809104018F3209F0FEC28091050180340A
:102B700009F0F9C286EC93E00E94EF0F22E030E00A
:102B80003A83298383EC93E00E94EF0F84E091E085
:102B90000E940A100E94201080914802882389F028
:102BA000E981FA81EC5FFE4F8081853551F08BEA37
:102BB00093E00E94EF0FE981FA81EC5FFE4F8AE219
:102BC000808389819A81FC01EC5FFE4F20812F3444
:102BD00009F48CC234F4233409F4B5C02D3471F1F6
:102BE000BAC2233539F0273509F475C0203509F00C
:102BF000B2C2F7C12181263409F0B1C202969A838C
:102C00008983CE0101960E94990F6B017C01CB0153
:102C10000697079708F0A3C280EA93E00E94EF0F9F
:102C20006AE070E0C6010E9474100E9420108C2D92
:102C30000E941B05182F8FE893E04EC201969A83DD
:102C40008983CE0101960E94990F8B016C3071052A
:102C500014F477FF02C004E010E0009303018BE757
:102C600093E00E94EF0F6AE070E0802F0E94B510A1
:102C70000E942010809103010E94FF06182F87E612
:102C800093E00E94EF0F6AE070E0812F110F990B23
:102C90000E9474100E9420100E94DE10182F8BE4F6
:102CA00093E00E94EF0F6AE070E0812F90E00E94B5
:102CB00074100E94201089E393E00E94EF0F60914E
:102CC0001F037091200380E090E04AE00E942E10E4
:102CD0000E94201044C201969A838983CE010196F6
:102CE0000E94990FCB016AE070E00E94432154E0FA
:102CF000660F771F5A95E1F78B01080F191F0F3FD9
:102D0000110509F01CF41016110614F002E110E090
:102D100083E293E00E94EF0F60E170E0C8010E943F
:102D200074100E942010802F0E941112182F8AE028
:102D300093E00E94EF0F6AE070E0812F110F990B72
:102D40000E947410C5CF9C012F5F3F4FD901AC5F2B
:102D5000BE4F4C91413409F0DDC04281443409F04A
:102D6000D9C023812F3429F524812E34D1F405963E
:102D70009A838983CE0101960E94990F8B016F3F40
:102D8000710519F014F00FEF10E00093020182EFCB
:102D900092E00E94EF0F6AE070E0802F0E94B51071
:102DA00097CF263431F48581863419F410920201CC
:102DB000D6C10E94F60A4B015C01609341027093F8
:102DC0004202809343029093440210913C0280910E
:102DD0001303873051F0883081F0412C44E2542EA7
:102DE00044EF642E48E4742E0FC0412C34E2532E7D
:102DF00034EF632E37E4732E07C0412C24E2522EA9
:102E000024E7622E28E4722E0091150381E00E94CF
:102E1000C31088870E94F60A80912D03813009F043
:102E200048C061E80E94011181E090E002C0880F73
:102E3000991F0A95E2F7212C312C1C821B8233E06A
:102E40003F839C01990F440B550B2D8B3E8B4F8B71
:102E5000588F0E94E60D0E94F60A0E94F60A9B0116
:102E6000AC012C593F4F4F4F5F4F29873A874B8713
:102E70005C8767E881E00E9401110E94970A6D87D4
:102E80007E878F87988B82E10E94C31000E0382FE5
:102E90003470F32E82FDD8C10E94F60A29853A8546
:102EA0004B855C85621773078407950708F46EC12C
:102EB000CBC100E012E0688581E00E9401110E9410
:102EC000F60A0E94E60D011112E00E94F60A6B015B
:102ED0007C0160933D0270933E0280933F02909389
:102EE00040028FED92E00E94EF0FC701B601681912
:102EF00079098A099B094AE00E942E100E9420103D
:102F0000111103C08CED92E002C088ED92E00E94A6
:102F1000EF0FDECE3A832983CE0101960E94990FEE
:102F20006B017C01CB0104970F9720F084E0809324
:102F3000680102C0C0926801E0916801E450E0932A
:102F4000680184E0E89FF0011124E158FE4F808180
:102F50009181A281B3818093560490935704A093EA
:102F60005804B093590481EC92E00E94EF0F6AE09C
:102F700070E0C6010E9474100E94201060915604F7
:102F80007091570480915804909159040E943E1109
:102F9000182F87EA92E00E94EF0F6AE070E0812F1D
:102FA000110F990B0E9474100E94201080EA92E089
:102FB0000E94EF0F8091FA029091FB02A091FC0217
:102FC000B091FD020091F6021091F7022091F802F3
:102FD0003091F902BC01CD01601B710B820B930B88
:102FE00074CE118184EB810F823038F0812F8F7E77
:102FF000883419F0183709F076C0109301018BE876
:1030000092E00E94EF0F812F0E946F100E9420100B
:10301000009101018091F202882319F09DE4F92EBC
:1030200002C08AE5F82E81E00E94C310E82E80914C
:103030002D03813011F461E802C061E081E00E945B
:1030400001110D3481F034F4083449F00C3449F4A2
:1030500013E00AC0083539F0083719F404C017E046
:1030600003C010E001C01FE08BE00E941C11083774
:1030700029F480E10E941C111CE80BC0083549F4BA
:10308000106867E88F2D0E94011182E10E941C11D7
:1030900004C064E88F2D0E9401118091F202811119
:1030A0001067612F89E00E94011110931A0389E0D3
:1030B0000E94C31011E090911A03981301C010E010
:1030C0006E2D81E00E94011164E670E080E090E0E6
:1030D0000E94BC0A83E792E00E94EF0F6AE070E072
:1030E000812F90E02DCE89E492E037C081818E342B
:1030F00009F58DE292E00E94EF0F0E94CD0C082F9F
:1031000010E082E192E00E94EF0F6AE070E0C801F7
:103110000E9474100E942010012B29F481E08093FA
:1031200047020E94530B64EF71E080E090E00E9440
:10313000BC0A15C0863461F48281863449F484EF78
:1031400091E00E94EF0F0E94CC0D1092470207C041
:103150008EEC91E002C08CEB91E00E94EF0F85E5D0
:1031600092E00E94C4090E94E609AECA80910D0354
:10317000811199CB80912D03813011F461E801C058
:1031800061E081E00E94011113E0E4C30E94970A0C
:103190006B017C016D897E898F89988D0E94C91F82
:1031A0009B01AC01C301B2010E941F1F9B01AC0136
:1031B00060E070E080E89FE30E941F1F698B7A8BBC
:1031C0008B8B9C8BC701B6012D853E854F85588919
:1031D000621B730B840B950B0E94C71F6B017C0154
:1031E00020E034E244E759E469897A898B899C8933
:1031F0000E94B22020E030E040E753E40E949C1E91
:103200009B01AC01C701B6010E94AD201816C4F4A1
:10321000011116C08091F2028130D9F105E78BE1EE
:103220000E94C310800F80931C03280E311C87FD61
:103230003A944B815C814F5F5F4F5C834B8301E02D
:1032400082E10E94C31023CE0E94F60AFF2041F0C3
:1032500082E10E94C3108170115049F4082F11C0FF
:103260005F8151505F83511108C011E004C0882371
:1032700009F4EFCD10E001E004C01111EACD11E036
:1032800000E0C1016B817C810E94432160931C039B
:1032900012CE03E6C4CF0E94F60A6093F602709342
:1032A000F7028093F8029093F902EECA8FE30E942E
:1032B000C31082FD09C00E94F60A6C157D058E05BB
:1032C0009F05A0F300E005C081FF05C0109229030F
:1032D00001E012E005C081E08093290300E013E0E3
:1032E00061E002CB80E30E94C310867019F40E9453
:1032F000C31002C080912703809336030BCB80E07C
:103300000E94C3108093380380E00E94C310809312
:10331000390306C010923703109238031092390314
:1033200080912903811145C083E10E94C3108093DD
:103330003A0390912D03913051F420910D0390E0C8
:10334000211101C004979093220380932103E12C63
:10335000F12C8091210390912203E816F90678F46C
:1033600000913B0310913C030E0D1F1D80E00E9455
:10337000C310D8018C93BFEFEB1AFB0AEACF809100
:10338000370383FF05C081E08093120315E011C06D
:103390001092120310E00DC080912903813049F48E
:1033A00080912A0390912B03891718F48F5F8093E3
:1033B0002A0380912D03813021F460E08DE00E948A
:1033C00001110E94E60D012F112309F4B6CA133032
:1033D00009F4B3CA153009F4B0CA37C10E94130FFB
:1033E0006B837C838D839E83A0901303E7E0AE16EE
:1033F00059F0F8E0AF1681F0C12C04E2D02E04EFB2
:10340000E02E08E4F02E0FC0C12C14E2D12E14EFF0
:10341000E12E17E4F12E07C0C12CB4E2DB2EB4E795
:10342000EB2EB8E4FB2EB09015030B2D10E061E0FD
:1034300070E00B2C02C0660F771F0A94E2F7072E8C
:10344000000C880B990B0E94C91F9B01AC01C7019E
:10345000B6010E941F1F9B01AC0160E070E080E894
:103460009FE30E941F1F6B017C0160911F037091FD
:1034700020036C5F7F4F80E090E00E94C71F20E038
:1034800030E048E850E40E949C1EA70196010E948B
:10349000B2202B013C0127E0A21204C03324339454
:1034A0003CE0B312312C8091240369E170E0601B91
:1034B000710B45E0849F601971091124660F771F15
:1034C000660F771F072E000C880B990B0E94C91FEF
:1034D0004B015C01832D90E0880F991FB801681B98
:1034E000790B660F771F660F771F072E000C880B6E
:1034F000990B0E94C91F9B01AC01C501B4010E9438
:103500001F1F0E94081F4B015C016091140370E0B3
:103510006C5F7F4F072E000C880B990B0E94C91F10
:10352000A50194010E94B2204B015C0120E030E033
:10353000A9010E94AD2020E030E040E051E41816DF
:1035400034F4C501B4010E949C1E9B01AC01C7016B
:10355000B6010E94B220A30192010E949C1E20E0AD
:1035600034E244E759E40E94B22027E73EEB4FE7FC
:103570005FE30E949C1E0E9404200E94981F28EE78
:1035800033E040E050E00E946A1ECA01B9010E9487
:10359000C71F0E94081F20E030E040E85FE30E9460
:1035A0009C1E0E94981F70935504609354048B8155
:1035B0009C81AD81BE81861B970BA109B109B7FF24
:1035C000D0C98FE991E00E94EF0F0E94F60A4AE00D
:1035D0000E942E100E941C1077C161E081E0C9C9D1
:1035E00063E081E00E9401118FE30E94C31083FD1C
:1035F00008C00E94F60A6C157D058E059F05A0F394
:1036000090CA809147048823F1F0009154041091EE
:1036100055040E94130F809147048823A1F08091E4
:10362000480490914904A0914A04B0914B04801B36
:10363000910BA109B1098093480490934904A09388
:103640004A04B0934B0410E06DCA12E06DCA10E05A
:103650006BCA84E0E82EF12C8091450290914602DD
:103660000196909346028093450281E294E00E9485
:10367000EF0F6AE070E0C7010E9474100E942010F2
:10368000E2E0EE16F10409F01AC10E94CC0D10928E
:10369000470288E094E00E94EF0F0E9420100E94F1
:1036A000CD0C082F10E08DEE93E00E94EF0F6AE042
:1036B00070E0C8010E9474100E942010012B29F4B0
:1036C00081E0809347020E94530B109246021092B1
:1036D0004502F5C080911203882381F089ED93E0C3
:1036E0000E94EF0F6AE070E0809138030E94B510ED
:1036F0000E94201085E592E00E94C40981E0809339
:10370000480200912103109122030E94060E0E949C
:10371000270E809139031F928F93809138031F9257
:103720008F93809137031F928F93809136031F925E
:103730008F9385E092E09F938F9384E091E09F9335
:103740008F930E94762184E091E00E940A1080917C
:1037500013030FB6F894DEBF0FBECDBF873009F458
:10376000DAC0883009F4B2C034EF21E0112780912B
:1037700015031F928F938091140390E004969F93FA
:103780008F932F933F9380911E038F9380911D03FE
:103790008F9380911B03282F082E000C330B3F932F
:1037A0008F931F930F938BEB91E09F938F9374E014
:1037B000E72E71E0F72EFF92EF920E947621C7016B
:1037C0000E940A10809139031F928F9380913803D1
:1037D0001F928F93809137031F928F9380913603AE
:1037E0001F928F938AEE91E09F938F93FF92EF92B7
:1037F0000E947621C7010E940A1080911E038F93B8
:1038000080911D038F9380911B03282F082E000C9D
:10381000330B3F938F931F930F938BEF91E09F9305
:103820008F93FF92EF920E9476210FB6F894DEBF3D
:103830000FBECDBFC7010E940A10409115038091B1
:10384000140390E0049620911303273009F441C03B
:10385000283009F440C024EF31E01F924F939F932A
:103860008F933F932F9389EF91E09F938F9384E001
:1038700091E09F938F930E94762184E091E00E94D3
:103880000A108FEF0E946F108EEF0E946F1085E577
:1038900092E00E94C40964E0C62E61E0D62E0FB605
:1038A000F894DEBF0FBECDBFE12CF12CE016F1067F
:1038B000ACF0F801EC5FFE4F10820E94201085E50D
:1038C00092E00E94C40941C911E02EC93AEF20E0FC
:1038D0004DCF2DE701C02AEF30E0BFCFE0913B0391
:1038E000F0913C03EE0DFF1D80810E946F1054E6A5
:1038F000E516F1044CF4E0913B03F0913C03EE0D2E
:10390000FF1D8081D6018C93BFEFEB1AFB0AEFEF0E
:10391000CE1ADE0ACBCF3DE7DACF80E00E94C3109B
:10392000809327030C944B148CE10E94C31086FFF4
:1039300002C015FD05C01092290301E00C94721419
:1039400081E08093290300E013E00C94731485E078
:1039500081CE11E0809145029091460201969093AC
:10396000460280934502ECC80F931F93CF93DF93D9
:10397000E5E5F2E01382128288EE93E0A0E0B0E089
:1039800084839583A683B78381E791E091838083C5
:1039900085EC90E09587848784EC90E09787868714
:1039A00080EC90E0918B808B81EC90E0938B828B0C
:1039B00082EC90E0958B848B86EC90E0978B868BE5
:1039C000118E128E138E148EC2EFD2E08AE08B839A
:1039D00097E099A381E08AA39BA340E050EC64EEBA
:1039E00070E04CA35DA36EA37FA31AAA1CAA1BAE12
:1039F0009FE098A71EAA1FAA18AE92E19A831B8E79
:103A00001E8A8F8B188E89E08D8B1D8E1092470435
:103A10000E94F60A60934C0470934D0480934E0408
:103A200090934F0400EA1CE820E030E00093480443
:103A30001093490420934A0430934B04DC01CB01DA
:103A400080589141A94CBF4F8093500490935104EA
:103A5000A0935204B09353041F8E86E493E0909396
:103A600034038093330390933C0380933B0381E4BE
:103A700094E0909344038093430319AE88AD809300
:103A80003503E091680184E0E89FF0011124E158DA
:103A9000FE4F80819181A281B381809356049093DF
:103AA0005704A0935804B0935904DF91CF911F910C
:103AB0000F9108958F929F92AF92BF92CF92DF9213
:103AC000EF92FF92CF93DF93EC01688179818A8135
:103AD0009B81611571058105910521F464E279ED01
:103AE0008BE597E02DE133EF41E050E00E94381E76
:103AF00049015A019B01AC01A7EAB1E40E94571E9B
:103B00006B017C01ACEEB4EFA50194010E94651E2F
:103B1000DC01CB018C0D9D1DAE1DBF1DB7FF03C089
:103B20000197A109B04888839983AA83BB83BC010C
:103B3000CD019F77DF91CF91FF90EF90DF90CF90F5
:103B4000BF90AF909F908F9008958F929F92AF9269
:103B5000BF92CF92DF92EF92FF92609169017091D4
:103B60006A0180916B0190916C016115710581056D
:103B7000910521F464E279ED8BE597E02DE133EFD7
:103B800041E050E00E94381E49015A019B01AC01FE
:103B9000A7EAB1E40E94571E6B017C01ACEEB4EFC2
:103BA000A50194010E94651EDC01CB018C0D9D1DB9
:103BB000AE1DBF1DB7FF03C00197A109B048809398
:103BC000690190936A01A0936B01B0936C01BC01F1
:103BD000CD019F77FF90EF90DF90CF90BF90AF9097
:103BE0009F908F9008956093690170936A0180930C
:103BF0006B0190936C0108951F93FC01992788270E
:103C0000BC01E89411911032E9F3193010F01E3024
:103C1000C8F31B3251F01D3249F4689406C00E946B
:103C2000231E610F711D811D911D119110531A30BA
:103C3000B0F33EF490958095709561957F4F8F4FCE
:103C40009F4F1F910895592F482F372F262F660F0A
:103C5000771F881F991F660F771F881F991F620F94
:103C6000731F841F951F660F771F881F991F089564
:103C7000052E97FB1EF400940E944F1E57FD07D09F
:103C80000E946A1E07FC03D04EF40C944F1E509500
:103C90004095309521953F4F4F4F5F4F0895909538
:103CA0008095709561957F4F8F4F9F4F08950E942B
:103CB0008C1EA59F900DB49F900DA49F800D911D0B
:103CC00011240895B7FF0C94571E0E94571E821BA3
:103CD000930B0895A1E21A2EAA1BBB1BFD010DC078
:103CE000AA1FBB1FEE1FFF1FA217B307E407F507AC
:103CF00020F0A21BB30BE40BF50B661F771F881F88
:103D0000991F1A9469F760957095809590959B011D
:103D1000AC01BD01CF010895A29FB001B39FC001C6
:103D2000A39F700D811D1124911DB29F700D811DE7
:103D30001124911D08955058BB27AA270E94B31E35
:103D40000C945B200E944D2038F00E94542020F0FB
:103D500039F49F3F19F426F40C944A200EF4E095B0
:103D6000E7FB0C941B20E92F0E946C2058F3BA1734
:103D7000620773078407950720F079F4A6F50C9481
:103D8000A6200EF4E0950B2EBA2FA02D0B01B90141
:103D900090010C01CA01A0011124FF27591B99F0C1
:103DA000593F50F4503E68F11A16F040A22F232FCD
:103DB000342F4427585FF3CF469537952795A7951D
:103DC000F0405395C9F77EF41F16BA0B620B730BC4
:103DD000840BBAF09150A1F0FF0FBB1F661F771F35
:103DE000881FC2F70EC0BA0F621F731F841F48F4EA
:103DF000879577956795B795F7959E3F08F0B0CF73
:103E00009395880F08F09927EE0F97958795089559
:103E10000E948E2090F09F3748F4911116F40C9474
:103E2000A72060E070E080E89FE3089526F01B166D
:103E3000611D711D811D0C9421200C943C200E9459
:103E4000331F0C945B200E94542058F00E944D2098
:103E500040F029F45F3F29F00C941B2051110C9481
:103E6000A7200C944A200E946C2068F39923B1F398
:103E7000552391F3951B550BBB27AA276217730790
:103E8000840738F09F5F5F4F220F331F441FAA1F24
:103E9000A9F335D00E2E3AF0E0E832D091505040E0
:103EA000E695001CCAF72BD0FE2F29D0660F771F8E
:103EB000881FBB1F261737074807AB07B0E809F074
:103EC000BB0B802DBF01FF2793585F4F3AF09E3FF9
:103ED000510578F00C941B200C94A7205F3FE4F36D
:103EE000983ED4F3869577956795B795F7959F5F3C
:103EF000C9F7880F911D9695879597F90895E1E088
:103F0000660F771F881FBB1F621773078407BA07E6
:103F100020F0621B730B840BBA0BEE1F88F7E09541
:103F200008950E94981F6894B1110C94A7200895D9
:103F30000E94742088F09F5798F0B92F9927B751A5
:103F4000B0F0E1F0660F771F881F991F1AF0BA953D
:103F5000C9F714C0B13091F00E94A620B1E00895D5
:103F60000C94A620672F782F8827B85F39F0B93FC7
:103F7000CCF3869577956795B395D9F73EF49095F0
:103F80008095709561957F4F8F4F9F4F0895E8946E
:103F900009C097FB3EF490958095709561957F4F91
:103FA0008F4F9F4F9923A9F0F92F96E9BB2793953F
:103FB000F695879577956795B795F111F8CFFAF44F
:103FC000BB0F11F460FF1BC06F5F7F4F8F4F9F4F80
:103FD00016C0882311F096E911C0772321F09EE8DE
:103FE000872F762F05C0662371F096E8862F70E044
:103FF00060E02AF09A95660F771F881FDAF7880F1E
:104000009695879597F908950E948E2090F09F3796
:1040100048F4911116F00C94A72060E070E080E85D
:104020009FEB089526F41B16611D711D811D0C94D4
:1040300021200C943C2097F99F6780E870E060E0B5
:104040000895882371F4772321F09850872B762FD9
:1040500007C0662311F499270DC09051862B70E09C
:1040600060E02AF09A95660F771F881FDAF7880FAD
:104070009695879597F908959F3F31F0915020F4D8
:10408000879577956795B795880F911D9695879534
:1040900097F908959FEF80EC089500240A9416166E
:1040A000170618060906089500240A941216130626
:1040B000140605060895092E0394000C11F48823B4
:1040C00052F0BB0F40F4BF2B11F460FF04C06F5FD0
:1040D0007F4F8F4F9F4F089557FD9058440F551FA6
:1040E00059F05F3F71F04795880F97FB991F61F07A
:1040F0009F3F79F087950895121613061406551FF1
:10410000F2CF4695F1DF08C0161617061806991F5C
:10411000F1CF869571056105089408950E94742079
:10412000A0F0BEE7B91788F4BB279F3860F41616D5
:10413000B11D672F782F8827985FF7CF86957795E1
:104140006795B11D93959639C8F30895E894BB27F8
:1041500066277727CB0197F908950E941F2108F45D
:104160008FEF08950E94C5200C945B200E944D2083
:1041700038F00E94542020F0952311F00C941B205D
:104180000C944A2011240C94A7200E946C2070F3F8
:10419000959FC1F3950F50E0551F629FF001729FEC
:1041A000BB27F00DB11D639FAA27F00DB11DAA1FFB
:1041B000649F6627B00DA11D661F829F2227B00D48
:1041C000A11D621F739FB00DA11D621F839FA00DD3
:1041D000611D221F749F3327A00D611D231F849F23
:1041E000600D211D822F762F6A2F11249F5750407A
:1041F0009AF0F1F088234AF0EE0FFF1FBB1F661FF5
:10420000771F881F91505040A9F79E3F510580F0BD
:104210000C941B200C94A7205F3FE4F3983ED4F34A
:10422000869577956795B795F795E7959F5FC1F761
:10423000FE2B880F911D9695879597F90895990FF4
:104240000008550FAA0BE0E8FEEF16161706E80760
:10425000F907C0F012161306E407F50798F0621B81
:10426000730B840B950B39F40A2661F0232B242B56
:10427000252B21F408950A2609F4A140A6958FEF75
:10428000811D811D089597FB072E16F4009407D019
:1042900077FD09D00E945D2107FC05D03EF4909582
:1042A00081959F4F0895709561957F4F0895EE0F0A
:1042B000FF1F0590F491E02D0994AA1BBB1B51E14F
:1042C00007C0AA1FBB1FA617B70710F0A61BB70B86
:1042D000881F991F5A95A9F780959095BC01CD012B
:1042E000089581E090E0F8940C946024AEE0B0E092
:1042F000ECE7F1E20C9437240D891E8986E08C836B
:104300001A8309838FEF9FE79E838D83AE01475EFB
:104310005F4F6F89788DCE0101960E949821EF81C1
:10432000F885E00FF11F10822E96E4E00C945324E0
:10433000ABE0B0E0EEE9F1E20C9429246C017B01E2
:104340008A01FC0117821682838181FFCCC1CE01D4
:1043500001963C01F6019381F70193FD859193FF4E
:1043600081917F01882309F4BAC1853239F493FD24
:10437000859193FF81917F01853229F4B60190E008
:104380000E948F23E7CF912C212C312CFFE1F315D4
:10439000D8F08B3279F038F4803279F08332A1F49E
:1043A000232D20611DC08D3261F0803369F4232DEF
:1043B000216016C0832D8260382EE32DE4603E2EEE
:1043C0002AC0F32DF8601DC037FC2DC020ED280F4A
:1043D0002A3040F08E32B9F436FC81C1232D20649E
:1043E000322E19C036FE06C08AE0989E200D112498
:1043F000922E11C0EAE02E9E200D1124222EF32DC4
:10440000F0623F2E08C08C3621F4832D8068382E50
:1044100002C0883641F4F70193FD859193FF8191A5
:104420007F018111B3CF982F9F7D9554933028F44D
:104430000C5F1F4F9FE399830DC0833631F08337A4
:1044400071F0833509F059C021C0F801808189835A
:104450000E5F1F4F88248394912C530113C02801B1
:10446000F2E04F0E511CF801A080B18036FE03C06F
:10447000692D70E002C06FEF7FEFC5010E948423B9
:104480004C018201F32DFF773F2E16C0280122E058
:10449000420E511CF801A080B18036FE03C0692D88
:1044A00070E002C06FEF7FEFC5010E9479234C01DD
:1044B000F32DF0683F2E820133FC1BC0822D90E06B
:1044C00088169906B0F4B60180E290E00E948F232E
:1044D0002A94F4CFF50137FC859137FE81915F0175
:1044E000B60190E00E948F2321102A9421E0821AC5
:1044F00091088114910471F7E8C0843611F089366F
:1045000041F5F80137FE07C0608171818281938196
:104510000C5F1F4F08C060817181072E000C880B53
:10452000990B0E5F1F4FF32DFF763F2E97FF09C0AB
:1045300090958095709561957F4F8F4F9F4FF06854
:104540003F2E2AE030E0A3010E94CB23882E86185C
:1045500045C0853731F4232D2F7EB22E2AE030E07E
:1045600025C0932D997FB92E8F36C1F018F4883568
:1045700079F0B5C0803719F0883721F0B0C0E92F45
:10458000E061BE2EB4FE0DC0FB2DF460BF2E09C04D
:1045900034FE0AC0292F2660B22E06C028E030E083
:1045A00005C020E130E002C020E132E0F801B7FEB2
:1045B00007C060817181828193810C5F1F4F06C0AB
:1045C0006081718180E090E00E5F1F4FA3010E9427
:1045D000CB23882E8618FB2DFF773F2E36FE0DC08D
:1045E000232D2E7FA22E891458F434FE0BC032FCEA
:1045F00009C0832D8E7EA82E05C0B82CA32C03C025
:10460000B82C01C0B92CA4FE0FC0FE01E80DF11DAD
:104610008081803321F49A2D997EA92E09C0A2FEB3
:1046200006C0B394B39404C08A2D867809F0B3947D
:10463000A3FC11C0A0FE06C0B21488F4280C922C72
:104640009B180EC0B21460F4B60180E290E00E94A4
:104650008F23B394F7CFB21418F42B1802C0982C00
:10466000212CA4FE10C0B60180E390E00E948F23AD
:10467000A2FE17C0A1FC03C088E790E002C088E555
:1046800090E0B6010CC08A2D867859F0A1FE02C0D8
:104690008BE201C080E2A7FC8DE2B60190E00E94AF
:1046A0008F23891438F4B60180E390E00E948F23B1
:1046B0009A94F7CF8A94F301E80DF11D8081B60139
:1046C00090E00E948F238110F5CF222009F442CE82
:1046D000B60180E290E00E948F232A94F6CFF60183
:1046E0008681978102C08FEF9FEF2B96E2E10C94B9
:1046F0004524FC010590615070400110D8F7809569
:1047000090958E0F9F1F0895FC016150704001909D
:104710000110D8F7809590958E0F9F1F08950F93E5
:104720001F93CF93DF93FB01238121FD03C08FEF04
:104730009FEF2CC022FF16C046815781248135810E
:104740004217530744F4A081B1819D012F5F3F4F71
:10475000318320838C93268137812F5F3F4F3783AE
:10476000268314C08B01EC01FB010084F185E02D50
:104770000995892BE1F6D80116968D919C91179792
:10478000019617969C938E931697CE01DF91CF9149
:104790001F910F910895FA01AA27283051F1203175
:1047A00081F1E8946F936E7F6E5F7F4F8F4F9F4FC5
:1047B000AF4FB1E03ED0B4E03CD0670F781F891F07
:1047C0009A1FA11D680F791F8A1F911DA11D6A0FD5
:1047D000711D811D911DA11D20D009F468943F9188
:1047E0002AE0269F11243019305D3193DEF6CF0187
:1047F0000895462F4770405D4193B3E00FD0C9F74D
:10480000F6CF462F4F70405D4A3318F0495D31FDB9
:104810004052419302D0A9F7EACFB4E0A69597950C
:10482000879577956795BA95C9F7009761057105E2
:1048300008959B01AC010A2E06945795479537952C
:104840002795BA95C9F7620F731F841F951FA01D86
:1048500008952F923F924F925F926F927F928F9224
:104860009F92AF92BF92CF92DF92EF92FF920F93FF
:104870001F93CF93DF93CDB7DEB7CA1BDB0B0FB609
:10488000F894DEBF0FBECDBF09942A8839884888C6
:104890005F846E847D848C849B84AA84B984C8845C
:1048A000DF80EE80FD800C811B81AA81B981CE0F53
:1048B000D11D0FB6F894DEBF0FBECDBFED01089538
:0448C000F894FFCF9A
:1048C400127803012A2A2A2A2A2A2A2A2A2A2A2A5E
:1048D4002A2A2A2A0000000000000000000000002C
:1048E40000000000000000000000000000000000C4
:1048F40000000000000000000000000000000000B4
:1049040000000000000000000000000000000000A3
:104914000000000000000000000000000000000093
:10492400000000000000000006010000000000007C
:10493400007709E0080E09C4093F091D093109CCB3
:10494400CCD70000E0D70033F3D7006606D800992F
:1049540019D800CC2CD800CC4CD8000060D8003337
:1049640073D8006686D8009999D800CCACD80000DA
:10497400C0D8000000D9006606D900206C656E3DE1
:10498400256420534E523D25642052535349706B85
:10499400743D25642042573D25642043523D342F05
:1049A40025642053463D25640A005E7025642C2549
:1049B400642C25642C25642C005E7225642C2564EB
:1049C4002C25640A002D2D2D2072786C6F72612EB7
:1049D400206473743D256420747970653D307825B6
:1049E400303258207372633D2564207365713D2510
:0C49F40064002A2A2A2A2A2A000D0A0040
:00000001FF
