:020000040020DA
:10200000C07400208D22200007C7200005C72000D3
:1020100005C7200005C7200005C7200000000000FC
:10202000000000000000000000000000F7D92000C0
:1020300005C720000000000015DA200069C7200055
:102040007BC7200081C7200087C720008DC72000E4
:10205000000000006FC7200075C7200005C72000E2
:1020600005C7200000000000000000000000000084
:10207000000000000000000005C720000000000074
:10208000000000000000000005C7200005C7200078
:1020900005C7200005C7200005C7200005C7200090
:1020A00005C7200005C7200005C7200005C7200080
:1020B00005C7200005C7200005C7200005C7200070
:1020C00005C7200005C7200005C7200005C7200060
:1020D00005C7200000000000000000000000000014
:1020E00000000000000000000000000000000000F0
:1020F0000000000000000000553820006538200076
:1021000000000000000000000000000000000000CF
:1021100000000000000000000000000000000000BF
:1021200000000000000000000000000000000000AF
:10213000000000000000000000000000000000009F
:10214000000000000000000000000000000000008F
:10215000000000000000000000000000000000007F
:10216000000000000000000000000000000000006F
:10217000000000000000000000000000000000005F
:10218000000000000000000000000000000000004F
:10219000000000000000000000000000000000003F
:1021A000000000000000000000000000000000002F
:1021B000000000000000000000000000000000001F
:1021C000000000000000000000000000000000000F
:1021D00000000000000000000000000000000000FF
:1021E00000000000000000000000000000000000EF
:1021F00000000000000000000000000000000000DF
:1022000000000000000000000000000000000000CE
:1022100000000000000000000000000000000000BE
:1022200000000000000000000000000000000000AE
:10223000000000000000000000000000000000009E
:10224000000000000000000000000000000000008E
:10225000000000000000000000000000000000007E
:10226000000000000000000000000000000000006E
:1022700005C72000393720005D372000D92D200008
:10228000D5392000F928200005C7200008B5094BE2
:10229000FF221A600848094A4824E369121A0849CB
:1022A00098470848084AA369121A0021984700F085
:1022B0000DF8FEE7B4200D40404000202E420020E3
:1022C000F4E6200030420020C06C0020F7B500F09A
:1022D00063FC00F01DFD00F079FC00F06DFA01F0E8
:1022E00067FB0AF00CFB00F00BFD00F0C7F80120C3
:1022F0000AF00CFA02F084F900F03AFC002000F039
:1023000055FB012000F052FB4849002000F01AFC68
:1023100002F0BCFA62B604200AF0F8F944480AF068
:1023200059FA44480AF056FA00F0E8F9002002F0A1
:102330005BFB01F027FA00213F4802F0EDF901F0C4
:102340007DFF0AF00FFA00F06BFD00F087FD08F04A
:1023500085FC0821684601F051FB9DF807309DF887
:102360000670364C43EA07276B4603CB206061605A
:10237000334801F07DFB0025615D3248013501F0F5
:1023800077FB072D2D4EF7D12F4DF1792F4801F016
:102390006FFBEC6A4AF6CD310220A0473946032094
:1023A000A0471A210120A047694608226B6B0B2029
:1023B0009847274801F05CFB264B18680AF00AFA98
:1023C000254801F055FB254B18680AF003FA24480C
:1023D00001F04EFB234B18680AF0FCF9224A3368DF
:1023E00013607368536008F05BF900211F4802F026
:1023F00093F900211E4802F08FF91E4B01219B68C2
:10240000812098470AF04AFA1B480AF03DFA00F08A
:10241000B5FB02200AF07AF900F0B6FB02F008F9E9
:1024200010F0FF0FF8D101F057FAF5E74948200006
:10243000E0E22000FCE2200078400020B86C0020A0
:1024400021E320003FE32000F4E0200045E32000EA
:102450004BE320004CE1200052E3200058E1200033
:1024600059E3200080E120009C62002024410020EC
:10247000984000200CE02000B0E1200008B500F0FA
:10248000DDF8024B00221A7008BD00BFBE590020C3
:10249000024A13781843107000F0F4B8BE590020B7
:1024A000034A137823EA0000107000F0EBB800BF75
:1024B000BE59002020B1012805D1044B187870477F
:1024C000034B186870470020704700BFBF590020B9
:1024D00020900D4010B5094A002013780133137085
:1024E000074B197802F0F0F8BDE8104005490023C9
:1024F000054A0968054801F0D7BE00BFBF59002052
:10250000AE6C002068420020D5242000404200200C
:10251000812808B52AD0B0F5807F39D0802839D1FC
:1025200002F060F81C4B1D4A18701368032123F059
:102530000803136052F8203C002023F0080342F8FF
:10254000203C52F81C3C23F0080342F81C3C52F893
:10255000183C43F0080342F8183C042200F0E6FB64
:10256000032200210E4800F083FB13E00D4B0E48C0
:102570001A6829B142F008021A600123036005E0DD
:1025800022F008021A600123C0F88030084608BD16
:10259000064B1960012008BDAE6C002020940D4050
:1025A000B125200010940D4000E100E068420020B9
:1025B00008B50F480AF0B7F9C8B108210C480AF06D
:1025C000A0F90C4B196869B10B4B00221A700B4B28
:1025D0001B6823B90A4A0B4801F066FE02E009486D
:1025E00001F0A4FEBDE80840074802F0CFB908BDDD
:1025F0006042002068420020BF59002020900D401A
:10260000D5242000404200200CE02000084A136836
:1026100023F00403136052F8203C43F0040342F813
:10262000203C044B00221A60034B01221A707047B1
:1026300020C40D4010C00D40C05900200D4A0E4965
:10264000136823F0C003136052F8203C43F0C0032A
:1026500042F8203C094B00221A600B6823F010035B
:102660000B6051F8203C43F0100341F8203C044B30
:102670001A60704720A40D4020C40D4000A30D40F7
:1026800040C00D4000F0020202F0FF010B4B12B1FE
:10269000FF221A6000E0196000F0040202F0FF015E
:1026A000074B12B1FF221A6000E0196010F0010020
:1026B000044B1ABFFF221A601860704700A20D4039
:1026C00000A10D4040C00D40044B1868C0F3072026
:1026D000030904BF1030C0B2704700BF1C300D406A
:1026E000054B1868C0F3C21001289ABFC0F1020060
:1026F00040034FF40040704714300D402DE9F0477F
:1027000088B0FFF7E1FF174B48251C68AB68074608
:1027100098476B68804698470546FFF7E1FF0646F5
:1027200000F08EFA814600F097FA824600F044FAF3
:10273000B60A04F00103AD0AC4F340040690039303
:10274000CDF814A0CDF8109002940196009507F0F2
:102750000F03C7F307124146034801F089F908B097
:10276000BDE8F0871C300D4067E32000F8B500F0AD
:1027700081F80F4B0024D3E900673A46B04238BFD6
:102780007A1C15460443C3E90045DFF828E0DEE97A
:102790000001821B61EB070312196B41CEE9002394
:1027A00001F078FE18B1BDE8F84001F0F7BDF8BDC2
:1027B00030420020384200200D4B0E4AE0215A6082
:1027C0000D4A82F82310002207219A6019600B49F4
:1027D0000B6843F001030B60094B1A60042243F8B5
:1027E0000C2C012243F8082C0F22DA62704700BF3C
:1027F00010E000E047E8010000ED00E008200D4097
:102800000C000340034BD3E90023100A40EA0360A5
:10281000704700BF30420020034BD3E90023D00BA8
:1028200040EA4340704700BF38420020054B186023
:102830001C3B1A6842F001021A601A68D207FCD4E5
:10284000704700BF2800034010B5064C236823F0F2
:1028500001032360FFF78AFF236843F0010323602D
:1028600010BD00BF10E000E0014B1868704700BFCA
:102870006C420020074B084A196804331B68126831
:10288000120442EA0323054A0B43106843EA00603E
:10289000704700BF40500D4048500D404C500D4017
:1028A00010B50446104A1368DB07FCD572B6FFF773
:1028B000E1FF231A062BD8BFC41D0C4B220E1A6051
:1028C000C4F3074243F8042CC4F3072243F8082C4E
:1028D000E2B243F80C2C62B6054B4FF400321C6098
:1028E000044B1A6110BD00BF50500D404C500D40BC
:1028F0006C42002000E100E008B500F0D1FF074B7A
:1029000000221A60064B4FF40032C3F89021C3F83E
:102910009020BDE8084001F035BF00BF6C420020A8
:1029200000E100E0064B1B681B075FBF054B186802
:1029300080F00800C0F3C00048BF0020704700BF0F
:1029400018C0004018D00040164A2C2303FB002377
:102950004FF6BF7270B5DC680546236C62649BB2AB
:1029600013F050020DD0104EA369DB0608D456F8C0
:1029700025301BB12068C0B29847F5E72368F3E71C
:1029800070BD13F4D06F0BD04FF440732363FF235B
:102990006360E36AE262E362236B43F00103236353
:1029A00070BD00BF1CE020007042002001282DE90E
:1029B000F74F064600F2B6802C2545435B4F7C1945
:1029C00094F92080B8F1000FC0F2AC8094F9229005
:1029D000B9F1000FC0F2A680554800F0D7FF554A64
:1029E0007B591168E5680B4313605168636894F97B
:1029F00021A00B4353609168A3685FFA89FB0B43E6
:102A000093600023C5F8C83F23690AEBC8021A6027
:102A100094F92330227D00939DF8003058461946E2
:102A2000019300F08DF9019B08221946584600F0E9
:102A30007DF9414A4FEA0939009959F8020001230A
:102A400003FA01F1014349F802104FEA083858F837
:102A5000020003FA0AF1014348F802105021A96369
:102A6000A96B94F9240041F4D061A9630221696340
:102A70004FF440712963A16900286962E169A96284
:102A80004FF07001E962154616DB94F92510A2F5A6
:102A9000A64241EAC0041C3A1460040362598B4008
:102AA000134363510022C9B2C0B200F03FF9234A78
:102AB000136843F4004313602C2303FB067393F95C
:102AC0002640002C1BDB93F927A05FFA84F85FFAFD
:102AD0008AF9012249464046240300F031F962593F
:102AE000012303FA0AF3134363510822494640467F
:102AF00000F01CF9114A136843F4804313602C233F
:102B000003FB0676F268136B43F00103136396F838
:102B100028300122590903F01F0302FA03F3084A7F
:102B200042F8213003B0BDE8F08F00BF1CE0200068
:102B30002529200028200D4020940D4030D0004051
:102B400000E100E001289CBF014B43F820107047D2
:102B500070420020012808D8044B2C2202FB0030D0
:102B6000C3689A699206FCD4196070471CE0200083
:102B7000014B00221A60704700500D40014B0822A3
:102B80001A60704700500D40024BA0221A6050227C
:102B90001A60704700500D40014B024A9A6070471E
:102BA00000ED00E000202000024B1868C0F38150C7
:102BB000704700BF04200D4008B5FFF7F5FF024B3A
:102BC00053F8200008BD00BF74E0200038B5164D52
:102BD000164C2B68012223F040032B60236806214A
:102BE00023F040032360032000F0A0F82B680122AB
:102BF00023F080032B602368072123F080032360E8
:102C0000032000F093F80A4A0A4B0B491A600A683D
:102C10000A4B1340084A002BF9D113685901FCD420
:102C200013685B01FCD538BD20C40D4000C40D40C5
:102C30000101020000200D4004200D4000000101B0
:102C4000034B04481B6803F007031841704700BF9B
:102C500004200D400048E801034B04481B68C3F3FF
:102C600002231841704700BF04200D400048E801CE
:102C7000024B02EBC10243F8220070477842002069
:102C8000F8B507460E46094D002405EB411547FAF5
:102C900004F3DB07E1B204D555F824300BB130461C
:102CA00098470134082CF2D1F8BD00BF78420020CB
:102CB0002DE9F04780464FEA0837DFF8409007F1EA
:102CC000804505F5592500F0EBFDD5F8186457F857
:102CD00009304FEAC80A23FA0AF446EA0400E4B2CB
:102CE0004146C0B2F6B204FA0AF4FFF7C9FFC5F8CC
:102CF0001C6447F80940BDE8F08700BF18970D40F5
:102D000080220021014809F075BA00BF78420020F6
:102D1000034A044B1A60044B803A1A60704700BFA4
:102D200080400D40FC420020F8420020034B01EBA4
:102D3000C0011B6843F82120704700BFFC420020FF
:102D4000034B01EBC0011B6843F82120704700BF13
:102D5000F84200200E2870B50BD1154B154E1C689B
:102D600044F002051D60356825F03F0343F0010380
:102D70003360114E336823F0FF031A4311430143BC
:102D80000E4A316013681B06FCD50D4B0D4A1B68BB
:102D900012680E2803F0FC0343EA022308BF054A29
:102DA0001BB204BF1560024A184608BF146070BD0C
:102DB00034000144F486084008700D4000700D4056
:102DC0000C700D4010700D40024B1868B0FA80F086
:102DD0004009704700B7084010B5074B4FF4004258
:102DE000064CC3F89021C3F89020206818B101F078
:102DF000ABFC0023236010BD00E100E00043002095
:102E0000064A136843F002031360536843F0020359
:102E10005360936843F002039360704748200D406D
:102E200007B50C4800F0B2FDFFF7EAFF0A4B1A683D
:102E300042F002021A6000220192019A0F2A02DC7B
:102E4000019A0132F8E71A6822F002021A6003B010
:102E50005DF804FBC92D200054200D40064A13687C
:102E600023F002031360536823F002035360936856
:102E700023F002039360704748200D40084B93F9FC
:102E80000020002A09DB074AED2111601160E321CF
:102E900011601A7862F07F021A700120704700BF3B
:102EA000C4590020388808400C4A13689907FCD49C
:102EB0000A4B1B685B065FBF094BED221A601A6064
:102EC000084B1B6813B1064BEF221A60064A01201B
:102ED000137803F07F031370704700BF4C860840DF
:102EE000388808402C860840C459002038B5A0F125
:102EF0000B04E3B20F2B054613D80B4B1B6813F0E2
:102F00003F0302D0FFF7D0FF012304EB8404074AFC
:102F10000B3414600BB1FFF7B1FF054B68B21D70A5
:102F200038BD4FF0FF3038BD488608403C86084029
:102F30002B42002010B50B4B1B68990603D1FFF7FD
:102F40009DFF012300E0002307490A68D207FCD552
:102F5000064A1468C4F300140BB1FFF7A5FF20461E
:102F600010BD00BF48860840648608404C86084073
:102F7000044B186800F02200A0F120035842584189
:102F8000704700BF4C860840024B186800F04000B4
:102F9000704700BF4C86084038B50C46002900F049
:102FA0008880102800F28780DFE800F0090F1A1CE3
:102FB00023394254596F738585787A7C7F003F4B63
:102FC0001B68003318BF012370E03D4B05221B68CE
:102FD00003F07F030B3B93FBF2F30B33DBB265E0B3
:102FE000384B00E0384B1A68043B1B6843EA022365
:102FF0005CE000230B60354B354A1B6803F001038E
:103000000B601268900644BF43F002030B60314B23
:103010001B78002B4BD00B6843F0040346E02E4B8B
:1030200000201B780860002B41D001230B6038BDC5
:103030002A4B2B491A680023D2B201EBC300007956
:10304000904203D8264A52F833302FE001330E2B3A
:10305000F3D127E0234B1B685BB2493B26E0224BB0
:103060001B68990603D1FFF709FF012300E0002345
:103070001E490A68D207FCD51D4A1568493D6DB244
:103080000BB1FFF711FF256011E01A4B93F90030E7
:103090000CE0194B1B7803F07F0307E00B2305E0DE
:1030A0001A2303E06FF0170300E0072323600020DA
:1030B00038BD022038BD012038BD00BF2C86084035
:1030C0003C860840CC850840D485084000860840EE
:1030D00024860840C35900202A4200204086084028
:1030E00084E02000588608404886084064860840EE
:1030F00060860840C2590020C159002038B50546F5
:103100000C46134A13689B07FCD4124B93F900300A
:10311000002B01DBFFF7B2FE0F4BEE221A60691E97
:103120001A60A21C43F8102C2144022000F044FB3A
:10313000013C0A4924012143022000F04FFB0220F8
:1031400000F056FB022000F06BFB002038BD00BFF2
:103150004C860840C45900203888084002C001C08D
:10316000F8B5214B93F90030002B0DDBFFF782FB04
:103170000546FFF783FE6FF00904641BFFF77AFB37
:10318000C442FBD4012600E00026184B1B7823B96B
:10319000174D2B68990604D405E0FFF7CBFE0028F5
:1031A000F6D10220F8BD134CE923236004272B68D5
:1031B0009A0707D4013F17F0FF0703D00620FFF757
:1031C00035FBF4E72B689B0704D4EE2323602360D0
:1031D000012403E02C6814F00204FBD10EB1FFF7C8
:1031E00063FE2046F8BD00BFC45900202A420020DB
:1031F0004C86084038880840214B1870002834D08D
:10320000204A13681B03FCD51F4B1A6842F00202C8
:103210001A601A6842F001021A601A681A495007C7
:10322000FBD50A6822F001020A601968164A4907AC
:10323000FBD4116841F002011160116841F00101F5
:1032400011601A685207FCD5104A136823F0040372
:103250001360D2F8A83123F00403C2F8A8310C4B54
:103260004FF40052C3F890207047084A136843F0A7
:1032700004031360064B4FF400521A61704700BFFD
:10328000C359002004200D40048808408C86084063
:1032900000E100E010B50C46072861D8DFE800F037
:1032A000040E181C233F455B012902D1FFF7E6FD00
:1032B0004BE0002958D1FFF7F7FD46E0A1F10B03E1
:1032C0000F2B51D8C8B2FFF711FE01303DD149E0B4
:1032D0008CB2E2B2254B02E08CB2254BE2B2240A5A
:1032E0001A605C6031E031F007033DD1214B11F0F1
:1032F000010F1A68C1F3800014BF42F0010222F0EE
:1033000001021A601C4B11F0020F1A6814BF42F040
:10331000200222F020021A60FFF76EFF15E031F064
:10332000010021D1154B197010BD01F118031F2B9D
:103330001AD813490D2351F83300DA00844206DC11
:103340000F4B13441A790F4B1A60002010BD13F174
:10335000FF33F0D2F9E7CCB20B4B49341C60F4E7F1
:10336000012010BD032010BD022010BDC8850840FB
:10337000D085084000860840248608402A42002064
:1033800084E0200040860840588608400B280DD174
:10339000082A0DD161B1074B074A083111F8010D18
:1033A00043F8040F9342F9D1002070470120704781
:1033B00002207047A4850840C485084070B52F4D91
:1033C0002B6813F0400308D02D4E3368DCB21B0687
:1033D00005D52C4BED221A601A60002070BD042C1C
:1033E000F7D9023C8C42F4DCE4B2032C21D0011961
:1033F0000139032000F0E8F9631E23491B0119433A
:10340000032000F0EBF9032000F0F2F9032000F0B4
:1034100007FA032000F010FA0028FAD131681B4B9C
:10342000493949B219703368194E18063370D0D52E
:1034300006E0336803703368437033688370EDE7E8
:1034400089B2042007F0E0FB3178032001F07F010E
:1034500007F0DAFB0F4B1B7873B92B685A060BD5B4
:10346000064B1B681B0603D50B4801F06DF903E002
:10347000044BED221A601A60204670BD4C8608404D
:10348000288808403888084002C0010CC259002032
:10349000C1590020C359002050400020F8B5294FE1
:1034A0003D7815F001054BD1274B01241C605C6071
:1034B0009C60A3F59323A3F51473F8221A600922E4
:1034C000C3F89021152270331A6003F59B230B2259
:1034D00003F59E731A60A3F59B23A3F5F0734022B6
:1034E0001A601A687F2642F020021A60D52243F83B
:1034F0001C5CDE62DA61154B1878FFF7F7FC144BA1
:103500004FF480421E60134B02201A6100F07CF9D8
:103510001149022000F058F9032000F075F90E4916
:10352000032000F049F90D4B1878FFF765FE294696
:103530000B4801F0F1F83B78204623433B70F8BD7F
:103540000020F8BDC4590020A8200D402B420020C7
:103550009486084000E100E028880840C359002014
:103560005040002038B503880446CBB140F20342F6
:10357000934203D000230380032038BD194B1878F1
:103580001A4628B11B7873B1174B1B7858060AD519
:10359000822908D1137843B1134B1A78520614D4F8
:1035A00040F203432380012038BD07F0D3FA07F02F
:1035B00067FA8021FFF702FF0028EDDD80B207F0F7
:1035C00043FA0A4B1B699847E6E700221A70084B3A
:1035D0001D68FFF769FCFFF761FFAB06E0D0FFF75E
:1035E0004DFCDDE7C3590020C459002080E12000D4
:1035F000488608400B282DE9F84F0E4610D1082ABE
:1036000040F0828000297FD0414B424A4E1E53F841
:10361000041D934206F8011FF9D10020BDE8F88F80
:103620000C286ED1042A6FD100296DD03A4B3B484B
:103630001A68DFF8F8C022F007021A600268DFF8A3
:10364000F0A042F008020260DAF80040DCF8001056
:103650001A68DFF8E0E022F07002314F1A60DEF8FD
:1036600000203D68E4B2090244EA056401F47F41A8
:103670001204214302F47F020A432A490024D1F8AC
:1036800000805FFA88F544EA02081A68A94622F029
:10369000070242F001021A60026842F0080202606A
:1036A000DAF80000DCF800201D68C0B225F07005D3
:1036B00045F010051D60DEF800303D68120240EA5A
:1036C000056002F47F421B04024303F47F031343AB
:1036D0000A6844EA030A5FFA82FBFFF7CBF8B8EB0B
:1036E0000A0869EB0B094FEAC93105460E4A002367
:1036F0004FEAC83041EA584108F0E0FA281A306031
:103700008BE70120BDE8F88F0220BDE8F88F00BFED
:10371000C8850840A88508401088084004880840EB
:10372000208808401C8808400048E80118880840A4
:10373000148808402488084008B5054B1B7813B945
:10374000044801F001F8044B00221A6008BD00BFD4
:10375000C35900205040002034880840064B0748D9
:103760001A68042A1FBF06490A7842F040020A700C
:1037700000221A6000F0E8BF2C880840504000206A
:10378000C459002010B5094C40220021204608F001
:1037900031FD074B01221A605C60064B4FF48042FA
:1037A0005A604FF400425A6010BD00BF0040002034
:1037B00004F00F4000E100E003289EBF014B000130
:1037C000195070470040002003289EBF024B03EBB6
:1037D00000104160704700BF0040002003289EBFDA
:1037E000024B03EB00108160704700BF00400020D7
:1037F000032806D8034901220B6802FA00F0184397
:103800000860704728F00F40032806D803490122BA
:103810000B6802FA00F018430860704720F00F4070
:10382000032806D8034901220B6802FA00F0184366
:103830000860704714F00F4003289FBF044B03EB50
:103840000010806800F0070088BF0020704700BFAC
:1038500000400020024B4FF0FF321A60704700BF5B
:1038600004F50F40014B01221A6070474CF00F40E5
:10387000094A1368084913F4801FFAD1074B1A68E4
:1038800022F480321A600A68D203FCD41A6842F427
:1038900000321A60704700BF04200D4000200D4028
:1038A00010B50B4B1A681C4612F0030F0ED00949D5
:1038B0000B68084A13F0806FFAD113685B01FCD5DE
:1038C000FEF7C2FFFFF7D4FF0023236010BD00BF47
:1038D00058200D4004200D4038B5264B1C6814F0CC
:1038E0003F0413D1244D55F8243023B1984768B1D3
:1038F0000134052CF7D1214D2B783BB1FEF7B4FFF5
:103900000446FEF7B7FF201A092801D830BF38BD9A
:10391000002CFBD01A4B1B481A6822F400321A60A4
:103920000268184912F4801FFAD11A6842F48032F2
:103930001A600B68DB03FCD5FEF79CFF201A0928F0
:1039400003D8BDE83840FFF793BF63280E4C02D977
:103950002B78022B00D00123236000F0ABFE20B1B6
:10396000FFF786FF0023236038BDFEF77DFF0028A8
:10397000CCD1F5E74886084004430020C559002013
:1039800000200D4004200D4058200D400749002321
:1039900051F82320824207D01AB9044A42F8230082
:1039A00070470133052BF3D1704700BF044300205B
:1039B000054B00221A60054A136943F004031361A2
:1039C000034B02221A70704758200D4000ED00E0B2
:1039D000C559002010B5074B4FF48032064CC3F890
:1039E0009021C3F89020206818B100F0ADFE0023AC
:1039F000236010BD00E100E01843002030B5184BF3
:103A00001A78431E22B101F520112731154A1FE013
:103A1000154A1278122AF6D1144A12784B2AF2D19A
:103A20004A0802F12814B4F1281F04D014F8015DEB
:103A300003F8015FF7E701F5201127310023104457
:103A4000934204DA11F80149C4540133F8E730BD58
:103A5000914204D011F8010903F8010FF8E730BDD5
:103A60002B002800270028002A0028002900280011
:103A70000FB407B504AA52F8041B0448019200F0E1
:103A800039F803B05DF804EB04B0704760400020E3
:103A90000EB43FB5094B07AA52F8041B01900493DA
:103AA00004A801AB0392059300F024F8019B0022C7
:103AB0001A7006B05DF804EB03B0704773C82000BD
:103AC00070B505460C46102C07D92B681022084902
:103AD0006868984750B9103CF5E734B12B68224626
:103AE00068680349BDE870401847204670BD00BFB4
:103AF00087E420002DE9F04F064615468FB0069169
:103B00004FF0000B069B1B78CBB1069C274617F89D
:103B1000013B1BB1252B14D03C46F7E7069BA34283
:103B20000DD0069B0699C3EB0408424633687068C3
:103B30009847002840F01F832378C34423B9584690
:103B400034E3069BA342ECD16378002BF7D03946CF
:103B50000024084610F8013B0A462B2B11D006D84A
:103B6000202B11D0232B12D144F0080416E02D2B6A
:103B700004D0302B0BD144F010040FE044F00104CA
:103B80000CE044F0060409E044F0020406E0A3F16E
:103B90003107082F11D84FF0000801E00146D8E79F
:103BA0000A4611F8013BA3F13000092813D80A2274
:103BB00002FB0838A8F13008F2E72A2B09D12B685C
:103BC0000246002B05F10405B8BF44F001049846F5
:103BD00001E04FF0000813782E2B1AD15178531CB6
:103BE000A1F1300009280ED8194600270A780B46A3
:103BF000A2F13000092801F101010DD80A2303FBCD
:103C00000727303FF2E72A2904D12F68931C043597
:103C100002E013464FF0FF371A786C2A09D15A7820
:103C20006C2A02D144F080040AE0013344F06004BD
:103C30000BE0682A09D15A78682A03D144F020049D
:103C4000023302E0013344F040041A78642A3CD085
:103C50001FD8462A48D00DD8252A5AD003D8002A82
:103C60003FF46DAF57E0412A4AD0452A53D144F47E
:103C7000424450E0582A31D004D8472A4BD144F46A
:103C8000A13448E0612A38D0632A44D144F4A064C6
:103C900041E06E2A3AD007D8662A22D027D3672A75
:103CA00028D0692A11D036E0732A2CD006D86F2A82
:103CB00011D0702A2FD144F440742CE0752A07D01B
:103CC000782A28D144F4C85425E044F4245422E04E
:103CD00044F410641FE044F488541CE044F4B244FB
:103CE00019E044F4007416E044F4844413E044F40E
:103CF000024410E044F481340DE044F4C1340AE09D
:103D000044F4E13407E044F4806404E044F4E06403
:103D100001E044F4C0640133069304F4E063B3F5B6
:103D2000806F00F08F8113D8B3F5807F27D0B3F573
:103D3000407F7FF4E7AEAE4B14F4804FAD4A18BF1E
:103D40001A460DF133032868002104351F46B5E1FA
:103D5000B3F5C06F08D0B3F5E06F00F02282B3F581
:103D6000A06F7FF4CFAEF2E133680122A249706800
:103D70009847002840F0FF810BF1010BC2E6002FAD
:103D8000ACBF24F01004012714F40053079304F08F
:103D9000E0032ED0402B12D005D8ABB1202B21D17F
:103DA00095F900200DE0602B0ED0802B1AD107353D
:103DB00025F0070303F10805D3E9002307E0B5F96F
:103DC0000020D317043502E02A680435D317002AEF
:103DD00073F1000108DA524263EB4303CDE900239B
:103DE000012304E000220023CDE9002300230593F2
:103DF00029E0402B13D004D8BBB1202B1DD12A7849
:103E00000EE0602B11D0802B17D1073525F007036A
:103E100003F10805D3E90023CDE900230BE02A884C
:103E20000023CDE90023043505E02B680022194664
:103E3000CDE900120435079BD9E700230593002242
:103E40000023CDE9002304F4C053B3F5805F0CD008
:103E5000B3F5C05F33D0B3F5006F4FD1DDE9002378
:103E60000DF13609CDE9022304E0DDE900230DF16F
:103E7000360915E0DDE9022313433AD0DDE90201FA
:103E80000A22002307F01AFFDDE90201303209F8A7
:103E9000012D00230A2207F011FFCDE90201E9E715
:103EA00052EA030125D002F00701303109F8011D63
:103EB000D10841EA4371D8080A460346F0E74C4B63
:103EC00014F4804F0DF136094A4918BF1946DDE94F
:103ED000002352EA03000CD002F00F00085C4FEA06
:103EE000131E09F8010D100940EA037002467346DB
:103EF000EFE70DF13603C9EB030302E00DF13609DC
:103F000000230293029B41F60802BB4238BFFF1A0E
:103F100041F2080302EA040228BF00279A4202D1B4
:103F2000002F08BF012741F60801029B8A4203EBDC
:103F300007000DD1DDE90023134309D02F4A304992
:103F400014F4804F4FF0020A0CBF0B46134602E0F8
:103F50004FF0000A5346079A9AB1059A52B904F0F5
:103F60000602022A0AD0062A264A04BF4FF0010A96
:103F7000134606E04FF0010A234B02E0234B4FF0BB
:103F8000010A0AEB000290458CBFC2EB08084FF013
:103F9000000814F0010200920DD1E10602D5474459
:103FA000904608E0414630460593FFF789FD059BA2
:103FB000002840F0E080BAF1000F07D03468524684
:103FC00019467068A047002840F0D580029B03EB9B
:103FD0000B04BB46BBF1100F33681BD910220C49F0
:103FE00070689847002840F0C680ABF1100BF1E7ED
:103FF00052E4200063E4200085E4200077E4200000
:1040000074E420007CE420007AE4200057E32000E0
:1040100097E42000BBF1000F06D05A46654970684E
:104020009847002840F0A7803368029A4946706894
:1040300054449847002840F09E80009B3C44002B4D
:1040400039D032E0D5F800900435B9F1000F0AD02C
:10405000CA469AF800300AF101020BB19246F8E71D
:10406000C9EB0A0A03E0DFF850914FF0060A002F6F
:1040700002DBBA4528BFBA46D0458CBFCAEB080858
:104080004FF0000814F0010705D141463046FFF714
:1040900017FD00286FD1336852464946706898472B
:1040A000002868D10AEB0B042FB141463046FFF7D8
:1040B00007FD00285FD108EB040B23E550EA010E51
:1040C0000ED000F00F0E12F80EE04FEA111C03F8AC
:1040D00001ED4FEA101E4EEA017E70466146EDE7A3
:1040E000FF1A02BF3022012703F8012C07F1030752
:1040F00008BF03F1FF337822B84503F8012C4FF0D5
:10410000300203F8022C88BFC7EB08084FF02302E7
:1041100098BF4FF0000814F00104A3F1030903F85D
:10412000032C04D141463046FFF7CAFC18BB336864
:104130003A46494670689847E8B95F4424B1414619
:104140003046FFF7BDFCB0B908EB070BDAE4B8F175
:10415000010F2B688CBF08F1FF384FF0000814F0F6
:10416000010405F104058DF8203008D141463046A0
:10417000FFF7A6FC10B14FF0FF3017E0C3443368DF
:10418000012208A9706898470028F4D108F10107B6
:104190002CB141463046FFF793FC0028EBD1BB44DD
:1041A000B0E42B680435C3F800B0ABE40FB0BDE851
:1041B000F08F00BF97E420007EE42000F8B503886C
:1041C000064615462BB14A2B15D000230380032049
:1041D000F8BD174808F0B8FB04462CB1A168201DB3
:1041E00008F05DFB2468F8E7124B01221A704A239D
:1041F00033800120F8BD8829FBD10D4808F0A4FBCD
:104200000446002CF3D0231D9D420ED121460848C0
:1042100008F0A4FB084B62691F681A60A2691D467A
:104220000AB1E06990472F60E1E72468E9E700BF41
:104230001C430020C65900202843002010B5064B1F
:10424000002406481C7008F07CFB2146BDE81040A5
:10425000034800F061BA00BFC65900201C4300208B
:104260006840002070B50446E3610B4B049D1B7849
:104270006561A26143B1094D094B2E68201D2B6079
:1042800008F00DFB2E6000E0A1602146BDE8704003
:10429000044808F076BB00BFC65900202843002020
:1042A000684000201C43002013B5034C2468009490
:1042B000FFF7D8FF02B010BD2843002070B5094BAE
:1042C00005461B783BB1084C084B26680430236038
:1042D00008F0EEFA26602946BDE87040044808F070
:1042E00050BB00BFC6590020284300206840002072
:1042F0001C43002070B5094B05461B783BB1084CA8
:10430000084B26680430236008F0DBFA2660294653
:10431000BDE87040044808F034BB00BFC659002017
:1043200028430020684000201C43002010B5084BA3
:1043300004461B781BB1043000F0B4F801E0C36000
:1043400003612146BDE81040024808F007BB00BFEA
:10435000C65900201C43002010B50E4C236813B929
:104360000D4A136010BDFEF74DFA216891E80C006C
:104370001A44131A8A6842B192E812002144091AB9
:104380008B4228BF0B469268F5E71844024B186031
:1043900010BD00BF2043002024430020014800F04E
:1043A000D3B900BF784000202DE9F84303880546C3
:1043B00033B1592B0BD0002303800320BDE8F883D1
:1043C000234A136059232B800120BDE8F8838729F5
:1043D00024D08229F6D11E4F4FF00008B9463C6820
:1043E0000026002CEED0204608F09DFA98B1224617
:1043F0008821E06800F068F958B9E060A3680EB160
:10440000B36001E0C9F80030C4F80880FFF7A4FFEA
:10441000E5E7FFF7C3FF2646A468E2E70C49002062
:104420000B681BB90028CDD00B60CBE7DC68A2423B
:1044300002D19B680120F4E700B10B609968002964
:10444000C0D0C86882420ABF89680B469960F5E708
:104450002043002010B50446FFF7A0FFE3680B4A95
:104460004BB113683BB1A34203D1094A1268DA6029
:1044700007E09B68F6E7064B1B68E360136814606F
:10448000A360BDE81040FFF767BF00BF20430020D6
:1044900028430020024B1868003018BF01207047E5
:1044A0002043002010B50B4A04461368834206D10E
:1044B0008368136008E09A68944203D01346002B87
:1044C000F9D103E0A2689A60FFF746FF0023A360DA
:1044D000E36010BD2043002010B50446FEF79CF9B0
:1044E00094E80C001344C01A024B98428CBF002081
:1044F000012010BDFEFFFF7F38B5836804460D46DE
:104500009BB10A4804600220A07304F10C00984794
:104510000238012801D9832D05D121462046BDE866
:10452000384000F005B80123A37338BD28430020AC
:104530002DE9F8431C4A0446156889462B469046E7
:104540001A4E3768A34204D00BB11B68FAE7BDE8E6
:10455000F88334B3A37BABB10023A37345B1A54269
:1045600004D022468721284608F0C3F92D68F5E7D4
:10457000A3683BB14C4505D034602A46832104F141
:104580000C009847D8F800309C4203D12268064BB3
:1045900005E0134623B11A689442FAD122681A60E2
:1045A0003760BDE8F88300BF2C430020284300207B
:1045B000002370B51D46094A01261370084A146885
:1045C00054B1E37B33B1A673E57300228221204608
:1045D000FFF792FF2468F3E770BD00BFC9590020C0
:1045E0002C430020024B1878421C1A70704700BF01
:1045F000CA590020014B1968FFF79ABF28430020D1
:10460000064B8A221A70064A00231370054A13705B
:10461000054A1360054A1360704700BFCA5900205D
:10462000C7590020C85900202C43002028430020EF
:104630002DE9F0411A4D2B780BB1FFF7B9FF194C5A
:1046400022783AB3184E0C213378184F5943781812
:1046500017F8018001334768806803F01F03013AAF
:104660003370227068B9124B1E689EB12B780BB163
:10467000FFF79EFF30463A46414608F03AF9366861
:10468000F3E7B8F1810F04BF012383733A46414633
:1046900008F02FF92B7820781844BDE8F08100BF8E
:1046A000C9590020C8590020C759002030430020B4
:1046B0002C430020024A034B10781B7818447047A3
:1046C000C8590020C9590020F0B50B4E3378202B73
:1046D0000FD00A4C0C252478094F1C4404F01F0409
:1046E0006C4301333D19A86039556A60337000206E
:1046F000F0BD0120F0BD00BFC8590020C7590020FF
:104700003043002038B5034C256808F0F2F82560E6
:1047100038BD00BF2843002030B40A4C0A46256843
:104720002B4683420CD00BB11B68FAE740B1012144
:104730000560817320608381812130BCFFF7E2BF77
:1047400030BC70472C43002038B1837B013B012BE8
:104750009FBF024A0123C37313707047C9590020D9
:10476000024610B5064853600468029B11609360CE
:10477000026014B90846FEF793F8002010BD00BF90
:10478000B044002010B5084C206858B100232360C5
:10479000816843689847236823B1BDE810401868D2
:1047A000FEF77EB810BD00BFB044002070B505888C
:1047B0000446672D09D0792D30D0002D34D1FFF774
:1047C00011FF1C4B18701C4B1D601B4D2E461B48C7
:1047D00008F066F9431C01D167231DE00A28164A38
:1047E00007D02B687E2BF2DC5A1C3260144AD0545E
:1047F000EDE713680025591C1160114A2846D5546D
:104800000C4B1978FFF760FF0E4B2A46852118687C
:10481000FFF75AFF20B97923238009E0852907D1C2
:10482000054B00221A60D0E700230380032070BDEF
:10483000012070BDB36C0020BC440020B4440020B3
:104840004C5A0020284300200D2810B5014615D0F1
:104850000B4C23782BB90B4808F00FF948B901230A
:1048600006E00A2805D1074808F007F908B1002337
:1048700023700548FFF768FF012010BD002010BD20
:104880004B5A0020B44400208840002008B5054958
:104890000548802208F0EAF8BDE8084000210348F6
:1048A000FFF73ABFCB590020B444002088400020D5
:1048B0002DE9F04106880546772E31D07E2E40D076
:1048C000002E4ED12B4CFFF78DFE266026462A4B3C
:1048D0002A4FDFF8B0801870236857F823204AB1B8
:1048E000002108F80310936880209847336801334B
:1048F0003360F1E7224A1370772320E0214AD25631
:10490000002A12DB1B4A136801331360194B1C4A3F
:104910001B6812789A42F1DC1B4B1B68002BEBD012
:10492000194A00231360134AEFE7144A002052F893
:104930002320114B1978FFF7C7FE30B97E232B8057
:1049400014E00D4B1B788B4210D10A4B0D491A68AD
:104950008B5C03F07F038B540B4A136801331360A5
:10496000D0E7002303800320BDE8F0810120BDE8EB
:10497000F08100BFC0440020B46C00204040002003
:10498000CC5A0020AF6C0020C444002010B40A4B65
:104990000A491A780023934203DA51F82340A042CF
:1049A00008D107490748CA5C62F07F02CA5410BCAC
:1049B000FFF7CABE0133EEE7CC5A0020404000208A
:1049C000AF6C002098400020054A136843F00403B0
:1049D0001360044B1B68906943EA002080B2704763
:1049E00000700D4014700D4010B5184A136823F084
:1049F0000C031360164B01221A601A68012AFCD1BD
:104A0000144B08221A60E322C3F8142203F505733D
:104A10001946114A1368DB07FCD5104C10200023FF
:104A20002268013802F0010243EA02034FEA43031D
:104A30009BB2F5D1002BF1D0094A180A03F0FE030E
:104A400010601360EF230B6010BD00BF00700D40BD
:104A5000A8200D4024860840648608409C860840B3
:104A600014700D402DE9FF47224C234D04F108033B
:104A70000FCB8DE80F002B786F4694F80780BBB101
:104A80001E493A22A2710A88D21A92B20A80A2F171
:104A900028010812207103F128002044C3F1040307
:104AA00061712C3A011D184407F040FB00232B7064
:104AB000134807F049FF0646DFF840A09EB1D6F83C
:104AC0000490B9F1000F09D0BAF800302A782C3BD5
:104AD00022449BB2383241463846C847304607F038
:104AE0006CFF0646EAE7054B2E701E8004B0BDE859
:104AF000F08700BFA4620020EF5A002090620020DF
:104B0000C8440020F8B52C4B2C4C1B7904F1180636
:104B1000E371237E04F10805FF2B08D195E80F000F
:104B200086E80F003146284600F0BEFA1BE02F460B
:104B3000B646234A3B4603CB7345106051601F467F
:104B400002F10802F6D196E80F0085E80F001C4B31
:104B50001C4D03F110062A4618685968083303C231
:104B6000B3421546F7D1184D2B78BBB117493A22FD
:104B7000A2710A88D21A92B20A80A2F12801081200
:104B8000207103F128002044C3F1040361712C3A21
:104B9000011D184407F0CAFA00232B702B788122DC
:104BA0002833E518E25400236B706B8007F0FAFF9E
:104BB000C0436880F8BD00BF24610020A4620020CB
:104BC000E0530020BC620020EF5A002090620020D9
:104BD00038B504460B480D4607F0B6FE50B10379D0
:104BE000A34204D143799D4206D0FF2B04D007F0A5
:104BF000E4FEF3E7012038BD8368002BFAD0984724
:104C0000002038BDCC4400200146014807F0B9BE61
:104C1000CC4400202DE9F74F474D82462B7889463A
:104C20009346464C43B12833E35C3A2B0BD1444ABC
:104C3000002313802B707CE0A3793A2B03D194F9E5
:104C40002830002BF3DA3F4E05F012FB37463E4A80
:104C500006F1100E334603CB7345106051601E46BB
:104C600002F10802F6D1364EDFF8D0803388414693
:104C700030339BB2B3F5A06F88BF4FF4A06333808D
:104C800032882B78D21A04EB4300303A303001934B
:104C900007F04CFA6022019B227000226270628051
:104CA0003A2213B188F8282001E088F80620274A24
:104CB000224B1279E271228972B95A8962B99A89B2
:104CC00052B9DA8942B91A8A32B95A8A22B99A8A09
:104CD00012B9DB8A002BAAD01D4B0FCB87E80F003F
:104CE000194B1B78FF2B05D1BAF1040F9FD1B9F1F5
:104CF000020F9CD11449164800F0D6F92F78584677
:104D000007F12803E21804F803A082F8019007F0E5
:104D100055FF33882C37283BE0511A1263712B78EA
:104D2000227128331C440023638007F03BFFC043FB
:104D3000608003B0BDE8F08FEF5A0020A46200202D
:104D400090620020BC620020E0530020246100201B
:104D5000AC6200202DE9F0411E460F461B49054676
:104D60000C4660230B7000234B704B803A238B71F1
:104D7000174B90461B7900F1100ECB71331D1A12A0
:104D80000A714B7101F118021346286869680835E9
:104D900003C375451A46F7D10E492C36A1F1100010
:104DA00000F082F90C4B1B782833E518E7540023F8
:104DB0006B8085F8018007F0F5FEC043074B6880E3
:104DC0001E80BDE8F04103F0D7B800BFA462002008
:104DD00024610020BC620020EF5A00209062002075
:104DE00008B50448FFF710FFBDE808400248FFF788
:104DF0000BBF00BFA8400020B44000202DE9F341C4
:104E0000154D009104460E4690461F4601950346F7
:104E100020220321114807F053FE01282B4616D10A
:104E20002A6804F11001107020462A68023250F8F6
:104E3000044B884242F8044BF9D11868089B8674E9
:104E40004361099B80F813800777836100E00020AD
:104E500002B0BDE8F08100BFD444002020620020F1
:104E6000F8B507460B4B0C4D03F160062B602C6820
:104E7000B4420BD2237833B1A27C3946D208A01CAD
:104E800007F0ACF820B120342C60F0E70020F8BD2A
:104E90000120F8BD20620020D444002013B5084C46
:104EA000802300930194034620220321054807F044
:104EB00007FE08B9206800E0002002B010BD00BF66
:104EC000D84400203C61002030B548F2FE040C4B71
:104ED0000C4A03F16001136013688B420CD21D78F9
:104EE0003DB1451C02D09D7C854202D15D88A54222
:104EF00003D020331360EFE70023184630BD00BF16
:104F00003C610020D844002037B5104D8023009329
:104F1000044603460195122205210D4807F0D0FDF5
:104F200001282B460ED12A6804F11001107020468A
:104F30002A68023250F8044B884242F8044BF9D1F7
:104F4000186800E0002003B030BD00BFD04400204E
:104F5000C0610020F7B5214C80230093054603462D
:104F60000E4617460194202203211D4807F0A8FD94
:104F7000012830D12A46236805F1100118702368F2
:104F8000023352F8040B8A4243F8040BF9D120682B
:104F9000C77416B90123037505E000230375314674
:104FA000183007F09FFC23680E48012199740223F2
:104FB0004370FF220023027043808380C3800381FB
:104FC0008372C17202736B7B4373EB89C381FFF7FA
:104FD0009BFF206800E0002003B0F0BDD844002013
:104FE0003C610020F053002013B5084C802300934F
:104FF0000194034612220521054807F061FD08B916
:10500000206800E0002002B010BD00BFD0440020A6
:10501000C061002038B50546C8B10D480222002401
:105020004270FF230122C27244808480C4800481C4
:10503000847203730370EB7B43732B8AC381FFF786
:10504000D3FF044A106008B107F05EFD2C7038BD34
:10505000F0530020D044002070B5104C104B264671
:10506000236003F160052068A8420ED2037843B1A3
:10507000037D33B91830FFF72FFA10B13068FFF70E
:10508000C9FF236820332360EDE700F0E9FA01F05F
:10509000B3FBBDE87040034807F00ABCD8440020C9
:1050A0003C610020806200202DE9F84F48F2FE03A9
:1050B0000A8805469A420F4623D00A78FF2A20D054
:1050C0001C490024A04689469B461B4A0A6002F1FF
:1050D000600AD9F80060564517D233786BB1B37CBB
:1050E000012B0AD173885B4507D0B11C384607F005
:1050F00018FD80459CBF344680462036C9F80060C4
:10510000E7E70120FFF7E0FE04464CB92C806C80F5
:10511000AC80EC802C816C81AC81EC81BDE8F88F97
:10512000A31C123453F8042BA34245F8042BF9D1E5
:10513000BDE8F88FD84400203C61002070B5094ECE
:10514000B0684508FFF740FC0446FFF73DFC240229
:10515000B268A4B22044B0FBF2F302FB130028446F
:1051600070BD00BF2461002073B52F4C01F0BEFA62
:1051700000F092F8602200212C4807F03BF8002153
:10518000F822204607F036F8294B20221A70294BC6
:1051900018221A704FF4A0632360274B4026267113
:1051A000A360FFF7CBFF42F21073236148F2FE03C6
:1051B000314640F2FF260025E06025751F4C2A4647
:1051C000238065802B46A580E580204601950095CB
:1051D000FFF714FE20461A4907F09AFC29460122DF
:1051E0002046FFF7B7FE4FF480732046E381268008
:1051F0006580A580E58025816581A581FFF784FE16
:105200004FF40073204626806580A580E5802581C7
:105210006581A581E381FFF777FE0A480C2102B082
:10522000BDE8704007F03BBB2461002020620020F5
:105230001D6200201C620020C0270900F0530020DE
:105240009C620020806200202DE9F84305460F484B
:105250000F46904607F078FB0446DFF8389094B18B
:10526000012D04D80A4807F0A1FB034601E0D9F854
:1052700000304246394628466668B047204607F067
:105280009CFB0446EBE7BDE8F88300BFA84800207C
:10529000204500201C45002008B50B4807F090FB76
:1052A0000A4807F04EFB0A4B0A49186805F0DEFA77
:1052B000094807F085FB094807F043FBBDE80840B3
:1052C000074807F03EBB00BFE0400020A445002097
:1052D000DC40002069CB2000C04000202045002099
:1052E000A848002008B540B1044B4168186808F090
:1052F00016FCBDE8084007F06DBC08BDDC4000208E
:10530000014807F021BB00BFA445002008B507F005
:1053100063FC38B1044B0146186808F0EDFB00301F
:1053200018BF012008BD00BFDC4000202DE9F0417E
:105330008046FFF7E5FF002704463E469CB194F8FF
:105340002450AF420AD8EA0804F10801404606F0AA
:1053500045FE18B9802D08D02F462646204607F076
:10536000FFFB0446EAE76EB13446084807F0ECFA62
:10537000844207D02146054807F0F0FA2146034849
:1053800007F00CFB2046BDE8F08100BFA4450020DB
:1053900038B5044600283ED04368002B3BD0014678
:1053A0001D4807F0DBFA6368586807F0CDFA054638
:1053B00030B143689C4207D0284607F0FEFAF6E772
:1053C00004F1080003F036FD63682946586807F0C9
:1053D000C5FA6368586807F0B7FA28B9636859686E
:1053E0000E4B186805F0F6FA21460D4807F00CFB45
:1053F00029460C4807F008FB0B4A20461368013B7E
:105400001360FFF76FFF04F108010246BDE8384062
:105410000320FFF719BF38BDA4450020DC40002061
:10542000E0400020EC4000201C45002010B5044660
:1054300080B1406870B107F087FA20B14068FFF78B
:10544000A7FF6068F7E7044B2146BDE810401868E5
:1054500005F0C0BA10BD00BFDC4000202DE9F84FB8
:10546000074610468946904607F0B6FB834610B9BA
:105470000020BDE8F88F3846FFF758FF044660B1BA
:10548000FFF730FF014628B11022404606F0A6FD86
:10549000002856D02046FFF77BFF2B4B1A689A4610
:1054A000102AE5D0294E5946306808F025FB0546FC
:1054B00068B9034604225946306805F007FA0546E4
:1054C0000028D5D000236860036007F03AFA20482E
:1054D00007F086FA04460028CAD001461D4807F0A6
:1054E0005DFA1D4807F07CFA20B92146184807F0FC
:1054F0008BFABDE744600146686807F042FADAF8C3
:1055000000306560013329463068CAF8003005F084
:1055100077FA3B4604F1080507F110062A46186899
:105520005968083303C2B3421546F7D1002384F803
:105530002490A361E3612362424639460220FFF7CB
:1055400083FE2046BDE8F88F1C450020DC4000208B
:10555000E0400020A4450020EC40002038B505467E
:105560000D4807F0F1F90446A0B1AC420ED1214636
:10557000094807F0F3F92146084807F045FA221DCB
:105580001146BDE838400120FFF75EBE204607F017
:1055900014FAE8E738BD00BF20450020C0400020D5
:1055A00038B50546084807F0CFF9044648B110223F
:1055B0002946201D06F012FD18B1204607F0FDF91E
:1055C000F3E7204638BD00BF20450020F8B505466A
:1055D0000F46FFF7E5FF044640B9134807F000FA0D
:1055E0000446F0B10146114807F0D8F92B46261DB4
:1055F00005F1100E324618685968083303C2734526
:105600001646F7D137B1394604F1140007F06AF9AC
:10561000002300E0012323772A4629460020FFF7D4
:1056200013FE2046F8BD00BFC040002020450020EA
:1056300038B50A4807F088F9044600255CB1251DF5
:10564000284601F09BF808B1437C23B9204607F0B7
:10565000B4F90446F2E7284638BD00BF20450020D3
:1056600010B50A4807F070F9044670B1237F43B9BA
:1056700004F11400FEF730FF18B12046FFF76EFF6B
:10568000EFE7204607F099F9EEE710BD204500202E
:1056900037B5124B124D1C782B796A79C4EB032372
:1056A00013449BB2ADF80630BDF8063020221844F2
:1056B00005F1080180B207F059FABDF8062004F19F
:1056C000280192B2294407F051FA10B140BA80B2D1
:1056D00001E04FF6FF7003B030BD00BFEF5A00206D
:1056E000A4620020F8B52C4F2C4D97F800E02C4C0C
:1056F0000EF1280C0CEB05035E780220F6002070FA
:1057000007360021864242DB0CEB0003EA18EB5C13
:10571000012B05D002D3632B06D014E0013033E017
:105720005278023210442FE001B1207004F01EFDC7
:10573000B8B13B782278283313441D446B78134466
:105740000233237025E003F0C003802B04D0C02B6C
:1057500009D0402B15D102E051B1207008E001B111
:1057600020700120F8BD01B120702B7EFF2BF8D0F6
:105770000EEB0002283202210420FFF74BFA022030
:10578000F8BD537802331844C0B20121BAE701B121
:1057900020700020F8BD00BFEF5A0020A462002056
:1057A000F55A0020F0B5C578124A0D44EDB2D57017
:1057B00083780F0A3B44DBB2937044789F42547065
:1057C0000678167005D9601CC0B2507008B9013651
:1057D0001670C9B28D420CDA0133DBB20549937001
:1057E0003BB94B780133DBB24B7013B90B78013303
:1057F0000B70F0BD9862002010B5094C014623687B
:1058000003F11400FFF7CEFF064A236811781975DB
:10581000517859759178D2789975DA7510BD00BFB5
:10582000C86700209862002008B5FFF79DFCFFF7CD
:10583000D7FA01F03DFB002319460F4A22F8131056
:105840000133082BFAD1002319460C481A183033BB
:10585000B3F5F07F82F82510F8D1094B4FF4806240
:105860001A800023194607481A182033B3F5A07F81
:105870001182F9D108BD00BFB4690020CC670020B7
:1058800000540020C8690020F8B5104E3578DDB10D
:105890000F4F05F127033C88A34202DB00233B8026
:1058A00011E00C4BA4F12802521B5919184606F0BE
:1058B0003DFC641BA4B23C80283C221200F8242C3E
:1058C00000F8234C00233370F8BD00BFEF5A0020CE
:1058D00090620020CC6200201F4AF8B5144613885D
:1058E0001E4F01339BB2B3F5FA4F28BF4FF48053DC
:1058F0001A0A42EA032292B20025EE19368A96422B
:10590000164EEED02035B5F5A07FF6D123800023CA
:105910005D017419278A47B92282618250B9014614
:105920001022204606F066FC10E001330A2BEFD16E
:105930000020F8BD0346274600F1100E3A461868CD
:105940005968083303C273451746F7D1044B3544F1
:105950001B7920462B75F8BD00540020C869002033
:1059600024610020074A002332F81310814204D139
:10597000044A002122F8131070470133082BF3D199
:10598000704700BFB469002004282DE9F74FA34EEB
:1059900000F07682A249A34DA34FA44A03283C6895
:1059A0000D6015608A4615D194F8253003F00F0379
:1059B000032B08D1A38B002B40F06E869C4B082252
:1059C0001A7000F05EBD022B40F06686002305F8D9
:1059D000073CB5E302287AD1964A00231370964A11
:1059E00033801380954AD3780133DBB2D37063B927
:1059F00093780133DBB293703BB953780133DBB258
:105A0000537013B913780133137094F8253003F0F1
:105A1000FD02052A0DD194F826300133DBB2782B34
:105A200084F8263040F03886002384F8253000F0D2
:105A300033BE002B00F03086A28B7D48002A3DD07B
:105A400094F82620511E84F82610002A40F024865F
:105A500094F82720082A04D0591E01290AD8052ABB
:105A600008D1002384F825308023037002F0F8FB6E
:105A700000F015BD042A9CBF0321914003F00F03E1
:105A800094BFC9B230210132013B84F8261084F85A
:105A90002720072B00F20086DFE813F04E030800F2
:105AA0000A00B904FE05B904FE05B904002244E366
:105AB0000423037002F0D4FB00F01EBD03F00F03BB
:105AC000032B40F0E9850823037000F0DABC0528B9
:105AD00011D15B4B1B681B8A002B00F0DD850C3D50
:105AE0001560554A002313803B603380504B0822D9
:105AF0000D601A70C2E115F83C3C3C3D03F0F00328
:105B0000602B40F0C9852A796B7912023188D01850
:105B1000884200F3C1852833134433802B7AFF2B4E
:105B200000F0BA852B7EFF2B03D005F1080007F0AB
:105B30005CF8444A444B3F4F1A60444CA2F10609BA
:105B4000AA790021397021709846B2B901232370D7
:105B5000FFF7C8FD012800F09F8503D3022800F05D
:105B600097850AE03B7803F128024A44C8F80020F0
:105B70005278083303EBC2033B703548FFF78EF9C8
:105B800010B1DFF8C890B0E03148FFF72DFA0028D7
:105B9000F7D12A7E2E4BFF2AA3F1180361D048F2D9
:105BA000FE00198B81425CD01989814259D079B9A4
:105BB000598969B9998959B9D98949B91B8A3BB9B0
:105BC000698A244B21B9998A11B9DB8A002B48D004
:105BD000298B204B79B9598B69B9998B59B9D98BD4
:105BE00049B9198C39B9598C29B9998C19B9DB8CF7
:105BF000B3F5807F35D03388B3F5A06F04D94FF467
:105C0000A0620021022005E0EB79012B24D80022BC
:105C100011460320FEF7FEFF00F03ABD906200201F
:105C2000C4670020E0620020C86700209462002062
:105C3000B8670020EF5A0020C4690020F15A002004
:105C4000C0670020AA620020BC670020F05A002034
:105C5000BC620020A4620020A44A013BD37100F082
:105C600017BD48F2FE032989994240F01585298B1A
:105C70009E4B81B9598B71B9998B61B9D98B51B947
:105C8000198C41B9598C31B9998C21B9DB8CB3F598
:105C9000807F00F00185FF2A00F0FE849448FFF722
:105CA000DFF80246002840F0F7840221D4E024D92E
:105CB000BBF13A0F74D02BD9BBF13B0F00F0EC8451
:105CC000BBF13C0F68D123789A073AD5590663D4C3
:105CD00043F0400389F80030FFF704FD012800F08D
:105CE000DB8431D3022800F0D384D8F8000090F888
:105CF00000B0BBF12B0FDAD132E0BBF1060F00F0A0
:105D00000F81BBF1110F6AD0BBF1000F44D104E049
:105D1000BBF12C0F00F0C0843EE02378D9073BD4C0
:105D200043F0010389F80030FFF7DCFC012800F0A4
:105D3000B384D7D23B786F4A03F12801294411601C
:105D400008E043F00203C5E73B7803F1280129444A
:105D5000C8F800104978083303EBC1033B70C4E76F
:105D6000237803F0040202F0FF01AAB943F0040310
:105D700089F800303B7803F128002844C27812B13A
:105D800003F12A020AE05B4A4178106008335A4A5C
:105D900003EBC1031370A8E7421B0121042039E77C
:105DA00006F000FF4FF6FF73984240F075843B7891
:105DB0002833E85C02F0BAF83B782833EA18E85C4C
:105DC0005178FEF705FF012801BF00234A4A3380BE
:105DD00013703388002B00F05F8400F059BCFFF78C
:105DE00053FDEB8D85F806B073B9B5F82A80B8F18C
:105DF000000F00F05184414F414D3C4B2F60B3F8F0
:105E0000289007F5A0770BE006F0D2FE4FF6FF735F
:105E1000984240F04184E8E7238A2BB920342C6073
:105E20002C68BC42F8D315E09845F7D1638A0BB1D2
:105E30004B45F3D123682BB963681BB9A3680BB931
:105E4000E3685BB1102221462E4806F0C7F800280F
:105E5000E4D103E0002204210120DBE633882A4953
:105E6000303B338000230B6028490220284A087009
:105E70002849CAF800200A60274A138002F0F0F986
:105E8000254B1A88002A00F0078402F13003174CD2
:105E90009BB23380283B19126371194B08321B687F
:105EA00052BA2171197DA2850022E2851A8AE17118
:105EB00022855A8A11216285A17104F118050FCB40
:105EC00085E80F00294604F10800FFF7EDF8134BB1
:105ED00004F13C021A6006F06BFEC04380B208B1C8
:105EE000E085CFE34FF6FF73E385CBE3A4620020A8
:105EF000BC620020BC670020EF5A0020C869002067
:105F0000C0670020AC620020C8670020B86700208E
:105F1000D462002094620020C4690020C46700207D
:105F2000FFF7B2FC85F806B006F03FFE4FF6FF73B0
:105F30009842AF4C40F0B083B4F82A90B9F1000F0A
:105F400000F0AA83B4F828B0BBF1000F00F0A483DE
:105F5000A84C04F5F07394F82580B8F1000F0FD029
:105F6000228A4A450CD1628A5A4509D1102221461B
:105F7000A148019306F032F8019B002800F0F6805A
:105F800030349C42E7D195F8353003F03F03022BC3
:105F900008D19A4A002332F81310494550D00133F2
:105FA000082BF8D195F83520914B520700F17483F6
:105FB000142283F835203C223280502283F834208A
:105FC00093F8332093F8314093F82F0083F82F2073
:105FD00093F8322093F82E1093F8307083F82E2027
:105FE000013093F82D2083F82D4093F82C40C0B257
:105FF00083F8321083F8312083F82C7083F8304016
:1060000083F8330060B90131C9B283F8321039B96D
:106010000132D2B283F8312012B9621C83F83020E9
:106020002B8D6A8D744C2A856B8504F1100594E8DC
:106030000F0085E80F0029462046FFF735F80CE3EE
:10604000002422466B4B93F8251021B9694B30246C
:1060500004FB023413E0072909D13CB193F8260070
:1060600094F82610884288BF1C4600E01C46013286
:106070000A2A03F13003E6D1002C00F00D83604BB7
:1060800000271C60032384F8263084F8243004237E
:1060900084F82330584B84F822700FCB84E80F002B
:1060A000584B01201A7884F8250022765A78A0836C
:1060B00062769A78DB78A276E37695F82C3084F8CD
:1060C0002770237595F82D30A4F81090637595F816
:1060D0002E30A4F812B0A37595F82F30E375FFF7B2
:1060E0008BFB95F8343003F0F002502A24D91A09BA
:1060F0003B46053A9200E91891F83C00E0B10128CE
:1061000001D1013316E002280FD191F83D00042897
:106110000BD191F83E2091F83F3043EA0223402B07
:1061200028BF4023E383238406E0E91891F83D105B
:1061300011B10B449342DEDB10222D4B83F8352046
:106140002B4B93F8352042F0020283F835200222CF
:1061500083F83C20042283F83D20002283F83E206F
:10616000402283F83F20328060223AE2244B95F8A7
:1061700035101C60244B11F0040F1870994603D0A1
:1061800084F825002022DAE1338808F00F08A3F113
:106190002802174BB8F1020F93F834304FEA13136B
:1061A000A2EB83039BB2338003D101F03F02122A9A
:1061B00005E0B8F1010F03D101F03F02022A25D01A
:1061C0000BB98B0722D0AA8DA38A9A4204D1084B1F
:1061D000DA8DE38A9A4219D0880740F1FB81B8F141
:1061E000010FA9D0B8F1020F40F0F481A8E700BF79
:1061F000A4620020CC670020AC620020B4690020BB
:10620000C8670020F15A0020B8670020C9064DD5A4
:10621000A18B00294AD004F11800FFF7C3FAAF4B55
:1062200095F8301093F800E0AD4A8E453ED192F8D3
:1062300031105878884239D192F832C09978614546
:1062400034D192F83320DB7893422FD1E37694F85F
:10625000273084F818E06076A176F3B994F82430FA
:1062600094F8262094F822109B1AA3EBD103DBB2FA
:1062700058B200281944BCBF5B4258B294F823308E
:10628000C9B2A3EB93031A18D3B284F8233003EBFB
:10629000D10384F8221084F82430012389F80030D7
:1062A00094F8243084F826300023A38394F8252022
:1062B00002F00F03013B072B00F2EE81DFE813F041
:1062C000080025008200430165017F018A01350134
:1062D00099F80020834BD2070FD5032284F825209C
:1062E000308840221A700022A283002800F0C68065
:1062F00042221A70FFF780FAC0E095F8353003F0BB
:106300003F03022B40F0C88116E799F80030DB0705
:106310004DD595F8353003F03F03122B47D1704B24
:1063200093F8343003F0F002502A24D91B09053BBE
:106330009B000022A91891F83C00E0B1012801D18E
:10634000013216E002280FD191F83D0004280BD14C
:1063500091F83E2091F83F3043EA0223402B28BFBA
:106360004023E383238406E0A91891F83D1011B17E
:106370000A449A42DEDB032384F8253095F82C305A
:106380000120237595F82D30637595F82E30A3758F
:1063900095F82F30E375FFF72FFA4223524A89F818
:1063A00000300023A38333803B70138069E02023F7
:1063B00089F8003001F054FF4C4B00221B6883F831
:1063C0002520EFE595F83530D80725D5D10623D41B
:1063D000A38B002B40F060813088013080B2FFF742
:1063E0000BFA99F8003043F0100289F80020328847
:1063F0001AB13C4A43F01203137001F031FF01233C
:10640000A383082384F82530002384F82730112241
:10641000334B83F83520E0E09B0610D56B8FDAF81C
:1064200000005BBA9BB2034495F83A7095F83B10B4
:10643000CAF80030338841EA07215B1A338030887C
:1064400048B1D70607D499F8003043F0020389F821
:106450000030FFF7D1F995F8362095F8373003EB87
:106460000223228C9BB2934202D8002B18BF1A46FB
:1064700099F80030E283990700F00E811A4B002250
:106480001A8001F0EDFE174B1A78174B02F020002E
:1064900000F0FF0128B100221A8084F82520142280
:1064A000B6E702F0100000F0FF0540B119800123AB
:1064B000A383042384F8253084F82710A7E71988DC
:1064C000B9B1D20748BFA583A28B8AB9E28B9142AA
:1064D00088BF1A801B88A3830BE000BF986200204E
:1064E000A4620020B8670020C4690020C8670020AB
:1064F0001A80002384F827306D4B1B68CAF80030DF
:106500006C4B1B882BB1A38B1BB13C3333801822FF
:1065100007E0694B1B789F0740F1BE803C23338026
:106520001022664B83F8352059E099F80030DD07DA
:1065300040F1B280002384F825305F4B10221A709E
:1065400001F08EFEA8E0308808B1FFF755F995F804
:10655000353013F001030FD099F80030D80745BF4C
:10656000072384F825300623002346BF84F826300D
:10657000A38384F8253016E099F80020D1071BD5B5
:10658000052284F82520A38386E0308808B1FFF730
:1065900033F995F83530DA070ED5072384F825301E
:1065A000002384F826300120FFF726F9102389F80C
:1065B000003001F055FE0DE033885BB96CE099F8CE
:1065C0000030DB0768D5072384F82530002384F8E2
:1065D000263061E0102385F835303C233380374B7B
:1065E000502283F83420237D344D85F83030637D8C
:1065F00005F1180785F83130A37D85F83230E37D49
:1066000085F83330237E85F82C30637E85F82D3075
:10661000A37E85F82E30E37E85F82F30238A2B85E4
:10662000638A6B8594E80F0087E80F00394605F10F
:106630000800FEF739FD94F8253003F0100303F04D
:10664000FF022BB1002385F8373085F8363004E09F
:10665000402385F8362085F83730184C0623A3717F
:10666000174B1B79E3713388283B1A12637100239F
:10667000227184F83B3084F83A30238706F095FA8B
:10668000C04320870D4B60221A7000225A705A8036
:10669000094B00221A7007E00A4A002313700A4AC5
:1066A00033801370044A137003B0BDE8F08F00BF4D
:1066B00094620020C4690020B8670020A462002012
:1066C00024610020EF5A0020F05A002010B5044643
:1066D00040B103F0A9FE044B2146BDE81040186804
:1066E00004F078B910BD00BFF840002008B504F0F0
:1066F0004FFB034B03491868BDE8084004F0B6B8E7
:10670000F8400020CD662000F8B5054616481E4624
:106710009DF81820079B006804F0D8F8044600B3E1
:106720002B46054603F110072A46186859680833B6
:1067300003C2BB421546F7D1012E0CBF4FF41671B0
:10674000002104F11400667406F0CCF804F11C007A
:10675000002106F0C7F8002384F82430204603F017
:1067600063FE2046F8BD00BFF8400020024B014602
:10677000186807F0D4B900BFF840002070B50C4D80
:106780000646286804F086F8044666B9002070BD05
:1067900010223146204605F021FC38B121462868F8
:1067A00007F08FF90446002CF2D1EFE7204670BDC8
:1067B000F8400020024B0146186807F09DB900BF61
:1067C000F840002070B5054610200E4604F036FA59
:1067D0000849044607F0D0F958B932462946204600
:1067E00004F074FA324629462046BDE8704003F0B2
:1067F000F1BD70BD4CE520002DE9F8433F4D404E02
:10680000286804F047F80446DFF8F8800027002CD9
:1068100071D0637C042B68D8DFE803F01A0367307B
:106820003D0004F114094846FDF756FE00285CD0EF
:106830002046FEF7B5FE40B10323637405214846A8
:1068400006F050F884F824704FE0022363744CE0A3
:1068500094F82430022B2AD804F11C094846FDF78D
:106860003BFE002841D0318800293ED194F82430E5
:106870002246013384F8243008462BE004F114004A
:10688000FDF72AFE88B30423637484F82470002182
:1068900004F11C0027E094F82430022B0BD9204689
:1068A000FEF77EFE18B1037F0BB9FEF757FE2046B8
:1068B000FFF70CFF19E004F11C094846FDF70CFE38
:1068C00098B1308888B92246214694F824300133A3
:1068D00084F8243000F038FAD8F810104FF47A73A6
:1068E000B1FBF3F1484605F0FDFF2146286807F0AB
:1068F000E8F804468BE7BDE8F88300BFF8400020C5
:10690000906200202461002050B1064B1B6833B117
:10691000024653F8020F596803C201207047184617
:10692000704700BF304B00202DE9F04F644C87B01A
:10693000E379644EFF2BDFF8A48140F0BA80317810
:10694000631893F82930002B40F0B3802C3101EB11
:10695000040A9AF80430FF2B00F0AB800F5D07F0BB
:10696000400303F0FF0201921BB1237EFF2B00F0D6
:10697000A080B8F800000022029096461046524DC2
:10698000DFF848C114232B70CCF800200095CDF817
:106990000CC0029D03EB0109A9451CDA04EB090BAD
:1069A0009BF801C0BCF1000F09D1BEF1000F01D06E
:1069B00046490860002A7CD0009A137079E014F8E8
:1069C000092003EBCC03022A04BF58464FF0010E06
:1069D000DBB20122DDE7BEF1000F01D03B490860C8
:1069E0000AB1009A13700AF10400FEF757FA384B07
:1069F000186000285DD1307820443030FFF7BEFEAB
:106A0000344C2060002854D0FFF7B0FE81460028A7
:106A10004FD0039BD3F800A0BAF1000F07D0014676
:106A200008220AF1020005F0D9FAC0B200E050468F
:106A3000236827F07F055A7CEDB2A2B9BAF1000FA6
:106A400037D004A8FFF760FF002832D0012204A944
:106A5000484607F06CF860B3019B43BB1D4B022214
:106A60001B685A7423E0B90609D418B923681B7C43
:106A7000B3B91CE0012A1CD102225A7419E0BAF100
:106A8000000FF3D00028F1D004A8FFF73DFF80B13C
:106A9000012204A9484607F04AF80028E6D108E098
:106AA0002DB90D48FEF77CFD08B1FEF757FD2368B0
:106AB0001D740023A8F80030337007B0BDE8F08FD4
:106AC000A4620020EF5A0020F65A0020304B00202C
:106AD000344B00202C4B0020AC6200209062002040
:106AE0002DE9F04F8C4C85B0E3798C4FFF2BDFF80C
:106AF000509240F009813B78E21892F83020FF2A4A
:106B000000F00281234493F82920002A40F0FC8001
:106B1000834B25469846834E1A60DFF828A214223C
:106B20003270387833782C30B9F80020034493421F
:106B300057DAE2185178002900F0E680E35C012B77
:106B400045D12B89C8F800207BB96B896BB9AB891B
:106B50005BB9EB894BB92B8A3BB96B8A2BB9AB8AF2
:106B60001BB9E38A002B00F0CF8002A8FFF7CCFE10
:106B70006D48FFF703FE0246CAF8000040B905233E
:106B80000190009302A902236748FFF7BDFD1EE0B4
:106B9000FFF7ECFD8346002800F0B680D8F800002F
:106BA00008225946023005F019FA50B1012202A913
:106BB000584606F0BCFF002800F0A680DAF8003046
:106BC00003E0DAF800305A7C0AB902225A743B78A2
:106BD00032782C33134423445B7802EBC3023270C7
:106BE0009FE720440430FEF759F9504B4A4D186096
:106BF0009846002800F088802B8973B96B8963B9A7
:106C0000AB8953B9EB8943B92B8A33B96B8A23B962
:106C1000AB8A13B9EB8A002B76D0434D2846FEF79A
:106C20003DF92E4600286FD140F2FF23228BA5F1BB
:106C3000080E9A4205F1100C19D16B8ABBB9AB8AC8
:106C4000ABB9EB8A9BB92B8B8BB96B8BB3F5807F80
:106C50000DD12B7FFF2B0AD195E80F008CE80F0098
:106C60003B78734430330FCB85E80F0011E0304D93
:106C70002846FEF713F9D8F80030834244D196E84D
:106C80000F0085E80F003B78234430330FCB86E8B4
:106C90000F0060222270282262713A22A271FF2224
:106CA000E2718822002384F82820D8F800203B7065
:106CB00063706380237184F829301E4EE02384F8CA
:106CC0002C30931C1232354618685968083303C5B6
:106CD00093422E46F7D1184902230A6884F84030BF
:106CE000C4F8422084F841304A68144B5A600022AC
:106CF000C4F84A209A81628505F054FFC0435023AE
:106D00006085A9F8003003E00023A9F800303B704B
:106D100005B0BDE8F08F00BFA4620020EF5A00204C
:106D2000304B0020F65A0020AC620020344B00208B
:106D3000BC620020D46200209C620020E662002039
:106D4000906200202C4B00202DE9F041534C074667
:106D5000534800230370637063803A236025A37156
:106D6000FF232570E371804699B96183A183E18394
:106D7000218484F82210022001212376607684F891
:106D8000231084F82430537B84F82530D389E3849E
:106D90000CE00B4604F1180601F1100E3546186898
:106DA0005968083303C573452E46F7D1872384F805
:106DB0002830002384F82930E3621346394E02F16B
:106DC000100E354618685968083303C573452E46BA
:106DD000F7D1002626711046304DFEF75FF80028E7
:106DE00042D167B13B46083507F110062A461868BC
:106DF0005968083303C2B3421546F7D105E005F1DF
:106E0000180105F10800FEF74FF92289234B2649A6
:106E100092B95A8982B99A8972B9DA8962B91A8A99
:106E200052B95A8A42B99A8A32B9DB8A23B90B809D
:106E300088F80030BDE8F08198F80020282340321F
:106E400001206371A0541948A31802225A700268E5
:106E5000C3F802204268C3F806200022C3F80A20C3
:106E6000DA8150230B800CE018236B710E4B40220B
:106E70002E816E81AE81EE812E826E82AE82EE8296
:106E80001A8098F8003028331C440023638005F0F2
:106E900089FEC0436080BDE8F08100BFA46200208D
:106EA000EF5A0020D4620020906200209C620020F3
:106EB00008B50448FDF7A8FEBDE808400248FDF704
:106EC000A3BE00BF0C410020184100200C4AB8238B
:106ED00003FB00220023F0B553821E461A4640F2FF
:106EE0004C550849CC18A77827B15F5C874204BF8E
:106EF000A67001327133AB42F4D11046F0BD00BF31
:106F0000544B0020025B002008B5064800F0FCFF4F
:106F1000054B01221A70FD2100225A709970DA7017
:106F200008BD00BF5D712000F85A002030B513780D
:106F30000546087A83F0020398421DD1487A5378B7
:106F4000984219D1887A9378984215D1C87AD37823
:106F5000984211D1087B137998420DD1487B53791F
:106F6000984209D1887B9379984205D1C87BD3791F
:106F7000984201D103201BE00B890F4C6BB94B8960
:106F8000B3F57F4F09D18B89FE2B06D12368CA89BF
:106F9000022023F8022B23600AE0226801F1080393
:106FA00003CB083242F8080C42F8041C012022608E
:106FB000A840C0B230BD00BF404B002010B50E4C01
:106FC0000220A17903F020FEA379112B01D0062B1A
:106FD00005D1218D638D9942A8BF194606E03A2B51
:106FE00003D1218D49BA89B200E000210120BDE81A
:106FF000104003F009BE00BFA462002010B5084C89
:1070000001462378012B08D10822A01C04F0E6FFDA
:1070100000280CBF2046002010BD002010BD00BF7E
:10702000F85A002008B50146102003F0FBFD044B80
:1070300000219B6803489847BDE80840FBF7A4BDC2
:10704000A0E120004970200010B50C4611462046F2
:10705000FFF7B8FB044B1B6813B19B6820469847A9
:10706000024B1C6010BD00BF504B00204C4B002059
:10707000124AF8B505460023712000FB0324A678C8
:10708000B6B9617003F0EAFC26460D4F0D4A3B7815
:1070900006F8035BC01A1568A0701D4403F0DEFCFF
:1070A0003A782946821A304604F0CAFFA078F8BD23
:1070B00001330C2BE1D14FF0FF30F8BD025B002013
:1070C0004E600020444B00202DE9F84315090F2D98
:1070D0000646984602F00F0403D00F2C35D045B178
:1070E00003E00F2C2FD1102425462A46304604F009
:1070F000A7FF2A190F2A274605DCC2F1100200213A
:10710000701905F077F8BCB1DFF84C80C7F11000BA
:10711000D8F8009022464946304404F091FF022CF2
:1071200005D10A2D9FBFFF23F372FE2333734C4416
:10713000C8F80040BDE8F88365B141463046BDE877
:10714000F84305F0E5BC1025CFE71024002DCCD185
:107150002746D9E7BDE8F883404B00202DE9F04FE2
:10716000934E944D87B0002333702B70044603F088
:10717000F1FC03F085FC904A904B1268186002966F
:10718000009501930AB1FFF719FF0CB98C4900E093
:10719000214604A806F0EBFC8A4BDFF830A21A88DF
:1071A00003933E2A019B40F21382D3F80080864E5F
:1071B00008F102033360009B0AF118001F780023D6
:1071C000023708F80730FFF719FF20B90AF1080065
:1071D000FFF714FF20B108F103033360802400E0BF
:1071E00004469AF801209AF80010130943EA0113A3
:1071F000DBB2980840EA83135BB212F00F0FDDB2E6
:1072000001F00F000DD17149498851B910B912F040
:10721000F00F21D06C4A136803F8015B13607025EE
:107220001BE0694978B912F0F00F0CD1086823F01F
:107230003F031A43664B02701B88033020F8023C60
:107240006825086009E0614A0B681068186003F857
:10725000045B0B60602500E078255C4B99469979CA
:10726000594B112908BF45F0040515F0040F02BF62
:107270001A6802F8011B1A6099F80720402A06D004
:10728000FF2A07D0012A08D145F0010509E045F0A1
:10729000020506E045F0030503E0196801F8012B3B
:1072A0001960B9F80820494B82B95A8972B99A898C
:1072B00062B9DA8952B91A8A42B95A8A32B99A8AB3
:1072C00022B9DB8A13B944F0400013E04148FFF7CC
:1072D00095FE414B186078B1427818F807303D4967
:1072E00043EA021308F807303C4A0420FFF71EFE69
:1072F00060F03F00C4B229E048F2FE03B9F808206C
:1073000032499A420CD14B8B53B98B8B43B9CB8BFF
:1073100033B9324A08310420FFF708FE2043E9E779
:10732000294BDFF8B0C01A68994696460CF1100B4D
:10733000634603CB5B45CEF80000CEF804109C46B4
:107340000EF1080EF4D11032C9F80020DFF87CB03D
:10735000DFF874909BF81830FF2B40F08D809BF87D
:10736000192044F0080E022A5FFA8EFE38D1BBF8CD
:107370001A30ABBBBBF81C3093BBBBF81E307BBBD9
:10738000BBF8203063BBBBF822304BBBBBF82430CA
:1073900033BB9BF826301BBBD9F800309BF8272065
:1073A00044F00B0003F8012BC4B2C9F80030A2E08E
:1073B000F75A00204E600020504B0020444B002024
:1073C0004CE5200090620020404B0020A462002089
:1073D000A6620020AC620020384B00209C62002096
:1073E0009C4B598BA1BB998B91BBD98BB1B9198C93
:1073F000A1B9598C91B993F8241079B9D9F8001032
:1074000044F00A00C4B2084600F8012B33F8252FD7
:10741000043121F8032C9B78837016E08D4BD98BB7
:10742000B1B9198CA1B993F8221089B9D9F8001013
:1074300044F00900C4B2084600F8012B53F8232F8A
:10744000063141F8052C1B790371C9F8001052E090
:10745000D9F80020804F144607F1100C3B4603CBAF
:107460006345206061601F4604F10804F6D11032C4
:10747000C9F8002074463EE00BF11800FFF7BEFD8E
:10748000764B186068B118F80710437844F004048C
:107490000B43E4B208F8073004AA0BF118010020EE
:1074A00011E048F2FE03BBF818209A4210D1BBF855
:1074B0001A306BB9BBF81C3053B9BBF81E303BB95E
:1074C00004AA0BF11801FFF731FD2043C4B212E00A
:1074D000D9F80020DFF880E117460EF1100C734652
:1074E00003CB6345386079609E4607F10807F6D103
:1074F0005B4B10321A60029A564828231370837926
:107500005749112B59D1028D130A43EA02234FF236
:10751000B0029BB223F00F07BFB297421AD1B0F866
:107520002AE04FEA1E2242EA0E2222F00F0292B215
:10753000BA420FD13268F3231370038D02321F0A4F
:10754000438D1B0A03EB071303F5AA6302F8013C02
:10755000326029E0BAF82A003E4A000280B2B0F553
:10756000704F09D13368F1201870108DA3F8010015
:10757000528D120ADA700CE003F47F43B3F5704FBA
:107580000AD13368F2201870108D000A5870528D9D
:107590005A800433336007E00B68F0201870906A5B
:1075A000053343F8040C0B602E4B1A880B6823F844
:1075B000022B029A0B6030231370019B1A68009B08
:1075C0001B78D55413445C700B689B1A009A19E021
:1075D0001A6841231370009B0AF128051C78631C6C
:1075E000DBB21344524603CAAA421860596092465D
:1075F00003F10803F6D1009B29341C70029B029A08
:107600001B782833137004A9102003F00BFB164BD2
:10761000164E1B68984730EA200028BF1520029AB2
:107620000099039B14781B880D78C0F17D071A1B05
:10763000791B8A42DFF838A040F3BC80C0F1780B98
:1076400093FBFBF403F03AF80138844212DB00208C
:10765000C1E000BFA4620020BC620020384B0020C3
:10766000404B0020D262002074E120009062002094
:107670004E600020DFF878910023C9F80030019BAC
:107680009AF80050D3F800802A46414608F10400D9
:1076900004F04CFD3388514A1B0A63F03F0388F81D
:1076A00000303388043588F801301388EDB2591C56
:1076B000118088F803301A0A494B7C1B1978494B12
:1076C00024F00704484F194488F8022008EB05000D
:1076D000224602938AF800503C6004F0B1FC28195D
:1076E00080B203F0B1F902F0EFFF029B04461D46A1
:1076F0000028ACD00DF110084046FFF793FC20465F
:1077000003F01AF8204603F001F8D9F80030012BF5
:107710009DD0043B012B9AD9314B2BF007001C78EC
:107720003B68B3461C4405238AF80030BA462F4B09
:10773000A4B21A68338838601B0A63F01F03137001
:1077400033885370BBF800309C4243D2019A1B1B14
:107750001068E20802713A6829199342B8BFCAF862
:107760000030009B3E681B7832461844029304F0B8
:1077700067FC029B981980B203F066F902F0A4FF3F
:10778000064600283FF463AF4046FFF74BFC304607
:1077900002F0D2FF304602F0B9FFDAF800301C44A4
:1077A000D9F80030A4B2012B3FF451AF043B012BB8
:1077B000C8D84CE7019B0B4918682144284404F0C1
:1077C0003FFC30882844001B80B203F03DF904A838
:1077D000FFF728FC012007B0BDE8F08F025400201D
:1077E000F75A0020A4620020484B0020444B0020A0
:1077F0004C4B00202DE9F047074688461546002AE5
:107800004CD0414E0024B046338ABB4216D1738A15
:10781000A3B10F2003F012FA0146304606F0ACF98E
:1078200060B15FFA84FA29465046FFF721FC002830
:1078300029DA0027DFF8D4903E460FE00134022C0D
:1078400006F1B806E0D14FF0FF30BDE8F087A64260
:1078500009D10136022E09F1B8090ED039F8063CDB
:10786000002BF6D0F3E7484605F05DF80028F0D08D
:10787000F0B2FFF72BFB0744EBE7002FE3DD2946CF
:107880005046FFF7F5FB0028DDDDB82303FB04833A
:107890009A8A1044988260B2BDE8F0871B4E4FF080
:1078A000FF3436F8063C63B3304605F03CF810B1BF
:1078B000E8B2FFF70BFB611C03D136F8063C03B9B5
:1078C0006CB20135022D06F1B806EAD1621C15D062
:1078D000B8256543DFF830900F2009EB0506A6F8C0
:1078E0001280378203F0AAF90146304606F03FF9CC
:1078F00005F118004021484405F003F82046BDE892
:10790000F087631CDDD1DBE7544B00206C4B00207B
:107910002DE9F04F0F2087B0DFF8F482AE4C03F072
:107920008DF9002603F00EFA88F80060267003F047
:10793000A7F8AA4DA2462860042003F06DF9A84BD1
:107940002A6800B2186057781378CDF8008047EAAB
:10795000032703F0F803C02B02D0E02B1BD03DE03F
:107960009478D0789AF80030C7F30A070433324687
:10797000394640EA04208AF80030FFF73BFFB0F1B7
:10798000FF3F804600F07182964CB82303FB004411
:107990000126223425E092F804B09478D0789AF841
:1079A0000020C7F30A0705328AF8002039465A46F4
:1079B00040EA0420FFF71EFFB0F1FF3F804600F0D1
:1079C00054828849B82202FB0012958A4FF00109BF
:1079D000BD4234BF002501253446D1E1B0463746CB
:1079E000814C28689AF80010425C02F0E003602B9A
:1079F00040F0A9818D1C014491F801907B4B4FFA16
:107A000089FB0544BBF1000F1D60BCBF01351D6043
:107A100012F0100F02F008012FD1D1B9196831F816
:107A2000010FA4F801008978E170196811F8040BBE
:107A30001960830803F00F0141F060012170617843
:107A400003F0300343EA801301F00F010B4363702E
:107A50002EE0186860210546217015F8011B0330DF
:107A60004FEA910E0EF0300E01F00F014EEA0101C7
:107A700061702988186061801AE001F0FF0591B9F2
:107A800019680878C0F3830040F06000207011F896
:107A900001EB65804FEA9E0000F0300040EA8E1056
:107AA0006070196004E060232370002363706380BA
:107AB00002F0040303F0FF0101912BB94B490B685D
:107AC00013F8010BA0710B6012F003020BBF474AC1
:107AD000474B13689B5C09BF13F8011BE3711360EC
