:100000000C9494020C94BC020C94BC020C94BC02A0
:100010000C94BC020C94BC020C94AE0C0C94BC026C
:100020000C94BC020C94BC020C94BC020C94BC0258
:100030000C94BC020C94BC020C94BC020C94BC0248
:100040000C94640C0C94BC020C943E0B0C94180B96
:100050000C94BC020C94BC020C94BC020C94BC0228
:100060000C94BC020C94BC02E802ED02F002F30214
:10007000F602F9021303B503BE03C103C403C703A9
:10008000CC03CF0300407A10F35A00A0724E180937
:100090000010A5D4E80000E87648170000E40B54EF
:1000A000020000CA9A3B000000E1F50500008096BE
:1000B0009800000040420F000000A08601000000F0
:1000C000102700000000E8030000000064000000AA
:1000D00000000A00000000000100000000002C7673
:1000E000D888DC674F0823DFC1DFAE59E1B1B7968E
:1000F000E5E3E453C63AE651997696E8E6C28426EB
:10010000EB898C9B62ED407C6FFCEFBC9C9F40F2C6
:10011000BAA56FA5F490055A2AF75C936B6CF96742
:100120006DC11BFCE0E40D47FEF520E6B500D0ED07
:10013000902E0300943577050080841E080000206F
:100140004E0A000000C80C333333330F986E12830D
:100150001141EF8D2114893BE65516CFFEE6DB18E1
:10016000D1844B381BF77C1D901DA4BBE4242032A6
:1001700084725E228100C9F124ECA1E53D27535829
:1001800031323736204C462F48462063616C696215
:10019000726174696F6E0000000000240027002A5D
:1001A0000001020408102040800102040810200110
:1001B00002040810200404040404040404020202DB
:1001C000020202030303030303556E7265636F6744
:1001D0006E697A6564207472616E736365697665B1
:1001E0007200535831323736206465746563746524
:1001F000642C207374617274696E670053583132D5
:1002000037322064657465637465642C207374618F
:100210007274696E670053583132373220737563D8
:100220006365737366756C6C7920636F6E6669675E
:10023000757265640A0053657474696E67206E6F29
:10024000646520616464723A20737461746520008F
:1002500053657474696E6720506F7765723A2073C6
:1002600074617465200053657474696E6720436817
:10027000616E6E656C3A207374617465200053651D
:100280007474696E67204D6F64653A20737461748D
:100290006520005573696E67207061636B6574201B
:1002A00073657175656E6365206E756D626572202C
:1002B0006F662000476574206261636B2070726511
:1002C00076696F75732073783132373220636F6EC1
:1002D0006669670A0041546D6567613332385020A2
:1002E00064657465637465640A0053696D706C6558
:1002F000204C6F52612074656D7065726174757207
:10030000652073656E736F720A0052656164696E71
:100310006720002D2D3E2052535349206572726F85
:10032000720A002D2D3E205253534920002D2D3EA0
:100330002072657472790A0020444946533D335354
:100340004946533D20002D2D3E207761697420667B
:100350006F72200023310A002332004F4B32002DF0
:100360002D3E20434144200020434144203D2000B5
:100370002D2D3E207761697420666F7220004F4BEF
:10038000310A002D2D3E2043414420002D2D3E20DA
:100390004353310A002323206E6F7420656E6F75FE
:1003A000676820546F4120617420002E00436F75F0
:1003B0006C64206E6F7420737769746368204C6F6F
:1003C0005261206D6F64756C6520696E20736C6579
:1003D0006570206D6F64650A0053756363657373A0
:1003E00066756C6C7920737769746368204C6F5202
:1003F00061206D6F64756C6520696E20736C656536
:1004000070206D6F64650A005377697463682074A7
:100410006F20706F77657220736176696E67206DEB
:100420006F64650A0052656D61696E696E6720547C
:100430006F4120697320005061636B6574207365A0
:100440006E742C20737461746520004C6F526120AF
:1004500053656E7420772F43414420696E20004C11
:100460006F52612053656E7420696E20004C6F528C
:100470006120706B742073657120004C6F52612095
:10048000706B742073697A6520005265616C20700E
:1004900061796C6F61642073697A652069732000EB
:1004A00053656E64696E6720004D65616E207465EA
:1004B0006D7020697320002072656D61696E696ED0
:1004C0006720546F412069732000206379636C6555
:1004D00020656E647320617420006379636C65200D
:1004E000626567696E7320617420002323206E6546
:1004F00077206379636C6520666F7220546F4120AA
:100500002323002E2E2E0000000000250028002BA3
:1005100000000000080002010000030407000000C2
:10052000000000000000E81511241FBECFEFD8E046
:10053000DEBFCDBF11E0A0E0B1E0ECE5F3E402C026
:1005400005900D92A035B107D9F723E0A0E5B1E001
:1005500001C01D92A739B207E1F712E0C4E9D2E069
:1005600004C02197FE010E94E31CC339D107C9F7DB
:100570000E94180D0C94AC210C940000BF92CF92F5
:10058000DF92EF92FF920F931F93CF93DF93D82FB9
:1005900081E00E947407182F80915F02811104C0CE
:1005A0000E946508C82F0DC161E881E00E945907CB
:1005B0008EE10E947407C82FCD2ED12CF6013697FC
:1005C000E730F10508F04CC0EC5CFF4F0C94E31CE5
:1005D000CF76C0660E94D90945C0CF77C0674EC0AC
:1005E000CF78C0684BC0CF79C06948C0CF7AC06AA5
:1005F00045C0CF7BC06B80915F028823B1F08091B2
:100600002402811108C08DE10E94740782958695AD
:100610008695837005C08DE10E94740782958F7066
:100620008093450202C0CF7CC06C80914502873028
:1006300029F58091240281110AC08DE10E9474077E
:10064000082F0160602F8DE10E94590718C086E2D3
:100650000E947407682F686086E20E9459070EC0E6
:10066000D63061F40E94D90965E081E30E94590700
:100670006CE087E30E94590700E037C000E08091FA
:100680005F02882351F18DE10E9474079091470227
:10069000963059F090912402682F911102C06B7F1F
:1006A00001C06E7F8DE10E9459078091240288234A
:1006B00011F0B12C02C042E0B42E80914702863086
:1006C00061F08DE10E94740790E002C095958795D6
:1006D000BA94E2F780FF1092560263E081E30E9431
:1006E00059076AE087E30E9459078091240281112B
:1006F00004C0C460602F8DE106C086E20E947407CA
:10070000682F646086E20E9459076C2F8EE10E9478
:10071000590764E670E080E090E00E941E0C809132
:10072000240281110AC08DE10E947407082F8EE116
:100730000E947407C82F20E009C086E20E94740757
:10074000C82F8EE10E9474070C2F23E0F601369724
:10075000E730F10598F5E55CFF4F90E034E09595C2
:1007600087953A95E1F70C94E31C069749F5C2FF8B
:1007700027C080915602813019F51EC0079701F5F8
:1007800008C00897E9F405C00997D1F402C00A9798
:10079000B9F4C2FF15C010C00B9791F402C00C97BA
:1007A00079F4C2FF0DC0802F90E002C09595879527
:1007B0002A95E2F780FF04C0C0E003C0C1E001C099
:1007C000C2E0612F81E00E94590764E670E080E09A
:1007D00090E00E941E0C8AEF8D0F873018F4D093A2
:1007E0004702C0E08C2FDF91CF911F910F91FF90B6
:1007F000EF90DF90CF90BF900895CF93DF9381E08B
:100800000E947407D82F80915F02811104C00E945A
:100810006508C82F01C0C2E061E881E00E94590765
:100820008DE10E94740790912402682F911103C0FA
:100830006F7C686002C0617F62608DE10E94590731
:1008400064E670E080E090E00E941E0C8DE10E9462
:10085000740790912402913011F421E001C023E04B
:1008600090E002C0959587952A95E2F787709927C1
:10087000019709F4C0E081E0809346026D2F0E9449
:10088000590764E670E080E090E00E941E0C8C2F17
:10089000DF91CF9108950F931F938091790388235F
:1008A00009F46DC00E94580C0091820310918303DB
:1008B000209184033091850306171707280739070D
:1008C00008F054C000937E0310937F0320938003AD
:1008D0003093810340EA5CE860E070E040937A0383
:1008E00050937B0360937C0370937D03D901C8010F
:1008F00080589141A94CBF4F80938203909383030A
:10090000A0938403B09385038BEE94E00E94590872
:100910008AED94E00E94A90660917E0370917F03A6
:1009200080918003909181034AE00E94E6068AEC60
:1009300094E00E94A90660918203709183038091E4
:100940008403909185034AE00E94E60687EB94E0D9
:100950000E94A90660917A0370917B0380917C03C9
:1009600090917D030E9427070E94D60660917A032A
:1009700070917B0380917C0390917D0304C060EAB9
:100980007CE880E090E01F910F910895CF9381E083
:100990000E947407C82F80915F02813031F461E8B2
:1009A0000E9459076FEF82E10AC061E081E00E9476
:1009B00059076FEF8EE30E9459076FEF8FE30E9494
:1009C00059076C2F81E0CF910C945907CF93DF9397
:1009D000C82F81E00E947407D82FC09364028091D1
:1009E0005F02813051F461E80E945907609164020E
:1009F00082E20E94590782E20AC061E081E00E941F
:100A000059076091640282E30E94590782E30E94C1
:100A10007407C1E090916402981301C0C0E06D2F8B
:100A200081E00E9459076AEF70E080E090E00E9448
:100A30001E0C8C2FDF91CF9108952F923F924F92F1
:100A40005F926F927F928F929F92AF92BF92CF925E
:100A5000DF92EF92FF920F931F93CF93DF93CDB767
:100A6000DEB760970FB6F894DEBF0FBECDBF8F879D
:100A700080914502873051F0883081F0812C24E24A
:100A8000922E24EFA22E28E4B22E0FC0812C94E2E5
:100A9000992E94EFA92E97E4B92E07C0812C84E2F9
:100AA000982E84E7A82E88E4B82E20914702298347
:100AB00081E00E947407182F0E94580C80915F02F9
:100AC000813009F048C061E80E94590781E090E058
:100AD000098002C0880F991F0A94E2F71A821982CE
:100AE000212C312C33E0388B9C01990F440B550B92
:100AF0002B873C874D875E870E94C6040E94580C56
:100B00000E94580C9B01AC012C593F4F4F4F5F4F37
:100B10002B833C834D835E8367E881E00E94590705
:100B20000E94F90B6F83788789879A8782E10E94F8
:100B3000740700E0382F3470F32E82FD7AC00E94D3
:100B4000580C2B813C814D815E81621773078407AD
:100B5000950798F06EC01F8292E09B83612F81E021
:100B60000E9459070E94580C0E94C6042F8121112F
:100B700002C08B818FC082E08DC00E94F90B6B0197
:100B80007C016B857C858D859E850E947B199B01F0
:100B9000AC01C501B4010E94CC1B9B01AC0160E01B
:100BA00070E080E89FE30E94CC1B2B013C01C70151
:100BB000B6012F81388549855A85621B730B840BDA
:100BC000950B0E9479196B017C0120E034E244E727
:100BD00059E4C301B2010E94DA1920E030E040E795
:100BE00053E40E94491B9B01AC01C701B6010E945E
:100BF000C51C1816D4F4011118C08091240281304C
:100C000009F446C005E78BE10E947407800F8093CA
:100C10004E0249815A81480F511D87FD5A955A83CA
:100C200049835FEF251A350A01E082E10E947407CB
:100C300081CF0E94580CFF2061F082E10E9474076E
:100C400081709F8591509F8791110DC08F831B826A
:100C500017C028892150288B21110CC041E04B83FB
:100C600051E05F830DC0882309F446CF1B8231E039
:100C70003F8306C03F8531113FCF81E08B831F82C8
:100C800089819A81B1010E94CF1C60934E0266CF88
:100C900003E6B9CF60960FB6F894DEBF0FBECDBFA6
:100CA000DF91CF911F910F91FF90EF90DF90CF9048
:100CB000BF90AF909F908F907F906F905F904F907C
:100CC0003F902F900895EF92FF920F931F93CF9331
:100CD000DF9380915F028130E1F435E0E32EF12C67
:100CE00000E010E080912402813011F0C5E701C0DE
:100CF000C3E68BE10E9474078C0F80934E02080FAD
:100D0000111D87FD1A9581E0E81AF10859F7C8010D
:100D100012C005E010E0C0E0D0E081E10E9474075D
:100D200090E09595879580934E02C80FD91F01508A
:100D3000110999F7CE0165E070E00E94CF1C609325
:100D40004E0280E0DF91CF911F910F91FF90EF90C5
:100D500008950F931F93CF93DF938C01C0E0D0E0F1
:100D6000F801EC0FFD1F6491662341F087E891E0E4
:100D70000E949D0A892B11F02196F2CFCE01DF91BE
:100D8000CF911F910F910895009769F0FC01019098
:100D90000020E9F73197AF01481B590BBC0187E8E8
:100DA00091E00C94060A80E090E008958CE491E0D4
:100DB0000C94C406CF93DF930E94C406EC010E94FA
:100DC000D6068C0F9D1FDF91CF9108958F929F9231
:100DD000AF92BF920F931F93CF93DF93CDB7DEB740
:100DE000A1970FB6F894DEBF0FBECDBF19A2423057
:100DF00008F44AE08E010F5D1F4F842E912CA12C28
:100E0000B12CA50194010E94171BE62FB901CA015C
:100E100001501109EA3014F4E05D01C0E95CD80129
:100E2000EC93232B242B252B61F7C8010E94C406C9
:100E3000A1960FB6F894DEBF0FBECDBFDF91CF9164
:100E40001F910F91BF90AF909F908F900895CF9278
:100E5000DF92EF92FF92CF93DF9397FF1BC06B015E
:100E60007C016DE287E891E00E949D0AEC01662713
:100E70007727CB016C197D098E099F094AE00E94F2
:100E8000E6068C0F9D1FDF91CF91FF90EF90DF90D2
:100E9000CF9008954AE0DF91CF91FF90EF90DF90DF
:100EA000CF900C94E606BC01990F880B990B0C941B
:100EB00027070F931F93CF93DF93082F162FC4E2BA
:100EC000D2E060E08B810E94700B802F80680E94CE
:100ED000110D812F0E94110D61E08B81DF91CF9167
:100EE0001F910F910C94700B1F93CF93DF93182FCA
:100EF000C4E2D2E060E08B810E94700B812F8F777B
:100F00000E94110D80E00E94110D182F61E08B816D
:100F10000E94700B812FDF91CF911F9108958091D6
:100F20005F028823A1F08EE10E94740790E024E024
:100F3000959587952A95E1F78093470286508730EB
:100F400010F090E001C091E081E0892708958FEFD3
:100F50000895CF93DF938C31D0F4C82FC06281E025
:100F60000E947407D82F80915F02813011F461E8EC
:100F700002C061E081E00E9459076C2F8BE00E9463
:100F800059076D2F81E00E94590780E001C08FEF63
:100F9000DF91CF9108958F929F92AF92BF92CF929F
:100FA000DF92EF92FF92CF93DF934B015C010E949F
:100FB000580C609328027093290280932A02909320
:100FC0002B0281E00E947407D82F80915F0281304C
:100FD00011F461E802C061E081E00E945907B501A7
:100FE0008827992786E00E94590799278B2D7A2D0B
:100FF000692D87E00E945907682D88E00E945907F3
:101000000E94580C60932C0270932D0280932E0244
:1010100090932F0264E670E080E090E00E941E0C46
:1010200086E00E947407C82E87E00E947407C82FCC
:10103000D12CDC2CCC24E12CF12CFE2CED2CDC2C46
:10104000CC2488E00E9474072C2F30E0322F222716
:1010500090E0A0E0B0E0820F931FA11DB11DC80E6B
:10106000D91EEA1EFB1E8C149D04AE04BF0451F46D
:101070008092480290924902A0924A02B0924B029A
:10108000C0E001C0C1E06D2F81E00E94590764E615
:1010900070E080E090E00E941E0C8C2FDF91CF91D9
:1010A000FF90EF90DF90CF90BF90AF909F908F9088
:1010B0000895CF93DF930E94A906EC010E94D60603
:1010C0008C0F9D1FDF91CF910895CF93DF93C0E0E8
:1010D00068EC70E080E090E00E941E0C60E081E02F
:1010E0000E94590760E881E00E94590761E881E0A9
:1010F0000E9459078AE0C89FB00111246E5C7F4F9F
:10110000072E000C880B990B0E941E0C81E00E9498
:101110007407D82F83E095E00E945908C0FD05C0F0
:10112000C43111F0CF5F01C0C0E0D13889F681E051
:1011300080935F0280E0DF91CF910895CF93DF939A
:10114000C82F81E00E947407D82F80915F0281111F
:1011500002C00E94650861E881E00E9459076C2F77
:1011600089E30E94590764E670E080E090E00E9405
:101170001E0C89E30E947407C81304C0C0932502A3
:10118000C0E001C0C1E06D2F81E00E94590764E614
:1011900070E080E090E00E941E0C8C2FDF91CF91D8
:1011A0000895FF920F931F93CF93DF932091240212
:1011B000211107C09C01275031092330310520F44B
:1011C00005C08A30910510F081E0EDC0EC0181E0AE
:1011D0000E947407F82E80915F028111D3C00E9493
:1011E0006508182F61E881E00E9459078DE10E948F
:1011F0007407082F8091240281111DC0C830D105C9
:1012000089F0C930D10599F0C730D10591F50F7338
:101210000E948F07809147028B3011F08C3049F586
:10122000016027C0802F8F77082F006422C0802F95
:101230008F7B082F1BC00F70C830D105B9F0C930A3
:10124000D105B1F0C730D105A1F400670E948F0726
:10125000809147028B50823060F486E20E947407CE
:10126000682F686086E20E94590703C0006801C0C9
:101270000069602F8DE10E94590764E670E080E00C
:1012800090E00E941E0C8DE10E9474079091240250
:10129000911135C0C830D105D9F0C930D10521F13F
:1012A000C730D10509F060C0282F30E076E03595D1
:1012B00027957A95E1F7232B09F056C090914702C4
:1012C0009B3009F061C0282F2095122F11704CC05F
:1012D000282F30E066E0359527956A95E1F72130B3
:1012E000310509F041C059C0282F30E056E035954E
:1012F00027955A95E1F722303105B1F54EC0C83037
:10130000D105E9F0C930D10529F1C730D10561F522
:10131000282F30E044E0359527954A95E1F72730AE
:10132000310511F586E20E947407909147029B30C7
:1013300081F583FB882780F911E0182715C0282F35
:1013400030E094E0359527959A95E1F728303105FE
:1013500059F423C0282F30E084E0359527958A95ED
:10136000E1F729303105C9F01123B9F06F2D81E083
:101370000E94590764E670E080E090E00E941E0C35
:10138000812F11C012E02ECF9C3039F480FD05C0B2
:1013900008C09C3011F483FF04C0C093450210E0E4
:1013A000E5CF11E0E3CFDF91CF911F910F91FF9037
:1013B000089580915F02882329F18DE10E947407CE
:1013C00090912402682F911102C0646001C0616095
:1013D0008DE10E9459078DE10E94740790912402CB
:1013E000992311F020E001C022E090E002C0959521
:1013F00087952A95E2F780FF07C081E08093560227
:1014000080E008958FEF089581E00895CF92DF92F4
:10141000EF92FF920F931F93CF93DF936C017A01AA
:101420008B01C0E0D0E0CE15DF0581F0D8016D91D1
:101430008D01D601ED91FC910190F081E02DC60166
:101440000995892B11F02196EECF7E01C701DF911E
:10145000CF911F910F91FF90EF90DF90CF90089563
:10146000089580E090E00895FC01538D448D252F70
:1014700030E0842F90E0821B930B541710F0CF962E
:10148000089501970895FC01918D828D981761F060
:10149000828DDF01A80FB11D5D968C91928D9F5FAB
:1014A0009F73928F90E008958FEF9FEF0895FC0156
:1014B000918D828D981731F0828DE80FF11D858D09
:1014C00090E008958FEF9FEF0895FC01918D228D9C
:1014D000892F90E0805C9F4F821B91098F73992721
:1014E000089587E891E00E94650A21E0892B09F4BC
:1014F00020E0822F0895FC01848DDF01A80FB11D2B
:10150000A35ABF4F2C91848D90E001968F73992739
:10151000848FA689B7892C93A089B1898C91837017
:1015200080648C93938D848D981306C00288F38910
:10153000E02D80818F7D80830895EF92FF920F933D
:101540001F93CF93DF93EC0181E0888F9B8D8C8D6F
:10155000981305C0E889F989808185FD26C0F62E9B
:101560000B8D10E00F5F1F4F0F731127E02E8C8D36
:10157000E8120CC00FB607FCFACFE889F989808120
:1015800085FFF5CFCE010E947B0AF1CF8B8DFE0146
:10159000E80FF11DE35AFF4FF0829FB7F8940B8FCD
:1015A000EA89FB89808180620AC09FB7F894EE893E
:1015B000FF896083E889F9898081837080648083F2
:1015C0009FBF81E090E0DF91CF911F910F91FF903D
:1015D000EF900895CF93DF93EC01888D8823C9F0B5
:1015E000EA89FB89808185FD05C0A889B9898C912C
:1015F00086FD0FC00FB607FCF5CF808185FFF2CFC7
:10160000A889B9898C9185FFEDCFCE010E947B0A14
:10161000E7CFDF91CF91089580E090E0892B29F00A
:101620000E94710A81110C94000008950E94E41E2A
:101630001F920F920FB60F9211242F933F934F9347
:101640005F936F937F938F939F93AF93BF93EF932A
:10165000FF9387E891E00E947B0AFF91EF91BF9191
:10166000AF919F918F917F916F915F914F913F913A
:101670002F910F900FBE0F901F9018951F920F92F1
:101680000FB60F9211242F938F939F93EF93FF9395
:10169000E0919701F09198018081E0919D01F09196
:1016A0009E0182FD12C090818091A0018F5F8F7397
:1016B0002091A101821751F0E091A001F0E0E957DB
:1016C000FE4F958F8093A00101C08081FF91EF9123
:1016D0009F918F912F910F900FBE0F901F90189593
:1016E00090E0FC01EF5EFA4F2491FC01EF55FE4FB4
:1016F0003491FC01EB54FE4FE491EE2309F43CC01D
:10170000222339F1233091F038F42130A9F022302E
:1017100001F584B58F7D12C0273091F02830A1F0FB
:101720002430B9F4809180008F7D03C080918000C7
:101730008F77809380000DC084B58F7784BD09C0FA
:101740008091B0008F7703C08091B0008F7D80932F
:10175000B000F0E0EE0FFF1FE95FFA4FA591B491E2
:101760009FB7F894611104C08C913095382302C062
:10177000EC913E2B3C939FBF0895CF93DF9390E075
:10178000FC01EF55FE4F2491FC01EB54FE4F849178
:10179000882361F190E0880F991FFC01E956FE4F04
:1017A000C591D491FC01E95FFA4FA591B491611103
:1017B00009C09FB7F8948881209582238883EC9193
:1017C0002E230BC0623061F49FB7F8948881322FCA
:1017D000309583238883EC912E2B2C939FBF06C0DA
:1017E0008FB7F894E8812E2B28838FBFDF91CF919C
:1017F00008953FB7F89480918F0390919003A09142
:101800009103B091920326B5A89B05C02F3F19F014
:101810000196A11DB11D3FBFBA2FA92F982F882770
:10182000820F911DA11DB11DBC01CD0142E0660FCB
:10183000771F881F991F4A95D1F708958F929F921D
:10184000AF92BF92CF92DF92EF92FF926B017C0139
:101850000E94F90B4B015C01C114D104E104F104B5
:10186000F1F00E94F90BDC01CB0188199909AA0952
:10187000BB09883E9340A105B10570F321E0C21A6F
:10188000D108E108F10888EE880E83E0981EA11CBB
:10189000B11CC114D104E104F10419F7DDCFFF90AC
:1018A000EF90DF90CF90BF90AF909F908F90089572
:1018B0002FB7F89460918B0370918C0380918D0306
:1018C00090918E032FBF08951F920F920FB60F9223
:1018D00011242F933F938F939F93AF93BF93809146
:1018E0008B0390918C03A0918D03B0918E03309166
:1018F0008A0323E0230F2D3720F40196A11DB11D8B
:1019000005C026E8230F0296A11DB11D20938A036E
:1019100080938B0390938C03A0938D03B0938E03DD
:1019200080918F0390919003A0919103B0919203C5
:101930000196A11DB11D80938F0390939003A093F6
:101940009103B0939203BF91AF919F918F913F917B
:101950002F910F900FBE0F901F9018951F920F920E
:101960000FB60F9211248F930FB6F894A89580911B
:101970006000886180936000109260000FBE8F91BC
:101980000F900FBE0F901F9018954115510529F427
:10199000EAE7F0E080818F7780836A307105A9F0F3
:1019A00063FD02C088E001C088E26770682B88E1AF
:1019B0000FB6F894A895809360000FBE6093600006
:1019C000E0E6F0E0808180648083232BA1F483B77C
:1019D000817F846083BFF89483B7816083BF85B7BC
:1019E000806685BF8F7D85BF7894889583B78E7F0D
:1019F00083BF78940EC083B7817F846083BFF894DF
:101A000083B7816083BF7894889583B78E7F83BFC7
:101A10007894452B29F4EAE7F0E0808180688083A0
:101A200008958EBD00000DB407FEFDCF8EB508955C
:101A3000CF93DF93CDB7DEB7AB970FB6F894DEBF89
:101A40000FBECDBF789484B5826084BD84B58160BB
:101A500084BD85B5826085BD85B5816085BD809179
:101A60006E00816080936E001092810080918100F1
:101A700082608093810080918100816080938100E9
:101A8000809180008160809380008091B1008460AB
:101A90008093B1008091B00081608093B00080910C
:101AA0007A00846080937A0080917A0082608093CB
:101AB0007A0080917A00816080937A0080917A0028
:101AC000806880937A001092C10060E08FE00E94ED
:101AD000BD0B61E089E00E94BD0B68EB7BE080E01C
:101AE00090E00E941E0CE0919701F091980182E035
:101AF0008083E0919301F09194011082E09195012F
:101B0000F091960183E3808310929F01E0919B0105
:101B1000F0919C0186E08083E0919901F0919A0117
:101B2000808180618083E0919901F0919A018081A8
:101B300088608083E0919901F0919A0180818068AA
:101B40008083E0919901F0919A0180818F7D80835B
:101B50008AEE92E00E94A90685ED92E00E94A90615
:101B600061E0809127020E94BD0B61E08091270215
:101B70000E94700B64E670E080E090E00E941E0C12
:101B80001FB7F89480915001811127C0EFEBF1E06D
:101B90008491EBEAF1E09491E82FF0E0EE0FFF1F63
:101BA000E956FE4FA591B491EC91E92321F461E04F
:101BB0008AE00E94700B61E08AE00E94BD0B8CB548
:101BC00080618CBD8CB580648CBD61E08DE00E942D
:101BD000BD0B61E08BE00E94BD0B809150018F5FD7
:101BE000809350011FBF8CB58F7D8CBD8CB58C7FD1
:101BF00081608CBD8DB581608DBD8CB5837F8CBDC2
:101C000064E670E080E090E00E941E0C82E40E9496
:101C10007407823239F48CEF91E00E9459081092D7
:101C2000240211C082E40E947407823141F482EEE2
:101C300091E00E94590881E08093240204C089EC5D
:101C400091E00E94590880912402813059F08BE183
:101C50000E94A9070E94650880915F02813009F007
:101C600050C029C08EE791E00E94590860E089E0E9
:101C70000E9459078BE30E947407682F60648BE30E
:101C80000E9459078BE30E94740785FDFBCF60E03B
:101C900070E089ED90E00E94CB078BE30E9474070F
:101CA000682F60648BE30E9459078BE30E947407DE
:101CB00085FDFBCFCCCF80912402882319F002E070
:101CC0001EE102C001E01DE1812F0E947407909186
:101CD0002402682F911102C0626001C06460812FEC
:101CE0000E945907812F0E94740790E002C09595C9
:101CF00087950A95E2F780FF11C081E08093580232
:101D00000DC080E30E947407682F606180E30E9429
:101D1000590780E30E94740784FDEFCF80915F0232
:101D2000813049F480E20E9474071092510280933E
:101D3000520281E208C085E20E94740710925102AB
:101D40008093520286E20E947407209151023091E2
:101D50005202280F311D309352022093510280917C
:101D600026020E949E0880915F02882329F089E361
:101D70000E94740780932502809125028093260299
:101D80000E94580C611571058105910511F00E94A2
:101D9000391780E090E00E94981A082F8093520132
:101DA00081E090E00E94981A182F8093530182E0FE
:101DB00090E00E94981A809354010231D9F41433B0
:101DC000C9F484EB92E00E94A906809154018093AB
:101DD0005A0283E992E00E94A90660915A0270E0DB
:101DE00080E090E04AE00E94E6068EE491E00E94E6
:101DF000DA060AC082E18093520184E380935301A2
:101E000080915A028093540181E00E947407082F48
:101E100080915F02811102C00E94650861E881E043
:101E20000E9459070E94FD038CE00E94BE0287E0D9
:101E300090E00E94D1088DE10E9474072091240255
:101E400090E0211108C033E0959587953A95E1F728
:101E5000019731F466C395958795C99709F461C3D5
:101E600011E0809126020E949E08111103C081E0BA
:101E700080933802602F81E00E94590764E670E089
:101E800080E090E00E941E0C8EE792E00E94A9067E
:101E9000812F90E00E9453078EE491E00E94DA06C1
:101EA0006CEC7CE488ED90E00E94CB07182F86E66E
:101EB00092E00E94A906812F110F990B0E945307EF
:101EC0008EE491E00E94DA0681E080933C02109259
:101ED0003B028093410280912402882311F01DE48B
:101EE00001C01AE581E00E947407082F80915F020B
:101EF000813011F461E802C061E081E00E9459077D
:101F000064E8812F0E94590780E10E94A9079091FF
:101F1000240280914102911106C0811102C01FE08C
:101F200008C01CE806C0882311F01CE801C01EE0B0
:101F30001067612F89E00E94590710934C0289E0D5
:101F40000E94740711E090914C02981301C010E0B8
:101F5000602F81E00E94590764E670E080E090E025
:101F60000E941E0C80E592E00E94A906812F90E05D
:101F70000E9453078EE491E00E94DA0688E0809385
:101F8000550281E00E947407182F80915F02813012
:101F900011F461EC02C061E081E00E94590768E041
:101FA00083E30E94590760E084E30E94590783E3BA
:101FB0000E947407F82E612F81E00E94590701E00A
:101FC00010E0809155028F1102C000E010E086E31E
:101FD00092E00E94A906C8010E9453078EE491E096
:101FE0000E94DA0686E192E00E94A90664EF71E0A1
:101FF00080E090E00E941E0C61E089E00E94700B7E
:1020000068EC70E080E090E00E941E0C85E0E82E15
:10201000F12C812C912C540121E420937C0080919F
:102020007A00806480937A0080917A0086FDFCCFEC
:10203000009178008091790010E0182B8AE093E0FD
:102040000E94A906C8010E9453070E94D606B80143
:10205000110F880B990B0E947B1920E030E44CE9AA
:1020600055E40E94DA1920E030E040E85AE30E948B
:10207000DA1920E030E040E251E40E94CC1B9B01E1
:10208000AC01C501B4010E94491B4B015C0164E62F
:1020900070E080E090E00E941E0C31E0E31AF1084D
:1020A00009F0BACF60E089E00E94700B89EA94E001
:1020B0000E94A90620E030E040EA50E4C501B401E6
:1020C0000E94CC1B6B017C019B01AC010E94CA1CCD
:1020D000882319F088E391E01AC046015701E8947B
:1020E000B7F82FEF3FEF4FE75FE7C501B4010E945C
:1020F000CA1C81110FC02FEF3FEF4FE75FE7C5010B
:10210000B4010E94741918162CF48CE391E00E941B
:10211000C40676C02FEF3FEF4FE75FE4C701B6017B
:102120000E94C51C18161CF480E491E0F0CF2FEF3C
:102130003FEF4FE75FECC701B6010E94741987FDBE
:10214000F3CF20E030E0A901C701B6010E94741965
:1021500087FF09C06DE287E891E00E949D0AC701F0
:10216000B601905802C0C701B6012AE037ED43EA34
:102170005BE30E94491B2B013C010E943E1C4B016A
:102180005C010E9479199B01AC01C301B2010E945C
:10219000481B2B013C014AE0C501B4010E94E60640
:1021A0006EE287E891E00E949D0A20E030E040E284
:1021B00051E4C301B2010E94DA192B013C010E94D3
:1021C0003E1C4B01A12CB12C4AE0C501B4010E9478
:1021D000E606C501B4010E9479199B01AC01C30157
:1021E000B2010E94481B20E030E040E251E40E942E
:1021F000DA190E943E1C80E090E04AE00E94E60668
:102200008EE491E00E94DA068E010F5F1F4F22E0FC
:1022100044E0C701B6010E9480168C010097B9F016
:10222000FC0101900020E9F7BF01681B790B80E0F9
:1022300090E00E941E1E7C01009739F0FC01108284
:10224000B8010E94F21E870102C000E010E01F9357
:102250000F9320E031E03F932F9384E491E09F932C
:102260008F9385E591E09F938F930E94F91E7C01E7
:10227000C8010E94951D80EA94E00E94A90685E5A8
:1022800091E00E94C4068EE491E00E94DA068AE89A
:1022900094E00E94A9066E2D70E080E090E04AE094
:1022A0000E94E6068EE491E00E94DA0617013324CC
:1022B0008CE893E00E94A9060FB6F894DEBF0FBE2B
:1022C000CDBF80913902882309F46FC180913C020F
:1022D000882309F46AC103E0F02ED12C18E0E12E26
:1022E0000E94580C60933002709331028093320246
:1022F00090933302809139020E941D05182F0E948D
:10230000580C609334027093350280933602909398
:10231000370283E893E00E94A906809134029091ED
:102320003502A0913602B091370280903002909031
:102330003102A0903202B0903302BC01CD01681985
:1023400079098A099B094AE00E94E6060E94D6069E
:1023500011118DC08EE793E00E94A90680913A0288
:10236000882309F4EDC00E94EB1627E030E040E03E
:1023700050E00E94AE1A4B015C01EFEF8E1A9E0AEC
:10238000AE0ABE0A80E793E00E94A906C501B40127
:102390007727882799274AE00E94E60688E693E097
:1023A0000E94A906E0913802F0E0E75EFE4F8081CE
:1023B000889DC00111240E9453070E94D606E09117
:1023C0003802F0E0E75EFE4F6081869EB001112486
:1023D000072E000C880B990B0E941E0C0E94580CB3
:1023E00060933002709331028093320290933302F3
:1023F000809139020E941D05082F10E00E94580CA0
:1024000060933402709335028093360290933702C2
:102410008FE593E00E94A9068091340290913502E5
:10242000A0913602B0913702809030029090310234
:10243000A0903202B0903302BC01CD016819790935
:102440008A099B094AE00E94E6060E94D606011509
:10245000110519F48BE593E002C088E593E00E9432
:10246000A9060E94D606012B09F46AC056C084E56D
:1024700093E00E94A9060E94EB1627E030E040E0BE
:1024800050E00E94AE1A4B015C01FFEF8F1A9F0AC9
:10249000AF0ABF0A86E493E00E94A906C501B40111
:1024A0007727882799274AE00E94E60688E393E089
:1024B0000E94A906E0913802F0E0E25FFE4F8081C1
:1024C000082D10E023E0829FC0011124AC01409F41
:1024D000C001419F900D509F900D11240E94530701
:1024E0000E94D606E0913802F0E0E25FFE4F808164
:1024F00053E0859FC0011124809FB001819F700D22
:10250000909F700D1124072E000C880B990B0E94D0
:102510001E0C8DE293E00E94A906EA94E110E0CE41
:102520000FC08EE10E94740790E024E09595879596
:102530002A95E1F711E00C9709F093CC10E091CCCB
:1025400080913B02882379F10E946306811123C0A8
:1025500018E00E94630683E293E00E94A90680913E
:102560004E02082E000C990B0E9453070E94D606BB
:10257000115061E070E080E090E00E941E0C8091BC
:102580004E02873A6CF01111E4CFFA94DD24D39413
:10259000F110A4CE0AC083E193E00E94A90605C011
:1025A000111103C0F2CFD110F0CF0E94580C6CA3D0
:1025B0007DA38EA39FA380E1809361023CEF23164D
:1025C00031043CF08BEF90E09093540280935302DF
:1025D00004C03092540220925302809179038823E0
:1025E00009F410C1A0905302B090540280913F02B0
:1025F000811103C084E0A80EB11C0E944B0468A79F
:1026000079A78AA79BA710914502173051F018307F
:1026100081F0C12CB4E2DB2EB4EFEB2EB8E4FB2E3C
:102620000FC0C12CA4E2DA2EA4EFEA2EA7E4FA2E02
:1026300007C0C12CF4E2DF2EF4E7EF2EF8E4FF2E02
:1026400000914702E02FF0E0FBA3EAA361E070E015
:10265000002E02C0660F771F0A94E2F7072E000CC7
:10266000880B990B0E947B199B01AC01C701B60135
:102670000E94CC1B9B01AC0160E070E080E89FE30E
:102680000E94CC1B6B017C0160915102709152023F
:102690006C5F7F4F80E090E00E94791920E030E08D
:1026A00048E850E40E94491BA70196010E94DA19EC
:1026B0002B013C01173019F411E00C3009F010E047
:1026C000B5017727660F771F2AA13BA1621B730B09
:1026D000655F7F4F8091560235E0839F60197109D5
:1026E0001124660F771F660F771F072E000C880BCB
:1026F000990B0E947B194B015C01812F90E0880FA0
:10270000991F6AA17BA1681B790B660F771F660F63
:10271000771F072E000C880B990B0E947B199B01D9
:10272000AC01C501B4010E94CC1B0E94B51B4B013A
:102730005C016091460270E06C5F7F4F072E000CD9
:10274000880B990B0E947B19A50194010E94DA194C
:102750004B015C0120E030E0A9010E94C51C20E093
:1027600030E040E051E4181634F4C501B4010E9491
:10277000491B9B01AC01C701B6010E94DA19A301F4
:1027800092010E94491B20E034E244E759E40E9490
:10279000DA1927E73EEB4FE75FE30E94491B0E94EF
:1027A0006D1C0E943E1C28EE33E040E050E00E9489
:1027B000171BCA01B9010E9479190E94B51B20E0BC
:1027C00030E040E85FE30E94491B0E943E1C70938A
:1027D00087036093860388A599A5AAA5BBA5861B38
:1027E000970BA109B109B7FF0DC085E993E00E94DD
:1027F000A9060E94580C4AE00E94E6060E94D606EE
:1028000004E00EC181E00E947407182F0E94C604E4
:1028100080915F02813011F461E802C061E081E0E3
:102820000E94590710925B0220915C028091530232
:102830009091540221113DC021E020935902209330
:102840006002209155022093620220915A02209347
:1028500063022F5F20935A021092670220915F0259
:10286000211108C0CD9730F08CE390E09093540292
:1028700080935302E5E5F1E09F01255531408091B9
:102880005302909154022817390750F481914091D6
:10289000650250916602DA01A20FB31F8C93ECCF50
:1028A00020913F02211101C004960E94E604082FE6
:1028B00013C0213029F4209164022F5F2093640219
:1028C00020913F02211101C004960E94E604082FC6
:1028D00080915C028093670280916102982F9061E1
:1028E0009093610290914302992319F0886180933B
:1028F000610260E88DE00E94590701112EC08091AD
:102900003F02811113C0609160020E9459076091DB
:10291000610280E00E9459076091620280E00E949B
:1029200059076091630280E00E945907E12CF12C65
:102930008091530290915402E816F90670F4E091E8
:102940006502F0916602EE0DFF1D608180E00E943D
:1029500059074FEFE41AF40AEBCF612F81E00E9490
:10296000590701115DC080E197E29093780380934D
:1029700077030E94580C6B017C0150E1C50E57E2B1
:10298000D51EE11CF11C80915F028130A1F40E94F0
:10299000C60463E881E00E94590782E10E9474073F
:1029A00083FD1AC00E94580C6C157D058E059F058D
:1029B000A0F301E033C063E081E00E9459078FE398
:1029C0000E94740783FD08C00E94580C6C157D0599
:1029D0008E059F05A0F3EDCF809179038823F1F058
:1029E000E0908603F09087030E944B048091790366
:1029F0008823A1F080917A0390917B03A0917C03BE
:102A0000B0917D038E199F09A109B10980937A03C2
:102A100090937B03A0937C03B0937D030E94C60434
:102A200010E00E94580C4B015C0180915A02809387
:102A3000540132E5E32E31E0F32EC12CD12CF70105
:102A400071907F01C6010E94981A781621F0672DB7
:102A5000C6010E94A01AFFEFCF1ADF0A23E0C216B8
:102A6000D10469F78BE794E00E94A906C1010E9496
:102A700053078EE491E00E94DA068DE694E00E940E
:102A8000A9066091630270E080E090E04AE00E9455
:102A9000E6068EE491E00E94DA068FE594E00E945B
:102AA000A906C501B4012CA13DA14EA15FA1621BE5
:102AB000730B840B950B0E9427078EE491E00E9414
:102AC000DA068BE494E00E94A9068091300290918E
:102AD0003102A0913202B0913302A5019401281B6A
:102AE000390B4A0B5B0BCA01B9014AE00E94E606AA
:102AF0008EE491E00E94DA0687E394E00E94A90642
:102B0000C8010E9453078EE491E00E94DA0685E234
:102B100094E00E94A9060E944B040E9427078EE4BD
:102B200091E00E94DA0688E094E00E94A90661E83C
:102B300081E00E94590764E670E080E090E00E9426
:102B40001E0C60E881E00E94590781E00E94740732
:102B5000803819F489ED93E002C08DEA93E00E9479
:102B6000A90687E891E00E94EA0A62E370E080E04B
:102B700090E00E941E0C8BE490E090938903809378
:102B8000880310E0812F90E0209188033091890321
:102B900082179307D0F420E030E040E050E069E095
:102BA00070E081E591E00E94C50C8BEA93E00E9401
:102BB000A90687E891E00E94EA0A61E070E080E0FF
:102BC00090E00E941E0C1F5FDDCF0E940C0B14CA08
:102BD0000F931F93CF93DF93E7E8F1E01382128204
:102BE00088EE93E0A0E0B0E084839583A683B7836A
:102BF00088E291E09183808385EC90E095878487DB
:102C000084EC90E09787868780EC90E0918B808BB6
:102C100081EC90E0938B828B82EC90E0958B848B9F
:102C200086EC90E0978B868B118E128E138E148E0D
:102C3000C4E2D2E08AE08B8397E099A381E08AA383
:102C40009BA340E050EC64EE70E04CA35DA36EA348
:102C50007FA31AAA1CAA1BAE9FE098A71EAA1FAAB0
:102C600018AE92E19A831B8E1E8A8F8B188E89E094
:102C70008D8B1D8E109279030E94580C60937E03F9
:102C800070937F03809380039093810300EA1CE894
:102C900020E030E000937A0310937B0320937C03C1
:102CA00030937D03DC01CB0180589141A94CBF4F8B
:102CB0008093820390938303A0938403B09385034E
:102CC0001F8E88E792E0909366028093650290934E
:102CD0006E0280936D0283E793E090937602809377
:102CE000750219AE88AD809367028BE490E09093F3
:102CF000890380938803DF91CF911F910F910895ED
:102D0000EF920F931F93CF93DF93E80147FD02C02B
:102D100034E001C034E1042E000C550B57FF03C012
:102D2000519541955109E32E022F242FAE010E94A7
:102D30004217CE01DF91CF911F910F91EF9008952F
:102D40008F929F92AF92BF92CF92DF92EF92FF92BB
:102D5000CF93DF93EC01688179818A819B81611532
:102D600071058105910521F464E279ED8BE597E029
:102D70002DE133EF41E050E00E94AE1A49015A01C3
:102D80009B01AC01A7EAB1E40E94CD1A6B017C0162
:102D9000ACEEB4EFA50194010E94DB1ADC01CB017B
:102DA0008C0D9D1DAE1DBF1DB7FF03C00197A1096E
:102DB000B04888839983AA83BB83BC01CD019F77E8
:102DC000DF91CF91FF90EF90DF90CF90BF90AF90C9
:102DD0009F908F9008958F929F92AF92BF92CF92C3
:102DE000DF92EF92FF926091040170910501809152
:102DF000060190910701611571058105910521F486
:102E000064E279ED8BE597E02DE133EF41E050E0AE
:102E10000E94AE1A49015A019B01AC01A7EAB1E434
:102E20000E94CD1A6B017C01ACEEB4EFA5019401B8
:102E30000E94DB1ADC01CB018C0D9D1DAE1DBF1D58
:102E4000B7FF03C00197A109B04880930401909394
:102E50000501A0930601B0930701BC01CD019F7746
:102E6000FF90EF90DF90CF90BF90AF909F908F90AA
:102E70000895609304017093050180930601909377
:102E800007010895A9E0B0E0E8E4F7E10C94E61A40
:102E90006A01122FB02E2BE3201720F0FF24F394A9
:102EA000F00E02C02CE3F22E0F2D27E0AE014F5F93
:102EB0005F4F0E949C18BC014981842F897081302A
:102EC00031F0E1FC06C0E0FE06C090E205C09DE2E4
:102ED00003C09BE201C090E05E2D507143FF3CC0F7
:102EE000911102C083E001C084E0811718F4212F02
:102EF000281B01C020E051110BC0F601822F30E2E7
:102F0000882319F031938150FBCFC20ED11C20E0F1
:102F1000992329F0D6019C93F60131966F01C601E1
:102F20000396E2FE0AC03EE4D6013C9341E41196CA
:102F30004C93119712963C9306C03EE6F6013083FF
:102F400041E641833283FC01322F40E2332309F40E
:102F500042C041933150FACF42FF44C0911102C0A8
:102F600083E001C084E0811718F4212F281B01C0E1
:102F700020E051110BC0F601822F30E2882319F0B6
:102F800031938150FBCFC20ED11C20E0992329F050
:102F9000D6019C93F60131966F01C6010396E2FEBD
:102FA0000BC039E4D6013C933EE411963C93119753
:102FB00036E412963C9307C039E6F60130833EE6CC
:102FC000318336E63283FC01322F40E2332319F09D
:102FD00041933150FBCFFC01E20FF11D10828EEFC7
:102FE0009FEFA6C021E030E0911102C020E030E068
:102FF000161617061CF4FB01319602C0E1E0F0E062
:103000002E0F3F1FBB2021F0EB2DF0E0319602C0C8
:10301000E0E0F0E02E0F3F1FE12FF0E02E173F071A
:103020001CF4121B212F01C020E08E2D887159F451
:10303000F601822F30E2882319F031938150FBCFC3
:10304000C20ED11C20E0992329F0D6019C93F601F1
:1030500031966F0151110BC0F601822F90E3882346
:1030600019F091938150FBCFC20ED11C20E00F2D9F
:10307000060F9A81342F307144FF03C0913309F455
:103080000150101624F4093018F008E001C001E0E6
:10309000AB0177FF02C040E050E0FB01E41BF50B01
:1030A000A1E0B0E0AC0FBD1FEA0FFB1F8EE2A82E1F
:1030B0004B01801A91080B2D10E011950195110913
:1030C0004F3FBFEF5B0721F4D601AC9211966D0123
:1030D000641775072CF08416950614F4818101C0DD
:1030E00080E3415051093196D60111967D01401778
:1030F000510724F0D6018C936701E2CF641775075E
:1031000039F4963320F4953319F4311101C081E379
:10311000F6018083F701822F90E2882319F09193C2
:103120008150FBCFF701E20FF11D108280E090E0AB
:103130002996ECE00C94021B283008F027E0332796
:10314000DA01990F311D87FD9160009661057105C7
:1031500039F432602E5F3D9330E32A95E1F708950C
:103160009F3F30F080387105610509F03C5F3C5F9E
:103170003D93913008F08068911DDF93CF931F93AA
:103180000F93FF92EF92192F987F9695E92F9695BE
:103190009695E90FFF27E252FF4F99273327EE2438
:1031A000FF24A701E70105900894079428F4360F3F
:1031B000E71EF81E491F511D660F771F881F991FB4
:1031C0000694A1F70590079428F4E70EF81E491F0E
:1031D000561FC11D770F881F991F661F0694A1F700
:1031E0000590079428F4F80E491F561FC71FD11DDC
:1031F000880F991F661F771F0694A1F70590079403
:1032000020F4490F561FC71FD81F990F661F771F3D
:10321000881F0694A9F784911095177041F0D695F0
:10322000C79557954795F794E7941A95C1F7E4E841
:10323000F0E0689415901591359165919591059000
:103240007FE27395E118F10A430B560BC90BD009C5
:10325000C0F7E10CF11E431F561FC91FD01D7EF49D
:10326000703311F48A95E6CFE894015030F0080FDE
:103270000AF40027021708F4202F2395022F7A332F
:1032800028F079E37D932A95E9F710C07D932A957C
:1032900089F6069497956795379517951794E118D1
:1032A000F10A430B560BC90BD00998F023957E9178
:1032B00073957A3308F070E37C932013B8F77E910E
:1032C00070617D9330F0839571E37D9370E32A956F
:1032D000E1F71124EF90FF900F911F91CF91DF91B3
:1032E000992787FD909508950E94B61908F481E00A
:1032F0000895E89409C097FB3EF4909580957095E9
:1033000061957F4F8F4F9F4F9923A9F0F92F96E931
:10331000BB279395F695879577956795B795F111A6
:10332000F8CFFAF4BB0F11F460FF1BC06F5F7F4F43
:103330008F4F9F4F16C0882311F096E911C0772355
:1033400021F09EE8872F762F05C0662371F096E85E
:10335000862F70E060E02AF09A95660F771F881F2D
:10336000DAF7880F9695879597F90895990F0008D1
:10337000550FAA0BE0E8FEEF16161706E807F90747
:10338000C0F012161306E407F50798F0621B730BE2
:10339000840B950B39F40A2661F0232B242B252B63
:1033A00021F408950A2609F4A140A6958FEF811D06
:1033B000811D08950E94ED190C945E1A0E94501A06
:1033C00038F00E94571A20F0952311F00C94471AF8
:1033D0000C944D1A11240C94921A0E946F1A70F3D7
:1033E000959FC1F3950F50E0551F629FF001729FAA
:1033F000BB27F00DB11D639FAA27F00DB11DAA1FB9
:10340000649F6627B00DA11D661F829F2227B00D05
:10341000A11D621F739FB00DA11D621F839FA00D90
:10342000611D221F749F3327A00D611D231F849FE0
:10343000600D211D822F762F6A2F11249F57504037
:103440009AF0F1F088234AF0EE0FFF1FBB1F661FB2
:10345000771F881F91505040A9F79E3F510580F07B
:103460000C94471A0C94921A5F3FE4F3983ED4F3FD
:10347000869577956795B795F795E7959F5FC1F71F
:10348000FE2B880F911D9695879597F9089597F9CA
:103490009F6780E870E060E008959FEF80EC0895FA
:1034A00000240A9416161706180609060895002423
:1034B0000A9412161306140605060895092E03949D
:1034C000000C11F4882352F0BB0F40F4BF2B11F411
:1034D00060FF04C06F5F7F4F8F4F9F4F089557FD70
:1034E0009058440F551F59F05F3F71F04795880F72
:1034F00097FB991F61F09F3F79F087950895121609
:1035000013061406551FF2CF4695F1DF08C01616B4
:1035100017061806991FF1CF869571056105089465
:103520000895E894BB2766277727CB0197F908957C
:10353000F999FECF92BD81BDF89A992780B508957B
:10354000262FF999FECF1FBA92BD81BD20BD0FB6BF
:10355000F894FA9AF99A0FBE01960895052E97FBF2
:103560001EF400940E94C51A57FD07D00E94171B35
:1035700007FC03D04EF40C94C51A50954095309535
:1035800021953F4F4F4F5F4F0895909580957095CF
:1035900061957F4F8F4F9F4F08950E94391BA59FC4
:1035A000900DB49F900DA49F800D911D112408953E
:1035B000B7FF0C94CD1A0E94CD1A821B930B08956D
:1035C0002F923F924F925F926F927F928F929F9233
:1035D000AF92BF92CF92DF92EF92FF920F931F9321
:1035E000CF93DF93CDB7DEB7CA1BDB0B0FB6F894D2
:1035F000DEBF0FBECDBF09942A88398848885F8412
:103600006E847D848C849B84AA84B984C884DF8082
:10361000EE80FD800C811B81AA81B981CE0FD11D66
:103620000FB6F894DEBF0FBECDBFED010895A1E245
:103630001A2EAA1BBB1BFD010DC0AA1FBB1FEE1F2C
:10364000FF1FA217B307E407F50720F0A21BB30B77
:10365000E40BF50B661F771F881F991F1A9469F7F3
:1036600060957095809590959B01AC01BD01CF014F
:103670000895A29FB001B39FC001A39F700D811D4B
:103680001124911DB29F700D811D1124911D08956B
:103690005058BB27AA270E94601B0C945E1A0E94F8
:1036A000501A38F00E94571A20F039F49F3F19F44D
:1036B00026F40C944D1A0EF4E095E7FB0C94471A8F
:1036C000E92F0E946F1A58F3BA176207730784072D
:1036D000950720F079F4A6F50C94911A0EF4E09574
:1036E0000B2EBA2FA02D0B01B90190010C01CA01BC
:1036F000A0011124FF27591B99F0593F50F4503E67
:1037000068F11A16F040A22F232F342F4427585F58
:10371000F3CF469537952795A795F0405395C9F770
:103720007EF41F16BA0B620B730B840BBAF0915028
:10373000A1F0FF0FBB1F661F771F881FC2F70EC0C7
:10374000BA0F621F731F841F48F48795779567959A
:10375000B795F7959E3F08F0B0CF9395880F08F086
:103760009927EE0F9795879508950E94AD1C90F0CC
:103770009F3748F4911116F40C94921A60E070E0AF
:1037800080E89FE3089526F01B16611D711D811DC1
:103790000C94841C0C949F1C0E94E01B0C945E1AD9
:1037A0000E94571A58F00E94501A40F029F45F3FC7
:1037B00029F00C94471A51110C94921A0C944D1A3A
:1037C0000E946F1A68F39923B1F3552391F3951B67
:1037D000550BBB27AA2762177307840738F09F5F32
:1037E0005F4F220F331F441FAA1FA9F335D00E2E9F
:1037F0003AF0E0E832D091505040E695001CCAF70C
:103800002BD0FE2F29D0660F771F881FBB1F2617CE
:1038100037074807AB07B0E809F0BB0B802DBF01A5
:10382000FF2793585F4F3AF09E3F510578F00C9474
:10383000471A0C94921A5F3FE4F3983ED4F38695AE
:1038400077956795B795F7959F5FC9F7880F911D95
:103850009695879597F90895E1E0660F771F881F81
:10386000BB1F621773078407BA0720F0621B730B34
:10387000840BBA0BEE1F88F7E09508950E94771A23
:1038800088F09F5798F0B92F9927B751B0F0E1F021
:10389000660F771F881F991F1AF0BA95C9F714C0D1
:1038A000B13091F00E94911AB1E008950C94911AF0
:1038B000672F782F8827B85F39F0B93FCCF386950A
:1038C00077956795B395D9F73EF490958095709567
:1038D00061957F4F8F4F9F4F08950E94AD1C90F0D0
:1038E0009F3748F4911116F00C94921A60E070E042
:1038F00080E89FEB089526F41B16611D711D811D44
:103900000C94841C0C949F1C882371F4772321F061
:103910009850872B762F07C0662311F499270DC086
:103920009051862B70E060E02AF09A95660F771F21
:10393000881FDAF7880F9695879597F908959F3F26
:1039400031F0915020F4879577956795B795880F5A
:10395000911D9695879597F908950E94771AA0F082
:10396000BEE7B91788F4BB279F3860F41616B11D5F
:10397000672F782F8827985FF7CF8695779567957B
:10398000B11D93959639C8F308950E94B61908F4AD
:103990008FEF08950E94B619880B990B089597FB35
:1039A000072E16F4009407D077FD09D00E94E91C79
:1039B00007FC05D03EF4909581959F4F0895709532
:1039C00061957F4F0895EE0FFF1F0590F491E02D54
:1039D0000994AA1BBB1B51E107C0AA1FBB1FA61756
:1039E000B70710F0A61BB70B881F991F5A95A9F7A8
:1039F00080959095BC01CD0108950F931F93CF93AF
:103A0000DF938230910510F482E090E0E09195031D
:103A1000F091960320E030E0A0E0B0E0309719F19B
:103A2000408151810281138148175907C8F08417DA
:103A3000950769F4109731F012960C93129713962C
:103A40001C9327C0009395031093960322C0211561
:103A5000310519F04217530718F49A01BD01EF011F
:103A6000DF01F801DBCF21153105F9F0281B390BF7
:103A70002430310580F48A819B816115710521F024
:103A8000FB019383828304C09093960380939503F4
:103A9000FE01329644C0FE01E20FF31F8193919321
:103AA00022503109398328833AC020919303309101
:103AB0009403232B41F420910A0130910B013093A0
:103AC000940320939303209108013091090121155B
:103AD000310541F42DB73EB740910C0150910D01D5
:103AE000241B350BE0919303F0919403E217F30745
:103AF000A0F42E1B3F0B2817390778F0AC014E5F5E
:103B00005F4F2417350748F04E0F5F1F5093940303
:103B1000409393038193919302C0E0E0F0E0CF01E2
:103B2000DF91CF911F910F910895CF93DF9300976D
:103B300009F481C0FC01329713821282A09195038F
:103B4000B0919603109781F420813181820F931FE9
:103B500020919303309194032817390751F5F0937E
:103B60009403E093930367C0ED0120E030E0CE17AB
:103B7000DF0740F44A815B819E0141155105F1F058
:103B8000EA01F5CFD383C28340815181840F951F11
:103B9000C817D90759F488819981840F951F029617
:103BA000918380838A819B81938382832115310550
:103BB00029F4F0939603E09395033DC0E901FB835C
:103BC000EA8349915991C40FD51FEC17FD0761F4A1
:103BD00080819181840F951F0296E90199838883E2
:103BE000828193819B838A83E0E0F0E012968D913D
:103BF0009C911397009719F0FD01DC01F7CF8D918F
:103C00009C9111979D012E5F3F4F820F931F209132
:103C10009303309194032817390769F4309729F4F6
:103C2000109296031092950302C013821282B093F1
:103C30009403A0939303DF91CF910895A0E0B0E0A7
:103C4000E4E2FEE10C94E41AEC01009721F4CB01CC
:103C50000E94FD1CB4C0FC01E60FF71F9C0122501E
:103C60003109E217F30708F4A8C0D9010D911C919E
:103C7000119706171707B0F00530110508F49BC01F
:103C8000C80104978617970708F495C002501109D8
:103C9000061B170B019311936D937C93CF010E9428
:103CA000951D89C05B01A01AB10A4C01800E911EBE
:103CB000A0919503B0919603612C712CE12CF12C0D
:103CC000109709F446C08D919C911197A815B905DC
:103CD000B1F56C0142E0C40ED11CCA14DB0478F1CA
:103CE0004C018A189B08640142E0C40ED11C129654
:103CF000BC9012971396AC91B5E0CB16D10440F06E
:103D0000B282A38391828082D9016D937C9309C092
:103D10000E5F1F4F800F911FF90191838083EB2D60
:103D2000FA2FE114F10431F0D7011396FC93EE93CE
:103D3000129741C0F0939603E09395033CC0681638
:103D4000790608F43C017D0112960D90BC91A02DDE
:103D5000B7CF809193039091940388169906E1F46C
:103D600066167706C8F480910801909109010097C2
:103D700041F48DB79EB740910C0150910D01841B09
:103D8000950BE817F907C8F4F0939403E0939303B5
:103D9000F901718360830FC0CB010E94FD1C7C017F
:103DA000009759F0A801BE010E94E91ECE010E94B1
:103DB000951DC70104C0CE0102C080E090E0CDB7E0
:103DC000DEB7EEE00C94001B81E090E0F8940C94D8
:103DD000AC21FB01DC0102C001900D92415050402A
:103DE000D8F70895FB01DC0101900D920020E1F766
:103DF0000895AEE0B0E0EFEFFEE10C94EE1A0D890D
:103E00001E8986E08C831A8309838FEF9FE79E8348
:103E10008D83AE01475E5F4F6F89788DCE0101962D
:103E20000E941B1FEF81F885E00FF11F10822E9674
:103E3000E4E00C940A1BABE0B0E0E1E2FFE10C949B
:103E4000E01A6C017B018A01FC01178216828381D2
:103E500081FFCCC1CE0101963C01F6019381F701AF
:103E600093FD859193FF81917F01882309F4BAC165
:103E7000853239F493FD859193FF81917F018532DD
:103E800029F4B60190E00E941221E7CF912C212C59
:103E9000312CFFE1F315D8F08B3279F038F4803211
:103EA00079F08332A1F4232D20611DC08D3261F0A1
:103EB000803369F4232D216016C0832D8260382E53
:103EC000E32DE4603E2E2AC0F32DF8601DC037FCC0
:103ED0002DC020ED280F2A3040F08E32B9F436FC88
:103EE00081C1232D2064322E19C036FE06C08AE01F
:103EF000989E200D1124922E11C0EAE02E9E200DD6
:103F00001124222EF32DF0623F2E08C08C3621F4AE
:103F1000832D8068382E02C0883641F4F70193FD66
:103F2000859193FF81917F018111B3CF982F9F7D60
:103F30009554933028F40C5F1F4F9FE399830DC075
:103F4000833631F0833771F0833509F059C021C0D1
:103F5000F801808189830E5F1F4F88248394912C00
:103F6000530113C02801F2E04F0E511CF801A0804C
:103F7000B18036FE03C0692D70E002C06FEF7FEFA5
:103F8000C5010E9407214C018201F32DFF773F2ECE
:103F900016C0280122E0420E511CF801A080B18019
:103FA00036FE03C0692D70E002C06FEF7FEFC501E0
:103FB0000E94FC204C01F32DF0683F2E820133FC5F
:103FC0001BC0822D90E088169906B0F4B60180E2FD
:103FD00090E00E9412212A94F4CFF50137FC8591DC
:103FE00037FE81915F01B60190E00E9412212110FD
:103FF0002A9421E0821A91088114910471F7E8C093
:10400000843611F0893641F5F80137FE07C060812A
:104010007181828193810C5F1F4F08C06081718123
:10402000072E000C880B990B0E5F1F4FF32DFF76A8
:104030003F2E97FF09C090958095709561957F4FB1
:104040008F4F9F4FF0683F2E2AE030E0A3010E947F
:104050004E21882E861845C0853731F4232D2F7EBA
:10406000B22E2AE030E025C0932D997FB92E8F36ED
:10407000C1F018F4883579F0B5C0803719F0883769
:1040800021F0B0C0E92FE061BE2EB4FE0DC0FB2DC3
:10409000F460BF2E09C034FE0AC0292F2660B22E5C
:1040A00006C028E030E005C020E130E002C020E199
:1040B00032E0F801B7FE07C060817181828193818F
:1040C0000C5F1F4F06C06081718180E090E00E5F41
:1040D0001F4FA3010E944E21882E8618FB2DFF77CB
:1040E0003F2E36FE0DC0232D2E7FA22E891458F4AC
:1040F00034FE0BC032FC09C0832D8E7EA82E05C075
:10410000B82CA32C03C0B82C01C0B92CA4FE0FC03E
:10411000FE01E80DF11D8081803321F49A2D997EF6
:10412000A92E09C0A2FE06C0B394B39404C08A2D80
:10413000867809F0B394A3FC11C0A0FE06C0B214A7
:1041400088F4280C922C9B180EC0B21460F4B601AF
:1041500080E290E00E941221B394F7CFB21418F4D9
:104160002B1802C0982C212CA4FE10C0B60180E3AD
:1041700090E00E941221A2FE17C0A1FC03C088E7B4
:1041800090E002C088E590E0B6010CC08A2D8678E8
:1041900059F0A1FE02C08BE201C080E2A7FC8DE2D3
:1041A000B60190E00E941221891438F4B60180E330
:1041B00090E00E9412219A94F7CF8A94F301E80DBF
:1041C000F11D8081B60190E00E9412218110F5CF8F
:1041D000222009F442CEB60180E290E00E94122132
:1041E0002A94F6CFF6018681978102C08FEF9FEF68
:1041F0002B96E2E10C94FC1AFC0105906150704092
:104200000110D8F7809590958E0F9F1F0895FC019F
:104210006150704001900110D8F7809590958E0FF5
:104220009F1F08950F931F93CF93DF93FB0123816B
:1042300021FD03C08FEF9FEF2CC022FF16C04681E7
:104240005781248135814217530744F4A081B181FD
:104250009D012F5F3F4F318320838C9326813781CF
:104260002F5F3F4F3783268314C08B01EC01FB0186
:104270000084F185E02D0995892BE1F6D801169689
:104280008D919C911797019617969C938E931697F4
:10429000CE01DF91CF911F910F910895FA01AA27C6
:1042A000283051F1203181F1E8946F936E7F6E5F79
:1042B0007F4F8F4F9F4FAF4FB1E03ED0B4E03CD027
:1042C000670F781F891F9A1FA11D680F791F8A1F0A
:1042D000911DA11D6A0F711D811D911DA11D20D071
:1042E00009F468943F912AE0269F11243019305D2B
:1042F0003193DEF6CF010895462F4770405D41931C
:10430000B3E00FD0C9F7F6CF462F4F70405D4A3368
:1043100018F0495D31FD4052419302D0A9F7EACF30
:10432000B4E0A6959795879577956795BA95C9F75F
:1043300000976105710508959B01AC010A2E069452
:104340005795479537952795BA95C9F7620F731F0B
:0C435000841F951FA01D0895F894FFCF56
:10435C00544300000100000000009703800000B7E8
:10436C005E2C2F17180C0C0704003E1F10100809A8
:10437C0005030101000000009D0A060A340AEA0A3E
:10438C00650A430A570A0A006E616E00696E660080
:10439C006F7666005C2125732F2573000D0A0000D3
:00000001FF
