:020000040020DA
:10200000486100208D222000AB8C2000A98C20008C
:10201000A98C2000A98C2000A98C200000000000C1
:10202000000000000000000000000000B991200046
:10203000A98C200000000000D79120004F8D2000C7
:10204000618D2000678D20006D8D2000738D200034
:1020500000000000558D20005B8D2000A98C200021
:10206000A98C20000000000000000000000000001B
:102070000000000000000000A98C2000000000000B
:102080000000000000000000A98C2000A98C2000A6
:10209000A98C2000A98C2000A98C2000A98C2000EC
:1020A000A98C2000A98C2000A98C2000A98C2000DC
:1020B000A98C2000A98C2000A98C2000A98C2000CC
:1020C000A98C2000A98C2000A98C2000A98C2000BC
:1020D000A98C2000000000000000000000000000AB
:1020E00000000000000000000000000000000000F0
:1020F0000000000000000000853820009538200016
:1021000000000000000000000000000000000000CF
:1021100000000000000000000000000000000000BF
:1021200000000000000000000000000000000000AF
:10213000000000000000000000000000000000009F
:10214000000000000000000000000000000000008F
:10215000000000000000000000000000000000007F
:10216000000000000000000000000000000000006F
:10217000000000000000000000000000000000005F
:10218000000000000000000000000000000000004F
:10219000000000000000000000000000000000003F
:1021A000000000000000000000000000000000002F
:1021B000000000000000000000000000000000001F
:1021C000000000000000000000000000000000000F
:1021D00000000000000000000000000000000000FF
:1021E00000000000000000000000000000000000EF
:1021F00000000000000000000000000000000000DF
:1022000000000000000000000000000000000000CE
:1022100000000000000000000000000000000000BE
:1022200000000000000000000000000000000000AE
:10223000000000000000000000000000000000009E
:10224000000000000000000000000000000000008E
:10225000000000000000000000000000000000007E
:10226000000000000000000000000000000000006E
:10227000A98C2000693720008D372000092E20000E
:10228000053A200029292000A98C200008B5094B17
:10229000FF221A600848094A4824E369121A0849CB
:1022A00098470848084AA369121A0021984700F085
:1022B00025F8FEE7B4200D40404000209641002064
:1022C00018992000984100204459002070B5054617
:1022D0000E46084C54F8043F2BB131462846984727
:1022E0000028F7D070BD10210348BDE8704007F00A
:1022F00088B800BF5496200078962000F7B500F00B
:1023000063FC00F01DFD00F079FC00F06DFA01F0B7
:1023100067FB06F0DDFD00F00BFD00F0C7F80120C3
:1023200006F0E7FC02F0C0FA00F03AFC002000F0F2
:1023300055FB012000F052FB4849002000F01AFC38
:1023400002F0F8FB62B6042006F0D3FC444806F025
:102350002CFD444806F029FD00F0E8F9002002F0C9
:1023600097FC01F027FA00213F4802F029FB02F018
:10237000DBF806F0EAFC00F06BFD00F087FD05F0ED
:1023800015FC0821684601F071FB9DF807309DF8A7
:102390000670364C43EA07276B4603CB206061602A
:1023A000334801F0F3FC0025615D3248013501F04E
:1023B000EDFC072D2D4EF7D12F4DF1792F4801F06F
:1023C000E5FCEC6A4AF6CD310220A04739460320ED
:1023D000A0471A210120A047694608226B6B0B20F9
:1023E0009847274801F0D2FC264B186806F0DDFC20
:1023F000254801F0CBFC254B186806F0D6FC244894
:1024000001F0C4FC234B186806F0CFFC224A336865
:1024100013607368536005F03BF900211F4802F018
:10242000CFFA00211E4802F0CBFA1E4B01219B6817
:102430008120984706F016FD1B4806F009FD00F0C4
:10244000B5FB022006F055FC00F0B6FB02F044FAA2
:1024500010F0FF0FF8D101F057FAF5E7F14A20002C
:1024600089962000A5962000884000203C59002035
:10247000CA962000E8962000AC952000EE96200039
:10248000F496200060962000FB9620000496200021
:102490000297200020962000EC54002040410020AC
:1024A000A8400020C49420005096200008B500F0F9
:1024B000DDF8024B00221A7008BD00BF82510020D7
:1024C000024A13781843107000F0F4B882510020CB
:1024D000034A137823EA0000107000F0EBB800BF45
:1024E0008251002020B1012805D1044B1878704793
:1024F000034B186870470020704700BF83510020CD
:1025000020900D4010B5094A002013780133137054
:10251000074B197802F02CFABDE81040054900235A
:10252000054A0968054802F035B800BF835100200C
:1025300032590020D041002005252000A84100206C
:10254000812808B52AD0B0F5807F39D0802839D1CC
:1025500002F0A2F91C4B1D4A18701368032123F0E6
:102560000803136052F8203C002023F0080342F8CF
:10257000203C52F81C3C23F0080342F81C3C52F863
:10258000183C43F0080342F8183C042200F0E6FB34
:10259000032200210E4800F083FB13E00D4B0E4890
:1025A0001A6829B142F008021A600123036005E0AD
:1025B00022F008021A600123C0F88030084608BDE6
:1025C000064B1960012008BD3259002020940D40AF
:1025D000E125200010940D4000E100E0D0410020F2
:1025E00008B50F4806F088FCC8B108210C4806F071
:1025F00071FC0C4B196869B10B4B00221A700B4B24
:102600001B6823B90A4A0B4801F0C4FF02E00948DD
:1026100001F0E6FFBDE80840074802F00BBB08BD2B
:10262000C8410020D04100208351002020900D405F
:1026300005252000A8410020C4942000084A136802
:1026400023F00403136052F8203C43F0040342F8E3
:10265000203C044B00221A60034B01221A70704781
:1026600020C40D4010C00D40845100200D4A0E4979
:10267000136823F0C003136052F8203C43F0C003FA
:1026800042F8203C094B00221A600B6823F010032B
:102690000B6051F8203C43F0100341F8203C044B00
:1026A0001A60704720A40D4020C40D4000A30D40C7
:1026B00040C00D4000F0020202F0FF010B4B12B1CE
:1026C000FF221A6000E0196000F0040202F0FF012E
:1026D000074B12B1FF221A6000E0196010F00100F0
:1026E000044B1ABFFF221A601860704700A20D4009
:1026F00000A10D4040C00D40044B1868C0F30720F6
:10270000030904BF1030C0B2704700BF1C300D4039
:10271000054B1868C0F3C21001289ABFC0F102002F
:1027200040034FF40040704714300D402DE9F0474E
:1027300088B0FFF7E1FF174B48251C68AB680746D8
:1027400098476B68804698470546FFF7E1FF0646C5
:1027500000F08EFA814600F097FA824600F044FAC3
:10276000B60A04F00103AD0AC4F3400406900393D3
:10277000CDF814A0CDF8109002940196009507F0C2
:102780000F03C7F307124146034801F0FFFA08B0F0
:10279000BDE8F0871C300D4010972000F8B500F020
:1027A00081F80F4B0024D3E900673A46B04238BFA6
:1027B0007A1C15460443C3E90045DFF828E0DEE94A
:1027C0000001821B61EB070312196B41CEE9002364
:1027D00001F0BAFF18B1BDE8F84001F039BFF8BD0B
:1027E00098410020A04100200D4B0E4AE0215A6084
:1027F0000D4A82F82310002207219A6019600B49C4
:102800000B6843F001030B60094B1A60042243F884
:102810000C2C012243F8082C0F22DA62704700BF0B
:1028200010E000E047E8010000ED00E008200D4066
:102830000C000340034BD3E90023100A40EA036075
:10284000704700BF98410020034BD3E90023D00B11
:1028500040EA4340704700BFA0410020054B18608C
:102860001C3B1A6842F001021A601A68D207FCD4B5
:10287000704700BF2800034010B5064C236823F0C2
:1028800001032360FFF78AFF236843F001032360FD
:1028900010BD00BF10E000E0014B1868704700BF9A
:1028A000D4410020074B084A196804331B6812689A
:1028B000120442EA0323054A0B43106843EA00600E
:1028C000704700BF40500D4048500D404C500D40E7
:1028D00010B50446104A1368DB07FCD572B6FFF743
:1028E000E1FF231A062BD8BFC41D0C4B220E1A6021
:1028F000C4F3074243F8042CC4F3072243F8082C1E
:10290000E2B243F80C2C62B6054B4FF400321C6067
:10291000044B1A6110BD00BF50500D404C500D408B
:10292000D441002000E100E008B500F0D1FF074BE2
:1029300000221A60064B4FF40032C3F89021C3F80E
:102940009020BDE8084002F071B800BFD4410020DB
:1029500000E100E0064B1B681B075FBF054B1868D2
:1029600080F00800C0F3C00048BF0020704700BFDF
:1029700018C0004018D00040164A2C2303FB002347
:102980004FF6BF7270B5DC680546236C62649BB27B
:1029900013F050020DD0104EA369DB0608D456F890
:1029A00025301BB12068C0B29847F5E72368F3E7EC
:1029B00070BD13F4D06F0BD04FF440732363FF232B
:1029C0006360E36AE262E362236B43F00103236323
:1029D00070BD00BFD4942000D841002001282DE90B
:1029E000F74F064600F2B6802C2545435B4F7C1915
:1029F00094F92080B8F1000FC0F2AC8094F92290D5
:102A0000B9F1000FC0F2A680554800F0D7FF554A33
:102A10007B591168E5680B4313605168636894F94A
:102A200021A00B4353609168A3685FFA89FB0B43B5
:102A300093600023C5F8C83F23690AEBC8021A60F7
:102A400094F92330227D00939DF8003058461946B2
:102A5000019300F08DF9019B08221946584600F0B9
:102A60007DF9414A4FEA0939009959F802000123DA
:102A700003FA01F1014349F802104FEA083858F807
:102A8000020003FA0AF1014348F802105021A96339
:102A9000A96B94F9240041F4D061A9630221696310
:102AA0004FF440712963A16900286962E169A96254
:102AB0004FF07001E962154616DB94F92510A2F576
:102AC000A64241EAC0041C3A1460040362598B40D8
:102AD000134363510022C9B2C0B200F03FF9234A48
:102AE000136843F4004313602C2303FB067393F92C
:102AF0002640002C1BDB93F927A05FFA84F85FFACD
:102B00008AF9012249464046240300F031F962590E
:102B1000012303FA0AF3134363510822494640464E
:102B200000F01CF9114A136843F4804313602C230E
:102B300003FB0676F268136B43F00103136396F808
:102B400028300122590903F01F0302FA03F3084A4F
:102B500042F8213003B0BDE8F08F00BFD4942000CC
:102B60005529200028200D4020940D4030D00040F1
:102B700000E100E001289CBF014B43F820107047A2
:102B8000D8410020012808D8044B2C2202FB003039
:102B9000C3689A699206FCD419607047D4942000E7
:102BA000014B00221A60704700500D40014B082273
:102BB0001A60704700500D40024BA0221A6050224C
:102BC0001A60704700500D40014B024A9A607047EE
:102BD00000ED00E000202000024B1868C0F3815097
:102BE000704700BF04200D4008B5FFF7F5FF024B0A
:102BF00053F8200008BD00BF2C95200038B5164DB5
:102C0000164C2B68012223F040032B602368062119
:102C100023F040032360032000F0A0F82B6801227A
:102C200023F080032B602368072123F080032360B7
:102C3000032000F093F80A4A0A4B0B491A600A680D
:102C40000A4B1340084A002BF9D113685901FCD4F0
:102C500013685B01FCD538BD20C40D4000C40D4095
:102C60000101020000200D4004200D400000010180
:102C7000034B04481B6803F007031841704700BF6B
:102C800004200D400048E801034B04481B68C3F3CF
:102C900002231841704700BF04200D400048E8019E
:102CA000024B02EBC10243F822007047E0410020D2
:102CB000F8B507460E46094D002405EB411547FAC5
:102CC00004F3DB07E1B204D555F824300BB13046EC
:102CD00098470134082CF2D1F8BD00BFE041002034
:102CE0002DE9F04780464FEA0837DFF8409007F1BA
:102CF000804505F5592500F0EBFDD5F8186457F827
:102D000009304FEAC80A23FA0AF446EA0400E4B29A
:102D10004146C0B2F6B204FA0AF4FFF7C9FFC5F89B
:102D20001C6447F80940BDE8F08700BF18970D40C4
:102D300080220021014805F069BF00BFE04100206A
:102D4000034A044B1A60044B803A1A60704700BF74
:102D500080400D406442002060420020034B01EBA4
:102D6000C0011B6843F82120704700BF6442002067
:102D7000034B01EBC0011B6843F82120704700BFE3
:102D8000604200200E2870B50BD1154B154E1C6803
:102D900044F002051D60356825F03F0343F0010350
:102DA0003360114E336823F0FF031A43114301438C
:102DB0000E4A316013681B06FCD50D4B0D4A1B688B
:102DC00012680E2803F0FC0343EA022308BF054AF9
:102DD0001BB204BF1560024A184608BF146070BDDC
:102DE00034000144F486084008700D4000700D4026
:102DF0000C700D4010700D40024B1868B0FA80F056
:102E00004009704700B7084010B5074B4FF4004227
:102E1000064CC3F89021C3F89020206818B101F047
:102E2000E7FD0023236010BD00E100E068420020C0
:102E3000064A136843F002031360536843F0020329
:102E40005360936843F002039360704748200D403D
:102E500007B50C4800F0B2FDFFF7EAFF0A4B1A680D
:102E600042F002021A6000220192019A0F2A02DC4B
:102E7000019A0132F8E71A6822F002021A6003B0E0
:102E80005DF804FBF92D200054200D40064A13681C
:102E900023F002031360536823F002035360936826
:102EA00023F002039360704748200D40084B93F9CC
:102EB0000020002A09DB074AED2111601160E3219F
:102EC00011601A7862F07F021A700120704700BF0B
:102ED00088510020388808400C4A13689907FCD4B0
:102EE0000A4B1B685B065FBF094BED221A601A6034
:102EF000084B1B6813B1064BEF221A60064A0120EB
:102F0000137803F07F031370704700BF4C860840AE
:102F1000388808402C8608408851002038B5A0F138
:102F20000B04E3B20F2B054613D80B4B1B6813F0B1
:102F30003F0302D0FFF7D0FF012304EB8404074ACC
:102F40000B3414600BB1FFF7B1FF054B68B21D7075
:102F500038BD4FF0FF3038BD488608403C860840F9
:102F60009541002010B50B4B1B68990603D1FFF764
:102F70009DFF012300E0002307490A68D207FCD522
:102F8000064A1468C4F300140BB1FFF7A5FF2046EE
:102F900010BD00BF48860840648608404C86084043
:102FA000044B186800F02200A0F120035842584159
:102FB000704700BF4C860840024B186800F0400084
:102FC000704700BF4C86084038B50C46002900F019
:102FD0008880102800F28780DFE800F0090F1A1CB3
:102FE00023394254596F738585787A7C7F003F4B33
:102FF0001B68003318BF012370E03D4B05221B689E
:1030000003F07F030B3B93FBF2F30B33DBB265E082
:10301000384B00E0384B1A68043B1B6843EA022334
:103020005CE000230B60354B354A1B6803F001035D
:103030000B601268900644BF43F002030B60314BF3
:103040001B78002B4BD00B6843F0040346E02E4B5B
:1030500000201B780860002B41D001230B6038BD95
:103060002A4B2B491A680023D2B201EBC300007926
:10307000904203D8264A52F833302FE001330E2B0A
:10308000F3D127E0234B1B685BB2493B26E0224B80
:103090001B68990603D1FFF709FF012300E0002315
:1030A0001E490A68D207FCD51D4A1568493D6DB214
:1030B0000BB1FFF711FF256011E01A4B93F90030B7
:1030C0000CE0194B1B7803F07F0307E00B2305E0AE
:1030D0001A2303E06FF0170300E0072323600020AA
:1030E00038BD022038BD012038BD00BF2C86084005
:1030F0003C860840CC850840D485084000860840BE
:1031000024860840875100209441002040860840D2
:103110003C95200058860840488608406486084050
:1031200060860840865100208551002038B505464C
:103130000C46134A13689B07FCD4124B93F90030DA
:10314000002B01DBFFF7B2FE0F4BEE221A60691E67
:103150001A60A21C43F8102C2144022000F044FB0A
:10316000013C0A4924012143022000F04FFB0220C8
:1031700000F056FB022000F06BFB002038BD00BFC2
:103180004C860840885100203888084002C001C0A1
:10319000F8B5214B93F90030002B0DDBFFF782FBD4
:1031A0000546FFF783FE6FF00904641BFFF77AFB07
:1031B000C442FBD4012600E00026184B1B7823B93B
:1031C000174D2B68990604D405E0FFF7CBFE0028C5
:1031D000F6D10220F8BD134CE923236004272B68A5
:1031E0009A0707D4013F17F0FF0703D00620FFF727
:1031F00035FBF4E72B689B0704D4EE2323602360A0
:10320000012403E02C6814F00204FBD10EB1FFF797
:1032100063FE2046F8BD00BF885100209441002085
:103220004C86084038880840214B1870002834D05C
:10323000204A13681B03FCD51F4B1A6842F0020298
:103240001A601A6842F001021A601A681A49500797
:10325000FBD50A6822F001020A601968164A49077C
:10326000FBD4116841F002011160116841F00101C5
:1032700011601A685207FCD5104A136823F0040342
:103280001360D2F8A83123F00403C2F8A8310C4B24
:103290004FF40052C3F890207047084A136843F077
:1032A00004031360064B4FF400521A61704700BFCD
:1032B0008751002004200D40048808408C86084077
:1032C00000E100E010B50C46072861D8DFE800F007
:1032D000040E181C233F455B012902D1FFF7E6FDD0
:1032E0004BE0002958D1FFF7F7FD46E0A1F10B03B1
:1032F0000F2B51D8C8B2FFF711FE01303DD149E084
:103300008CB2E2B2254B02E08CB2254BE2B2240A29
:103310001A605C6031E031F007033DD1214B11F0C0
:10332000010F1A68C1F3800014BF42F0010222F0BD
:1033300001021A601C4B11F0020F1A6814BF42F010
:10334000200222F020021A60FFF76EFF15E031F034
:10335000010021D1154B197010BD01F118031F2B6D
:103360001AD813490D2351F83300DA00844206DCE1
:103370000F4B13441A790F4B1A60002010BD13F144
:10338000FF33F0D2F9E7CCB20B4B49341C60F4E7C1
:10339000012010BD032010BD022010BDC8850840CB
:1033A000D0850840008608402486084094410020CB
:1033B0003C95200040860840588608400B280DD1D7
:1033C000082A0DD161B1074B074A083111F8010DE8
:1033D00043F8040F9342F9D1002070470120704751
:1033E00002207047A4850840C485084070B52F4D61
:1033F0002B6813F0400308D02D4E3368DCB21B0657
:1034000005D52C4BED221A601A60002070BD042CEB
:10341000F7D9023C8C42F4DCE4B2032C21D0011930
:103420000139032000F0E8F9631E23491B01194309
:10343000032000F0EBF9032000F0F2F9032000F084
:1034400007FA032000F010FA0028FAD131681B4B6C
:10345000493949B219703368194E18063370D0D5FE
:1034600006E0336803703368437033688370EDE7B8
:1034700089B2042004F070FB3178032001F07F0151
:1034800004F06AFB0F4B1B7873B92B685A060BD5F7
:10349000064B1B681B0603D50B4801F0A9FA03E095
:1034A000044BED221A601A60204670BD4C8608401D
:1034B000288808403888084002C0010C8651002046
:1034C000855100208751002050400020F8B5294F39
:1034D0003D7815F001054BD1274B01241C605C6041
:1034E0009C60A3F59323A3F51473F8221A600922B4
:1034F000C3F89021152270331A6003F59B230B2229
:1035000003F59E731A60A3F59B23A3F5F073402285
:103510001A601A687F2642F020021A60D52243F80A
:103520001C5CDE62DA61154B1878FFF7F7FC144B70
:103530004FF480421E60134B02201A6100F07CF9A8
:103540001149022000F058F9032000F075F90E49E6
:10355000032000F049F90D4B1878FFF765FE294666
:103560000B4801F02DFA3B78204623433B70F8BD11
:103570000020F8BD88510020A8200D409541002072
:103580009486084000E100E0288808408751002028
:103590005040002038B503880446CBB140F20342C6
:1035A000934203D000230380032038BD194B1878C1
:1035B0001A4628B11B7873B1174B1B7858060AD5E9
:1035C000822908D1137843B1134B1A78520614D4C8
:1035D00040F203432380012038BD04F063FA04F075
:1035E00015FA8021FFF702FF0028EDDD80B204F01C
:1035F000F1F90A4B1B699847E6E700221A70084B5D
:103600001D68FFF769FCFFF761FFAB06E0D0FFF72D
:103610004DFCDDE7875100208851002020962000D6
:10362000488608400B282DE9F84F0E4610D1082A8D
:1036300040F0828000297FD0414B424A4E1E53F811
:10364000041D934206F8011FF9D10020BDE8F88F50
:103650000C286ED1042A6FD100296DD03A4B3B481B
:103660001A68DFF8F8C022F007021A600268DFF873
:10367000F0A042F008020260DAF80040DCF8001026
:103680001A68DFF8E0E022F07002314F1A60DEF8CD
:1036900000203D68E4B2090244EA056401F47F4178
:1036A0001204214302F47F020A432A490024D1F87C
:1036B00000805FFA88F544EA02081A68A94622F0F9
:1036C000070242F001021A60026842F0080202603A
:1036D000DAF80000DCF800201D68C0B225F07005A3
:1036E00045F010051D60DEF800303D68120240EA2A
:1036F000056002F47F421B04024303F47F0313437B
:103700000A6844EA030A5FFA82FBFFF7CBF8B8EBDA
:103710000A0869EB0B094FEAC93105460E4A002336
:103720004FEAC83041EA584104F0D4FF281A30600B
:103730008BE70120BDE8F88F0220BDE8F88F00BFBD
:10374000C8850840A88508401088084004880840BB
:10375000208808401C8808400048E8011888084074
:10376000148808402488084008B5054B1B7813B915
:10377000044801F03DF9044B00221A6008BD00BF67
:10378000875100205040002034880840064B0748ED
:103790001A68042A1FBF06490A7842F040020A70DC
:1037A00000221A6001F024B92C8808405040002003
:1037B0008851002010B5094C40220021204605F018
:1037C00025FA074B01221A605C60064B4FF48042D9
:1037D0005A604FF400425A6010BD00BF0040002004
:1037E00004F00F4000E100E003289EBF014B000100
:1037F000195070470040002003289EBF024B03EB86
:1038000000104160704700BF0040002003289EBFA9
:10381000024B03EB00108160704700BF00400020A6
:10382000032806D8034901220B6802FA00F0184366
:103830000860704728F00F40032806D8034901228A
:103840000B6802FA00F018430860704720F00F4040
:10385000032806D8034901220B6802FA00F0184336
:103860000860704714F00F4003289FBF044B03EB20
:103870000010806800F0070088BF0020704700BF7C
:1038800000400020024B4FF0FF321A60704700BF2B
:1038900004F50F40014B01221A6070474CF00F40B5
:1038A000094A1368084913F4801FFAD1074B1A68B4
:1038B00022F480321A600A68D203FCD41A6842F4F7
:1038C00000321A60704700BF04200D4000200D40F8
:1038D00010B50B4B1A681C4612F0030F0ED00949A5
:1038E0000B68084A13F0806FFAD113685B01FCD5AE
:1038F000FEF7C2FFFFF7D4FF0023236010BD00BF17
:1039000058200D4004200D4038B5264B1C6814F09B
:103910003F0413D1244D55F8243023B1984768B1A2
:103920000134052CF7D1214D2B783BB1FEF7B4FFC4
:103930000446FEF7B7FF201A092801D830BF38BD6A
:10394000002CFBD01A4B1B481A6822F400321A6074
:103950000268184912F4801FFAD11A6842F48032C2
:103960001A600B68DB03FCD5FEF79CFF201A0928C0
:1039700003D8BDE83840FFF793BF63280E4C02D947
:103980002B78022B00D00123236000F0E7FF20B149
:10399000FFF786FF0023236038BDFEF77DFF002878
:1039A000CCD1F5E7488608406C42002089510020C0
:1039B00000200D4004200D4058200D4007490023F1
:1039C00051F82320824207D01AB9044A42F8230052
:1039D00070470133052BF3D1704700BF6C420020C4
:1039E000054B00221A60054A136943F00403136172
:1039F000034B02221A70704758200D4000ED00E082
:103A00008951002010B5074B4FF48032064CC3F8A3
:103A10009021C3F89020206818B100F0E9FF00233E
:103A2000236010BD00E100E08042002070B50E4C24
:103A3000054626784EB9C0213046FFF7A3F80D2180
:103A40003046FFF79FF801232370E9B20020FFF70B
:103A500099F80A2D05D1C0210020FFF793F8002323
:103A60002370284670BD00BF8A51002030B5184B26
:103A70001A78431E22B101F520112731154A1FE0A3
:103A8000154A1278122AF6D1144A12784B2AF2D12A
:103A90004A0802F12814B4F1281F04D014F8015D7B
:103AA00003F8015FF7E701F52011273100231044E7
:103AB000934204DA11F80149C4540133F8E730BDE8
:103AC000914204D011F8010903F8010FF8E730BD65
:103AD0002B002800270028002A00280029002800A1
:103AE00001490020FFF746B8E93C20002DE9F843E2
:103AF000038805463BB1B3F5A57F13D000230380AF
:103B00000320BDE8F8836B4A13806B4A13806B4A2D
:103B100013806B4B01221A704FF4A5732B80012088
:103B2000BDE8F88382294FF0010040F0C080654B6A
:103B3000624E18705F48338801888B4200F0A8807D
:103B400009D300221446DFF890E15F4F4FF0C00820
:103B50004FF0DB0937E0DFF880E15B4FF4460024EB
:103B60004FF0C0084FF0DB091EF80320DB2A03D01A
:103B7000E2550134A4B201E0012200E00022013349
:103B80009BB2994260D98D2C01D100245CE0002ABF
:103B9000EAD01CF80320DD2A02D104F80790E8E7F8
:103BA000DC2AEBD104F80780E3E78C2C1FD86AB934
:103BB0001EF803C0BCF1DB0F17D004F807C00134B6
:103BC000A4B201339BB29B2BEFD911E01EF8032066
:103BD000DD2A02D104F8079003E0DC2A03D104F8BF
:103BE00007800134A4B20022EBE70122E9E70024B8
:103BF000DFF8E4E0344F00234FF0C0084FF0DB095A
:103C00001FFA83FC61451FD98C2CBED86AB11EF8FF
:103C10000320DD2A02D104F8079003E0DC2A0ED14C
:103C200004F807800134A4B209E01EF803C0BCF117
:103C3000DB0F06D004F807C00134A4B202E0002272
:103C400000E001220133DBE7013189B29C2904BF86
:103C500000230380184B18BF0180028819888A420C
:103C600023D01746DFF870E03B4699421DD01EF87E
:103C70000370C02F05D103801448328000F0B8FED5
:103C800007E001339BB29C2B4FF00007EDD1EBE72F
:103C900000240F4B1C80002C3FF43EAF0D4B1B68E3
:103CA00003B1984703F0F2FA36E73280F1E7BDE856
:103CB000F88300BF864E0020844E0020884E0020EE
:103CC0008B51002037590020F45400206040002020
:103CD000E0540020844200208C510020014B1860E9
:103CE000704700BF8442002038B5224B1A781C462A
:103CF000022A06D0032A12D1C02804BF01221A705A
:103D000036E000F12402D2B2012A06D903221A7049
:103D1000194B1A88194B1A802AE0012302E0DB288C
:103D200001D102232370154B1A88511C89B29C299A
:103D300008BF0021198012491B880D880F49AB422A
:103D400005D1032323700C4B1B880B8010E00D4B17
:103D5000C02898540CD1084B1888824207D085425D
:103D6000094808BF1A8000F043FE012038BD0A80D0
:103D7000002038BD8B510020864E0020844E00204C
:103D8000884E00208C510020604000200FB407B501
:103D900004AA52F8041B0448019200F021F803B071
:103DA0005DF804EB04B070477040002070B5054624
:103DB0000C46102C07D92B681022084968689847D0
:103DC00050B9103CF5E734B12B68224668680349C6
:103DD000BDE870401847204670BD00BF3C982000E9
:103DE0002DE9F04F064615468FB006914FF0000BB7
:103DF000069B1B78CBB1069C274617F8013B1BB1ED
:103E0000252B14D03C46F7E7069BA3420DD0069B1A
:103E10000699C3EB04084246336870689847002847
:103E200040F01F832378C34423B9584634E3069BEC
:103E3000A342ECD16378002BF7D039460024084622
:103E400010F8013B0A462B2B11D006D8202B11D09D
:103E5000232B12D144F0080416E02D2B04D0302B74
:103E60000BD144F010040FE044F001040CE044F0E6
:103E7000060409E044F0020406E0A3F13107082F2C
:103E800011D84FF0000801E00146D8E70A4611F8C2
:103E9000013BA3F13000092813D80A2202FB08389D
:103EA000A8F13008F2E72A2B09D12B680246002B33
:103EB00005F10405B8BF44F00104984601E04FF055
:103EC000000813782E2B1AD15178531CA1F1300021
:103ED00009280ED8194600270A780B46A2F13000AF
:103EE000092801F101010DD80A2303FB0727303F00
:103EF000F2E72A2904D12F68931C043502E0134607
:103F00004FF0FF371A786C2A09D15A786C2A02D1FF
:103F100044F080040AE0013344F060040BE0682AB6
:103F200009D15A78682A03D144F02004023302E010
:103F3000013344F040041A78642A3CD01FD8462A42
:103F400048D00DD8252A5AD003D8002A3FF46DAFA7
:103F500057E0412A4AD0452A53D144F4424450E024
:103F6000582A31D004D8472A4BD144F4A13448E030
:103F7000612A38D0632A44D144F4A06441E06E2A17
:103F80003AD007D8662A22D027D3672A28D0692AB0
:103F900011D036E0732A2CD006D86F2A11D0702A9F
:103FA0002FD144F440742CE0752A07D0782A28D108
:103FB00044F4C85425E044F4245422E044F410644A
:103FC0001FE044F488541CE044F4B24419E044F483
:103FD000007416E044F4844413E044F4024410E016
:103FE00044F481340DE044F4C1340AE044F4E13493
:103FF00007E044F4806404E044F4E06401E044F445
:10400000C0640133069304F4E063B3F5806F00F0FD
:104010008F8113D8B3F5807F27D0B3F5407F7FF42D
:10402000E7AEAE4B14F4804FAD4A18BF1A460DF1FF
:1040300033032868002104351F46B5E1B3F5C06F8E
:1040400008D0B3F5E06F00F02282B3F5A06F7FF4E3
:10405000CFAEF2E133680122A24970689847002888
:1040600040F0FF810BF1010BC2E6002FACBF24F042
:104070001004012714F40053079304F0E0032ED03A
:10408000402B12D005D8ABB1202B21D195F90020BF
:104090000DE0602B0ED0802B1AD1073525F00703D9
:1040A00003F10805D3E9002307E0B5F90020D31791
:1040B000043502E02A680435D317002A73F10001A1
:1040C00008DA524263EB4303CDE90023012304E005
:1040D00000220023CDE900230023059329E0402B93
:1040E00013D004D8BBB1202B1DD12A780EE0602B51
:1040F00011D0802B17D1073525F0070303F10805F0
:10410000D3E90023CDE900230BE02A880023CDE981
:104110000023043505E02B6800221946CDE9001282
:104120000435079BD9E70023059300220023CDE93E
:10413000002304F4C053B3F5805F0CD0B3F5C05F27
:1041400033D0B3F5006F4FD1DDE900230DF136090F
:10415000CDE9022304E0DDE900230DF1360915E085
:10416000DDE9022313433AD0DDE902010A220023EC
:1041700004F0B0FADDE90201303209F8012D002324
:104180000A2204F0A7FACDE90201E9E752EA0301A5
:1041900025D002F00701303109F8011DD10841EAAC
:1041A0004371D8080A460346F0E74C4B14F4804F9D
:1041B0000DF136094A4918BF1946DDE9002352EAD4
:1041C00003000CD002F00F00085C4FEA131E09F840
:1041D000010D100940EA037002467346EFE70DF146
:1041E0003603C9EB030302E00DF136090023029305
:1041F000029B41F60802BB4238BFFF1A41F2080396
:1042000002EA040228BF00279A4202D1002F08BF09
:10421000012741F60801029B8A4203EB07000DD1FA
:10422000DDE90023134309D02F4A304914F4804FAD
:104230004FF0020A0CBF0B46134602E04FF0000A93
:104240005346079A9AB1059A52B904F00602022A17
:104250000AD0062A264A04BF4FF0010A134606E098
:104260004FF0010A234B02E0234B4FF0010A0AEB07
:10427000000290458CBFC2EB08084FF0000814F014
:10428000010200920DD1E10602D54744904608E0B4
:10429000414630460593FFF789FD059B002840F015
:1042A000E080BAF1000F07D03468524619467068B2
:1042B000A047002840F0D580029B03EB0B04BB46CF
:1042C000BBF1100F33681BD910220C497068984756
:1042D000002840F0C680ABF1100BF1E707982000F2
:1042E000189820003A9820002C9820002998200047
:1042F000319820002F982000009720004C98200033
:10430000BBF1000F06D05A466549706898470028EF
:1043100040F0A7803368029A494670685444984731
:10432000002840F09E80009B3C44002B39D032E0B6
:10433000D5F800900435B9F1000F0AD0CA469AF8B2
:1043400000300AF101020BB19246F8E7C9EB0A0A04
:1043500003E0DFF850914FF0060A002F02DBBA4568
:1043600028BFBA46D0458CBFCAEB08084FF00008FA
:1043700014F0010705D141463046FFF717FD00282C
:104380006FD133685246494670689847002868D113
:104390000AEB0B042FB141463046FFF707FD00281A
:1043A0005FD108EB040B23E550EA010E0ED000F0BC
:1043B0000F0E12F80EE04FEA111C03F801ED4FEA60
:1043C000101E4EEA017E70466146EDE7FF1A02BFFD
:1043D0003022012703F8012C07F1030708BF03F17E
:1043E000FF337822B84503F8012C4FF0300203F870
:1043F000022C88BFC7EB08084FF0230298BF4FF08C
:10440000000814F00104A3F1030903F8032C04D1FC
:1044100041463046FFF7CAFC18BB33683A46494666
:1044200070689847E8B95F4424B141463046FFF7C9
:10443000BDFCB0B908EB070BDAE4B8F1010F2B684B
:104440008CBF08F1FF384FF0000814F0010405F1AB
:1044500004058DF8203008D141463046FFF7A6FC10
:1044600010B14FF0FF3017E0C3443368012208A9B0
:10447000706898470028F4D108F101072CB1414633
:104480003046FFF793FC0028EBD1BB44B0E42B6827
:104490000435C3F800B0ABE40FB0BDE8F08F00BF47
:1044A0004C98200033982000F8B50388064615463E
:1044B0002BB14A2B15D0002303800320F8BD1748E9
:1044C00004F02BFD04462CB1A168201D04F0CBFCA8
:1044D0002468F8E7124B01221A704A233380012026
:1044E000F8BD8829FBD10D4804F017FD0446002CC7
:1044F000F3D0231D9D420ED12146084804F017FD3C
:10450000084B62691F681A60A2691D460AB1E0691A
:1045100090472F60E1E72468E9E700BF8842002068
:10452000285200209442002010B5064B0024064873
:104530001C7004F0EFFC2146BDE81040034800F079
:104540003FBA00BF28520020884200207840002057
:1045500070B50446E3610B4B049D1B786561A26155
:1045600043B1094D094B2E68201D2B6004F07BFCE4
:104570002E6000E0A1602146BDE87040044804F0D0
:10458000E9BC00BF2852002094420020784000205F
:104590008842002013B5034C24680094FFF7D8FF2D
:1045A00002B010BD9442002070B5094B05461B783F
:1045B0003BB1084C084B26680430236004F05CFCD7
:1045C00026602946BDE87040044804F0C3BC00BF23
:1045D0002852002094420020784000208842002089
:1045E00010B5084B04461B781BB1043000F0B4F83A
:1045F00001E0C36003612146BDE81040024804F0B9
:1046000096BC00BF285200208842002010B50E4CF6
:10461000236813B90D4A136010BDFEF70BF921682A
:1046200091E80C001A44131A8A6842B192E8120009
:104630002144091A8B4228BF0B469268F5E71844BB
:10464000024B186010BD00BF8C4200209042002039
:10465000014800F0CDB900BF884000202DE9F843A3
:104660000388054633B1592B0BD000230380032068
:10467000BDE8F883234A136059232B800120BDE84D
:10468000F883872924D08229F6D11E4F4FF00008E5
:10469000B9463C680026002CEED0204604F02CFCE5
:1046A00098B122468821E06800F062F958B9E060CC
:1046B000A3680EB1B36001E0C9F80030C4F8088007
:1046C000FFF7A4FFE5E7FFF7C3FF2646A468E2E78C
:1046D0000C4900200B681BB90028CDD00B60CBE73C
:1046E000DC68A24202D19B680120F4E700B10B60B4
:1046F00099680029C0D0C86882420ABF89680B4601
:104700009960F5E78C42002010B50446FFF7A0FF42
:10471000E3680B4A4BB113683BB1A34203D1094A8A
:104720001268DA6007E09B68F6E7064B1B68E360F7
:1047300013681460A360BDE81040FFF767BF00BFB7
:104740008C42002094420020024B1868003018BFB1
:10475000012070478C42002010B50B4A04461368B4
:10476000834206D18368136008E09A68944203D0BC
:104770001346002BF9D103E0A2689A60FFF746FFC9
:104780000023A360E36010BD8C42002010B50446F6
:10479000FEF75AF894E80C001344C01A024B9842F2
:1047A0008CBF0020012010BDFEFFFF7F38B583685D
:1047B00004460D469BB10A4804600220A07304F130
:1047C0000C0098470238012801D9832D05D12146D4
:1047D0002046BDE8384000F005B80123A37338BD7A
:1047E000944200202DE9F8431C4A04461568894686
:1047F0002B4690461A4E3768A34204D00BB11B6873
:10480000FAE7BDE8F88334B3A37BABB10023A3730D
:1048100045B1A54204D022468721284604F052FB28
:104820002D68F5E7A3683BB14C4505D034602A46B6
:10483000832104F10C009847D8F800309C4203D142
:104840002268064B05E0134623B11A689442FAD158
:1048500022681A603760BDE8F88300BF98420020E4
:1048600094420020002370B51D46094A01261370AA
:10487000084A146854B1E37B33B1A673E573002290
:1048800082212046FFF792FF2468F3E770BD00BF46
:104890002B52002098420020024B1878421C1A70BC
:1048A000704700BF2C520020064B8A221A70064A1D
:1048B00000231370054A1370054A1360054A1360FC
:1048C000704700BF2C520020295200202A5200209D
:1048D00098420020944200202DE9F0411A4D2B7897
:1048E0000BB1FFF7BFFF194C22783AB3184E0C21D9
:1048F0003378184F5943781817F801800133476807
:10490000806803F01F03013A3370227068B9124BBC
:104910001E689EB12B780BB1FFF7A4FF30463A46D4
:10492000414604F0CFFA3668F3E7B8F1810F04BFCF
:10493000012383733A46414604F0C4FA2B78207869
:104940001844BDE8F08100BF2B5200202A520020FD
:10495000295200209C42002098420020024A034B2A
:1049600010781B78184470472A5200202B520020E0
:10497000F0B50B4E3378202B0FD00A4C0C25247841
:10498000094F1C4404F01F046C4301333D19A86017
:1049900039556A6033700020F0BD0120F0BD00BFC2
:1049A0002A520020295200209C42002038B5034C96
:1049B000256804F087FA256038BD00BF94420020C6
:1049C00030B40A4C0A4625682B4683420CD00BB102
:1049D0001B68FAE740B10121056081732060838183
:1049E000812130BCFFF7E2BF30BC70479842002005
:1049F00038B1837B013B012B9FBF024A0123C37364
:104A0000137070472B520020024610B506485360C1
:104A10000468029B11609360026014B90846FDF7B8
:104A200057FF002010BD00BF1C44002010B5084CEB
:104A3000206858B100232360816843689847236841
:104A400023B1BDE810401868FDF742BF10BD00BF9C
:104A50001C44002070B505880446672D09D0792DC7
:104A600030D0002D34D1FFF717FF1C4B18701C4BB2
:104A70001D601B4D2E461B4804F0EDFA431C01D16E
:104A800067231DE00A28164A07D02B687E2BF2DC2C
:104A90005A1C3260144AD054EDE713680025591CA3
:104AA0001160114A2846D5540C4B1978FFF760FF66
:104AB0000E4B2A4685211868FFF75AFF20B9792343
:104AC000238009E0852907D1054B00221A60D0E731
:104AD00000230380032070BD012070BD38590020E1
:104AE0002844002020440020AE52002094420020A0
:104AF0000D2810B5014615D00B4C23782BB90B4867
:104B000004F096FA48B9012306E00A2805D10748BF
:104B100004F08EFA08B1002323700548FFF768FF00
:104B2000012010BD002010BDAD5200202044002007
:104B30009840002008B505490548802204F071FA24
:104B4000BDE8084000210348FFF73ABF2D5200207E
:104B500020440020984000202DE9F04106880546B9
:104B6000772E31D07E2E40D0002E4ED12B4CFFF729
:104B700093FE266026462A4B2A4FDFF8B080187035
:104B8000236857F823204AB1002108F803109368DE
:104B900080209847336801333360F1E7224A13706D
:104BA000772320E0214AD256002A12DB1B4A1368E1
:104BB00001331360194B1C4A1B6812789A42F1DCCE
:104BC0001B4B1B68002BEBD0194A00231360134AC0
:104BD000EFE7144A002052F82320114B1978FFF711
:104BE000C7FE30B97E232B8014E00D4B1B788B421F
:104BF00010D10A4B0D491A688B5C03F07F038B546C
:104C00000B4A136801331360D0E7002303800320AD
:104C1000BDE8F0810120BDE8F08100BF2C440020F8
:104C200039590020404000202E53002033590020E5
:104C30003044002010B40A4B0A491A7800239342EA
:104C400003DA51F82340A04208D107490748CA5C5B
:104C500062F07F02CA5410BCFFF7CABE0133EEE710
:104C60002E5300204040002033590020A84000204F
:104C7000054A136843F004031360044B1B689069F2
:104C800043EA002080B2704700700D4014700D4060
:104C900010B5184A136823F00C031360164B012259
:104CA0001A601A68012AFCD1144B08221A60E32208
:104CB000C3F8142203F505731946114A1368DB077C
:104CC000FCD5104C102000232268013802F00102AC
:104CD00043EA02034FEA43039BB2F5D1002BF1D024
:104CE000094A180A03F0FE0310601360EF230B60FB
:104CF00010BD00BF00700D40A8200D402486084064
:104D0000648608409C86084014700D402DE9FF47DA
:104D1000224C234D04F108030FCB8DE80F002B78B4
:104D20006F4694F80780BBB11E493A22A2710A88E7
:104D3000D21A92B20A80A2F128010812207103F15E
:104D400028002044C3F1040361712C3A011D18446A
:104D500003F0F8FE00232B70134804F0DEF806463B
:104D6000DFF840A09EB1D6F80490B9F1000F09D049
:104D7000BAF800302A782C3B22449BB238324146A4
:104D80003846C847304604F001F90646EAE7054BC5
:104D90002E701E8004B0BDE8F08700BFF4540020E0
:104DA00052530020E054002034440020F8B52C4B2E
:104DB0002C4C1B7904F11806E371237E04F10805DD
:104DC000FF2B08D195E80F0086E80F0031462846F2
:104DD00000F0B2FA1BE02F46B646234A3B4603CB0F
:104DE0007345106051601F4602F10802F6D196E843
:104DF0000F0085E80F001C4B1C4D03F110062A46DE
:104E000018685968083303C2B3421546F7D1184DE4
:104E10002B78BBB117493A22A2710A88D21A92B2F2
:104E20000A80A2F128010812207103F12800204411
:104E3000C3F1040361712C3A011D184403F082FE92
:104E400000232B702B7881222833E518E2540023AD
:104E50006B706B8004F085F9C0436880F8BD00BFBB
:104E60009C530020F45400208A4E00200C55002052
:104E700052530020E054002038B504460B480D463C
:104E800004F04BF850B10379A34204D143799D4219
:104E900006D0FF2B04D004F079F8F3E7012038BDE9
:104EA0008368002BFAD09847002038BD3844002092
:104EB0000146014804F04EB8384400202DE9F74F70
:104EC0004B4E81463378884692464A4C43B128334C
:104ED000E35C3A2B0BD1484A00231380337083E004
:104EE000A3793A2B03D194F92830002BF3DA434D00
:104EF000434A2F4693460023337005F1100E2B468C
:104F000003CB7345106051601D4602F10802F6D1D3
:104F1000394D2B8830339BB2B3F5A06F88BF4FF467
:104F2000A0632B802A88334B303A194603F13000B6
:104F3000019303F007FE60222270002262706280FB
:104F40003A22A2712F4A1279E27122898AB9019B11
:104F50005A8972B99A8962B9DA8952B91A8A42B9F8
:104F60005A8A32B99A8A22B9DB8A13B900232B8074
:104F70003AE0DFF894E09EE80F0087E80F009BF826
:104F80000030FF2B0AD1B9F1040FEFD1B8F1020FB5
:104F9000ECD11B49704600F0CFF90AE0184B03F141
:104FA0001007724618685968083303C2BB42964618
:104FB000F7D13778504607F12803E21804F8039038
:104FC00082F8018004F0D9F82B882C37283BE05177
:104FD0001A1263713378227128331C4400236380D2
:104FE00004F0BFF8C043608003B0BDE8F08F00BF9D
:104FF00052530020F4540020E05400200C550020AF
:105000008A4E00209C530020FC54002008B5044820
:10501000FFF74EFFBDE808400248FFF749BF00BF59
:10502000B8400020C4400020F7B5174C009103465B
:1050300005460F461646019420220321134804F02A
:105040001AF801281CD1236805F1100218702846AF
:105050002368023350F8041B904243F8041BF9D133
:105060002068877446B13146143003F01CFF064BAC
:1050700000221B681A7701E001230377206800E013
:10508000002003B0F0BD00BF404400206054002069
:1050900013B5074C03468DE8120020220321054872
:1050A00003F0E9FF08B9206800E0002002B010BD5D
:1050B0004044002060540020F8B507460B4B0C4DCF
:1050C00003F160062B602C68B4420BD2237833B115
:1050D000A27C3946D208A01C03F08CFC20B12034FD
:1050E0002C60F0E70020F8BD0120F8BD60540020DE
:1050F0004044002013B5084C8023009301940346DC
:1051000020220321054803F0B6FF08B9206800E01B
:10511000002002B010BD00BF44440020B453002062
:1051200030B548F2FE040C4B0C4A03F160011360E9
:1051300013688B420CD21D783DB1451C02D09D7C7A
:10514000854202D15D88A54203D020331360EFE78A
:105150000023184630BD00BFB45300204444002053
:1051600037B5104D80230093044603460195122263
:1051700004210D4803F07FFF01282B460ED12A6839
:1051800004F11001107020462A68023250F8044BD6
:10519000884242F8044BF9D1186800E0002003B0BF
:1051A00030BD00BF3C44002014540020F7B5214C12
:1051B00080230093054603460E461746019420229D
:1051C00003211D4803F057FF012830D12A462368E8
:1051D00005F1100118702368023352F8040B8A425B
:1051E00043F8040BF9D12068C77416B9012303757D
:1051F00005E0002303753146183003F054FE2368A0
:105200000E480121997402234370FF22002302708B
:1052100043808380C38003818372C17202736B7B7E
:105220004373EB89C381FFF79BFF206800E00020F8
:1052300003B0F0BD44440020B45300209A4E002037
:1052400013B5084C802300930194034612220421D5
:10525000054803F010FF08B9206800E0002002B004
:1052600010BD00BF3C4400201454002038B5054652
:10527000C8B10D48022200244270FF230122C272ED
:1052800044808480C4800481847203730370EB7B48
:1052900043732B8AC381FFF7D3FF044A106008B120
:1052A00003F011FF2C7038BD9A4E00203C440020C2
:1052B00070B51C4C1C4B2646236003F1600520682A
:1052C000A8420ED2037843B1037D33B91830FFF7FB
:1052D0005DFA10B13068FFF7C9FF236820332360FF
:1052E000EDE7124C00F08AFA2646114B236003F1D9
:1052F00060052068A8420ED2037843B1037F33B91A
:105300001430FFF743FA10B1306803F0D8FE236879
:1053100020332360EDE701F037FABDE8704005481F
:1053200003F0AABD44440020B453002040440020B0
:1053300060540020C05400202DE9F84F48F2FE03CD
:105340000A8805469A420F4623D00A78FF2A20D0C1
:105350001C490024A04689469B461B4A0A6002F16C
:10536000600AD9F80060564517D233786BB1B37C28
:10537000012B0AD173885B4507D0B11C384603F076
:10538000AFFE80459CBF344680462036C9F8006099
:10539000E7E70120FFF7C4FE04464CB92C806C807F
:1053A000AC80EC802C816C81AC81EC81BDE8F88F05
:1053B000A31C123453F8042BA34245F8042BF9D153
:1053C000BDE8F88F44440020B453002010B500F02D
:1053D000FDF978B90A4C2378022B0BD801F0C4FEF2
:1053E00023784FF40071013323700648BDE8104064
:1053F00003F039BD0348BDE81040FFF7ADB900BF69
:105400002F530020D054002070B5094EB0684508D5
:10541000FFF72EFC0446FFF72BFC2402B268A4B26F
:105420002044B0FBF2F302FB1300284470BD00BF20
:105430009C53002070B52A4C01F03CF900F08AF82A
:1054400060220021274803F0E1FB0021C022204612
:1054500003F0DCFB244B20221A70244B18221A7014
:105460004FF4A0632360224B40262671A360FFF710
:10547000CBFF42F21073236148F2FE030025E06087
:1054800025751C4C2A463146204623806580A58020
:10549000E580FFF7C9FD2046174903F018FE2946AD
:1054A00001222046FFF782FE40F2FF2320462380A0
:1054B0004FF48073E3816580A580E5802581658157
:1054C000A581FFF74DFEFFF7D3FB00F07F010B48EE
:1054D00003F0C9FCBDE870400C21094803F0C3BCCF
:1054E0009C530020605400205D5400205C54002038
:1054F000C02709009A4E0020EC540020D054002010
:10550000C05400202DE9F84305460F480F46904649
:1055100003F003FD0446DFF8389094B1012D04D860
:105520000A4803F02CFD034601E0D9F8003042465A
:10553000394628466668B047204603F027FD0446F2
:10554000EBE7BDE8F88300BF144800208C4400203E
:105550008844002008B50B4803F01BFD0A4803F0FF
:10556000D9FC0A4B0A49186802F02EF9094803F0E1
:1055700010FD094803F0CEFCBDE80840074803F0E1
:10558000C9BC00BFF040002010450020EC400020C6
:1055900027912000D04000208C4400201448002097
:1055A00008B540B1044B4168186802F0DBF9BDE86A
:1055B000084003F0EEBD08BDEC400020014803F0B8
:1055C000ACBC00BF104500202DE9F0418046FFF73C
:1055D000F5FF002704463E469CB194F82450AF42A4
:1055E0000AD8EA0804F10801404603F003FA18B9A2
:1055F000802D08D02F462646204603F090FD044615
:10560000EAE76EB13446084803F087FC844207D0CD
:105610002146054803F08BFC2146034803F0A7FC14
:105620002046BDE8F08100BF1045002038B5044693
:1056300000283ED04368002B3BD001461D4803F0B4
:1056400076FC6368586803F068FC054630B143682F
:105650009C4207D0284603F099FCF6E704F10800C5
:1056600001F0C6FF63682946586803F060FC636870
:10567000586803F052FC28B9636859680E4B1868E3
:1056800002F05AF921460D4803F0A7FC29460C48C0
:1056900003F0A3FC0B4A20461368013B1360FFF79D
:1056A0007FFF04F108010246BDE838400320FFF700
:1056B00029BF38BD10450020EC400020F0400020FC
:1056C000FC4000208844002010B5044680B14068AA
:1056D00070B103F022FC20B14068FFF7A7FF6068BB
:1056E000F7E7044B2146BDE81040186802F024B9E2
:1056F00010BD00BFEC40002038B505460D4803F052
:105700000CFC0446A0B1AC420ED12146094803F07E
:105710000EFC2146084803F060FC221D1146BDE83E
:1057200038400120FFF7EEBE204603F02FFCE8E7EB
:1057300038BD00BF8C440020D040002038B505465D
:10574000084803F0EAFB044648B110222946201D10
:1057500003F050F918B1204603F018FCF3E7204697
:1057600038BD00BF8C440020F8B505460F46FFF752
:10577000E5FF044640B9134803F01BFC0446F0B1B2
:105780000146114803F0F3FB2B46261D05F1100ED0
:10579000324618685968083303C273451646F7D174
:1057A00037B1394604F1140003F07DFB002300E01B
:1057B000012323772A4629460020FFF7A3FE20462F
:1057C000F8BD00BFD04000208C44002038B50A4806
:1057D00003F0A3FB044600255CB1251D284600F01C
:1057E000AFFF08B1437C23B9204603F0CFFB04464A
:1057F000F2E7284638BD00BF8C44002010B50A48A7
:1058000003F08BFB044670B1237F43B904F114000D
:10581000FEF7BCFF18B12046FFF76EFFEFE720460A
:1058200003F0B4FBEEE710BD8C44002037B5124BFB
:10583000124D1C782B796A79C4EB032313449BB275
:10584000ADF80630BDF806302022184405F10801F5
:1058500080B203F06AFCBDF8062004F1280192B280
:10586000294403F062FC10B140BA80B201E04FF667
:10587000FF7003B030BD00BF52530020F45400202D
:10588000F8B5244924480E78244B06F12807391826
:105890004D780222ED001A7007350024954232DB64
:1058A000B91800EB010E415C012925D006D363290C
:1058B00006D19EF8011002310A4425E001321FE0B2
:1058C00001F0C001802904D0C02908D0402913D19B
:1058D00002E04CB11A7007E0CCB11A7017E004B1C5
:1058E0001A70037EFF2B12D032442832022104208A
:1058F000FFF7E4FA0220F8BD9EF8011002310A44D5
:10590000D2B20124CAE704B11A700020F8BD012008
:10591000F8BD00BF52530020F4540020585300201B
:10592000F0B5C578124A0D44EDB2D57083780F0AF0
:105930003B44DBB2937044789F42547006781670F3
:1059400005D9601CC0B2507008B901361670C9B2D2
:105950008D420CDA0133DBB2054993703BB94B78C9
:105960000133DBB24B7013B90B7801330B70F0BD10
:10597000E854002010B5094C0146236803F11400D7
:10598000FFF7CEFF064A23681178197551785975CB
:105990009178D2789975DA7510BD00BF90550020C6
:1059A000E854002008B5FFF745FDFFF72FFB01F095
:1059B00031FC002319460F4A22F813100133082B3B
:1059C000FAD1002319460C481A183033B3F5F07F8A
:1059D00082F82510F8D1094B4FF480621A80002319
:1059E000194607481A182033B3F5A07F1182F9D160
:1059F00008BD00BF7C57002094550020AA4E00200F
:105A000090570020F8B5104E3578DDB10F4F05F1F5
:105A100027033C88A34202DB00233B8011E00C4BB0
:105A2000A4F12802521B5919184603F08BF8641B85
:105A3000A4B23C80283C221200F8242C00F8234C0D
:105A400000233370F8BD00BF52530020E054002003
:105A50001C550020074A002332F81310814204D15C
:105A6000044A002122F8131070470133082BF3D1A8
:105A7000704700BF7C57002004282DE9F74FB14E36
:105A800000F0EB81B04DB14FB149B24A03283C68F8
:105A90000D60156015D194F8253003F00F03032B2A
:105AA00008D1A38B002B40F0E585AB4B08221A7080
:105AB00000F0D3BC022B40F0DD85002305F8073C45
:105AC0002CE302287AD1A54A00231370A44A33801C
:105AD0001380A44AD3780133DBB2D37063B99378CF
:105AE0000133DBB293703BB953780133DBB25370AF
:105AF00013B913780133137094F8253003F0FD02C5
:105B0000052A0DD194F826300133DBB2782B84F8C6
:105B1000263040F0AF85002384F8253000F0AABD80
:105B2000002B00F0A785A28B8B48002A3DD094F86B
:105B30002620511E84F82610002A40F09B8594F8F8
:105B40002720082A04D0591E01290AD8052A08D17D
:105B5000002384F825308023037001F015FD00F048
:105B60008ABC042A9CBF0321914003F00F0394BF19
:105B7000C9B230210132013B84F8261084F8272075
:105B8000072B00F27785DFE813F0C50208000A0052
:105B90002E0475052E0475052E040022BBE2042395
:105BA000037001F0F1FC00F088BC03F00F03032B3D
:105BB00040F060850823037000F04FBC052811D128
:105BC000694B1B681B8A002B00F054850C3D156047
:105BD000634A002313803B6033805F4B08220D60D3
:105BE0001A7038E115F83C3C3C3D03F0F003602BA3
:105BF00040F040852A796B7912023188D0188842AA
:105C000000F338852833134433802B7AFF2B00F0C0
:105C100031852B7EFF2B03D005F1080003F0BBFA82
:105C20005248FFF767FA60B1514A524B4B4F13602D
:105C3000514B0021397019709246994690469B4607
:105C400026E04A48FFF7FCFA0028EDD12B7EFF2B17
:105C500040F01085E8E721D93A2C00F08F8026D952
:105C60003B2C00F007853C2C65D199F80030980753
:105C700036D559065FD443F040038BF80030FFF768
:105C8000FFFD012800F0F6842DD3022800F0EE84F9
:105C9000DAF8002014782B2CDDD130E0062C00F04F
:105CA0001281112C00F08980002C44D103E02C2CAF
:105CB00000F0E0843FE099F80030DC073BD443F08B
:105CC00001038BF80030FFF7DBFD012800F0D284E0
:105CD000DBD23B7803F128022A44C8F8002008E010
:105CE00043F00203C9E73B7803F128022A44CAF8CB
:105CF00000205278083303EBC2033B70C8E799F8E1
:105D0000003003F0040000F0FF01A0B93A7843F03E
:105D100004038BF8003002F128032B44D87808B133
:105D20002A320AE0C8F800305B78083202EBC3027E
:105D30000A4B1A70ACE7521B01210420FFF7BEF892
:105D400000F094BCE0540020305500209055002015
:105D50008C550020E4540020805500205253002030
:105D60008C57002054530020885500200C550020EB
:105D700084550020FA5400205353002003F0F1F919
:105D80004FF6FF73984240F075843B782833E85C07
:105D900001F068FA3B782833EA18E85C5178FFF79D
:105DA0006BF8012801BF00239A4A338013703388AF
:105DB000002B00F05F8400F059BCFFF723FEEB8D51
:105DC000AC7173B9B5F82A80B8F1000F00F05284B5
:105DD000914F924D924B2F60B3F8289007F5A07722
:105DE0000BE003F0C4F94FF6FF73984240F0428491
:105DF000E8E7238A2BB920342C602C68BC42F8D306
:105E000015E09845F7D1638A0BB14B45F3D1236870
:105E10002BB963681BB9A3680BB9E3685BB11022A7
:105E20002146804802F0E6FD0028E4D103E000228C
:105E30000421012082E733887B4A303B33807B4B4F
:105E40007B491A6000230B607A49022008707A4966
:105E50000A607A4A138001F097FB784B1A88002A6F
:105E600000F0088402F130036D4C9BB23380283B74
:105E700019126371694B08321B6852BA2171197D7E
:105E8000A2850022E2851A8AE17122855A8A1121AF
:105E90006285A17104F118050FCB85E80F00294632
:105EA00004F10800FFF748FA604B04F13C021A6065
:105EB00003F05DF9C04380B208B1E085D0E34FF64E
:105EC000FF73E385CCE3FFF79DFDAC7103F04CF964
:105ED0004FF6FF739842DFF8488140F0CB83B8F863
:105EE0002A90B9F1000F00F0C583B8F828A0BAF1E4
:105EF000000F00F0BF83524CA34604F5F07394F8F2
:105F00002580B8F1000F0FD0228A4A450CD1628A51
:105F1000524509D1102221464248019302F06AFD00
:105F2000019B002800F0108130349C42E7D195F8A5
:105F3000353003F03F03022B08D1424A002332F8E8
:105F40001310494550D00133082BF8D195F835206E
:105F5000334B520700F18E83142283F835203C2204
:105F60003280502283F8342093F8332093F8314064
:105F700093F82F0083F82F2093F8322093F82E10F7
:105F800093F8307083F82E20013093F82D2083F899
:105F90002D4093F82C40C0B283F8321083F83120A2
:105FA00083F82C7083F8304083F8330060B90131F6
:105FB000C9B283F8321039B90132D2B283F8312034
:105FC00012B9621C83F830202B8D6A8D154C2A85FE
:105FD0006B8504F1100594E80F0085E80F00294651
:105FE0002046FFF7A9F926E300242246144B93F834
:105FF000251019B9302404FB02B42EE0072924D15E
:1060000014B393F8260094F82610884288BF1C46E3
:106010001BE000BF525300209057002088550020FD
:10602000F4540020FC540020245500208C550020FE
:106030009055002080550020E45400208C5700200B
:10604000945500207C5700201C4601320A2A03F197
:106050003003CCD1002C00F00D83B34B00271C6023
:10606000032384F8263084F82430042384F8233072
:10607000AE4B84F822700FCB84E80F00AC4B0120AC
:106080001A7884F8250022765A78A08362769A7866
:10609000DB78A276E37695F82C3084F827702375A8
:1060A00095F82D30A4F81090637595F82E30A4F86B
:1060B00012A0A37595F82F30E375FFF75BFC95F8F8
:1060C000343003F0F002502A24D91A093B46053A2D
:1060D0009200E91891F83C00E0B1012801D10133A8
:1060E00016E002280FD191F83D0004280BD191F859
:1060F0003E2091F83F3043EA0223402B28BF402343
:10610000E383238406E0E91891F83D1011B10B44B4
:106110009342DEDB1022874B83F83520854B93F8C2
:10612000352042F0020283F83520022283F83C2019
:10613000042283F83D20002283F83E20402283F889
:106140003F20328060222DE2774B95F835101C609D
:10615000794B11F0040F1870994603D084F825008C
:106160002022CDE1338808F00F08A3F12802714BFB
:10617000B8F1020F93F834304FEA1313A2EB830304
:106180009BB2338003D101F03F02122A05E0B8F13F
:10619000010F03D101F03F02022A16D00BB98B0781
:1061A00013D0AA8DA38A9A4204D1624BDA8DE38A76
:1061B0009A420AD0880740F1EE81B8F1010FA9D0C8
:1061C000B8F1020F40F0E781A8E7C9064DD5A18BD1
:1061D00000294AD004F11800FFF7A2FB574B95F8AD
:1061E000301093F800E0534A8E453ED192F83110BA
:1061F0005878884239D192F832C09978614534D1C3
:1062000092F83320DB7893422FD1E37694F827304D
:1062100084F818E06076A176F3B994F8243094F805
:10622000262094F822109B1AA3EBD103DBB258B2BC
:1062300000281944BCBF5B4258B294F82330C9B25D
:10624000A3EB93031A18D3B284F8233003EBD103E2
:1062500084F8221084F82430012389F8003094F85F
:10626000243084F826300023A38394F8252002F0FC
:106270000F03013B072B00F2FD81DFE813F008005C
:1062800025008F004501670181018C01370199F8D4
:106290000020294BD2070FD5032284F8252030880F
:1062A00040221A700022A283002800F0D3804222EC
:1062B0001A70FFF75FFBCDE095F8353003F03F0330
:1062C000022B40F0D78125E799F80030DB075AD53B
:1062D00095F8353003F03F03122B54D1154B93F84A
:1062E000343003F0F002502A31D91B09053B9B00E2
:1062F0000022A91891F83C0048B3012801D10132CD
:1063000023E002281CD191F83D00042818D191F80F
:106310003E2091F83F3043EA0223402B28BF402320
:10632000E383238413E000BF90550020FC54002039
:1063300054530020F454002080550020E8540020DD
:10634000A91891F83D1011B10A449A42D1DB0323F8
:1063500084F8253095F82C300120237595F82D30E0
:10636000637595F82E30A37595F82F30E375FFF718
:1063700001FB4223A74A89F800300023A38333801E
:106380003B70138069E0202389F8003001F0FCF8AD
:10639000A14B00221B6883F82520D7E595F83530FE
:1063A000D80725D5D10623D4A38B002B40F06281DA
:1063B0003088013080B2FFF7DDFA99F8003043F001
:1063C000100289F8002032881AB1944A43F012036F
:1063D000137001F0D9F80123A383082384F8253032
:1063E000002384F8273011228D4B83F83520D5E027
:1063F0009B0610D56B8F8B485BBA00689BB2034439
:10640000884895F83A7095F83B100360338841EA64
:1064100007215B1A3380308848B1D70607D499F832
:10642000003043F0020389F80030FFF7A3FA95F833
:10643000362095F8373003EB0223228C9BB293422F
:1064400002D8002B18BF1A4699F80030E28399074A
:1064500000F010816F4B00221A8001F095F86F4B0D
:106460001A786C4B02F0200000F0FF0128B10022E6
:106470001A8084F825201422B6E702F0100000F0FC
:10648000FF0540B119800123A383042384F825303C
:1064900084F82710A7E7198861B1D20748BFA58300
:1064A000A28B32B9E28B914288BF1A801B88A383EA
:1064B00000E01A80002384F827305B4B594A1B68A0
:1064C0001360544B1B882BB1A38B1BB13C3333801F
:1064D000182207E0514B1B789F0740F1CB803C23EB
:1064E000338010224E4B83F8352059E099F8003064
:1064F000DD0740F1BF80002384F82530474B102290
:106500001A7001F041F8B5E0308808B1FFF732FAAF
:1065100095F8353013F001030FD099F80030D80703
:1065200045BF072384F825300623002346BF84F89F
:106530002630A38384F8253016E099F80020D1078F
:106540001BD5052284F82520A38393E0308808B169
:10655000FFF710FA95F83530DA070ED5072384F8DF
:106560002530002384F826300120FFF703FA10239A
:1065700089F8003001F008F80DE033885BB979E064
:1065800099F80030DB0775D5072384F82530002300
:1065900084F826306EE0102385F835303C233380B4
:1065A0001F4B502283F83420237D1D4D85F8303059
:1065B000637D05F1180785F83130A37D85F8323009
:1065C000E37D85F83330237E85F82C30637E85F8B3
:1065D0002D30A37E85F82E30E37E85F82F30238A78
:1065E0002B85638A6B8594E80F0087E80F00394696
:1065F00005F10800FEF7A0FE94F8253003F0100323
:1066000003F0FF0293B1002385F8373085F8363068
:1066100011E000BF8C5700209055002080550020CD
:10662000F45400208C550020E4540020402385F8C9
:10663000362085F83730154C0623A371144B1B798F
:10664000E3713388283B1A1263710023227184F8A6
:106650003B3084F83A30238702F086FDC043208720
:106660000A4B60221A7000225A705A80094B00228D
:106670001A7007E0084A00231370084A3380137029
:10668000044A137003B0BDE8F08F00BFF45400203B
:106690009C5300208055002052530020535300206B
:1066A000014618B1024B186801F046B9704700BFA7
:1066B0000841002008B501F0ABFA034B0349186804
:1066C000BDE8084001F080B808410020A166200024
:1066D000F8B50546154817461E469DF81820079B35
:1066E000006801F0C5F80446F0B12B46054603F1F9
:1066F000100E2A4618685968083303C273451546B8
:10670000F7D1012E0CBF4FF41671002104F11400D3
:106710002774667402F0C7FB002104F11C0002F02C
:10672000C2FB002384F824302046F8BD0841002035
:10673000024B0146186801F015B900BF084100205E
:1067400070B50C4D0646286801F076F8044666B927
:10675000002070BD10223146204602F04BF938B1BE
:106760002146286801F044F80446002CF2D1EFE7F6
:10677000204670BD08410020024B0146186802F017
:1067800075BD00BF084100202DE9F843374D384E54
:10679000286801F051F80446364F4FF00008002CED
:1067A00062D0637C042B59D8DFE803F00C03582235
:1067B0002F0004F11400FDF7E9FF00284ED002235A
:1067C00063744BE094F82430022B2AD804F11C099E
:1067D0004846FDF7DBFF002840D0318800293DD135
:1067E00094F824302246013384F8243008462BE004
:1067F00004F11400FDF7CAFF80B30423637484F826
:106800002480002104F11C0026E094F82430022B9F
:106810000BD92046FEF792FF18B1037F0BB9FEF7A4
:106820006BFF2046FFF73CFF18E004F11C094846C7
:10683000FDF7ACFF90B1308880B92246214694F82C
:106840002430013384F8243000F0EAFB39694FF436
:106850007A73B1FBF3F1484602F025FB2146286824
:1068600000F0C6FF04469AE7BDE8F883084100201F
:10687000E05400209C5300200223074A017043701B
:106880001368C0F802305368C0F806300023C0F81F
:106890000A30C381704700BFEC54002050B1064B52
:1068A0001B6833B1024653F8020F596803C2012036
:1068B00070471846704700BFA44A00202DE9F04FEA
:1068C000B04C87B0E379B04EFF2BDFF8D89240F0A0
:1068D000968148F2FE0322899A4240F090813378F3
:1068E000E21892F82920002A40F089812C331A19E5
:1068F0001B5D0BB1A5490B71506870B1A34DAF681A
:1069000002F03BFC874208D033782344186B02F036
:1069100034FCA860FEF778FDE86033782344586BB8
:1069200018B102F02AFC994B1861994D994FA8466D
:106930000C233B70337803F12C023B781344B9F8F5
:106940000020934280F23881E1184A78002A00F052
:106950005681E25C032A53D0052A4BD0012A40F02D
:106960000781DFF844A28C480392CAF80010FFF7B1
:10697000E7FEDFF838B20290CBF8000004A8FFF77A
:106980008DFF002800F03B81029B039A53B90193CD
:106990000523009304A902237F48FFF799FECBF853
:1069A0000000E5E01846FFF7C3FE0346002800F0AC
:1069B0002681DBF80020517C09B902215174DAF8F4
:1069C0000000194608220230029302F013F8029BDD
:1069D00058B1012204A9184600F0D6FF002800F0A3
:1069E0000E81DBF8003002225A74DBF800300122FD
:1069F0001A74BDE0486802F0C0FB644B1860B7E051
:106A00004868296002F0B9FB2B688246986802F05A
:106A1000B4FB8245C0F0AC8048F2FE032868028ACD
:106A20009A4200F0A58090F90330002B34DA817887
:106A30001030FEF72DFBDFF878B10246CBF80000EE
:106A40002B6888B9586838B3411C03F1100A99784B
:106A500004D0029102F091FB024602995046FEF7E3
:106A6000E3FACBF8000017E05B6823B1591C05D1AD
:106A70000123037710E002F022FB0DE0029018469C
:106A800002F07BFB029A014602F1140002F00BFABD
:106A9000DBF8003000221A77D8F80030DA78500698
:106AA00066D55A68002A63D09A78402A60D1DFF808
:106AB000F0E003F1200C10331A4603CA6245CEF809
:106AC0000000CEF8041013460EF1080EF4D133493D
:106AD000334802F0FCFA3248FEF70CFBDFF8D4A092
:106AE0000346CAF8000080B3C27C012A2DD1D8F831
:106AF00000104868411C26D002F03FFBB0F5E15F72
:106B00000BD9DAF80000D8F8003000F1180B5868FB
:106B100002F033FB0146584610E02B68586802F03B
:106B20002CFB8346DAF80000183002F0C3F98345E5
:106B3000E7D8DAF800004FF4E151183002F0B3F969
:106B4000DAF8003000221A7512E0D8F800305868E0
:106B500002F013FB013002D10122002105E02B6875
:106B6000586802F00AFB014601220D48FEF71EFBA1
:106B700033783A782C33134423445B7802EBC30216
:106B80003A70D7E6F4540020525300209C53002062
:106B9000984A002059530020FC540020EC54002057
:106BA000AC4E0020E0540020A44A0020A04A00205F
:106BB0009C4A0020A84A00201448FEF7BFFD144B51
:106BC00005461B782C331C446388ABB1114B1B6802
:106BD0000BB101221A74608835B902F0CBFA014674
:106BE0000A48FEF7C1FD0AE002F0C4FA014605F1C9
:106BF000140002F058F902E008B1FEF77DFD002311
:106C0000A9F80030337007B0BDE8F08FFC540020C5
:106C100052530020A04A00202DE9F04F644C87B069
:106C2000E379644EFF2BDFF8A48140F0BA8031781D
:106C3000631893F82930002B40F0B3802C3101EB1E
:106C4000040A9AF80430FF2B00F0AB800F5D07F0C8
:106C5000400303F0FF0201921BB1237EFF2B00F0E3
:106C6000A080B8F800000022029096461046524DCF
:106C7000DFF848C114232B70CCF800200095CDF824
:106C80000CC0029D03EB0109A9451CDA04EB090BBA
:106C90009BF801C0BCF1000F09D1BEF1000F01D07B
:106CA00046490860002A7CD0009A137079E014F8F5
:106CB000092003EBCC03022A04BF58464FF0010E13
:106CC000DBB20122DDE7BEF1000F01D03B490860D5
:106CD0000AB1009A13700AF10400FEF70BFA384B60
:106CE000186000285DD1307820443030FFF728FD4F
:106CF000344C2060002854D0FFF71AFD814600284C
:106D00004FD0039BD3F800A0BAF1000F07D0014683
:106D100008220AF1020001F06DFEC0B200E0504608
:106D2000236827F07F055A7CEDB2A2B9BAF1000FB3
:106D300037D004A8FFF7B2FD002832D0012204A901
:106D4000484600F021FE60B3019B43BB1D4B02226D
:106D50001B685A7423E0B90609D418B923681B7C50
:106D6000B3B91CE0012A1CD102225A7419E0BAF10D
:106D7000000FF3D00028F1D004A8FFF78FFD80B1F9
:106D8000012204A9484600F0FFFD0028E6D108E0F2
:106D90002DB90D48FEF7D2FC08B1FEF7ADFC236813
:106DA0001D740023A8F80030337007B0BDE8F08FE1
:106DB000F45400205253002059530020A44A0020CC
:106DC000A84A0020A04A0020FC540020E0540020E3
:106DD0002DE9F04F874C85B0E379874EFF2BDFF824
:106DE000389240F0FF803378E21892F83020FF2A82
:106DF00000F0F880234493F82920002A40F0F28024
:106E00007E4B254698467E4F1A60DFF810A214226A
:106E10003A7030783B782C30B9F800200344934224
:106E200057DAE2185178002900F0DC80E35C012B8E
:106E300045D12B89C8F800207BB96B896BB9AB8928
:106E40005BB9EB894BB92B8A3BB96B8A2BB9AB8AFF
:106E50001BB9E38A002B00F0C58002A8FFF71EFDD6
:106E60006848FFF76DFC0246CAF8000040B90523E8
:106E70000190009302A902236248FFF729FC1EE05B
:106E8000FFF756FC8346002800F0AC80D8F80000DD
:106E900008225946023001F0ADFD50B1012202A98D
:106EA000584600F071FD002800F09C80DAF80030B0
:106EB00003E0DAF800305A7C0AB902225A743378B7
:106EC0003A782C33134423445B7802EBC3023A70C4
:106ED0009FE720440430FEF70DF94B4B454D1860F9
:106EE000984600287ED02B8973B96B8963B9AB892A
:106EF00053B9EB8943B92B8A33B96B8A23B9AB8A6F
:106F000013B9EB8A002B6DD03E4D2846FEF7F2F800
:106F10002F46002866D140F2FF23228BA5F1080EF0
:106F20009A4205F1100C19D16B8ABBB9AB8AABB987
:106F3000EB8A9BB92B8B8BB96B8BB3F5807F0DD113
:106F40002B7FFF2B0AD195E80F008CE80F003378D8
:106F5000734430330FCB85E80F0011E02B4D2846EA
:106F6000FEF7C8F8D8F8003083423BD197E80F000D
:106F700085E80F003378234430330FCB87E80F00C8
:106F80002821602261713A212270A17184F82C209D
:106F9000FF21D8F800200023E1711D4F88213370B4
:106FA00063706380237184F8293084F82810931C5F
:106FB00012323D4618685968083303C593422F467C
:106FC000F7D102211348FFF757FC337828331C44CC
:106FD0000023638002F0C5F8C04350236080A9F805
:106FE000003003E00023A9F80030337005B0BDE89D
:106FF000F08F00BFF454002052530020A44A002018
:1070000059530020FC540020A84A00200C550020B1
:107010002455002034550020E0540020A04A0020D0
:107020002DE9F0414C4C4D4F00233B706370638061
:107030003A238046A3716020FF232070E37199B941
:107040006183A183E183218484F82210022001213D
:107050002376607684F8231084F82430537B84F8F8
:107060002530D389E3840CE00B4604F1180601F1C6
:10707000100E354618685968083303C573452E4607
:10708000F7D1872384F82830002384F82930E3627D
:107090001346334E02F1100E35461868596808330E
:1070A00003C573452E46F7D10026267110462A4D9A
:1070B000FEF720F8002836D1B8F1000F0CD0434677
:1070C000083508F110062A4618685968083303C2C3
:1070D000B3421546F7D105E005F1180105F10800A6
:1070E000FEF72AF922891C4B1E4D8AB95A897AB9B2
:1070F0009A896AB9DA895AB91A8A4AB95A8A3AB956
:107100009A8A2AB9DB8A1BB92B803B70BDE8F081D3
:10711000387828234030637101212044FFF7ACFB0D
:1071200050232B800CE018236B710E4B40222E81D4
:107130006E81AE81EE812E826E82AE82EE821A80E8
:107140003B7828331C440023638002F00AF8C043D4
:107150006080BDE8F08100BFF4540020525300204D
:1071600024550020E054002070B5274C6023237084
:107170003A23A371FF23E37140F2FF230025238309
:107180004FF40073657065806583A583E58325846E
:107190006584A584E38404F1180104F10800FEF776
:1071A000CBF81A4A8526137803F1280108190E55E1
:1071B00045702189257103F130001546144A89B9BB
:1071C000618979B9A18969B9E18959B9218A49B92E
:1071D000618A39B9A18A29B9E18A19B90823637189
:1071E000108007E04033138018236371012120448D
:1071F000FFF742FB2B7828331C440023638001F007
:10720000B0FFC043608070BDF45400205253002092
:10721000E054002008B50548FDF74AFE0448FDF794
:1072200047FEBDE808400348FDF742BE2841002064
:10723000344100201C41002008B5054801F02EFE15
:1072400020B1BDE80840024801F01FBE08BD00BFE4
:10725000F04A0020024B1B6803B1184718467047DC
:10726000004B002007B5074B8DF80700186828B1C0
:10727000054B0DF107021978FDF798FB03B05DF897
:1072800004FB00BF745700203B59002008B50022C2
:1072900002210448FDF78AFB034A00231380034AB6
:1072A000137008BD40410020E054002052530020DC
:1072B00073B53D4D2B88002B74D0B3F5A06F56D815
:1072C0003A4B1A8B72B95A8B62B99A8B52B9DA8BD4
:1072D00042B91A8C32B95A8C22B99A8C12B9DA8C0A
:1072E000002A44D01B7EFF2B3ED03148FDF7E4FE40
:1072F000002841D02E4E3046FFF722FA044610BB3C
:107300000523019000930246034601463046FFF7ED
:10731000DFF9064658B32748FDF7ECFE3246014632
:1073200008B121462348FFF77BFE234B06F11C00E2
:1073300019694FF47A73B1FBF3F101F0B4FD012345
:1073400086F8243010E0437C8BB1022B08D1032354
:1073500043740521143001F0A6FD002384F8243085
:107360002046FFF7E5F900E00020FFF773FF134A1E
:1073700000232B80137015E00D48FEF725F9044615
:1073800028B9FEF723FA06460028B4D1EFE7FEF746
:1073900007F906460028AED1204602B0BDE870408D
:1073A000FEF744B902B070BDE0540020F454002050
:1073B0000C550020FC5400209C5300205253002008
:1073C0002DE9F04103880646144643B140F24B32A2
:1073D000934223D0002303800320BDE8F0811946A7
:1073E0005B4A22F833100133082BFAD1594B1A6843
:1073F000574B1A64FDF750FA574B1870FDF74CFACB
:10740000564B40211870564801F02DFDFEF7CAFA80
:1074100040F24B3333800120BDE8F081022917D1BF
:10742000504B1A881C46002AF2D04F4B9A79062AF4
:1074300005D193F835309B0701D5FFF7FDFE0120FC
:10744000FEF71AFB2388002BE2D0FFF731FFDFE7BE
:1074500016D859B9002CDBD0444B03201C60FEF732
:107460000BFBFFF725FFFFF7E7FED1E70129CFD19F
:10747000002CCDD03E4B05201C60FEF7FDFAE4E762
:10748000872936D08829C3D1354B9C421BD1204651
:1074900001F004FD0028BBD0364FDFF8D080002477
:1074A000E51995F825304BB12D4801F0EEFC02208E
:1074B000C8F80050FEF7E0FAFFF7FAFE3034B4F5F2
:1074C000C07FEDD1A4E72C4B9C4207D1204601F0B0
:1074D000E5FC18B1FDF77AFFFFF7EAFE274B9C4267
:1074E00096D1204601F0DAFC002891D0FDF7E0FEAD
:1074F000ABE7234D002705F1400855F8043C9C42BA
:1075000007D135F8080CFEF7A5FA25F8087C45F8F0
:10751000047C0835A845F0D1164B002203F5C07154
:10752000986A3033844204BF43F8082C03F80B2CCC
:107530008B42F5D1134B002103F5A07298692033DB
:10754000844208BF23F8101C9342F7D160E700BFC4
:10755000AC4A0020944200203A5900203B590020B8
:10756000F04A0020E0540020F45400209055002000
:107570008855002094550020D0540020C05400208D
:10758000B44A00209057002010B5144B1B6813B16B
:1075900003F1280402E0124A14681834114A1278E0
:1075A000520611D5104A188A0023995A814206D1F1
:1075B000D118496819B100232160636002E00833E3
:1075C000402BF2D1FFF738FE206830B1074B6268DC
:1075D0001978BDE81040FDF7E9B910BD90550020BD
:1075E0008855002080550020AC4A00203A590020E0
:1075F000F7B5054628B9224803B0BDE8F040FCF7CE
:10760000C5BB0388ABB94488ACB98388A3B9C48827
:107610008CB9038983B94FF6FF72418991420AD12F
:10762000837B427B017BC07B00901648FCF7AEFB5E
:1076300024E0002400E01C462646AB19AF5D5B78D1
:1076400003EB0727BFB24FB9002C09DB01D001348F
:1076500011E00D48FCF79AFB01240CE0002C04DC3F
:107660002EB13A20FCF7E2F901E04FF0FF34394641
:107670000648FCF78BFB0236102EDED103B0F0BDBE
:107680009A982000A9982000BC982000BF9820005C
:1076900008B5044801F07DFCBDE80840024801F04F
:1076A00078BC00BF5C4100205041002010B501466D
:1076B0000446094801F0A7FC68B12468B4F88010BA
:1076C000204600F0FFF904F1A00104F18200BDE8BA
:1076D000104000F027BA10BD5041002030B1054BDA
:1076E0009B68C01A044B8010584370474FF0FF301E
:1076F000704700BF68410020ABAAAAAA38B50D4D5B
:10770000002818BF05460C4801F007FC044668B184
:10771000211D284601F0C2FD20B12046BDE83840B9
:10772000FFF7DCBF204601F031FCEFE74FF0FF3000
:1077300038BD00BFC2982000144B002008B5024697
:1077400001F06DFD4AB1431C09D0064B1B5C10686B
:1077500043FA00F000F0010008BD104608BD00200B
:1077600008BD00BF825300202DE9F8430646DFF82C
:107770005490002459F824508DB1AF687FB1304641
:10778000FFF7ACFF0146284601F03FFD0146804669
:107790002846FFF7D3FF012801D14046B8470134FE
:1077A000082CE7D13046FFF799FF044B00221A540A
:1077B0003146BDE8F843024801F0B9BB82530020CE
:1077C000144B0020D84B002010B5074A1368072B34
:1077D0009FBF5C1C1460054A03609DBF816042F836
:1077E00023000120002010BDF84B0020D84B0020C2
:1077F000F8B505460C460F4E0C272146284601F0E9
:107800000EFD431C16BFB368002007FB003001F0DB
:10781000BDFBFFF763FF0146284601F0F6FC044676
:1078200028B101462846FFF789FF0028E5D0204609
:10783000F8BD00BF6841002038B505460B4801F08F
:107840006CFBFFF74BFF0146284601F0DEFC0446C7
:1078500001462846FFF772FF28B921462846BDE8B1
:107860003840FFF7C5BF204638BD00BF144B00208D
:107870002DE9F0472B4E0746002918BF0E4630462B
:10788000FFF73CFF0546013039D1274801F091FB55
:10789000044640BB254801F040FBA0460546DFF802
:1078A0009490DFF88CA0C5B12846FFF717FF19F8B0
:1078B00000306BB91AF8002022B1D10748BF01335C
:1078C0005210F9E70CB1434502DA43B12C46984611
:1078D000284601F05BFB0546E5E7FCB12546284656
:1078E000FFF742FF2C462146104801F033FB2046AB
:1078F000FFF7F4FE31460546201D01F0CAFC29467B
:10790000384601F082FC04467A68002101F07EF9D5
:10791000012322463946064801F08CFC2046BDE88A
:10792000F08700BFC298200068410020144B00205F
:10793000825300207253002070B50A4604460D465B
:1079400000230146054801F075FC064600232A463F
:107950002146034801F06EFC304670BD8253002082
:107960007253002008B501F05AFC431C07D0054BA8
:107970000C229B6802FB003010B1043008BD0020CF
:1079800008BD00BF6841002070B516460D46FFF7E0
:10799000B5FE421C04460ED02846FFF7AFFE431C3E
:1079A0000BD0844212D036B1094B0C209B6800FBEF
:1079B0000430FFF7D9FE002070BD054B0C229B68F8
:1079C00002FB04342B6863606B68A360012070BD08
:1079D00068410020014B1880704700BF7C51002097
:1079E00000487047FC4B0020014B1888704700BFCF
:1079F0007C510020034A044B10781B781844C0B215
:107A0000704700BF925300207E51002008B5FFF759
:107A1000F1FF014B184408BDFC4B0020F8B50C4B9E
:107A200007461C780B4B1E88A519802D0CDC2246BE
:107A3000094901F011F8FFF7E9FF3C4401463246DD
:107A4000204601F009F800E000252846F8BD00BFF7
:107A5000925300207C510020FC4B002008B5FFF71A
:107A6000C9FF024B1B88184480B208BD7C5100201E
:107A700038B5094D094C1E220021094801F0C6F80D
:107A80002946204601F005FC294604F10800BDE81E
:107A9000384001F0FEBB00BFC2982000045900200E
:107AA00014590020044A00231380044A1380044A16
:107AB0001370FFF7DDBF00BF7E5100207C51002016
:107AC0009253002038B50C460546FFF7EBFF802C9B
:107AD00028BF802422462946034800F0BDFF034BFF
